:020000040020DA
:20200000505F00208D2220006B78200069782000697820006978200069782000000000001B
:202020000000000000000000000000006978200069782000000000006978200011792000F3
:2020400023792000297920002F7920003579200000000000177920001D7920006978200005
:2020600069782000000000000000000000000000000000000000000069782000000000005E
:2020800000000000000000006978200069782000697820006978200069782000697820003A
:2020A000697820006978200069782000697820006978200069782000697820006978200018
:2020C0006978200069782000697820006978200069782000000000000000000000000000FB
:2020E000000000000000000000000000000000000000000000000000AD342000BD342000CE
:202100000000000000000000000000000000000000000000000000000000000000000000BF
:2021200000000000000000000000000000000000000000000000000000000000000000009F
:2021400000000000000000000000000000000000000000000000000000000000000000007F
:2021600000000000000000000000000000000000000000000000000000000000000000005F
:2021800000000000000000000000000000000000000000000000000000000000000000003F
:2021A00000000000000000000000000000000000000000000000000000000000000000001F
:2021C0000000000000000000000000000000000000000000000000000000000000000000FF
:2021E0000000000000000000000000000000000000000000000000000000000000000000DF
:202200000000000000000000000000000000000000000000000000000000000000000000BE
:2022200000000000000000000000000000000000000000000000000000000000000000009E
:2022400000000000000000000000000000000000000000000000000000000000000000007E
:20226000000000000000000000000000000000006978200091332000B5332000692E2000BA
:202280002D362000D12820006978200008B5094BFF221A600848094A4824E369121A08491D
:2022A00098470848084AA369121A0021984701F005FAFEE7B4200D4040400020CB4900209B
:2022C000D8892000D04900204E57002008B5002000F05CFB012000F059FB0D49002000F090
:2022E00029FC02F053F8002001F094FE01F076F800F0E2FD00F0FEFD0821064801F0AEF9B1
:2023000001F058FF62B6BDE80840042005F0B0BA494320003E57002073B51A4B1B68022B4F
:2023200008DD1949194A1A4802F0D2FE19491A4802F0CEFE6846082101F090F9174E9DF802
:2023400007309DF80650F46A43EA05254AF6CD310220A04729460320A04702210120A047BB
:20236000736B082269460B20984705F0BBFA00F0E1F900210A4801F00DFD022005F078FA31
:2023800002B070BDE844002065842000608420006A8420007984200036852000AC822000B1
:2023A0001C4500200022F0B51746154C0125FF2640FA02F3DB071ED504EB4203597814F8B7
:2023C000123061B1D908090301F1804103F0070301F5592105FA03F341F823700BE0D9080F
:2023E000090301F1804103F0070301F5592105FA03F341F823600132032AD9D1F0BD00BF8A
:202400009E842000F0B5104C00210125FF2640FA01F3DB0714D504EB41035F7814F81130BD
:20242000DA08120302F1804203F0070302F5592205FA03F317B142F8236001E042F8237059
:2024400001310329E3D1F0BD9E84200070B40E4E0022012516F812300C49D80800030C58C7
:2024600003F0070305FA03F324EA03040C5020390144086801320343032A0B60EAD170BCF3
:202480000720FFF7BFBF00BF9E84200020940D4038B5084B00221A6000F0D8F96FF4A37488
:2024A000054D241A2B681BB100F0D0F9C442F9D438BD00BF80A00D4020A00D40014BFF2206
:2024C0001A60704780A00D40064B186006480268054912F0100FFAD10A685207FCD5186887
:2024E000C0B27047088000400C800040F0B510B9002936D100E00AB90120F0BD29B1234CC7
:20250000234D002326462F4624E0204C204D03462746AE461E1A964201DB0020F0BD216086
:202520002E68F606FCD4DEF800607607FBD53E6803F8016BEEE7D5F800E01EF0100FFAD12F
:20254000D7F800E01EF0040FFAD0D6F800E000F803E001339342E0DA11F803E0C4F800E00D
:20256000E9E7002AC8D0094C09480B46264605465F1ABA42D1DD13F8017B27600768FF0676
:20258000FCD42F687F07FCD53768F1E7088000400C80004008B5194A136823F0100313603E
:2025A00052F8203C23F0100342F8203C52F81C3C23F0100342F81C3C52F8183C23F010039B
:2025C00042F8183C0E4B1A6810B142F0100201E022F010021A600B4A0120136843F01003D7
:2025E00013600422114600F045FB074B02221A600648BDE8084001F0DBBE00BF20A40D4036
:202600000CA40D4010A40D4000E100E06844002008B5074A0120136843F0100313600422A6
:20262000114600F027FB034B02221A6008BD00BF10A40D4000E100E0024A136823F0100312
:202640001360704710A40D40024B1868003018BF0120704740A00D4038B51F4A072113687D
:20266000022023F08003136052F8203CFF2443F0800342F8203C082200F0FCFA174B052182
:202680001C60012000F090FB002000F013FB144A144D136823F010031360134B1968A3F5BA
:2026A000607321F01001C3F88013116821F001011160D3F8802322F00102C3F880231C607D
:2026C00000F0C4F8A4F6CB54241A2B681BB900F0BDF8C442F9D438BD20B40D4000B20D4063
:2026E00020A40D4020A00D4000A40D40084A136823F00403136052F8203C43F0040342F857
:20270000203C044B04221A60034B01221A70704720C40D4010C00D40C4540020044B186867
:20272000C0F30720030904BF1030C0B2704700BF1C300D4008B5FFF7F1FF014B1B6808BDF8
:202740001C300D40F8B500F081F80F4B0024D3E900673A46B04238BF7A1C15460443C3E9DC
:202760000045DFF828E0DEE90001821B61EB070312196B41CEE9002301F024F918B1BDE84D
:20278000F84001F0A3B8F8BDD0490020D84900200D4B0E4AE0215A600D4A82F823100022F5
:2027A00007219A6019600B490B6843F001030B60094B1A60042243F80C2C012243F8082C1C
:2027C0000F22DA62704700BF10E000E047E8010000ED00E008200D400C000340034BD3E97B
:2027E0000023100A40EA0360704700BFD0490020034BD3E90023D00B40EA4340704700BF35
:20280000D8490020054B18601C3B1A6842F001021A601A68D207FCD4704700BF280003401B
:2028200010B5064C236823F001032360FFF78AFF236843F00103236010BD00BF10E000E03C
:20284000014B1868704700BFE0490020074B084A196804331B681268120442EA0323054ADD
:202860000B43106843EA0060704700BF40500D4048500D404C500D4010B50446104A136800
:20288000DB07FCD572B6FFF7E1FF231A062BD8BFC41D0C4B220E1A60C4F3074243F8042C35
:2028A000C4F3072243F8082CE2B243F80C2C62B6054B1C60054B4FF400321A6110BD00BF12
:2028C00050500D404C500D40E049002000E100E008B500F011FE094B00221A60084B4FF4D6
:2028E0000032C3F89021C3F89020BFF34F8FBFF36F8FBDE8084001F071BA00BFE04900207E
:2029000000E100E0064B1B681B075FBF054B186880F00800C0F3C00048BF0020704700BF8A
:2029200018C0004018D00040164A2C2303FB00234FF6BF7270B5DC680546236C62649BB2BB
:2029400013F050020DD0104EA369DB0608D456F825301BB12068C0B29847F5E72368F3E795
:2029600070BD13F4D06F0BD04FF440732363FF236360E36AE262E362236B43F00103236387
:2029800070BD00BFC0812000E449002001282DE9F74F064600F2BD802C2545435E4B5C19A6
:2029A00094F920909846B9F1000FC0F2B28094F92230002BC0F2AD80584800F013FE584A33
:2029C00058F805301168E5680B4313605168636894F921A00B4353609168A36894F82270F6
:2029E0000B4393600023C5F8C83F23690AEBC9021A6094F823305FFA87FB00939DF80030D7
:202A0000227D19465846019300F03EF9019B08221946584600F02EF97FB2424B3F039DF9EF
:202A20000020F9584FF0010E0EFA02F20A43FA504FEA093959F803100EFA0AF20A4349F8D3
:202A400003205022AA63AA6B94F8240042F4D062AA6302226A634FF440722A63A2696A6250
:202A6000E269AA627022EA6242B2002A1D4617DB94F925302C4943EAC2030B6094F8251039
:202A8000120353594CB20EFA04FE4EEA03035351002200F0EFF8254A136843F400431360BB
:202AA0002C2303FB068393F826904FFA89F4002C1CDB93F827705FFA89F95FFA87FA01221C
:202AC00051464846240300F0DFF87FB26359012202FA07F71F43082267515146484600F080
:202AE000C9F8124A136843F4804313602C2303FB0686F268136B43F00103136396F828308D
:202B00000122590903F01F0302FA03F3084A42F8213003B0BDE8F08FC081200005292000C6
:202B200028200D4020940D4004410D4030D0004000E100E001289CBF014B43F8201070477A
:202B4000E4490020012808D8044B2C2202FB0030C3689A699206FCD419607047C08120002E
:202B6000014B00221A60704700500D40014B08221A60704700500D40024BA0221A605022DA
:202B80001A60704700500D40014B024A9A60704700ED00E00020200038B5164D164C2B68CC
:202BA000012223F040032B602368062123F040032360032000F05EF82B68012223F08003D1
:202BC0002B602368072123F080032360032000F051F80A4A0A4B0B491A600A680A4B1340B1
:202BE000084A002BF9D113685901FCD413685B01FCD538BD20C40D4000C40D400101020006
:202C000000200D4004200D40000001012DE9F84304464FEA0438DFF83C9008F1804606F567
:202C2000592600F069FCD6F8187458F80930E50023FA05F447EA0400C0B2E4B2A840FFB20C
:202C4000AC4001F0BBFBC6F81C7448F80940BDE8F88300BF18970D40034A044B1A60044BCA
:202C6000803A1A60704700BF80400D40F0490020EC490020034B01EBC0011B6843F82120F5
:202C8000704700BFF0490020034B01EBC0011B6843F82120704700BFEC490020012806D899
:202CA000034901220B6802FA00F018430860704718200D402DE9F04F012887B005466BD804
:202CC00018235D43364E741994F811904FFA89FABAF1000F60DBFFF7E1FFA77C76594FF013
:202CE0000008FBB25FFA89F91946C6F80480227A4846C6F8C88F0593FFF7C6FFE57C227B13
:202D0000EBB20193237D019802939DF808B04FEA0A3A5946FFF7B8FF637D62680393A37D3E
:202D20009DF90CC004939DF910E001200EEBCC0111601C4A7FB25AF8021000FA07F70F4377
:202D40006DB24AF802702D039DF90810AF5800FA01F139434FEA0C3CA9505CF80210059BD3
:202D600000FA0EF008434CF80200194642464846FFF780FF424659460198FFF77BFF424628
:202D800004990398FFF776FF237C3361C7233360736843F00203736007B0BDE8F08F00BF60
:202DA0001882200020940D4038B50B4A0403A35801258D4023EA0503A3500022FFF75AFFA8
:202DC000064AA3582B43A35004F1804404F55924FF2344F8253038BD20940D4000940D408E
:202DE0000E2870B50BD1164B164E1C6844F002051D60356825F03F0343F001033360124E7D
:202E0000336823F0FF031A43114301430F4A316013681B06FCD50E4B0E4A1B6812680E28D2
:202E200003F0FC0343EA022308BF064A9BB204BF1560034A9BB208BF146018B270BD00BF27
:202E400034000144F486084008700D4000700D400C700D4010700D40024B1868B0FA80F038
:202E60004009704700B70840094B4FF4004210B5C3F89021C3F89020BFF34F8FBFF36F8F9E
:202E8000044C206818B100F09DFF0023236010BD00E100E0F4490020064A136843F0020371
:202EA0001360536843F002035360936843F002039360704748200D4007B50C4800F092FBDA
:202EC000FFF7EAFF0A4B1A6842F002021A6000220192019A0F2A02DC019A0132F8E71A68F6
:202EE00022F002021A6003B05DF804FB592E200054200D40064A136823F0020313605368C2
:202F000023F002035360936823F002039360704748200D402DE9F0410E464FEAD0084FEA8F
:202F2000083400F00701012704F180448F4016F00C0304F559246FEA070505D1D4F81034D7
:202F40002B40C4F810342DE0042B0DD1D4F804342B40C4F80434D4F808342B40C4F808341E
:202F6000D4F80C343B430EE0082B0FD1D4F804342B40C4F80434D4F808342B40C4F80834F8
:202F8000D4F80C342B40C4F80C340BE00C2B09D1D4F804342B40C4F80434D4F808343B43D9
:202FA000C4F8083416F0030204D0022A02D0012A03D104224046FFF75DFE16F0800605D1DE
:202FC000D4F810342B40C4F810340AE04EB1D4F810341F43C4F81074054A012303FA08F370
:202FE0001360D4F820341D40C4F82054BDE8F08100E100E0074B93F90020002A08DB064A7F
:20300000ED211160E32111601A7862F07F021A7001207047C8540020388808400B4A1368E1
:203020009907FCD4094B1B685B065EBF084BED221A60084B1B6813B1054BEF221A60064A2A
:203040000120137803F07F03137070474C860840388808402C860840C854002010B50A4BA3
:2030600004461B6813F03F0302D0FFF7D7FF012304EB840205492C3A0A600BB1FFF7BAFF7E
:20308000034B1C7010BD00BF488608403C860840CA49002070B52F4E336813F0400307D01D
:2030A0002D4D2B68DCB21B0604D52C4BED221A60002070BD042CF8D9023C8C42F5DCE4B2BA
:2030C000032C21D001190139032000F0A9F9631E23491B011943032000F0ACF9032000F097
:2030E000B3F9032000F0C8F9032000F0D1F90028FAD129681B4B4939C9B219702B681A4D09
:2031000018062B70D1D506E02B6803702B6843702B688370EDE749B289B2042001F0ACFAD3
:203120002978032001F07F0101F0A6FA0F4B1B786BB933685A060AD5064B1B681B0603D511
:203140000B4800F03FFE02E0044BED221A60204670BD00BF4C8608402888084038880840C9
:2031600002C0010CC6540020C5540020C7540020D8440020234B1870002838D0224A136889
:203180001B03FCD5214B1A6842F002021A601A6842F001021A601A681C495007FBD50A68F1
:2031A00022F001020A601968184A4907FBD4116841F002011160116841F0010111601A68D1
:2031C0005207FCD5124A136823F004031360D2F8A83123F00403C2F8A8310E4B4FF4005223
:2031E000C3F89020BFF34F8FBFF36F8F7047084A136843F004031360064B4FF400521A6192
:20320000704700BFC754002004200D40048808408C86084000E100E02DE9F0412E4F3D7824
:2032200015F0010555D12D4B01241C605C609C60A3F59323A3F51473F8221A600922C3F8A5
:203240009021152270331A6003F59B230B2203F59E731A60A3F59B23214EA3F5A6731C6011
:203260004023336033684FF07F0843F0200333601C4BD5221D60C3F848809A631A4B1878BE
:20328000FFF7ECFE336823F00C033360174BC3F80080174B4FF480421A61022000F0E0F895
:2032A0001449022000F0BCF8032000F0D9F81149032000F0ADF8104B1878FFF75BFF29464B
:2032C0000E4800F067FD3B78204623433B70BDE8F0810020BDE8F081C8540020A8200D407D
:2032E0002486084008860840CA4900209486084000E100E028880840C7540020D844002041
:2033000038B503880446CBB140F25D42934203D000230380032038BD194B18781A4628B10B
:203320001B7873B1174B1B7858060AD5822908D1137843B1134B1A78520614D440F25D439F
:203340002380012038BD01F04DF901F0DDF88021FFF7A0FE0028EDDD80B201F0B9F80A4B67
:20336000DB689847E6E700221A70084B1D68FFF755FEFFF751FFAB06E0D0FFF73BFEDDE7F7
:20338000C7540020C8540020E48220004886084008B5054B1B7813B9044800F013FD044B13
:2033A00000221A6008BD00BFC7540020D844002034880840064B07481A68042A1FBF0649F5
:2033C0000A7842F040020A7000221A6000F0FABC2C880840D8440020C854002010B5094CAD
:2033E00040220021204604F0A5F8074B01221A605C60064B4FF480425A604FF400425A6059
:2034000010BD00BF0040002004F00F4000E100E003289EBF014B0001195070470040002067
:2034200003289EBF024B03EB00104160704700BF0040002003289EBF024B03EB001081608E
:20344000704700BF00400020032806D8034901220B6802FA00F018430860704728F00F40DE
:20346000032806D8034901220B6802FA00F018430860704720F00F40032806D80349012224
:203480000B6802FA00F018430860704714F00F4003289FBF044B03EB0010806800F007004B
:2034A00088BF0020704700BF00400020024B4FF0FF321A60704700BF04F50F40014B01226B
:2034C0001A6070474CF00F40094A1368084913F4801FFAD1074B1A6822F480321A600A6818
:2034E000D203FCD41A6842F400321A60704700BF04200D4000200D4010B50A4C23689A0728
:203500000FD009490B68084A13F0806FFAD113685B01FCD5FFF784F9FFF7D6FF2368002364
:20352000236010BD58200D4004200D4038B5274B1C6814F03F0413D1254D55F8243023B110
:20354000984768B10134052CF7D1224D2B783BB1FFF776F90446FFF779F9201A092801D8EC
:2035600030BF38BD002CFBD01B4B1C481A6822F400321A600268194912F4801FFAD11A68A4
:2035800042F480321A600B68DB03FCD5FFF75EF9201A092803D8BDE83840FFF795BF632822
:2035A0000F4C02D92B78022B00D00123236000F0BFFB20B1FFF788FF0023236038BDFFF705
:2035C0003FF90028F6D02368CAE700BF48860840F8490020C954002000200D4004200D4038
:2035E00058200D400749002351F82320824207D01AB9044A42F8230070470133052BF3D10F
:20360000704700BFF8490020054B00221A60054A136943F004031361034B02221A707047BB
:2036200058200D4000ED00E0C9540020094B4FF4803210B5C3F89021C3F89020BFF34F8F46
:20364000BFF36F8F044C206818B100F0BBFB0023236010BD00E100E00C4A0020134B1B78D8
:203660002BB101F5201127310138114B16E0114A1278122AF5D1104A12784B2AF1D1084416
:203680008B420ADA03F52012032BD4BF2C3224321278013300F8012DF2E77047994204D0B7
:2036A00011F8012900F8012FF8E770472B002800270028002A0028002900280010B54F4C74
:2036C00004F002F9FFF764F804F0B5F900F0D6FA00214B4800F05EFB00F0E2F9FFF740FA4F
:2036E00004F08BF900F08EFBFEF7F0FD00F07EFE00F0ECFF00F088F92368022B07DD414A18
:203700004149424801F0E4FC414801F0E1FC2368022B09DD3C493B4A3C4801F0D9FC3D4BF3
:203720003D48196801F0D4FC2368022B09DD3649344A364801F0CCFC384B3948196801F07A
:20374000C7FC2368022B09DD2F492E4A2F4801F0BFFC344B3448196801F0BAFC2368022B1A
:2037600009DD2949274A294801F0B2FC4AF6CD312E4801F0ADFC2368022B08DD2249214AAF
:20378000224801F0A5FC0221294801F0A1FC2368022B09DD1C491B4A1C4801F099FC254B49
:2037A0002548198801F094FC2368022B07DD154A1549164801F08CFC204801F089FC2368E1
:2037C000022B02DD1E4800F041F82368022B02DD1C4801F07DFCFEF79FFD1B4804F003F905
:2037E000FFF7C4F900F062FA0446FFF7C5F914F0FF0FF7D104F072F8F4E700BFE8440020AE
:20380000EC440020DA842000658420006A842000DF84200010832000158520000083200030
:2038200024852000E48220002F8520003A85200054852000544F002074852000818520008B
:203840003E570020888820006483200038B5054608B1002409E00948BDE8384001F038BC2B
:20386000E30702D4064801F033FC295D0548013401F02EFC082CF3D138BD00BF9685200010
:20388000A5852000A785200010B50E4C236813B90D4A136010BDFEF7A1FF216891E80C00E2
:2038A0001A44131A8A6842B192E812002144091A8B4228BF0B469268F5E71844024B186088
:2038C00010BD00BF104A0020144A0020014800F079BA00BFEC4400202DE9F84303880546C2
:2038E00033B1592B0BD0002303800320BDE8F883234A136059232B800120BDE8F8838729A4
:2039000024D08229F6D11E4F4FF00008B9463C680026002CEED0204604F096F898B1224641
:203920008821E06800F00EFA58B9E060A3680EB1B36001E0C9F80030C4F80880FFF7A4FFC1
:20394000E5E7FFF7C3FF2646A468E2E70C4900200B681BB90028CDD00B60CBE7DC68A242DC
:2039600002D19B680120F4E700B10B6099680029C0D0C86882420ABF89680B469960F5E7CB
:20398000104A002010B50446FFF7A0FFE3680B4A4BB113683BB1A34203D1094A1268DA6046
:2039A00007E09B68F6E7064B1B68E36013681460A360BDE81040FFF767BF00BF104A0020ED
:2039C0001C4A0020024B1868003018BF01207047104A002010B50B4A04461368834206D1C0
:2039E0008368136008E09A68944203D01346002BF9D103E0A2689A60FFF746FF0023A36040
:203A0000E36010BD104A0020034A9179D379034A03EB0123138070473E570020544F002058
:203A2000F8B50388064615462BB14A2B15D0002303800320F8BD174804F021F804462CB160
:203A4000A168201D03F0DAFF2468F8E7124B01221A704A2333800120F8BD8829FBD10D4817
:203A600004F00DF80446002CF3D0231D9D420ED12146084804F00DF8084B62691F681A6047
:203A8000A2691D460AB1E06990472F60E1E72468E9E700BF184A0020CA5400201C4A002025
:203AA00010B5064B002406481C7003F0E5FF2146BDE81040034800F06DB900BFCA54002061
:203AC000184A0020FC44002070B50446E3610B4B049D1B786561A26143B1094D094B2E68CA
:203AE000201D2B6003F08AFF2E6000E0A1602146BDE87040044803F0DFBF00BFCA5400207D
:203B00001C4A0020FC440020184A002013B5034C24680094FFF7D8FF02B010BD1C4A002034
:203B200010B5084B04461B781BB10430FFF752FF01E0C36003612146BDE81040024803F048
:203B4000A8BF00BFCA540020184A002010B50A4B04461B7823B1BDE81040043003F060BF79
:203B6000064803F08CFF18B1A04203D00068FAE7012010BD002010BDCA540020184A002017
:203B800038B5836804460D469BB10A4804600220A07304F10C0098470238012801D9832DAC
:203BA00005D121462046BDE8384000F005B80123A37338BD1C4A00202DE9F8431C4A0446E2
:203BC000156889462B4690461A4E3768A34204D00BB11B68FAE7BDE8F88334B3A37BABB1F1
:203BE0000023A37345B1A54204D022468721284603F01BFF2D68F5E7A3683BB14C4505D082
:203C000034602A46832104F10C009847D8F800309C4203D12268064B05E0134623B11A68FB
:203C20009442FAD122681A603760BDE8F88300BF204A00201C4A0020002370B51D46094A5B
:203C400001261370084A146854B1E37B33B1A673E573002282212046FFF792FF2468F3E71C
:203C600070BD00BFCD540020204A0020024B1878421C1A70704700BFCE540020064B8A2213
:203C80001A70064A00231370054A1370054A1360054A1360704700BFCE540020CB54002057
:203CA000CC540020204A00201C4A00202DE9F0411A4D2B780BB1FFF7BFFF194C22783AB307
:203CC000184E0C213378184F5943781817F8018001334768806803F01F03013A3370227033
:203CE00068B9124B1E689EB12B780BB1FFF7A4FF30463A46414603F098FE3668F3E7B8F152
:203D0000810F04BF012383733A46414603F08DFE2B7820781844BDE8F08100BFCD54002004
:203D2000CC540020CB540020244A0020204A0020024A034B10781B7818447047CC540020E4
:203D4000CD540020F0B50B4E3378202B0FD00A4C0C252478094F1C4404F01F046C4301337A
:203D60003D19A86039556A6033700020F0BD0120F0BD00BFCC540020CB540020244A002083
:203D800038B5034C256803F050FE256038BD00BF1C4A002030B40A4C0A4625682B4683420D
:203DA0000CD00BB11B68FAE740B101210560817320608381812130BCFFF7E2BF30BC70474F
:203DC000204A002038B1837B013B012B9FBF024A0123C37313707047CD54002010B5084C72
:203DE000206858B100232360816843689847236823B1BDE810401868FEF73EBD10BD00BFC9
:203E0000A44B002082B0074B02AA42F8043DCD21934202D203F8011BFAE70348002102B03B
:203E2000FFF7B8BF4E5700200C45002038B5FEF7A3FE0C4C0C4B22780B4DCD2A06D09C4210
:203E400007D20134F7E7AC4203D201342378CD2BF9D0FEF791FEAC423ABF0348001B4FF012
:203E6000FF3038BD4E570020505F002070B5038805462BB1912B0BD000230380032070BD26
:203E80004FF4A0611B4803F0B9FD91232B8003E0184803F0C5FD08B9012070BDFFF7C6FFB1
:203EA000154C164B061EA3EB040401DB002C0CDA134B1B68002B18DD124A1349134801F093
:203EC00007F92246314612480DE0A6420DDD0C4B1B68002B09DD0B4A0B490C4801F0F8F821
:203EE000224631460B4801F0F3F8024803F08FFDCBE700BFA84B00204E570020505F0020D3
:203F0000E844002043862000498620006A8420004D862000778620002DE9F041068805463F
:203F2000772E31D07E2E40D0002E4ED12B4CFFF79DFE266026462A4B2A4FDFF8B08018705B
:203F4000236857F823204AB1002108F80310936880209847336801333360F1E7224A137072
:203F6000772320E0214AD256002A12DB1B4A136801331360194B1C4A1B6812789A42F1DCF6
:203F80001B4B1B68002BEBD0194A00231360134AEFE7144A002052F82320114B1978FFF738
:203FA000D1FE30B97E232B8014E00D4B1B788B4210D10A4B0D491A688B5C03F07F038B5408
:203FC0000B4A136801331360D0E7002303800320BDE8F0810120BDE8F08100BFB84B0020BB
:203FE00049570020CC440020CF54002046570020BC4B0020054A136843F004031360044BE4
:204000001B68906943EA002080B2704700700D4014700D4010B5184A136823F00C03136029
:20402000164B01221A601A68012AFCD1144B08221A60E322C3F8142203F505731946114AE5
:204040001368DB07FCD5104C102000232268013802F0010243EA02034FEA43039BB2F5D107
:20406000002BF1D0094A180A03F0FE0310601360EF230B6010BD00BF00700D40A8200D402D
:2040800024860840648608409C86084014700D4010B5044690F84C30084A013380F84C3034
:2040A000802103462030FFF731FD054B2246BDE8104019780020FFF745BE00BF914020009B
:2040C0004B57002070B503880446C3B1B3F5867F03D000230380032070BD822912D103F0B9
:2040E0002CFCBFF35F8F114B00221E681A60BFF35F8F03F026FC0E4D55F8040F20B94FF4EE
:2041000086732380012070BD90F8453026FA03F3DB07F1D5FFF71AFD0028EDD02B68054A26
:2041200002211846FFF7F2FCE6E700BFC04B0020C044002051412000034A136818431060FA
:204140000248FFF73FBE00BFC04B00202C45002070B50446FFF7FAFC20B304F120063046E8
:20416000FFF7F4FC0546204603F02EFD01280CD1C5B1002523460C4A84F84C507E213046FD
:20418000FFF7C4FC2246094B06E058B955B93046FFF7C6FC2246064B2846BDE8704019786D
:2041A000FFF7D0BD70BD00BF914020004C5700204A570020F8B5FFF759FD304B304D1870A2
:2041C000FFF754FD2F4B304C1870FFF74FFD2F4B2F4F18700023AB602E4B01266B60216836
:2041E000002943D091F84530886C2B4AD90809030A44116803F0070306FA03F321EA030364
:2042000013602368254A93F84530D90809030A44116803F0070306FA03F321EA0303136006
:20422000236840F08C0193F84500FEF773FE23681B4A93F84530D90809030A44116803F069
:20424000070306FA03F30B431360236893F84530DB0806FA03F33B6054F8043B93F8453013
:2042600006FA03F2AB681343AB60B8E70D48FFF791FDBDE8F840024800F09AB84C57002031
:20428000C44B00204A570020C44400204B57002000E100E03941200020940D4000940D4007
:2042A00010940D402C45002070B505880446672D09D0792D32D0002D36D1FFF7D7FC1D4B06
:2042C00018701D4B1D601C4D2E461C4803F06CFC431C01D167231FE00A28174A09D00D287A
:2042E00007D02B687E2BF0DC5A1C3260144AD054EBE713680025591C1160114A2846D5540B
:204300000C4B1978FFF71EFD0E4B2A4685211868FFF718FD20B97923238009E0852907D123
:20432000054B00221A60CEE700230380032070BD012070BD4D570020D84B0020D04B002056
:20434000515500201C4A002038B50D4C01462378254633B90B4803F014FC60B9012323706C
:2043600009E00A2801D00D2805D1064803F009FC08B100232B700448FFF724FD012038BD10
:2043800050550020D04B00203C45002008B505490548802203F0EEFBBDE80840002103484D
:2043A000FFF7F8BCD0540020D04B00203C4500200146014803F080BBDC4B002038B50546F6
:2043C000064803F05CFB04463CB1A068284002D0636803B198472468F6E738BDDC4B0020C9
:2043E000014803F049BB00BFDC4B002008B5044803F079FBBDE80840024803F074BB00BFEF
:20440000584500204C45002038B50E4803F07BFB0446A8B10C4803F076FB0546206028B97B
:204420002146084803F083FB284638BD00F074F805F19C01A5F8800005F1820000F0F8F88D
:20444000204638BD4C4500205845002010B501460446074803F080FB48B12168054803F0BE
:2044600066FB2146BDE81040014803F060BB10BD4C4500205845002010B501460446094846
:2044800003F06AFB68B12468B4F88010204600F0B9F804F19C0104F18200BDE8104000F0EE
:2044A000D9B810BD4C45002010B507490B88834208DB064C80B222880244181A08802280CD
:2044C000012010BD002010BDB6540020B8540020014B1880704700BFB65400200048704728
:2044E000004C0020014B1888704700BFB6540020034A044B10781B781844C0B2704700BFC9
:20450000E1550020B854002008B5FFF7F1FF014B184408BD004C002070B50D4D0D4C2A7823
:20452000238806461344802B0FDC0B4902F08CFF2B781E44FFF7E8FF22880146304602F08B
:2045400083FF28782388184470BD002070BD00BFE1550020B6540020004C002008B5FFF75A
:20456000C7FF024B1B88184480B208BDB654002038B50146FFF7F2FF4318802B11DC0A4AA6
:20458000013880B2541803B2002B04DBD55C0138E55480B2F7E7054B01201A7811441970F1
:2045A00038BD002038BD00BF004C0020E155002038B5094D094C1A220021094802F0BAFF7F
:2045C0002946204603F01BFB294604F10800BDE8384003F014BB00BF708320001457002055
:2045E00024570020044A00231380044A1380044A1370FFF7DDBF00BFB8540020B6540020C3
:20460000E155002038B50C460546FFF7EBFF802C28BF802422462946034802F015FF034B2D
:2046200020461C8038BD00BF004C0020B654002010B50C461A22054902F006FF2046BDE88B
:2046400010401022024902F0FFBE00BF245700201457002010B50C461A220146044802F021
:20466000F3FE2146BDE810401022024802F0ECBE2457002014570020024B23F81010012006
:20468000704700BF24570020014B33F8100070472457002008B5044B0D3803EBC00003F03E
:2046A000AEFA012008BD00BF14570020024B0D3803EBC000704700BF14570020014902484D
:2046C00003F0A0BA708320001C570020054B10B51B689847044B5B689847BDE81040034B3C
:2046E0005B681847AC822000E482200000832000F8B5FEF773F804460F4F00250D2007EB28
:204700000516FFF7D3FF314603F07CFA78B10720FFF7BAFF337B834201D00020F8BDB068A6
:20472000201AB0F5206F8CBF00200120F8BD0135102DE3D1F1E700BF804C002070B5164E97
:2047400000240D20FFF7B2FF06EB041103F05AFA114D611C10B910290C46F2D14C1E05EBC8
:204760000111A1F110063CB120391022304602F06BFE013C3146F4E70720FFF785FF28736B
:20478000FEF72CF8A8600D20FFF790FFBDE870400146014803F033BA804C002030B591B06F
:2047A000054600F063F84FF6FF73984202D14FF0FF3052E040220021684602F0BBFE284B10
:2047C0001A782AB901221A70FFF714FC254B18707DB10720FFF758FF58B9224C23780BB939
:2047E0000123237021780720FFF746FF237801332370FFF763FF6A46C1B21B4803F060FA7A
:20480000FFF75CFF28B1FF238DF800308DF8013006E00E20FFF74AFF0146684603F0EFF9BE
:204820000D20FFF743FF014602A803F0E8F9FFF76BFE0E90FFF756FE0F90684603F02CFBA0
:2048400004464DB1FFF794FE0028B0D0FFF746FE0146684603F069FB204611B030BD00BF87
:20486000E3550020E255002089462000014B1888704700BFC84900202DE9F041012986B060
:2048800006460F46144640F3838003A903F097FB0A2203A904F1100002F0D6FD9DF811303E
:2048A0000BB1B51C02E0B378F51CA37602AA01A903A803F04DFA9DF81380B8F1000F23D026
:2048C000029B23B16A7815F8023B03EB0223B8F1020FA38309D13049204603F090F96B7830
:2048E000237015F8023B637014E0B8F1030F11D105F108021346611E13F8010DAB4201F8A0
:20490000010FF9D1154605E02349204603F077F9A4F81C809DF81580B8F1000F2BD0019B97
:2049200053B16A7815F8023B03EB0223029A9BB2E3831AB9A38301E0A38BE383B8F1020FBD
:204940000AD1154904F1080003F059F96B78237215F8023B637215E0B8F1030F12D105F1BC
:2049600008021346E11D13F8010D9D4201F8010FF9D1154606E0084904F1080003F03FF951
:20498000A4F81E80A81B3B1A8742E363A56300DA002006B0BDE8F08170832000074A084933
:2049A00013681844884283BF064B0C224FF0FF3010608CBF1A601846704700BF6445002055
:2049C000008000201057002070B505460C46102C07D92B68102208496868984750B9103CB8
:2049E000F5E734B12B68224668680349BDE870401847204670BD00BFC78620002DE9F04F17
:204A0000064615468FB006914FF0000B069B1B78CBB1069C274617F8013B1BB1252B14D0C5
:204A20003C46F7E7069BA3420DD0069B0699C3EB04084246336870689847002840F02583DF
:204A40002378C34423B958463AE3069BA342ECD16378002BF7D039460024084610F8013BD8
:204A60000A462B2B11D006D8202B11D0232B12D144F0080416E02D2B04D0302B0BD144F0A7
:204A800010040FE044F001040CE044F0060409E044F0020406E0A3F13107082F11D84FF07C
:204AA000000801E00146D8E70A4611F8013BA3F13000092813D80A2202FB0838A8F1300858
:204AC000F2E72A2B09D12B680246002B05F10405B8BF44F00104984601E04FF00008137888
:204AE0002E2B1AD15178531CA1F1300009280ED8194600270A780B46A2F13000092801F122
:204B000001010DD80A2303FB0727303FF2E72A2904D12F68931C043502E013464FF0FF37B6
:204B20001A786C2A09D15A786C2A02D144F080040AE0013344F0600411E0682A0AD15A789A
:204B4000682A03D144F02004023308E0013344F0400404E07A2A04BF44F0600401331A7825
:204B6000642A3CD01FD8462A48D00DD8252A5AD003D8002A3FF467AF57E0412A4AD0452A45
:204B800053D144F4424450E0582A31D004D8472A4BD144F4A13448E0612A38D0632A44D1AD
:204BA00044F4A06441E06E2A3AD007D8662A22D027D3672A28D0692A11D036E0732A2CD0EF
:204BC00006D86F2A11D0702A2FD144F440742CE0752A07D0782A28D144F4C85425E044F449
:204BE000245422E044F410641FE044F488541CE044F4B24419E044F4007416E044F48444B7
:204C000013E044F4024410E044F481340DE044F4C1340AE044F4E13407E044F4806404E00E
:204C200044F4E06401E044F4C0640133069304F4E063B3F5806F00F08F8113D8B3F5807F8A
:204C400027D0B3F5407F7FF4E1AEAE4B14F4804FAD4A18BF1A460DF13303286800210435D8
:204C60001F46B5E1B3F5C06F08D0B3F5E06F00F02282B3F5A06F7FF4C9AEF2E133680122CD
:204C8000A24970689847002840F0FF810BF1010BBCE6002FACBF24F01004012714F40053AB
:204CA000079304F0E0032ED0402B12D005D8ABB1202B21D195F900200DE0602B0ED0802B13
:204CC0001AD1073525F0070303F10805D3E9002307E0B5F90020D317043502E02A68043529
:204CE000D317002A73F1000108DA524263EB4303CDE90023012304E000220023CDE9002332
:204D00000023059329E0402B13D004D8BBB1202B1DD12A780EE0602B11D0802B17D1073535
:204D200025F0070303F10805D3E90023CDE900230BE02A880023CDE90023043505E02B6851
:204D400000221946CDE900120435079BD9E70023059300220023CDE9002304F4C053B3F5E3
:204D6000805F0CD0B3F5C05F33D0B3F5006F4FD1DDE900230DF13609CDE9022304E0DDE9CC
:204D800000230DF1360915E0DDE9022313433AD0DDE902010A22002301F0D8FEDDE90201CB
:204DA000303209F8012D00230A2201F0CFFECDE90201E9E752EA030125D002F0070130313C
:204DC00009F8011DD10841EA4371D8080A460346F0E74C4B14F4804F0DF136094A4918BF97
:204DE0001946DDE9002352EA03000CD002F00F00085C4FEA131E09F8010D100940EA0370BC
:204E000002467346EFE70DF13603C9EB030302E00DF1360900230293029B41F60802BB4218
:204E200038BFFF1A41F2080302EA040228BF00279A4202D1002F08BF012741F60801029B7A
:204E40008A4203EB07000DD1DDE90023134309D02F4A304914F4804F4FF0020A0CBF0B466B
:204E6000134602E04FF0000A5346079A9AB1059A52B904F00602022A0AD0062A264A04BF1A
:204E80004FF0010A134606E04FF0010A234B02E0234B4FF0010A0AEB000290458CBFC2EB73
:204EA00008084FF0000814F0010200920DD1E10602D54744904608E0414630460593FFF792
:204EC00083FD059B002840F0E080BAF1000F07D03468524619467068A047002840F0D5806A
:204EE000029B03EB0B04BB46BBF1100F33681BD910220C4970689847002840F0C680ABF145
:204F0000100BF1E7E7862000F88620001A8720000C87200009872000118720000F872000E1
:204F200062892000D7862000BBF1000F06D05A46654970689847002840F0A7803368029A9D
:204F40004946706854449847002840F09E80009B3C44002B39D032E0D5F800900435B9F15C
:204F6000000F0AD0CA469AF800300AF101020BB19246F8E7C9EB0A0A03E0DFF850914FF063
:204F8000060A002F02DBBA4528BFBA46D0458CBFCAEB08084FF0000814F0010705D141463A
:204FA0003046FFF711FD00286FD133685246494670689847002868D10AEB0B042FB14146CA
:204FC0003046FFF701FD00285FD108EB040B1DE550EA010E0ED000F00F0E12F80EE04FEAA6
:204FE000111C03F801ED4FEA101E4EEA017E70466146EDE7FF1A02BF3022012703F8012CD0
:2050000007F1030708BF03F1FF337822B84503F8012C4FF0300203F8022C88BFC7EB08083F
:205020004FF0230298BF4FF0000814F00104A3F1030903F8032C04D141463046FFF7C4FC13
:2050400018BB33683A46494670689847E8B95F4424B141463046FFF7B7FCB0B908EB070BEF
:20506000D4E4B8F1010F2B688CBF08F1FF384FF0000814F0010405F104058DF8203008D1B4
:2050800041463046FFF7A0FC10B14FF0FF3017E0C3443368012208A9706898470028F4D141
:2050A00008F101072CB141463046FFF78DFC0028EBD1BB44AAE42B680435C3F800B0A5E465
:2050C0000FB0BDE8F08F00BFD7862000138720000FB407B504AA52F8041B04480192FFF78C
:2050E0008DFC03B05DF804EB04B070476845002010B504462B2002F0CFFF6300233303F032
:205100003F0300F0C00119432B2002F0AEFF014B1C7010BDE856002010B502F09FFFC0B18D
:20512000602801D13A2002E0702803D13B2002F089FF0EE0362002F085FFFDF787FB6FF405
:20514000A374241A02F08AFF18B1FDF77FFBC442F8D40D4A6FF4A374137823F0040313707D
:20516000FDF756FA3A2002F06DFF342002F06AFFFDF76CFB241A02F071FF102803D0FDF78A
:2051800065FBC442F7D410BDE956002010B51A4C23785B060CD52378332023F040032370D3
:2051A00002F050FFFDF752FB6FF4A374241A0CE0FDF71EFB114B1B68C01AB0F5617FEAD2C2
:2051C00010BDFDF743FBC44203D502F047FF4028F7D1FDF73BFB6FF4A374241A03E0FDF7D1
:2051E00035FBC44203D502F039FF0028F7D1FDF7FFFA024B186010BDE9560020804D0020BC
:2052000010B5FFF7C3FF0E4A3A2013786FF4A37423F00403137002F015FF342002F012FF60
:20522000FDF714FB241A02F019FF102803D1BDE81040FDF7EDB9FDF709FBC442F3D4F6E7E6
:20524000E956002010B50E4B1B889BB2002B14BF0120002012D10B4C23787BB9237842F6C6
:20526000D7700133DBB2237002F016FF2378003003F1FF33DBB218BF0120237010BD00BFF7
:20528000BA5400206656002070B5164D2B7803F0020303F0FF001BBB134C23780BBB2378BE
:2052A0006FF4A3760133DBB22370FDF7F1F8FDF7CDFA361AFDF7C8F968B9FDF7FFF8032052
:2052C0000621287002F0D1FEFFF79AFF2378013BDBB2237004E0FDF7B9FAC642EAD4ECE7A4
:2052E000012070BDE95600206656002008B5094B1B7803F00A03022B01D0002008BDFDF7AA
:20530000A3F9012805D0044B1B889BB2002BF4D0012008BDE9560020BA54002038B5234AF8
:205320003A2013786FF4A37423F00403137002F089FE2621032002F098FE352002F082FE3F
:20534000FDF784FA241AFDF77FF9012803D1FDF77BF928B111E0FDF779FAC442F3D4F6E7F1
:2053600042F6D67002F098FE38B102F0BAFE0621032002F07AFE012038BDFDF767FA04462B
:205380000B4DFDF761F948B9FDF75EF90128ECD00621032002F069FE002038BDFDF756FA3A
:2053A000EB682344C01A0028EBDBEDE7E956002074822000F8B5154D0A462C88A4B21CB3EA
:2053C0002B8813499BB20B4413F9024C114B124E93F92C30234433802B882C889BB2A4B200
:2053E000023C944210DC0B4413F8017C224602F02BF80023318804202B80FFF73DF907F08B
:205400007F010320FFF738F92046F8BDBA540020E455002074822000C0540020CB1E7A2B48
:2054200073B506460C461BD80F4B02AD198025F8021D02F056FE0D4A3A20137823F0040339
:20544000137002F0FFFD3B2002F0FCFD0121284602F077FE3046E1B202F073FE002000E032
:20546000012002B070BD00BFBE540020E95600202DE9F043744D93B02B782F4603F0FF0481
:20548000DFF8E8814BB198F80030704843F0200388F80030FEF796FCCAE098F8003023F04E
:2054A000200388F800302B780133DBB22B7002F0D5FD00F0EF0060281DD042F6D77002F091
:2054C000EBFD064620B92B78013BDBB22B70B8E098F8003003F0040303F0FF04EBB9DFF8F5
:2054E00074910121484602F01BFEB9F80030022B01D97D2B07D9FFF70FFE2B782046013B34
:20550000DBB22B709DE0524B701E1C8098F80030C6B243F0040388F8003098F800305907DD
:2055200040F18A804A4C4B4D20882B88321802339A427FDCDFF82C813146404402F0F0FD93
:2055400020882B88304481B202339942218073D108EB010313F9013C002B6BDA3E4D2B8866
:205560009BB2002B66D102AE32464046FFF784F9002849D0394B1A68984612F0010F04D14F
:20558000D8F800309A0715D510E09DF81830022BF6D09DF81F30022B0CBF0223082313F190
:2055A000FF33EDD3F25CFF2AF9D026E09DF81820012A01D0022027E09DF81B20002AF9D0FE
:2055C000DB0713D402238DF8043000238DF805309DF822308DF8063002F083FD032101A866
:2055E000FFF71CFFFFF79AFE03200DE01C49304602F008FB0028E5D1DCE71949304602F0C1
:2056000001FB0028BCD101200238012812D8238814492B802A88144892B201F015FFFFF76B
:205620007BFD0A48FEF7CEFB3B78013BDBB23B70012006E0FFF770FD3B780020013BDBB2B5
:205640003B7013B0BDE8F0836656002070450020BC540020C2540020BA540020884D00208A
:205660003E57002068560020E4550020E956002038B5184D2B789B072AD5174C23780BB18F
:20568000002038BD23780133DBB2237002F029FD42F6D77002F000FD60B12378013BDBB20B
:2056A0002370FFF7E5FE2378002BE9D123780133DBB223703221032002F0D7FC392002F089
:2056C000C1FC23780120013BDBB22870237038BD012038BDE956002066560020404A2DE977
:2056E000F34792F8281092F8295092466B1A013390FBF3F404FB1300C4B20F19FFB2B9424C
:2057000068D8BD4266D3374DDFF8E8802B7863B1354B36481F7098F80030012643F01003DD
:2057200088F80030FEF74EFB55E098F800301A07EED4FFF7DBFD06460028E9D198F80030E7
:2057400023F010029B0788F8002004D4FFF79CFD4FF0010900E081462B780133DBB22B708C
:2057600002F0BFFCDAF8243042F60E705C434FF47A73B4FBF3F1DAF820300B4440F2712109
:205780001B03B3FBF1F10191C9B202F06EFC9DF8051042F60D7002F068FC9DF8061042F65A
:2057A0000C7002F062FC124B1F70B9F1000F07D198F8003043F0400388F80030FFF720FDA7
:2057C0002B78013BDBB22B70B9F1000F03D0FFF74FFF00E00226304602B0BDE8F08700BFE7
:2057E0007482200066560020655600207045002064560020E956002010B50C46072836D87A
:20580000DFE800F00410353516181B2A012902D1FFF73AFD1EE009B1022010BDFFF728FFF2
:20582000204610BDC8B2FFF759FF022812D1F3E7104B00E0104B1C600CE0104B93F92A1067
:205840006FF00F038C42A8BF0C469C42B8BF1C460B4B1C70002010BD7F2905DC6FF07E0361
:205860009942B8BF1C4600E07F24064BF1E7012010BD00BF884D0020844D0020748220001F
:2058800063560020E756002070B50C4600297BD018287BD8DFE800F00D187A7A1D1F222402
:2058A00028527A7A7A7A565A5E617A65676D70737600374B1B7803F0020303F0FF000BB150
:2058C000012303E0086070BD324B1B782360002070BD314B00E0314B1B68F7E7304B00E0B8
:2058E000304B93F90030F1E7294B1B789A0703D4FFF7CAFC012600E00026FCF7A7FF6FF435
:20590000A3752D1A42F6727002F0C6FB83070DD542F6717002F0C0FB234B40B293F92C50C1
:205920000544ADB23EB1FFF7A3FE04E0FCF78EFFC542E7D4ECE72DB22560C8E71B4BB3F91B
:205940000030C3E7184B93F82830BFE7164B93F82930BBE76FF00F03B8E7134B93F92A3046
:20596000B4E70323B2E7104B1A6B114BB3FBF2F3ACE70D4B5B69A9E70B4B9B69A6E70A4B83
:20598000DB69A3E77D23A1E7022070BD012070BDE956002064560020884D0020844D002055
:2059A000E85600206756002074822000C054002000127A00F8B5214D2B7803F0FF06002BF5
:2059C00039D11F4B1B789A0702D4FFF75DFC01262B780133DBB22B70FCF736FE012820D094
:2059E000184B194F1C783B789C4204D02146172002F03BFB3C70FCF729FF6FF4A3773F1A80
:205A000042F6727002F048FB8307044604D584F00404C4F3800405E0FCF718FFC742EFD418
:205A2000F5E700242B78013BDBB22B700EB1FFF71FFE2046F8BD0020F8BD00BF6656002002
:205A4000E9560020E7560020675600202DE9F041334B1B8883425FD1324C237843F00802FA
:205A600022709A0703D4FFF70FFC012700E000272D4B1B68DB070CD5FFF79CFF48B90FB1DC
:205A8000FFF7F6FD2378022023F008032370BDE8F081264E33780133DBB2337002F021FB08
:205AA000234B244A93F9003092F90000834201D0FFF71EFB0FB9FFF769FBFFF72FFCA8B97A
:205AC000FCF7C4FE0546DFF8708002F0C7FA102803D1FCF79DFD002510E0FCF7B7FED8F826
:205AE00010302B44C01A0028EFDBF2E72FB9237843F040032370FFF783FB01253378013B45
:205B0000DBB233700FB1FFF7B3FD2378284623F008032370BDE8F0810120BDE8F08100BF29
:205B2000BE540020E9560020844D002066560020E856002063560020748220002DE9F04173
:205B40004E4B1878984610F0010440F094804C4F3B780133DBB23B70FCF77EFD2046FCF774
:205B600019FD484CFCF794FC3020FCF7ADFC642001F0CBFEFCF7A2FC25896668AD08002EDE
:205B80006ED194F82C10182002F06FFA2621002002F06BFA2621012002F067FA06210320A8
:205BA00002F063FA1F2002F077FA00F0E7011F2002F05BFA292002F06FFA00F0CF0141F001
:205BC0003F01292002F051FA2A2002F065FA00F0CF0141F030012A2002F047FA002126205E
:205BE00002F043FA272002F057FA40F00101C9B2272002F03AFA282002F04EFA00F09F01C0
:205C000041F02001282002F030FA1F4B03221A601E4B01221A6094F82A001D4B187040B227
:205C2000FFF766FA94F82B401A4B214617201C7002F01BFA184B002118481C70FEF7AAF87A
:205C400098F800301A2043F0030388F800303B78013BDBB23B70FFF741FDFFF709FD0AE020
:205C60000436002D8DD016F8021C36F8040C02F0FCF9013DF4E70120BDE8F081E956002060
:205C80006656002074822000884D0020844D002063560020E7560020675600207045002044
:205CA000822970B505460E4626D11C4B1A781C4602F02202222A01D1FFF7DAFB2378DA06A9
:205CC00003D5174B1878FFF709FD164B1B685B0712D4154B1B889BB273B1FEF783FCFEF7F5
:205CE00013FC8021FFF766FB002805DD80B2FEF7EFFB0E4BDB6898472A8840F2622312B1DB
:205D00009A4202D003E02B8005E0832E03D100232B80032070BD012070BD00BFE956002053
:205D200065560020884D0020BA540020E482200010B501210C20FEF79FFCBDE81040014BFB
:205D40005B68184768822000014B9B68184700BF68822000014B1B6A184700BFAC82200063
:205D6000014B5B6A184700BFAC8220000C4B13B51B6898470B4B044601A918209B6A9847BF
:205D800001280AD0002C0198B8BF15248028D4BFC4EB0000C4F1800000E0002002B010BDED
:205DA00068822000AC82200007B5064B01A918209B6A984718B900F019FAFFF7CBFF03B071
:205DC0005DF804FBAC82200007B5FEF78BFB032823D0FFF7B9FF00281FDB0E20FEF766FC77
:205DE0000F4901F00FFF38B10D20FEF75FFC0C4901F008FF88B904E0FEF760FC0028F3D137
:205E00000BE0FEF775FC40B9FEF798FC054B9B68019303B05DF804EB184703B05DF804FB6B
:205E20003E5700200083200070B590F82D400122012CD4BF03340524054602FA04F4FEF779
:205E4000D9F8013CB0FBF4F12B4601FB1401034A05F10C00BDE87040FDF758BEE55E200011
:205E60002DE9F0470D4614468B68804693E8C000506B92F82C9001F00CFE6868FEF7E6FA93
:205E8000A968144801F053FE2946134801F04FFE606B01F0F4FD40B1002384F82C3084F836
:205EA0002D302046FFF7C0FF0BE004F10C00FDF737FE2146094801F0ECFD2146084801F01B
:205EC00036FE4B46424639463046BDE8F04701F0A1BE00BF804500208C450020EC4D002066
:205EE000984500202DE9F74F0446002800F0D980406B01F0C4FD0546002800F0D2804068D4
:205F0000FEF7BAFA68490D20FEF7C4FB01210820FEF7B2FBFFF70CFF0028C0F2C080FEF74A
:205F2000DDFA624E90F802807768FEF7D7FA8146FEF714FB01464846B847FEF7BFFBD6F80F
:205F400018908246C847002860D1BAF1000F0BD0B768FEF703FBB8470746FCF777FC6FF0B1
:205F6000A20BC0EB0B0B04E0F369984700284DD1EEE7FCF76BFC1BEB000FFAD417F0FF072F
:205F800004D0022F0CBF0120042040E0BAF1000F01D000203BE0FCF759FC6FF0A20AF76953
:205FA000C0EB0A0AB84710B1C84740B905E0FCF74DFC1AEB000FF5D4F6E7B84730B1FCF7AC
:205FC00045FC6FF01409C0EB090909E0736998470028F4D009E0FCF739FC19EB000F02D5BC
:205FE000B8470028F7D0B84708B902200FE03369032101A89847032808D19DF80600B0EB60
:20600000080018BF01200028C3D000E00120AA68002A46D003283DD8DFE800F0021B0B4310
:2060200094F82C300020013384F82D0084F82C3030E0002384F82D3094F82C300133DBB2EE
:2060400084F82C30127A9A421DD822462946022022E094F82D300133DBB2052B83BF0023D1
:2060600084F82D3094F82C3084F82D3084BF013384F82C3094F82C10137A994203D32246C9
:206080002946012008E02046FFF7CEFE686801F0B0FD06E022462946FFF7E2FE01E0052059
:2060A000B5E703B0BDE8F08F3E570020AC8220002DE9F04107460E208846FEF7F7FA454B64
:2060C00005461A78444C22B901221A70FDF792FF2070237813B9404B01221A702178072057
:2060E0004B1C2370FEF7C8FA01210C20FEF7C4FA3A4801F0C4FC044640B12946201D01F0E3
:2061000081FDD8B9204601F0EBFCF4E7344801F0FAFC044640B32946201D01F070FD00238A
:2061200004F13000606384F82C3084F82D30236301F0A2FC2146294801F0BEFC606B01F072
:20614000C8FC072810DC274801F0DDFC054698B9606B01F0BEFC38B92146204801F099FCCF
:2061600021461F4801F0E3FC41463846BDE8F0410123062201F04EBD1B4801F0C4FCA86042
:2061800008B3FEF741F96860C8B10620AE68FEF77BFAC0B208B1307201E00823337286E842
:2061A00080012946606B01F087FC606B01F067FC85420DD12046BDE8F041FFF735BEA968B6
:2061C000094801F0B4FC2946064801F0B0FCBFE7BDE8F081FB560020EA560020EC4D00208D
:2061E000984500208C4500208045002008B5054801F079FC044801F076FCBDE80840034875
:2062000001F071BC8C4500208045002098450020014B00221A607047C04E002010B50446B1
:20622000FEF7E0F90B4B19880B4B1868FEF7EAF90CB1214600E009490E20FEF72BFA0849FC
:206240000D20FEF727FA074B002108469B689847012010BD0C570020085700207083200055
:206260003E570020E48220002DE9F0410C4B1C68A4B1FEF749F90546FEF734F906460D204F
:20628000FEF714FA07460E20FEF710FA3A46034631462846A446BDE8F0416047BDE8F08156
:2062A000C04E0020014B1860704700BFC04E00202DE9F34104880546B4F5BA7F00F00581CF
:2062C0003BD840F22718444552D0B4F5947F2DD2002C49D1FDF78EFE02AF27F8040D924E4D
:2062E00021469248FEF7F4FE21469148FEF7F0FE01223946304601F0A7F831788D48FEF738
:20630000E7FE8D4B32781C705A708C4A9C7013608B4B03228B481A80FFF7C4FF4FF4207176
:20632000894801F06BFBA5F80080ACE0B4F5A27F57D0B4F5A97F6CD016E040F281139C42F4
:2063400000F0CF80B4F5C17F05D240F277139C4200F0D38008E040F283139C4200F0CD8096
:20636000B4F5CB7F00F0D38000232B800320D7E0764801F055FB002800F085807448FEF772
:20638000A7FE4FF43441714801F038FB714B00221A70704C2378022B2DD8634F664E3B78B9
:2063A0006D4A6E496E487370FEF792FE3A7821786C48FEF78DFE237803221B0133705F4BA9
:2063C00000201E605E4B1A80674BDB6898472378012B0BD84021654801F010FB4FF4A273FC
:2063E00050E0624801F01CFB00284CD0594A137801331370CDE75E48FEF76AFE5D48FEF741
:2064000067FE4FF4A0615C4801F0F8FA4FF4A97338E0594801F004FB002834D0FCF7DEF94E
:20642000564BC10918605648FEF752FE554B01221A70544E3C4C3278082A36D823784F4FFC
:2064400013F0010F4FEA530323701ED04E4B40215A703A4A19701360394B02221A80FCF7A0
:20646000BDF93A683178821AD2094848FEF730FE3D4B0020DB689847C021334801F0BEFA22
:206480004FF4BA732B8001204AE0FCF7A7F93A683178821AD2093E48FEF71AFEC0212A485B
:2064A00001F0ACFA40F28113ECE73A48FEF710FEFDF7A0FDC1B238482170FEF709FE374897
:2064C000FEF706FE4FF4CB73DCE71F4801F0A8FA0028D8D040211C4801F090FA40F27713B9
:2064E000D0E7194801F09CFA0028CCD04021164801F084FA40F28313C4E7134801F090FAC2
:206500000028C0D01F4A13780133137091E70F4801F086FA0028B6D02148FEF7D9FD2DE7E2
:2065200002B0BDE8F08100BFFE5600205F872000708720008E882000015700200857002016
:206540000C570020A5652000C44E00200C4F00207B87200000570020C287200065842000D6
:206560006A842000C687200000832000FC4E0020DF87200028882000EC4E00201C4F002058
:2065800042882000FF560020045700205F8820005B882000798820008A882000A18820007B
:2065A0009C88200070B50E4688B0017805469E48FEF78EFD092000F059FC3246294604461D
:2065C00000F042FF302E2CD1182000F04FFC29460422079000F038FF9448FEF779FD079982
:2065E00008AD4B69924802930B690193CB6800930EC9FEF76DFD55F8040D466990E80E002C
:20660000F60B02960669DB0BF60B0196C068D20BC00B0090C90B8748FEF75AFD284600F047
:206620002DFC2378013B082B00F2F980DFE813F009004A0009004A008F008F00E400E40066
:20664000F40063787C4E8DF81830A3787B488DF81930E37864258DF81A3023798DF81B3009
:20666000069B336163798DF81830A3798DF81930E3798DF81A30237A8DF81B30069B736145
:206680002178FEF725FD6E48FEF722FD6D49306900F0ECF800F03AFAB0FBF5F105FB110295
:2066A0006948FEF715FD6948FEF712FD6549706900F0DCF800F02AFAB0FBF5F105FB11026A
:2066C000614896E063785C4D8DF81430A378022205A9281D8DF8153000F0B6FEE37802222F
:2066E0008DF81430237905A9A8188DF8153000F0ABFE637904228DF81C30A37907A98DF840
:206700001D30E37905F108008DF81E30237A0A268DF81F3000F098FE21784848FEF7D8FCE6
:20672000B5F902204A4892FBF6F106FB112212B2FEF7CEFCB5F90420464892FBF6F106FBF7
:20674000112212B2FEF7C4FCA968434860E06378394E8DF81430A378022205A9301D8DF8C7
:20676000153000F071FEE37802228DF81430237905A9B0188DF8153000F066FE63790422FB
:206780008DF81830A37906A98DF81930E37906F10C008DF81A30237A8DF81B3000F054FEB6
:2067A0002849F06800F062F800F0B0F9054621782248FEF78DFC2948FEF78AFC6422B5FB3F
:2067C000F2F1214802FB1152FEF782FCB6F902200A2592FBF5F105FB11221D4812B2FEF7D6
:2067E00077FCB6F904201B4892FBF5F105FB112212B2FEF76DFC0DE0A27863780E4D43EABE
:206800000223EB8021780D48FEF762FCE9881448FEF75EFC134800E01348FEF759FC204645
:2068200000F02CFB08B070BDC2882000DE88200003892000F6882000D44E00203A892000FD
:20684000488920000000C842508920005A892000678920007A892000908920009E8920008E
:20686000A789200064892000B38920004FF0FF0C1CEAD0521EBF1CEAD15392EA0C0F93EAD2
:206880000C0F6FD01A4480EA010C400218BF5FEA41211ED04FF0006343EA501043EA511159
:2068A000A0FB01310CF00040B1F5000F3EBF490041EAD3715B0040EA010062F17F02FD2AE4
:2068C0001DD8B3F1004F40EBC25008BF20F00100704790F0000F0CF0004C08BF49024CEAE5
:2068E000502040EA51207F3AC2BFD2F1FF0340EAC250704740F400004FF00003013A5DDCB1
:2069000012F1190FDCBF00F000407047C2F10002410021FA02F1C2F1200200FA02FC5FEAB0
:20692000310040F1000053EA4C0308BF20EADC70704792F0000F00F0004C02BF400010F4C3
:20694000000F013AF9D040EA0C0093F0000F01F0004C02BF490011F4000F013BF9D041EAD1
:206960000C018FE70CEAD15392EA0C0F18BF93EA0C0F0AD030F0004C18BF31F0004CD8D141
:2069800080EA010000F00040704790F0000F17BF90F0004F084691F0000F91F0004F14D0DF
:2069A00092EA0C0F01D142020FD193EA0C0F03D14B0218BF084608D180EA010000F00040F8
:2069C00040F0FE4040F40000704740F0FE4040F4400070474FF0FF0C1CEAD0521EBF1CEA70
:2069E000D15392EA0C0F93EA0C0F69D0A2EB030280EA010C49024FEA402037D04FF0805305
:206A000043EA111143EA10130CF000408B4238BF5B0042F17D024FF4000C8B4224BF5B1A56
:206A200040EA0C00B3EB510F24BFA3EB510340EA5C00B3EB910F24BFA3EB910340EA9C00CE
:206A4000B3EBD10F24BFA3EBD10340EADC001B0118BF5FEA1C1CE0D1FD2A3FF650AF8B4220
:206A600040EBC25008BF20F0010070470CF0004C4CEA50207F32C2BFD2F1FF0340EAC25029
:206A8000704740F400004FF00003013A37E792F0000F00F0004C02BF400010F4000F013A54
:206AA000F9D040EA0C0093F0000F01F0004C02BF490011F4000F013BF9D041EA0C0195E731
:206AC0000CEAD15392EA0C0F08D142027FF47DAF93EA0C0F7FF470AF084676E793EA0C0FDC
:206AE00004D14B023FF44CAF08466EE730F0004C18BF31F0004CCAD130F000427FF45CAF78
:206B000031F000437FF43CAF5FE700BF42000ED2B2F1FE4F0BD34FF09E03B3EB126209D4EF
:206B20004FEA002343F0004323FA02F070474FF00000704712F1610F01D1420202D14FF02C
:206B4000FF3070474FF00000704700BF53B94AB9002908BF00281CBF4FF0FF314FF0FF30BB
:206B600000F082B9ADF1080C6DE904CE00F006F8DDF804E0DDE9022304B070472DE9F04FBE
:206B80008C460C460546099E002B4FD18A4217466BD9B2FA82FEBEF1000F0BD0CEF120057E
:206BA00020FA05F501FA0EF345EA030C02FA0EF700FA0EF5390CBCFBF1F0BAB201FB10C371
:206BC00000FB02F84FEA154C4CEA0344A04509D9E41900F1FF3380F02881A04540F22581EC
:206BE00002383C44C8EB0404B4FBF1F301FB134C03FB02F2ACB244EA0C418A4209D9C919D7
:206C000003F1FF3480F00F818A4240F20C81023B39448A1A43EA00400021002E63D022FA59
:206C20000EF2002386E80C00BDE8F08F8B4207D9002E56D0002186E811000846BDE8F08F80
:206C4000B3FA83F1002940F09380A34202D3824200F2FE80851A64EB03039C460120002E94
:206C600041D086E82010BDE8F08F12B90127B7FBF2F7B7FA87FEBEF1000F36D1E41B4FEA80
:206C800017481FFA87F90121B4FBF8F308FB134409FB03F24FEA154C4CEA0444A24207D911
:206CA000E41903F1FF3002D2A24200F2D3800346A41AB4FBF8F008FB104809FB00F9ACB263
:206CC00044EA0842914507D9D21900F1FF3402D2914500F2BA802046C9EB020240EA034016
:206CE0009BE731463046BDE8F08F07FA0EF7CEF1200C24FA0CF34FEA1748B3FBF8FA1FFAA2
:206D000087F908FB1A3520FA0CFC04FA0EF40AFB09FB4CEA040C4FEA1C4242EA05439B4545
:206D200000FA0EF50AD9DB190AF1FF3280F08B809B4540F28880AAF1020A3B44CBEB0303DC
:206D4000B3FBF8F008FB103300FB09F41FFA8CFC4CEA03439C4207D9DB1900F1FF326ED22E
:206D60009C426CD902383B441C1B40EA0A418BE7C1F1200E8B4022FA0EFC4CEA030C24FAE5
:206D80000EF74FEA1C49B7FBF9FA1FFA8CF309FB1A7720FA0EF88C400AFB03F548EA04045B
:206DA0004FEA144848EA0747BD4202FA01F200FA01FB09D917EB0C070AF1FF3041D2BD42A7
:206DC0003FD9AAF1020A67447F1BB7FBF9F509FB157705FB03F3A4B244EA0747BB4208D9D9
:206DE00017EB0C0705F1FF3027D2BB4225D9023D674445EA0A40A0FB0289FF1A4F454546A4
:206E00004C4614D329D066B3BBEB050367EB040707FA0EFECB40CF404EEA030386E8880081
:206E20000021BDE8F08F2346F3E61846DAE6B8EB020569EB0C040138E5E70546D9E7104639
:206E400092E78246C0E7924678E702383A4443E7084604E7023B3C442AE7C345E7D33C46E6
:206E6000D1E73146BDE8F08F704700BF024B0146186800F00BB800BFC4490020024B014602
:206E8000186800F009BC00BFC44900202DE9F04F01F10B05162D83B0064640F2A08035F041
:206EA000070500F1C080A94200F2BD8000F090FBB5F5FC7FC0F090826B0A00F0BB80042B4A
:206EC00000F27781A80900F1390E4FEA4E013830BE4F07EB81014C680839A14207D1AEE030
:206EE000002A80F2AE80E468A14200F0A880636823F003035A1B0F2AF2DDB4493C6901F18C
:206F0000080E744500F0A881636823F003035A1B0F2A00F38E81002AC1F814E0C1F810E075
:206F200080F29380B3F5007F80F05C81DB084A684FEAA3094FF0010C013351F833800CFA5C
:206F400009F901EBC30C49EA0202ACF1080CC4F80CC0C4F808804A6041F83340C8F80C405E
:206F6000831001249C4094427CD8144206D120F003006400144200F10400FAD007EBC009DF
:206F8000CC468046DCF80C108C4507D166E1002A80F27481C9688C4500F060814B6823F00F
:206FA00003035A1B0F2AF2DD0C46CB6854F808CF45F00108C1F804800D4442F00101CCF8E2
:206FC0000C303046C3F808C07D613D61C5F80CE0C5F808E06960AA5000F0FCFA1FE01029D1
:206FE00021D800F0F5FA102506230220774F07EB83035C68A3F10802944200F0388163684F
:20700000E16823F0030323445A68A56842F00102E96030468D605A6000F0DCFA08342046D5
:2070200003B0BDE8F08F002420460C23336003B0BDE8F08F80214FF0400E3F2048E77046E4
:207040005BE723445A68E168DFE723445A68304642F001025A60083400F0BCFA204603B02D
:20706000BDE8F08FBC68636823F00308A84504D3C5EB08030F2B00F38C80554BDFF86091BF
:207080001A68D9F800302A44013304EB080A00F0608102F580520F3222F47F6222F00F02D5
:2070A00011463046019200F097FAB0F1FF3F8346019A00F05881824500F2FC80454BDA45FF
:2070C00019681144196000F05381D9F80000DFF810E101301BBFCAEB0B0A5144CEF800B024
:2070E00019601BF0070100F01781C1F10800C1F58051834408315A44C2F30B02C2EB010924
:2071000049463046019300F067FA431C019B00F03F81CBEB00024A4442F001021968BC42E0
:207120004944C7F808B01960CBF80420DFF8A49016D0B8F10F0F40F2FD806268A8F10C0312
:2071400023F0070302F00102E0184FF0050E1A430F2B6260C0F804E0C0F808E000F21C81AF
:207160001D4BBC681A68914288BF19601B4B1A689142626888BF196022F003029542A2EBAE
:20718000050301D80F2B04DC304600F023FA002445E745F0010243F0010325446260304611
:2071A000BD6008346B6000F015FA204603B0BDE8F08F142B71D9542B00F2A480280B00F12D
:2071C0006F0E4FEA4E016E3082E600BFB4450020284F00202C4F0020244F0020204F002078
:2071E000C04900205A0A042A5ED9142A00F2B38002F15C0149005B3207EB810C57F8211015
:20720000ACF1080C8C45DFF8D88100F088804A6822F00302934202D289688C45F7D1D1F8FF
:207220000CC07A68C4F80CC0A160CCF80840CC6096E645F0010742F001032544676030464A
:207240004D610D61C5F80CE0C5F808E06B60AA50083400F0BFF9E2E64A6881E608F1010838
:2072600018F0030F0CF1080C7FF48CAE30E0DC68A34208BF02303FF440AEC0E60C460B449C
:207280005A68C96854F8085F42F001025A603046E9608D6000F09EF9C1E603F15C0E03F12D
:2072A0005B004FEA4E0113E69A0902F1390149003832A1E7BC424A4B3FF400AF9C686268A4
:2072C00022F003025AE759F80839994540F0828010F0030F00F1FF30F5D17B6823EA0403C5
:2072E0007B6064009C423FF6BDAE002C3FF4BAAE1C4240467FF442AE64001C4200F104000C
:20730000FAD03BE6B3F5AA7F18D8E80B00F1780E4FEA4E017730DBE54FF48051EBE6012161
:20732000D8F80430921001FA02F21A43C8F80420614677E70123CBF8043025E740F2545273
:20734000934220D8A80C00F17D0E4FEA4E017C30BEE51032A4E6542A26D81A0B02F16F0189
:2073600049006E3248E7BC68626822F0030205E7CAF30B0000287FF4A8AE4244BB6842F070
:2073800001025A60ECE6FE214FF07F0E7E209FE501224FF00009C1E604F10801304600F0DB
:2073A0007BF9D9F80010DBE6B2F5AA7F05D8DA0B02F17801490077321EE740F254518A421F
:2073C00005D89A0C02F17D0149007C3214E7FE217E2211E77B6884E7E808431C5B0005E62D
:2073E000B4450020032A70B426D940EA01039B0711D004780D78AC4222D10244431C05E007
:2074000013F8014B11F8015FAC4219D19342F7D1002070BC70470C4603461E682568184628
:20742000AE42214603F1040304F10404E1D1043A032A18462146F0D8002ADAD11046E8E759
:20744000601B70BC704700BF844641EA000313F0030349D1403A23D30B6803604B68436058
:207460008B688360CB68C3600B6903614B6943618B698361CB69C3610B6A03624B6A43624C
:207480008B6A8362CB6AC3620B6B03634B6B43638B6B8363CB6BC36340304031403ADBD240
:2074A00030320BD30B6803604B6843608B688360CB68C36010301031103AF3D20C3205D38E
:2074C00051F8043B40F8043B043AF9D2043208D0D2071CBF11F8013B00F8013B01D30B8802
:2074E00003806046704700BF082A13D38B07B1D010F00303AED0C3F10403D21ADB071CBFDA
:2075000011F8013B00F8013BA4D331F8023B20F8023B9FE7043AD9D3013A11F8013B00F8D8
:20752000013BF9D20B7803704B7843708B7883706046704770B4840746D0541E002A41D013
:20754000CDB2034602E0621EE4B3144603F8015B9A07F8D1032C2ED9CDB245EA05250F2C06
:2075600045EA054519D9264603F11002103E0F2E42F8105C42F80C5C42F8085C42F8045C23
:2075800002F11002F2D8A4F1100222F00F0204F00F041032032C13440DD91E462246043A93
:2075A000032A46F8045BFAD8221F22F003020432134404F003042CB1C9B21C4403F8011B80
:2075C000A342FBD170BC704714460346C2E700BF704700BF704700BF38B5074C0023054672
:2075E00008462360FDF7DAF9431C00D038BD2368002BFBD02B6038BD10570020F8B50C4648
:20760000224F0646FFF7E4FFBB685D6825F00305291B01F6EF7121F47F6121F00F01A1F588
:207620008054B4F5805F07DB00213046FFF7D4FFBB682B44984204D03046FFF7CBFF002016
:20764000F8BD61423046FFF7C7FF01300DD0104BBA6819682D1B45F001053046091B5560C2
:207660001960FFF7B7FF0120F8BD00213046FFF7B3FFBA68831A0F2BDEDD064C04492468F1
:2076800043F00103001B53600860D5E7B44500202C4F0020C0490020002945D02DE9F0415F
:2076A0000D468046FFF794FF55F8047C6A49A5F1080427F00103E2188E685068B24220F03F
:2076C000030062D0FE0750600BD455F8087C01F1080EE41BA5683B4475456FD0E768EF60E6
:2076E000BD6015186D68ED0742D543F001026260E350B3F5007F18D2DB0848689D100122C1
:20770000013351F8337002FA05F501EBC3022843083AE260A760486041F83340FC60404676
:20772000BDE8F041FFF756BF70475A0A042A53D89A0902F139077F0002F1380501EB8700FC
:2077400051F827200838904243494DD0516821F003018B4202D292689042F7D1D068E06063
:20776000A2608460D4604046BDE8F041FFF732BF95683A4F0344BD423FD0D06843F0010263
:20778000E86085606260E350B3E7FF07034407D455F8085C641BE268A0682B44C260906002
:2077A0002F4A43F001001268606093428C60B6D32C4B40461968FFF721FFB0E71118496893
:2077C000C90744D491680344D26843F00100CA6091606060E350A2E7142A17D802F15C07F9
:2077E0007F0002F15B05A9E7AA104B68012505FA02F213434B600246B1E743F001024C61DD
:207800000C61E560A5606260E35088E7542A06D81A0B02F16F077F0002F16E058EE7B2F562
:20782000AA7F06D8DA0B02F178077F0002F1770584E740F25450824206D89A0C02F17D07FC
:207840007F0002F17C0579E7FE277E2576E743F001026260E35062E7B4450020BC45002002
:20786000BC490020284F0020FEE708B5FAF70EFDF7B500240646254627463046FAF792FDC4
:207880000197019B9D4204DD00BF019B01330193F7E73046FAF7B6FDC5F5C8750197019BAE
:2078A0009D4204DD00BF019B01330193F7E70134B4F5487F06D0B4F5C87FCCBFC4F548759B
:2078C0002546DAE703B0F0BD08B500F00DF8FAF7BDFDBDE808400120FFF7CABFFBF726BE5C
:2078E000FDF7C6BDFAF702BF08B5FBF74DF9FBF7B3F9FBF751F9FAF74BFFFBF785FE00F0F0
:207900009AF8BDE80840FCF76BBD80B2FAF77ABFFAF718BF70470020FBF706B80120FBF70F
:2079200003B80020FBF772B90120FBF76FB90220FBF76CB90320FBF769B9EFF3108072B60A
:20794000704780F31088704710B50446C1B20020FBF7F8F8204610BD70B5054604464618DF
:20796000601B44B1237833B1B44204D01846013400F060FBF4E770BD0020704701207047B9
:2079800010B50446302200210E20FBF729FA84B1012C0CD142F210730011A0F28E50584310
:2079A0002A2390FBF3F000F5C340283010BD4FF0004010BD002070470120704710B50446E5
:2079C000302200210F20FBF70BFA5CB1012C07D140F6F253584347F6F07390FBF3F010BD0B
:2079E0004FF0004010BD10B5041F54F8040F18B10021FCF7CFF9F8E710BD704710B50446DD
:207A000000F01BF82046BDE81040FBF7BBBF10B5044600F027F82046BDE81040FBF7B2BFC0
:207A2000C068B0FA80F040097047837BDB0701D5FCF7A6B87047FFF76DBF10B54160044674
:207A4000FAF7CCFE206010BD10B50446FAF7C6FE2368C3F1010303446068834294BF0020D0
:207A6000012010BD10B50446FFF7EEFF18B194E80C001344236010BD002303607047006889
:207A80007047006800B9704703680BB11846FBE77047036810B573B1002499421A6806D18D
:207AA0000CB9026000E0226000221A6010BD1C460AB11346F1E710BD38B50546FFF7E9FFA3
:207AC00000230B60FFF7DDFF08B9296038BD016038BD0368002013B101301B68FBE7704715
:207AE00000B10068704710B50446428800214068FFF720FD23886288A0685A43BDE81040D2
:207B00000021FFF717BD10B5418800238B420CDA4268D418D25C32B9012222700288806840
:207B200003FB020010BD0133F0E7002010BD30B5826844880023A3420BDA8A4205D14268AC
:207B4000D15C31B10020D05430BD058801332A44F1E74FF0FF3030BD82688A4208D8438822
:207B6000008800FB032081422CBF002001207047002070470023013A016002714371837108
:207B8000704710B5427983790479D31A34EA030308D00368995443795A1C0379134043713F
:207BA000012010BD002010BD837942790179D21A0A421FBF0268D25C01330B401ABF8371BF
:207BC00010464FF0FF30704790F845200121D3081B0303F1804302F0070203F5592301FA01
:207BE00002F253F8223090F844000BB180F001007047006800F19C018230FCF719BD0822A9
:207C0000FFF722BC08B50822FFF7ECFBB0FA80F0400908BD30B40D460446114620B11A469B
:207C20002846234630BC184730BC704730B591B0FCF76AFC0446FCF755FC6A460146204615
:207C4000FCF71AFE044610B94FF0FF3036E0FCF72BFC0028F8D09DF810100C20FCF70CFD9B
:207C60009DF813100820FCF707FD9DF81730ABB1BDF81C50FCF7FAFD854205D04FF6FF7397
:207C8000BDF81C209A42DFD169469DF8170000F0F4F818B969460E20FCF7FCFC02A90D20BF
:207CA000FCF7F8FC9DF8153013B99DF81A1001E04FF6FF710720FCF7DFFC204611B030BDD9
:207CC000F8B50E461446054600283AD0002A38D00C20A84700232074A37416B1E3746375BB
:207CE00003E00820A8476675E0740920A847002701232376A07567740720A847A076FCF750
:207D0000B5FDE0830A20A847012816BF032367766376FCF7ABFDA0830B20A847012801D188
:207D2000002303E00EB1022300E00323E375637E022B02D0E37D022B01D1012300E0002395
:207D40002375F8BD0120FCF729BD0020FCF726BD30B500284ED0037A022B2ED1C479437A18
:207D6000057914B983B9012D0AE003B975B1032C0ED1032B03D1002D3AD1012019E0022BF3
:207D800014BF0020012008E0204606E0012005E0022CF4D1181C18BF012005BB0CB1022CCB
:207DA00005D1023B012B8CBF002301231BE0032C15D19C1E6342634115E00378022B10D062
:207DC00003792BB9437A13F0030318BF012300E00023C07910F0030018BF012003E0002345
:207DE00001E00020034601B10B601AB1106030BD0020D2E730BD37B50D460446002106225C
:207E00002846FFF797FB637DD9075CBF01232B70237E012B0DD8E37D9A0708D0637E9B07C4
:207E200005D0E28BA38B9A4201D1012300E00023237501AA694604F11000FFF789FF009BED
:207E40000BB10223EB70019B0BB102236B70E37D03F00303022B03D0032B0CBF08230023EE
:207E6000AB70637E03F00303022B03D0032B0CBF082300232B7103B030BD02280CBF022370
:207E800008230B448B4205D013F8012DFF2AF9D0002070470120704707B56946FFF7ABFFE1
:207EA0009DF800009DF80130023018449DF802309DF8032018449DF80430104403449DF805
:207EC0000500184403B05DF804FB837810B544781B01E40003F0100304F008041C43C2781F
:207EE0000378520103F00703234302F020021A4303799B0103F0400313430B704379427A49
:207F0000847903F0010343EA8213C279640004F002049200234302F00C021A43037A1B0124
:207F200003F0300313434B7010BDF7B504460D466946FFF760FF04F110002946FFF7C5FFC2
:207F40009DF80030012B02BFA37E0320AB709DF8013018BF0220022B08D1A28B431C2A5441
:207F6000A28BDBB20230120AC0B2EA5401469DF80230E218A24205D012F8017D4E1C6F54D3
:207F8000F1B2F7E718449DF80330C0B2022B08D1E28B431C2A54E28BDBB20230120AC0B2C0
:207FA000EA549DF804301844C0B2C21AD2B223B1013BE118097AA954F7E703B0F0BD1FB5F1
:207FC00002461378084603F007018DF80410C3F3C0018DF80510C3F300118DF80610C3F3C3
:207FE0004011C3F380138DF8083053788DF8071003F001028DF80920C3F340028DF80A2078
:20800000C3F381028DF80B20C3F301128DF80C209B090A2201A98DF80D30FFF715FA05B007
:208020005DF804FB08B5084612B11146FFF794FC002008BD10B50446FFF786FC204610BDA2
:208040000120704710B50446FAF722FA2046FAF73BFA0446FAF732FAE0B210BD08B53D20C0
:20806000FFF7F0FF00F0700008BD38B504460D46FAF70EFA14F43C5FE4B202D02F20FAF728
:2080800023FA2046FAF720FA2846FAF71DFA0446FAF714FAE0B238BD10B50446FAF7F8F91B
:2080A00014F43C5F04D0AF20FAF70EFAE0B202E064F07F00C0B2FAF707FA0020FAF704FAC7
:2080C0000446FAF7FBF9E0B210BD0C2805D1042A05D121B1002008607047012070470220F9
:2080E000704710B5FAF7A8FAFFF7B8FFB8B1602801D13A2002E0702802D13B20FFF7A2FF68
:208100003620FFF79FFFFAF7A1FB6FF4A374241AFFF7A4FF18B1FAF799FBC442F8D410BDAA
:2081200038B50D460446FAF7B3F9FF20FAF7CCF92A4620460021FAF7D9F9BDE83840FAF77B
:20814000BDB938B50D460446FAF7A2F97F20FAF7BBF92A4621460020FAF7C8F9BDE8384089
:20816000FAF7ACB910B50C46FDF758F920B92046BDE81040FDF76ABC10BDFDF799BF70472F
:2081800000207047704701207047012070470120704700207047002070477047704700208D
:2081A0007047002070470120704701207047704770477047002070470020704770470000F7
:2081C00001000000010000000100000000C0004000410D4000000000080000002C000000DA
:2081E00000000001FFFFFFFF0500000002000000020000000200000000D0004008410D40D1
:2082000002000000080000002C00000002010200FFFFFFFF060000000080004010410D40C3
:20822000040000000300000002010201010103000090004020410D4008000000070000009F
:208240000202040205020600C184200081792000797920007D792000D5842000BD79200091
:20826000B5792000B97920004B7D2000457D20002D7C20001C87200078832000D00000001D
:208280006606000047010000350000000D00000000000000952B0D00400D030000210EA5F7
:2082A000AF00000050C30000488420003D5B20001D5420004D5A200065812000B5532000D2
:2082C000B5592000ED52200045522000895220007156200089582000F9572000CB8020009C
:2082E000418020004E872000A95D20007B812000C95D2000555D2000615D20006D5D200086
:20830000FB85200011622000696220001D62200053872000BD8120007F812000B5812000D2
:20832000B9812000A38120008181200085812000A7812000AB812000AF812000B181200021
:20834000878120008B8120008F81200093812000978120009B812000B38120009D8120005F
:208360009F812000A4450020000000004300000000000000000000000100060004006E00F8
:2083800005004E000600900007004E000800E500090023000A0047000B000B000C005600BD
:2083A0000D0019000E00BA000F00C8001000840011004200120005001300940014007A00C5
:2083C0001500E100160027001700F1001B0011001C0090001D0000002000120026002400F1
:2083E000280020002E00FF00002F1800022F0300052F02000C2F56000D2FCC000E2FCC00B5
:20840000102FEE00112F1000122F0400132F5000162F4000172F0E00192F03001B2F330067
:208420001C2FF7001D2F0F001F2F0000202F6E00212F1C00222FAC00272FB5002F2F0500BD
:20844000322F0E00362F030008078000D80E6C07D007B80BB80BB004C000200D4051E47A70
:208460005A6F756C00494E464F005B252D34733A20252D3130735D20005A6F6C65727469EC
:20848000612052452D4D6F7465207265766973696F6E204120706C6174666F726D001D0070
:2084A0001C001B005573657220627574746F6E00636332353338205246206472697665722E
:2084C000004F6E2D436869702054656D70657261747572650056444433004D61696E005397
:2084E00074617274696E6720436F6E74696B692D4E472D72656C656173652F76342E372D57
:2085000037362D673165653634386661392D64697274790A002D20526F7574696E673A20CB
:2085200025730A002D204E65743A2025730A002D204D41433A2025730A002D203830322EFA
:2085400031352E342050414E49443A203078253034780A002D203830322E31352E34204479
:20856000656661756C74206368616E6E656C3A2025750A004E6F64652049443A2025750A52
:20858000004C696E6B2D6C6179657220616464726573733A2000284E554C4C204C4C206107
:2085A00064647229002E0025303278004C4C2D4E554C4C004C4C2D2530347800616C6C002C
:2085C0004E2F41004E6F6E65004572726F7273005761726E696E677300496E666F00446552
:2085E0006275670072706C007463706970006970763600366C6F7770616E006E756C6C6E5A
:208600006574006D6163006672616D65720036746F7000636F617000736E6D70006C776D99
:20862000326D006D61696E004576656E742074696D6572004374696D65722070726F636516
:20864000737300537461636B0045525200436865636B20696E20696E636F6E736973746521
:208660006E742073746174653A20256C642076732E20256C640A00436865636B2066616904
:208680006C65643A20256C642076732E20256C640A00537461636B20636865636B00536534
:2086A0006E736F727300427574746F6E2048414C2070726F636573730053657269616C2075
:2086C00064726976657200202020202020202020202020202020203030303030303030305E
:2086E0003030303030303030313233343536373839414243444546003031323334353637EC
:208700003839616263646566003078003058002D002B00286E756C6C290025003830322E12
:2087200031352E3467203836332D3837304D487A204D522D46534B206D6F64652023310065
:20874000434331323030206472697665720043534D41006E756C6C726F7574696E670062DB
:208760006561636F6E20747970653A2025640A006672616D653A2025640A004255494249C1
:20878000424942494249424942494249424942494249424942494249424942494249424929
:2087A000424942494249424942494249424942494249424942494249424942494249424909
:2087C0000A0041707000426561636F6E2025642073656E742C20646174612025640A0042C8
:2087E0005549424942494249424942494249424942494249424942494249424942494249B6
:208800004249424942494249424942494249424942494249424942494249424942494249A8
:208820004249424942490A0077616974696E6720666F72206D6561737572656D656E7473FA
:208840000A007365636F6E64732073696E636520626F6F743A20256C750A004E6F7420500E
:208860006F6C6C696E67206E6F64652025642C2064743A20256C750A00416C6C2066696E00
:2088800069736865640A0A0A0A006E657720426974206D61736B3A2025640A00646F6E65BB
:2088A0002077616974696E6720666F722074696D6520746F206E65787420626561636F6E05
:2088C0000A0043616C6C6261636B20092072656365697665642072783A2025640A00692071
:2088E000677565737320656E657267657374207061636B657400696E207365636F6E647356
:208900003A0A204350552025346C75204C504D2025346C752054582025346C75205258203E
