:020000040020DA
:20200000F05E00208D2220000B702000097020000970200009702000097020000000000084
:2020200000000000000000000000000009702000097020000000000009702000B170200094
:20204000C3702000C9702000CF702000D570200000000000B7702000BD70200009702000E3
:2020600009702000000000000000000000000000000000000000000009702000000000002E
:202080000000000000000000097020000970200009702000097020000970200009702000AA
:2020A000097020000970200009702000097020000970200009702000097020000970200058
:2020C000097020000970200009702000097020000970200000000000000000000000000003
:2020E000000000000000000000000000000000000000000000000000AD342000BD342000CE
:202100000000000000000000000000000000000000000000000000000000000000000000BF
:2021200000000000000000000000000000000000000000000000000000000000000000009F
:2021400000000000000000000000000000000000000000000000000000000000000000007F
:2021600000000000000000000000000000000000000000000000000000000000000000005F
:2021800000000000000000000000000000000000000000000000000000000000000000003F
:2021A00000000000000000000000000000000000000000000000000000000000000000001F
:2021C0000000000000000000000000000000000000000000000000000000000000000000FF
:2021E0000000000000000000000000000000000000000000000000000000000000000000DF
:202200000000000000000000000000000000000000000000000000000000000000000000BE
:2022200000000000000000000000000000000000000000000000000000000000000000009E
:2022400000000000000000000000000000000000000000000000000000000000000000007E
:20226000000000000000000000000000000000000970200091332000B5332000692E200022
:202280002D362000D12820000970200008B5094BFF221A600848094A4824E369121A084985
:2022A00098470848084AA369121A0021984701F005FAFEE7B4200D4040400020CB4900209B
:2022C000247F2000D0490020EA56002008B5002000F05CFB012000F059FB0D49002000F0B3
:2022E00029FC02F053F8002001F094FE01F076F800F0E2FD00F0FEFD0821064801F0AEF9B1
:2023000001F058FF62B6BDE80840042004F080BE49432000DA56002073B51A4B1B68022BE1
:2023200008DD1949194A1A4802F0D2FE19491A4802F0CEFE6846082101F090F9174E9DF802
:2023400007309DF80650F46A43EA05254AF6CD310220A04729460320A0470A210120A047B3
:20236000736B082269460B20984704F08BFE00F0E1F900210A4801F00DFD022004F048FE8B
:2023800002B070BDE8440020057C2000007C20000A7C2000197C2000D77C20004C7A200021
:2023A0001C4500200022F0B51746154C0125FF2640FA02F3DB071ED504EB4203597814F8B7
:2023C000123061B1D908090301F1804103F0070301F5592105FA03F341F823700BE0D9080F
:2023E000090301F1804103F0070301F5592105FA03F341F823600132032AD9D1F0BD00BF8A
:202400003E7C2000F0B5104C00210125FF2640FA01F3DB0714D504EB41035F7814F8113025
:20242000DA08120302F1804203F0070302F5592205FA03F317B142F8236001E042F8237059
:2024400001310329E3D1F0BD3E7C200070B40E4E0022012516F812300C49D80800030C582F
:2024600003F0070305FA03F324EA03040C5020390144086801320343032A0B60EAD170BCF3
:202480000720FFF7BFBF00BF3E7C200020940D4038B5084B00221A6000F0D8F96FF4A374F0
:2024A000054D241A2B681BB100F0D0F9C442F9D438BD00BF80A00D4020A00D40014BFF2206
:2024C0001A60704780A00D40064B186006480268054912F0100FFAD10A685207FCD5186887
:2024E000C0B27047088000400C800040F0B510B9002936D100E00AB90120F0BD29B1234CC7
:20250000234D002326462F4624E0204C204D03462746AE461E1A964201DB0020F0BD216086
:202520002E68F606FCD4DEF800607607FBD53E6803F8016BEEE7D5F800E01EF0100FFAD12F
:20254000D7F800E01EF0040FFAD0D6F800E000F803E001339342E0DA11F803E0C4F800E00D
:20256000E9E7002AC8D0094C09480B46264605465F1ABA42D1DD13F8017B27600768FF0676
:20258000FCD42F687F07FCD53768F1E7088000400C80004008B5194A136823F0100313603E
:2025A00052F8203C23F0100342F8203C52F81C3C23F0100342F81C3C52F8183C23F010039B
:2025C00042F8183C0E4B1A6810B142F0100201E022F010021A600B4A0120136843F01003D7
:2025E00013600422114600F045FB074B02221A600648BDE8084001F0DBBE00BF20A40D4036
:202600000CA40D4010A40D4000E100E06844002008B5074A0120136843F0100313600422A6
:20262000114600F027FB034B02221A6008BD00BF10A40D4000E100E0024A136823F0100312
:202640001360704710A40D40024B1868003018BF0120704740A00D4038B51F4A072113687D
:20266000022023F08003136052F8203CFF2443F0800342F8203C082200F0FCFA174B052182
:202680001C60012000F090FB002000F013FB144A144D136823F010031360134B1968A3F5BA
:2026A000607321F01001C3F88013116821F001011160D3F8802322F00102C3F880231C607D
:2026C00000F0C4F8A4F6CB54241A2B681BB900F0BDF8C442F9D438BD20B40D4000B20D4063
:2026E00020A40D4020A00D4000A40D40084A136823F00403136052F8203C43F0040342F857
:20270000203C044B04221A60034B01221A70704720C40D4010C00D4068540020044B1868C3
:20272000C0F30720030904BF1030C0B2704700BF1C300D4008B5FFF7F1FF014B1B6808BDF8
:202740001C300D40F8B500F081F80F4B0024D3E900673A46B04238BF7A1C15460443C3E9DC
:202760000045DFF828E0DEE90001821B61EB070312196B41CEE9002301F024F918B1BDE84D
:20278000F84001F0A3B8F8BDD0490020D84900200D4B0E4AE0215A600D4A82F823100022F5
:2027A00007219A6019600B490B6843F001030B60094B1A60042243F80C2C012243F8082C1C
:2027C0000F22DA62704700BF10E000E047E8010000ED00E008200D400C000340034BD3E97B
:2027E0000023100A40EA0360704700BFD0490020034BD3E90023D00B40EA4340704700BF35
:20280000D8490020054B18601C3B1A6842F001021A601A68D207FCD4704700BF280003401B
:2028200010B5064C236823F001032360FFF78AFF236843F00103236010BD00BF10E000E03C
:20284000014B1868704700BFE0490020074B084A196804331B681268120442EA0323054ADD
:202860000B43106843EA0060704700BF40500D4048500D404C500D4010B50446104A136800
:20288000DB07FCD572B6FFF7E1FF231A062BD8BFC41D0C4B220E1A60C4F3074243F8042C35
:2028A000C4F3072243F8082CE2B243F80C2C62B6054B1C60054B4FF400321A6110BD00BF12
:2028C00050500D404C500D40E049002000E100E008B500F011FE094B00221A60084B4FF4D6
:2028E0000032C3F89021C3F89020BFF34F8FBFF36F8FBDE8084001F071BA00BFE04900207E
:2029000000E100E0064B1B681B075FBF054B186880F00800C0F3C00048BF0020704700BF8A
:2029200018C0004018D00040164A2C2303FB00234FF6BF7270B5DC680546236C62649BB2BB
:2029400013F050020DD0104EA369DB0608D456F825301BB12068C0B29847F5E72368F3E795
:2029600070BD13F4D06F0BD04FF440732363FF236360E36AE262E362236B43F00103236387
:2029800070BD00BF60792000E449002001282DE9F74F064600F2BD802C2545435E4B5C190E
:2029A00094F920909846B9F1000FC0F2B28094F92230002BC0F2AD80584800F013FE584A33
:2029C00058F805301168E5680B4313605168636894F921A00B4353609168A36894F82270F6
:2029E0000B4393600023C5F8C83F23690AEBC9021A6094F823305FFA87FB00939DF80030D7
:202A0000227D19465846019300F03EF9019B08221946584600F02EF97FB2424B3F039DF9EF
:202A20000020F9584FF0010E0EFA02F20A43FA504FEA093959F803100EFA0AF20A4349F8D3
:202A400003205022AA63AA6B94F8240042F4D062AA6302226A634FF440722A63A2696A6250
:202A6000E269AA627022EA6242B2002A1D4617DB94F925302C4943EAC2030B6094F8251039
:202A8000120353594CB20EFA04FE4EEA03035351002200F0EFF8254A136843F400431360BB
:202AA0002C2303FB068393F826904FFA89F4002C1CDB93F827705FFA89F95FFA87FA01221C
:202AC00051464846240300F0DFF87FB26359012202FA07F71F43082267515146484600F080
:202AE000C9F8124A136843F4804313602C2303FB0686F268136B43F00103136396F828308D
:202B00000122590903F01F0302FA03F3084A42F8213003B0BDE8F08F60792000052920002E
:202B200028200D4020940D4004410D4030D0004000E100E001289CBF014B43F8201070477A
:202B4000E4490020012808D8044B2C2202FB0030C3689A699206FCD4196070476079200096
:202B6000014B00221A60704700500D40014B08221A60704700500D40024BA0221A605022DA
:202B80001A60704700500D40014B024A9A60704700ED00E00020200038B5164D164C2B68CC
:202BA000012223F040032B602368062123F040032360032000F05EF82B68012223F08003D1
:202BC0002B602368072123F080032360032000F051F80A4A0A4B0B491A600A680A4B1340B1
:202BE000084A002BF9D113685901FCD413685B01FCD538BD20C40D4000C40D400101020006
:202C000000200D4004200D40000001012DE9F84304464FEA0438DFF83C9008F1804606F567
:202C2000592600F069FCD6F8187458F80930E50023FA05F447EA0400C0B2E4B2A840FFB20C
:202C4000AC4001F0BBFBC6F81C7448F80940BDE8F88300BF18970D40034A044B1A60044BCA
:202C6000803A1A60704700BF80400D40F0490020EC490020034B01EBC0011B6843F82120F5
:202C8000704700BFF0490020034B01EBC0011B6843F82120704700BFEC490020012806D899
:202CA000034901220B6802FA00F018430860704718200D402DE9F04F012887B005466BD804
:202CC00018235D43364E741994F811904FFA89FABAF1000F60DBFFF7E1FFA77C76594FF013
:202CE0000008FBB25FFA89F91946C6F80480227A4846C6F8C88F0593FFF7C6FFE57C227B13
:202D0000EBB20193237D019802939DF808B04FEA0A3A5946FFF7B8FF637D62680393A37D3E
:202D20009DF90CC004939DF910E001200EEBCC0111601C4A7FB25AF8021000FA07F70F4377
:202D40006DB24AF802702D039DF90810AF5800FA01F139434FEA0C3CA9505CF80210059BD3
:202D600000FA0EF008434CF80200194642464846FFF780FF424659460198FFF77BFF424628
:202D800004990398FFF776FF237C3361C7233360736843F00203736007B0BDE8F08F00BF60
:202DA000B879200020940D4038B50B4A0403A35801258D4023EA0503A3500022FFF75AFF11
:202DC000064AA3582B43A35004F1804404F55924FF2344F8253038BD20940D4000940D408E
:202DE0000E2870B50BD1164B164E1C6844F002051D60356825F03F0343F001033360124E7D
:202E0000336823F0FF031A43114301430F4A316013681B06FCD50E4B0E4A1B6812680E28D2
:202E200003F0FC0343EA022308BF064A9BB204BF1560034A9BB208BF146018B270BD00BF27
:202E400034000144F486084008700D4000700D400C700D4010700D40024B1868B0FA80F038
:202E60004009704700B70840094B4FF4004210B5C3F89021C3F89020BFF34F8FBFF36F8F9E
:202E8000044C206818B100F09DFF0023236010BD00E100E0F4490020064A136843F0020371
:202EA0001360536843F002035360936843F002039360704748200D4007B50C4800F092FBDA
:202EC000FFF7EAFF0A4B1A6842F002021A6000220192019A0F2A02DC019A0132F8E71A68F6
:202EE00022F002021A6003B05DF804FB592E200054200D40064A136823F0020313605368C2
:202F000023F002035360936823F002039360704748200D402DE9F0410E464FEAD0084FEA8F
:202F2000083400F00701012704F180448F4016F00C0304F559246FEA070505D1D4F81034D7
:202F40002B40C4F810342DE0042B0DD1D4F804342B40C4F80434D4F808342B40C4F808341E
:202F6000D4F80C343B430EE0082B0FD1D4F804342B40C4F80434D4F808342B40C4F80834F8
:202F8000D4F80C342B40C4F80C340BE00C2B09D1D4F804342B40C4F80434D4F808343B43D9
:202FA000C4F8083416F0030204D0022A02D0012A03D104224046FFF75DFE16F0800605D1DE
:202FC000D4F810342B40C4F810340AE04EB1D4F810341F43C4F81074054A012303FA08F370
:202FE0001360D4F820341D40C4F82054BDE8F08100E100E0074B93F90020002A08DB064A7F
:20300000ED211160E32111601A7862F07F021A70012070476C540020388808400B4A13683D
:203020009907FCD4094B1B685B065EBF084BED221A60084B1B6813B1054BEF221A60064A2A
:203040000120137803F07F03137070474C860840388808402C8608406C54002010B50A4BFF
:2030600004461B6813F03F0302D0FFF7D7FF012304EB840205492C3A0A600BB1FFF7BAFF7E
:20308000034B1C7010BD00BF488608403C860840CA49002070B52F4E336813F0400307D01D
:2030A0002D4D2B68DCB21B0604D52C4BED221A60002070BD042CF8D9023C8C42F5DCE4B2BA
:2030C000032C21D001190139032000F0A9F9631E23491B011943032000F0ACF9032000F097
:2030E000B3F9032000F0C8F9032000F0D1F90028FAD129681B4B4939C9B219702B681A4D09
:2031000018062B70D1D506E02B6803702B6843702B688370EDE749B289B2042001F0ACFAD3
:203120002978032001F07F0101F0A6FA0F4B1B786BB933685A060AD5064B1B681B0603D511
:203140000B4800F03FFE02E0044BED221A60204670BD00BF4C8608402888084038880840C9
:2031600002C0010C6A540020695400206B540020D8440020234B1870002838D0224A13689D
:203180001B03FCD5214B1A6842F002021A601A6842F001021A601A681C495007FBD50A68F1
:2031A00022F001020A601968184A4907FBD4116841F002011160116841F0010111601A68D1
:2031C0005207FCD5124A136823F004031360D2F8A83123F00403C2F8A8310E4B4FF4005223
:2031E000C3F89020BFF34F8FBFF36F8F7047084A136843F004031360064B4FF400521A6192
:20320000704700BF6B54002004200D40048808408C86084000E100E02DE9F0412E4F3D7880
:2032200015F0010555D12D4B01241C605C609C60A3F59323A3F51473F8221A600922C3F8A5
:203240009021152270331A6003F59B230B2203F59E731A60A3F59B23214EA3F5A6731C6011
:203260004023336033684FF07F0843F0200333601C4BD5221D60C3F848809A631A4B1878BE
:20328000FFF7ECFE336823F00C033360174BC3F80080174B4FF480421A61022000F0E0F895
:2032A0001449022000F0BCF8032000F0D9F81149032000F0ADF8104B1878FFF75BFF29464B
:2032C0000E4800F067FD3B78204623433B70BDE8F0810020BDE8F0816C540020A8200D40D9
:2032E0002486084008860840CA4900209486084000E100E0288808406B540020D84400209D
:2033000038B503880446CBB140F25D42934203D000230380032038BD194B18781A4628B10B
:203320001B7873B1174B1B7858060AD5822908D1137843B1134B1A78520614D440F25D439F
:203340002380012038BD01F04DF901F0DDF88021FFF7A0FE0028EDDD80B201F0B9F80A4B67
:20336000DB689847E6E700221A70084B1D68FFF755FEFFF751FFAB06E0D0FFF73BFEDDE7F7
:203380006B5400206C540020847A20004886084008B5054B1B7813B9044800F013FD044B33
:2033A00000221A6008BD00BF6B540020D844002034880840064B07481A68042A1FBF064951
:2033C0000A7842F040020A7000221A6000F0FABC2C880840D84400206C54002010B5094C09
:2033E00040220021204603F075FC074B01221A605C60064B4FF480425A604FF400425A6086
:2034000010BD00BF0040002004F00F4000E100E003289EBF014B0001195070470040002067
:2034200003289EBF024B03EB00104160704700BF0040002003289EBF024B03EB001081608E
:20344000704700BF00400020032806D8034901220B6802FA00F018430860704728F00F40DE
:20346000032806D8034901220B6802FA00F018430860704720F00F40032806D80349012224
:203480000B6802FA00F018430860704714F00F4003289FBF044B03EB0010806800F007004B
:2034A00088BF0020704700BF00400020024B4FF0FF321A60704700BF04F50F40014B01226B
:2034C0001A6070474CF00F40094A1368084913F4801FFAD1074B1A6822F480321A600A6818
:2034E000D203FCD41A6842F400321A60704700BF04200D4000200D4010B50A4C23689A0728
:203500000FD009490B68084A13F0806FFAD113685B01FCD5FFF784F9FFF7D6FF2368002364
:20352000236010BD58200D4004200D4038B5274B1C6814F03F0413D1254D55F8243023B110
:20354000984768B10134052CF7D1224D2B783BB1FFF776F90446FFF779F9201A092801D8EC
:2035600030BF38BD002CFBD01B4B1C481A6822F400321A600268194912F4801FFAD11A68A4
:2035800042F480321A600B68DB03FCD5FFF75EF9201A092803D8BDE83840FFF795BF632822
:2035A0000F4C02D92B78022B00D00123236000F0BFFB20B1FFF788FF0023236038BDFFF705
:2035C0003FF90028F6D02368CAE700BF48860840F84900206D54002000200D4004200D4094
:2035E00058200D400749002351F82320824207D01AB9044A42F8230070470133052BF3D10F
:20360000704700BFF8490020054B00221A60054A136943F004031361034B02221A707047BB
:2036200058200D4000ED00E06D540020094B4FF4803210B5C3F89021C3F89020BFF34F8FA2
:20364000BFF36F8F044C206818B100F0BBFB0023236010BD00E100E00C4A0020134B1B78D8
:203660002BB101F5201127310138114B16E0114A1278122AF5D1104A12784B2AF1D1084416
:203680008B420ADA03F52012032BD4BF2C3224321278013300F8012DF2E77047994204D0B7
:2036A00011F8012900F8012FF8E770472B002800270028002A0028002900280010B54F4C74
:2036C00003F0D2FCFFF764F803F085FD00F0D6FA00214B4800F05EFB00F0E2F9FFF740FAAA
:2036E00003F05BFD00F08EFBFEF7F0FD00F07EFE00F0ECFF00F088F92368022B07DD414A45
:203700004149424801F0E4FC414801F0E1FC2368022B09DD3C493B4A3C4801F0D9FC3D4BF3
:203720003D48196801F0D4FC2368022B09DD3649344A364801F0CCFC384B3948196801F07A
:20374000C7FC2368022B09DD2F492E4A2F4801F0BFFC344B3448196801F0BAFC2368022B1A
:2037600009DD2949274A294801F0B2FC4AF6CD312E4801F0ADFC2368022B08DD2249214AAF
:20378000224801F0A5FC0A21294801F0A1FC2368022B09DD1C491B4A1C4801F099FC254B41
:2037A0002548198801F094FC2368022B07DD154A1549164801F08CFC204801F089FC2368E1
:2037C000022B02DD1E4800F041F82368022B02DD1C4801F07DFCFEF79FFD1B4803F0D3FC33
:2037E000FFF7C4F900F062FA0446FFF7C5F914F0FF0FF7D103F042FCF4E700BFE8440020DB
:20380000EC4400207A7C2000057C20000A7C20007F7C2000B07A2000B67C2000A07A20000A
:20382000C57C2000847A2000D07C2000DB7C2000F57C2000F84E0020157D2000227D2000BE
:20384000DA560020197F2000047B200038B5054608B1002409E00948BDE8384001F038BC70
:20386000E30702D4064801F033FC295D0548013401F02EFC082CF3D138BD00BF377D200077
:20388000467D2000487D200010B50E4C236813B90D4A136010BDFEF7A1FF216891E80C00B0
:2038A0001A44131A8A6842B192E812002144091A8B4228BF0B469268F5E71844024B186088
:2038C00010BD00BF104A0020144A0020014800F079BA00BFEC4400202DE9F84303880546C2
:2038E00033B1592B0BD0002303800320BDE8F883234A136059232B800120BDE8F8838729A4
:2039000024D08229F6D11E4F4FF00008B9463C680026002CEED0204603F066FC98B122466E
:203920008821E06800F00EFA58B9E060A3680EB1B36001E0C9F80030C4F80880FFF7A4FFC1
:20394000E5E7FFF7C3FF2646A468E2E70C4900200B681BB90028CDD00B60CBE7DC68A242DC
:2039600002D19B680120F4E700B10B6099680029C0D0C86882420ABF89680B469960F5E7CB
:20398000104A002010B50446FFF7A0FFE3680B4A4BB113683BB1A34203D1094A1268DA6046
:2039A00007E09B68F6E7064B1B68E36013681460A360BDE81040FFF767BF00BF104A0020ED
:2039C0001C4A0020024B1868003018BF01207047104A002010B50B4A04461368834206D1C0
:2039E0008368136008E09A68944203D01346002BF9D103E0A2689A60FFF746FF0023A36040
:203A0000E36010BD104A0020034A9179D379034A03EB012313807047DA560020F84E00201A
:203A2000F8B50388064615462BB14A2B15D0002303800320F8BD174803F0F1FB04462CB18E
:203A4000A168201D03F0AAFB2468F8E7124B01221A704A2333800120F8BD8829FBD10D484B
:203A600003F0DDFB0446002CF3D0231D9D420ED12146084803F0DDFB084B62691F681A60A3
:203A8000A2691D460AB1E06990472F60E1E72468E9E700BF184A00206E5400201C4A002081
:203AA00010B5064B002406481C7003F0B5FB2146BDE81040034800F06DB900BF6E540020F1
:203AC000184A0020FC44002070B50446E3610B4B049D1B786561A26143B1094D094B2E68CA
:203AE000201D2B6003F05AFB2E6000E0A1602146BDE87040044803F0AFBB00BF6E54002041
:203B00001C4A0020FC440020184A002013B5034C24680094FFF7D8FF02B010BD1C4A002034
:203B200010B5084B04461B781BB10430FFF752FF01E0C36003612146BDE81040024803F048
:203B400078BB00BF6E540020184A002010B50A4B04461B7823B1BDE81040043003F030BB3D
:203B6000064803F05CFB18B1A04203D00068FAE7012010BD002010BD6E540020184A0020A7
:203B800038B5836804460D469BB10A4804600220A07304F10C0098470238012801D9832DAC
:203BA00005D121462046BDE8384000F005B80123A37338BD1C4A00202DE9F8431C4A0446E2
:203BC000156889462B4690461A4E3768A34204D00BB11B68FAE7BDE8F88334B3A37BABB1F1
:203BE0000023A37345B1A54204D022468721284603F0EBFA2D68F5E7A3683BB14C4505D0B7
:203C000034602A46832104F10C009847D8F800309C4203D12268064B05E0134623B11A68FB
:203C20009442FAD122681A603760BDE8F88300BF204A00201C4A0020002370B51D46094A5B
:203C400001261370084A146854B1E37B33B1A673E573002282212046FFF792FF2468F3E71C
:203C600070BD00BF71540020204A0020024B1878421C1A70704700BF72540020064B8A22CB
:203C80001A70064A00231370054A1370054A1360054A1360704700BF725400206F5400200F
:203CA00070540020204A00201C4A00202DE9F0411A4D2B780BB1FFF7BFFF194C22783AB363
:203CC000184E0C213378184F5943781817F8018001334768806803F01F03013A3370227033
:203CE00068B9124B1E689EB12B780BB1FFF7A4FF30463A46414603F068FA3668F3E7B8F186
:203D0000810F04BF012383733A46414603F05DFA2B7820781844BDE8F08100BF7154002094
:203D2000705400206F540020244A0020204A0020024A034B10781B781844704770540020F8
:203D400071540020F0B50B4E3378202B0FD00A4C0C252478094F1C4404F01F046C430133D6
:203D60003D19A86039556A6033700020F0BD0120F0BD00BF705400206F540020244A00203B
:203D800038B5034C256803F020FA256038BD00BF1C4A002030B40A4C0A4625682B46834241
:203DA0000CD00BB11B68FAE740B101210560817320608381812130BCFFF7E2BF30BC70474F
:203DC000204A002038B1837B013B012B9FBF024A0123C373137070477154002010B5084CCE
:203DE000206858B100232360816843689847236823B1BDE810401868FEF73EBD10BD00BFC9
:203E0000A44B002082B0074B02AA42F8043DCD21934202D203F8011BFAE70348002102B03B
:203E2000FFF7B8BFEA5600200C45002038B5FEF7A3FE0C4C0C4B22780B4DCD2A06D09C4275
:203E400007D20134F7E7AC4203D201342378CD2BF9D0FEF791FEAC423ABF0348001B4FF012
:203E6000FF3038BDEA560020F05E002070B5038805462BB1912B0BD000230380032070BDEC
:203E80004FF4A0611B4803F089F991232B8003E0184803F095F908B9012070BDFFF7C6FF19
:203EA000154C164B061EA3EB040401DB002C0CDA134B1B68002B18DD124A1349134801F093
:203EC00007F92246314612480DE0A6420DDD0C4B1B68002B09DD0B4A0B490C4801F0F8F821
:203EE000224631460B4801F0F3F8024803F05FF9CBE700BFA84B0020EA560020F05E0020CD
:203F0000E8440020E47D2000EA7D20000A7C2000EE7D2000187E20002DE9F0410688054646
:203F2000772E31D07E2E40D0002E4ED12B4CFFF79DFE266026462A4B2A4FDFF8B08018705B
:203F4000236857F823204AB1002108F80310936880209847336801333360F1E7224A137072
:203F6000772320E0214AD256002A12DB1B4A136801331360194B1C4A1B6812789A42F1DCF6
:203F80001B4B1B68002BEBD0194A00231360134AEFE7144A002052F82320114B1978FFF738
:203FA000D1FE30B97E232B8014E00D4B1B788B4210D10A4B0D491A688B5C03F07F038B5408
:203FC0000B4A136801331360D0E7002303800320BDE8F0810120BDE8F08100BFB84B0020BB
:203FE000E5560020CC44002073540020E2560020BC4B0020054A136843F004031360044B0A
:204000001B68906943EA002080B2704700700D4014700D4010B5184A136823F00C03136029
:20402000164B01221A601A68012AFCD1144B08221A60E322C3F8142203F505731946114AE5
:204040001368DB07FCD5104C102000232268013802F0010243EA02034FEA43039BB2F5D107
:20406000002BF1D0094A180A03F0FE0310601360EF230B6010BD00BF00700D40A8200D402D
:2040800024860840648608409C86084014700D4010B5044690F84C30084A013380F84C3034
:2040A000802103462030FFF731FD054B2246BDE8104019780020FFF745BE00BF914020009B
:2040C000E756002070B503880446C3B1B3F5867F03D000230380032070BD822912D102F01F
:2040E000FCFFBFF35F8F114B00221E681A60BFF35F8F02F0F6FF0E4D55F8040F20B94FF449
:2041000086732380012070BD90F8453026FA03F3DB07F1D5FFF71AFD0028EDD02B68054A26
:2041200002211846FFF7F2FCE6E700BFC04B0020C044002051412000034A136818431060FA
:204140000248FFF73FBE00BFC04B00202C45002070B50446FFF7FAFC20B304F120063046E8
:20416000FFF7F4FC0546204603F0FEF801280CD1C5B1002523460C4A84F84C507E21304632
:20418000FFF7C4FC2246094B06E058B955B93046FFF7C6FC2246064B2846BDE8704019786D
:2041A000FFF7D0BD70BD00BF91402000E8560020E6560020F8B5FFF759FD304B304D18706C
:2041C000FFF754FD2F4B304C1870FFF74FFD2F4B2F4F18700023AB602E4B01266B60216836
:2041E000002943D091F84530886C2B4AD90809030A44116803F0070306FA03F321EA030364
:2042000013602368254A93F84530D90809030A44116803F0070306FA03F321EA0303136006
:20422000236840F08C0193F84500FEF773FE23681B4A93F84530D90809030A44116803F069
:20424000070306FA03F30B431360236893F84530DB0806FA03F33B6054F8043B93F8453013
:2042600006FA03F2AB681343AB60B8E70D48FFF791FDBDE8F840024800F09AB8E856002096
:20428000C44B0020E6560020C4440020E756002000E100E03941200020940D4000940D40D1
:2042A00010940D402C45002070B505880446672D09D0792D32D0002D36D1FFF7D7FC1D4B06
:2042C00018701D4B1D601C4D2E461C4803F03CF8431C01D167231FE00A28174A09D00D28AE
:2042E00007D02B687E2BF0DC5A1C3260144AD054EBE713680025591C1160114A2846D5540B
:204300000C4B1978FFF71EFD0E4B2A4685211868FFF718FD20B97923238009E0852907D123
:20432000054B00221A60CEE700230380032070BD012070BDE9560020D84B0020D04B0020BB
:20434000F55400201C4A002038B50D4C01462378254633B90B4802F0E4FF60B901232370F7
:2043600009E00A2801D00D2805D1064802F0D9FF08B100232B700448FFF724FD012038BD3E
:20438000F4540020D04B00203C45002008B505490548802202F0BEFFBDE8084000210348D7
:2043A000FFF7F8BC74540020D04B00203C4500200146014802F050BFDC4B002038B505467F
:2043C000064802F02CFF04463CB1A068284002D0636803B198472468F6E738BDDC4B0020F6
:2043E000014802F019BF00BFDC4B002008B5044802F049FFBDE80840024802F044BF00BF76
:20440000584500204C45002038B50E4802F04BFF0446A8B10C4802F046FF0546206028B9D5
:204420002146084802F053FF284638BD00F074F805F19C01A5F8800005F1820000F0F8F8BA
:20444000204638BD4C4500205845002010B501460446074802F050FF48B12168054802F0EC
:2044600036FF2146BDE81040014802F030BF10BD4C4500205845002010B50146044609489F
:2044800002F03AFF68B12468B4F88010204600F0B9F804F19C0104F18200BDE8104000F01B
:2044A000D9B810BD4C45002010B507490B88834208DB064C80B222880244181A08802280CD
:2044C000012010BD002010BD5A5400205C540020014B1880704700BF5A540020004870473C
:2044E000004C0020014B1888704700BF5A540020034A044B10781B781844C0B2704700BF25
:20450000855500205C54002008B5FFF7F1FF014B184408BD004C002070B50D4D0D4C2A78DB
:20452000238806461344802B0FDC0B4902F05CFB2B781E44FFF7E8FF22880146304602F0BF
:2045400053FB28782388184470BD002070BD00BF855500205A540020004C002008B5FFF746
:20456000C7FF024B1B88184480B208BD5A54002038B50146FFF7F2FF4318802B11DC0A4A02
:20458000013880B2541803B2002B04DBD55C0138E55480B2F7E7054B01201A7811441970F1
:2045A00038BD002038BD00BF004C00208555002038B5094D094C1A220021094802F08AFB0F
:2045C0002946204602F0EBFE294604F10800BDE8384002F0E4BE00BF107B2000B05600207E
:2045E000C0560020044A00231380044A1380044A1370FFF7DDBF00BF5C5400205A540020E0
:204600008555002038B50C460546FFF7EBFF802C28BF802422462946034802F0E5FA034BBE
:2046200020461C8038BD00BF004C00205A54002010B50C461A22054902F0D6FA2046BDE81C
:2046400010401022024902F0CFBA00BFC0560020B056002010B50C461A220146044802F01F
:20466000C3FA2146BDE810401022024802F0BCBAC0560020B0560020024B23F81010012038
:20468000704700BFC0560020014B33F810007047C056002008B5044B0D3803EBC00002F009
:2046A0007EFE012008BD00BFB0560020024B0D3803EBC000704700BFB05600200149024843
:2046C00002F070BE107B2000B8560020054B10B51B689847044B5B689847BDE81040034B36
:2046E0005B6818474C7A2000847A2000A07A2000F8B5FEF773F804460F4F00250D2007EB61
:204700000516FFF7D3FF314602F04CFE78B10720FFF7BAFF337B834201D00020F8BDB068D3
:20472000201AB0F5206F8CBF00200120F8BD0135102DE3D1F1E700BF804C002070B5164E97
:2047400000240D20FFF7B2FF06EB041102F02AFE114D611C10B910290C46F2D14C1E05EBF5
:204760000111A1F110063CB120391022304602F03BFA013C3146F4E70720FFF785FF28739F
:20478000FEF72CF8A8600D20FFF790FFBDE870400146014802F003BE804C002030B591B09C
:2047A000054600F063F84FF6FF73984202D14FF0FF3052E040220021684602F08BFA284B44
:2047C0001A782AB901221A70FFF714FC254B18707DB10720FFF758FF58B9224C23780BB939
:2047E0000123237021780720FFF746FF237801332370FFF763FF6A46C1B21B4802F030FEA7
:20480000FFF75CFF28B1FF238DF800308DF8013006E00E20FFF74AFF0146684602F0BFFDEB
:204820000D20FFF743FF014602A802F0B8FDFFF76BFE0E90FFF756FE0F90684602F0FCFEFB
:2048400004464DB1FFF794FE0028B0D0FFF746FE0146684602F039FF204611B030BD00BFB4
:20486000875500208655002089462000014B1888704700BFC84900202DE9F041012986B018
:2048800006460F46144640F3838003A902F067FF0A2203A904F1100002F0A6F99DF811309F
:2048A0000BB1B51C02E0B378F51CA37602AA01A903A802F01DFE9DF81380B8F1000F23D053
:2048C000029B23B16A7815F8023B03EB0223B8F1020FA38309D13049204602F060FD6B785D
:2048E000237015F8023B637014E0B8F1030F11D105F108021346611E13F8010DAB4201F8A0
:20490000010FF9D1154605E02349204602F047FDA4F81C809DF81580B8F1000F2BD0019BC4
:2049200053B16A7815F8023B03EB0223029A9BB2E3831AB9A38301E0A38BE383B8F1020FBD
:204940000AD1154904F1080002F029FD6B78237215F8023B637215E0B8F1030F12D105F1E9
:2049600008021346E11D13F8010D9D4201F8010FF9D1154606E0084904F1080002F00FFD7E
:20498000A4F81E80A81B3B1A8742E363A56300DA002006B0BDE8F081107B2000074A08499B
:2049A00013681844884283BF064B0C224FF0FF3010608CBF1A601846704700BF6445002055
:2049C00000800020AC56002070B505460C46102C07D92B68102208496868984750B9103C1D
:2049E000F5E734B12B68224668680349BDE870401847204670BD00BF687E20002DE9F04F7E
:204A0000064615468FB006914FF0000B069B1B78CBB1069C274617F8013B1BB1252B14D0C5
:204A20003C46F7E7069BA3420DD0069B0699C3EB04084246336870689847002840F02583DF
:204A40002378C34423B958463AE3069BA342ECD16378002BF7D039460024084610F8013BD8
:204A60000A462B2B11D006D8202B11D0232B12D144F0080416E02D2B04D0302B0BD144F0A7
:204A800010040FE044F001040CE044F0060409E044F0020406E0A3F13107082F11D84FF07C
:204AA000000801E00146D8E70A4611F8013BA3F13000092813D80A2202FB0838A8F1300858
:204AC000F2E72A2B09D12B680246002B05F10405B8BF44F00104984601E04FF00008137888
:204AE0002E2B1AD15178531CA1F1300009280ED8194600270A780B46A2F13000092801F122
:204B000001010DD80A2303FB0727303FF2E72A2904D12F68931C043502E013464FF0FF37B6
:204B20001A786C2A09D15A786C2A02D144F080040AE0013344F0600411E0682A0AD15A789A
:204B4000682A03D144F02004023308E0013344F0400404E07A2A04BF44F0600401331A7825
:204B6000642A3CD01FD8462A48D00DD8252A5AD003D8002A3FF467AF57E0412A4AD0452A45
:204B800053D144F4424450E0582A31D004D8472A4BD144F4A13448E0612A38D0632A44D1AD
:204BA00044F4A06441E06E2A3AD007D8662A22D027D3672A28D0692A11D036E0732A2CD0EF
:204BC00006D86F2A11D0702A2FD144F440742CE0752A07D0782A28D144F4C85425E044F449
:204BE000245422E044F410641FE044F488541CE044F4B24419E044F4007416E044F48444B7
:204C000013E044F4024410E044F481340DE044F4C1340AE044F4E13407E044F4806404E00E
:204C200044F4E06401E044F4C0640133069304F4E063B3F5806F00F08F8113D8B3F5807F8A
:204C400027D0B3F5407F7FF4E1AEAE4B14F4804FAD4A18BF1A460DF13303286800210435D8
:204C60001F46B5E1B3F5C06F08D0B3F5E06F00F02282B3F5A06F7FF4C9AEF2E133680122CD
:204C8000A24970689847002840F0FF810BF1010BBCE6002FACBF24F01004012714F40053AB
:204CA000079304F0E0032ED0402B12D005D8ABB1202B21D195F900200DE0602B0ED0802B13
:204CC0001AD1073525F0070303F10805D3E9002307E0B5F90020D317043502E02A68043529
:204CE000D317002A73F1000108DA524263EB4303CDE90023012304E000220023CDE9002332
:204D00000023059329E0402B13D004D8BBB1202B1DD12A780EE0602B11D0802B17D1073535
:204D200025F0070303F10805D3E90023CDE900230BE02A880023CDE90023043505E02B6851
:204D400000221946CDE900120435079BD9E70023059300220023CDE9002304F4C053B3F5E3
:204D6000805F0CD0B3F5C05F33D0B3F5006F4FD1DDE900230DF13609CDE9022304E0DDE9CC
:204D800000230DF1360915E0DDE9022313433AD0DDE902010A22002301F0B0FADDE90201F7
:204DA000303209F8012D00230A2201F0A7FACDE90201E9E752EA030125D002F00701303168
:204DC00009F8011DD10841EA4371D8080A460346F0E74C4B14F4804F0DF136094A4918BF97
:204DE0001946DDE9002352EA03000CD002F00F00085C4FEA131E09F8010D100940EA0370BC
:204E000002467346EFE70DF13603C9EB030302E00DF1360900230293029B41F60802BB4218
:204E200038BFFF1A41F2080302EA040228BF00279A4202D1002F08BF012741F60801029B7A
:204E40008A4203EB07000DD1DDE90023134309D02F4A304914F4804F4FF0020A0CBF0B466B
:204E6000134602E04FF0000A5346079A9AB1059A52B904F00602022A0AD0062A264A04BF1A
:204E80004FF0010A134606E04FF0010A234B02E0234B4FF0010A0AEB000290458CBFC2EB73
:204EA00008084FF0000814F0010200920DD1E10602D54744904608E0414630460593FFF792
:204EC00083FD059B002840F0E080BAF1000F07D03468524619467068A047002840F0D5806A
:204EE000029B03EB0B04BB46BBF1100F33681BD910220C4970689847002840F0C680ABF145
:204F0000100BF1E7887E2000997E2000BB7E2000AD7E2000AA7E2000B27E2000B07E2000B7
:204F2000357D2000787E2000BBF1000F06D05A46654970689847002840F0A7803368029A3D
:204F40004946706854449847002840F09E80009B3C44002B39D032E0D5F800900435B9F15C
:204F6000000F0AD0CA469AF800300AF101020BB19246F8E7C9EB0A0A03E0DFF850914FF063
:204F8000060A002F02DBBA4528BFBA46D0458CBFCAEB08084FF0000814F0010705D141463A
:204FA0003046FFF711FD00286FD133685246494670689847002868D10AEB0B042FB14146CA
:204FC0003046FFF701FD00285FD108EB040B1DE550EA010E0ED000F00F0E12F80EE04FEAA6
:204FE000111C03F801ED4FEA101E4EEA017E70466146EDE7FF1A02BF3022012703F8012CD0
:2050000007F1030708BF03F1FF337822B84503F8012C4FF0300203F8022C88BFC7EB08083F
:205020004FF0230298BF4FF0000814F00104A3F1030903F8032C04D141463046FFF7C4FC13
:2050400018BB33683A46494670689847E8B95F4424B141463046FFF7B7FCB0B908EB070BEF
:20506000D4E4B8F1010F2B688CBF08F1FF384FF0000814F0010405F104058DF8203008D1B4
:2050800041463046FFF7A0FC10B14FF0FF3017E0C3443368012208A9706898470028F4D141
:2050A00008F101072CB141463046FFF78DFC0028EBD1BB44AAE42B680435C3F800B0A5E465
:2050C0000FB0BDE8F08F00BF787E2000B47E20000FB407B504AA52F8041B04480192FFF75B
:2050E0008DFC03B05DF804EB04B070476845002010B504462B2002F09FFB6300233303F066
:205100003F0300F0C00119432B2002F07EFB014B1C7010BD8C56002010B502F06FFBC0B151
:20512000602801D13A2002E0702803D13B2002F059FB0EE0362002F055FBFDF787FB6FF46D
:20514000A374241A02F05AFB18B1FDF77FFBC442F8D40D4A6FF4A374137823F004031370B1
:20516000FDF756FA3A2002F03DFB342002F03AFBFDF76CFB241A02F041FB102803D0FDF726
:2051800065FBC442F7D410BD8D56002010B51A4C23785B060CD52378332023F0400323702F
:2051A00002F020FBFDF752FB6FF4A374241A0CE0FDF71EFB114B1B68C01AB0F5617FEAD2F6
:2051C00010BDFDF743FBC44203D502F017FB4028F7D1FDF73BFB6FF4A374241A03E0FDF705
:2051E00035FBC44203D502F009FB0028F7D1FDF7FFFA024B186010BD8D560020804D00204C
:2052000010B5FFF7C3FF0E4A3A2013786FF4A37423F00403137002F0E5FA342002F0E2FACA
:20522000FDF714FB241A02F0E9FA102803D1BDE81040FDF7EDB9FDF709FBC442F3D4F6E71B
:205240008D56002010B50E4B1B889BB2002B14BF0120002012D10B4C23787BB9237842F622
:20526000D7700133DBB2237002F0E6FA2378003003F1FF33DBB218BF0120237010BD00BF2C
:205280005E5400200A56002070B5164D2B7803F0020303F0FF001BBB134C23780BBB237876
:2052A0006FF4A3760133DBB22370FDF7F1F8FDF7CDFA361AFDF7C8F968B9FDF7FFF8032052
:2052C0000621287002F0A1FAFFF79AFF2378013BDBB2237004E0FDF7B9FAC642EAD4ECE7D8
:2052E000012070BD8D5600200A56002008B5094B1B7803F00A03022B01D0002008BDFDF762
:20530000A3F9012805D0044B1B889BB2002BF4D0012008BD8D5600205E54002038B5234AB0
:205320003A2013786FF4A37423F00403137002F059FA2621032002F068FA352002F052FADB
:20534000FDF784FA241AFDF77FF9012803D1FDF77BF928B111E0FDF779FAC442F3D4F6E7F1
:2053600042F6D67002F068FA38B102F08AFA0621032002F04AFA012038BDFDF767FA0446C7
:205380000B4DFDF761F948B9FDF75EF90128ECD00621032002F039FA002038BDFDF756FA6E
:2053A000EB682344C01A0028EBDBEDE78D560020147A2000F8B5154D0A462C88A4B21CB3AE
:2053C0002B8813499BB20B4413F9024C114B124E93F92C30234433802B882C889BB2A4B200
:2053E000023C944210DC0B4413F8017C224601F0FBFB0023318804202B80FFF73DF907F0B9
:205400007F010320FFF738F92046F8BD5E54002088550020147A200064540020CB1E7A2BC4
:2054200073B506460C461BD80F4B02AD198025F8021D02F026FA0D4A3A20137823F004036D
:20544000137002F0CFF93B2002F0CCF90121284602F047FA3046E1B202F043FA002000E002
:20546000012002B070BD00BF625400208D5600202DE9F043744D93B02B782F4603F0FF0439
:20548000DFF8E8814BB198F80030704843F0200388F80030FEF796FCCAE098F8003023F04E
:2054A000200388F800302B780133DBB22B7002F0A5F900F0EF0060281DD042F6D77002F0C5
:2054C000BBF9064620B92B78013BDBB22B70B8E098F8003003F0040303F0FF04EBB9DFF829
:2054E00074910121484602F0EBF9B9F80030022B01D97D2B07D9FFF70FFE2B782046013B69
:20550000DBB22B709DE0524B701E1C8098F80030C6B243F0040388F8003098F800305907DD
:2055200040F18A804A4C4B4D20882B88321802339A427FDCDFF82C813146404402F0C0F9C7
:2055400020882B88304481B202339942218073D108EB010313F9013C002B6BDA3E4D2B8866
:205560009BB2002B66D102AE32464046FFF784F9002849D0394B1A68984612F0010F04D14F
:20558000D8F800309A0715D510E09DF81830022BF6D09DF81F30022B0CBF0223082313F190
:2055A000FF33EDD3F25CFF2AF9D026E09DF81820012A01D0022027E09DF81B20002AF9D0FE
:2055C000DB0713D402238DF8043000238DF805309DF822308DF8063002F053F9032101A89A
:2055E000FFF71CFFFFF79AFE03200DE01C49304601F0D8FE0028E5D1DCE71949304601F0F0
:20560000D1FE0028BCD101200238012812D8238814492B802A88144892B201F0E5FAFFF7CD
:205620007BFD0A48FEF7CEFB3B78013BDBB23B70012006E0FFF770FD3B780020013BDBB2B5
:205640003B7013B0BDE8F0830A5600207045002060540020665400205E540020884D0020FA
:20566000DA5600200C560020885500208D56002038B5184D2B789B072AD5174C23780BB108
:20568000002038BD23780133DBB2237002F0F9F842F6D77002F0D0F860B12378013BDBB275
:2056A0002370FFF7E5FE2378002BE9D123780133DBB223703221032002F0A7F8392002F0BD
:2056C00091F823780120013BDBB22870237038BD012038BD8D5600200A560020404A2DE963
:2056E000F34792F8281092F8295092466B1A013390FBF3F404FB1300C4B20F19FFB2B9424C
:2057000068D8BD4266D3374DDFF8E8802B7863B1354B36481F7098F80030012643F01003DD
:2057200088F80030FEF74EFB55E098F800301A07EED4FFF7DBFD06460028E9D198F80030E7
:2057400023F010029B0788F8002004D4FFF79CFD4FF0010900E081462B780133DBB22B708C
:2057600002F08FF8DAF8243042F60E705C434FF47A73B4FBF3F1DAF820300B4440F271213D
:205780001B03B3FBF1F10191C9B202F03EF89DF8051042F60D7002F038F89DF8061042F6C2
:2057A0000C7002F032F8124B1F70B9F1000F07D198F8003043F0400388F80030FFF720FDDB
:2057C0002B78013BDBB22B70B9F1000F03D0FFF74FFF00E00226304602B0BDE8F08700BFE7
:2057E000147A20000A5600200956002070450020085600208D56002010B50C46072836D852
:20580000DFE800F00410353516181B2A012902D1FFF73AFD1EE009B1022010BDFFF728FFF2
:20582000204610BDC8B2FFF759FF022812D1F3E7104B00E0104B1C600CE0104B93F92A1067
:205840006FF00F038C42A8BF0C469C42B8BF1C460B4B1C70002010BD7F2905DC6FF07E0361
:205860009942B8BF1C4600E07F24064BF1E7012010BD00BF884D0020844D0020147A200087
:20588000075600208B56002070B50C4600297BD018287BD8DFE800F00D187A7A1D1F2224BA
:2058A00028527A7A7A7A565A5E617A65676D70737600374B1B7803F0020303F0FF000BB150
:2058C000012303E0086070BD324B1B782360002070BD314B00E0314B1B68F7E7304B00E0B8
:2058E000304B93F90030F1E7294B1B789A0703D4FFF7CAFC012600E00026FCF7A7FF6FF435
:20590000A3752D1A42F6727001F096FF83070DD542F6717001F090FF234B40B293F92C501B
:205920000544ADB23EB1FFF7A3FE04E0FCF78EFFC542E7D4ECE72DB22560C8E71B4BB3F91B
:205940000030C3E7184B93F82830BFE7164B93F82930BBE76FF00F03B8E7134B93F92A3046
:20596000B4E70323B2E7104B1A6B114BB3FBF2F3ACE70D4B5B69A9E70B4B9B69A6E70A4B83
:20598000DB69A3E77D23A1E7022070BD012070BD8D56002008560020884D0020844D00200D
:2059A0008C5600200B560020147A20006454002000127A00F8B5214D2B7803F0FF06002B71
:2059C00039D11F4B1B789A0702D4FFF75DFC01262B780133DBB22B70FCF736FE012820D094
:2059E000184B194F1C783B789C4204D02146172001F00BFF3C70FCF729FF6FF4A3773F1AAD
:205A000042F6727001F018FF8307044604D584F00404C4F3800405E0FCF718FFC742EFD445
:205A2000F5E700242B78013BDBB22B700EB1FFF71FFE2046F8BD0020F8BD00BF0A5600205E
:205A40008D5600208B5600200B5600202DE9F041334B1B8883425FD1324C237843F008020E
:205A600022709A0703D4FFF70FFC012700E000272D4B1B68DB070CD5FFF79CFF48B90FB1DC
:205A8000FFF7F6FD2378022023F008032370BDE8F081264E33780133DBB2337001F0F1FE36
:205AA000234B244A93F9003092F90000834201D0FFF71EFB0FB9FFF769FBFFF72FFCA8B97A
:205AC000FCF7C4FE0546DFF8708001F097FE102803D1FCF79DFD002510E0FCF7B7FED8F853
:205AE00010302B44C01A0028EFDBF2E72FB9237843F040032370FFF783FB01253378013B45
:205B0000DBB233700FB1FFF7B3FD2378284623F008032370BDE8F0810120BDE8F08100BF29
:205B2000625400208D560020844D00200A5600208C56002007560020147A20002DE9F041A7
:205B40004E4B1878984610F0010440F094804C4F3B780133DBB23B70FCF77EFD2046FCF774
:205B600019FD484CFCF794FC3020FCF7ADFC642001F09BFAFCF7A2FC25896668AD08002E12
:205B80006ED194F82C10182001F03FFE2621002001F03BFE2621012001F037FE062103202F
:205BA00001F033FE1F2001F047FE00F0E7011F2001F02BFE292001F03FFE00F0CF0141F0B5
:205BC0003F01292001F021FE2A2001F035FE00F0CF0141F030012A2001F017FE00212620E5
:205BE00001F013FE272001F027FE40F00101C9B2272001F00AFE282001F01EFE00F09F0174
:205C000041F02001282001F000FE1F4B03221A601E4B01221A6094F82A001D4B187040B254
:205C2000FFF766FA94F82B401A4B214617201C7001F0EBFD184B002118481C70FEF7AAF8A8
:205C400098F800301A2043F0030388F800303B78013BDBB23B70FFF741FDFFF709FD0AE020
:205C60000436002D8DD016F8021C36F8040C01F0CCFD013DF4E70120BDE8F0818D560020E9
:205C80000A560020147A2000884D0020844D0020075600208B5600200B560020704500201C
:205CA000822970B505460E4626D11C4B1A781C4602F02202222A01D1FFF7DAFB2378DA06A9
:205CC00003D5174B1878FFF709FD164B1B685B0712D4154B1B889BB273B1FEF783FCFEF7F5
:205CE00013FC8021FFF766FB002805DD80B2FEF7EFFB0E4BDB6898472A8840F2622312B1DB
:205D00009A4202D003E02B8005E0832E03D100232B80032070BD012070BD00BF8D560020AF
:205D200009560020884D00205E540020847A200010B501210C20FEF79FFCBDE81040014B1B
:205D40005B681847087A2000014B9B68184700BF087A2000014B1B6A184700BF4C7A20009B
:205D6000014B5B6A184700BF4C7A20000C4B13B51B6898470B4B044601A918209B6A984727
:205D800001280AD0002C0198B8BF15248028D4BFC4EB0000C4F1800000E0002002B010BDED
:205DA000087A20004C7A200007B5064B01A918209B6A984718B900F019FAFFF7CBFF03B041
:205DC0005DF804FB4C7A200007B5FEF78BFB032823D0FFF7B9FF00281FDB0E20FEF766FCDF
:205DE0000F4901F0DFFA38B10D20FEF75FFC0C4901F0D8FA88B904E0FEF760FC0028F3D1A1
:205E00000BE0FEF775FC40B9FEF798FC054B9B68019303B05DF804EB184703B05DF804FB6B
:205E2000DA560020A07A200070B590F82D400122012CD4BF03340524054602FA04F4FEF747
:205E4000D9F8013CB0FBF4F12B4601FB1401034A05F10C00BDE87040FDF758BEE55E200011
:205E60002DE9F0470D4614468B68804693E8C000506B92F82C9001F0DCF96868FEF7E6FAC8
:205E8000A968144801F023FA2946134801F01FFA606B01F0C4F940B1002384F82C3084F8D2
:205EA0002D302046FFF7C0FF0BE004F10C00FDF737FE2146094801F0BCF92146084801F04F
:205EC00006FA4B46424639463046BDE8F04701F071BA00BF804500208C450020EC4D0020CE
:205EE000984500202DE9F74F0446002800F0D980406B01F094F90546002800F0D280406808
:205F0000FEF7BAFA68490D20FEF7C4FB01210820FEF7B2FBFFF70CFF0028C0F2C080FEF74A
:205F2000DDFA624E90F802807768FEF7D7FA8146FEF714FB01464846B847FEF7BFFBD6F80F
:205F400018908246C847002860D1BAF1000F0BD0B768FEF703FBB8470746FCF777FC6FF0B1
:205F6000A20BC0EB0B0B04E0F369984700284DD1EEE7FCF76BFC1BEB000FFAD417F0FF072F
:205F800004D0022F0CBF0120042040E0BAF1000F01D000203BE0FCF759FC6FF0A20AF76953
:205FA000C0EB0A0AB84710B1C84740B905E0FCF74DFC1AEB000FF5D4F6E7B84730B1FCF7AC
:205FC00045FC6FF01409C0EB090909E0736998470028F4D009E0FCF739FC19EB000F02D5BC
:205FE000B8470028F7D0B84708B902200FE03369032101A89847032808D19DF80600B0EB60
:20600000080018BF01200028C3D000E00120AA68002A46D003283DD8DFE800F0021B0B4310
:2060200094F82C300020013384F82D0084F82C3030E0002384F82D3094F82C300133DBB2EE
:2060400084F82C30127A9A421DD822462946022022E094F82D300133DBB2052B83BF0023D1
:2060600084F82D3094F82C3084F82D3084BF013384F82C3094F82C10137A994203D32246C9
:206080002946012008E02046FFF7CEFE686801F080F906E022462946FFF7E2FE01E005208D
:2060A000B5E703B0BDE8F08FDA5600204C7A20002DE9F04107460E208846FEF7F7FA454B31
:2060C00005461A78444C22B901221A70FDF792FF2070237813B9404B01221A702178072057
:2060E0004B1C2370FEF7C8FA01210C20FEF7C4FA3A4801F094F8044640B12946201D01F017
:2061000051F9D8B9204601F0BBF8F4E7344801F0CAF8044640B32946201D01F040F900235A
:2061200004F13000606384F82C3084F82D30236301F072F82146294801F08EF8606B01F0DA
:2061400098F8072810DC274801F0ADF8054698B9606B01F08EF838B92146204801F069F89F
:2061600021461F4801F0B3F841463846BDE8F0410123062201F01EB91B4801F094F8A860DE
:2061800008B3FEF741F96860C8B10620AE68FEF77BFAC0B208B1307201E00823337286E842
:2061A00080012946606B01F057F8606B01F037F885420DD12046BDE8F041FFF735BEA9681E
:2061C000094801F084F82946064801F080F8BFE7BDE8F0819F5600208E560020EC4D0020AD
:2061E000984500208C4500208045002008B5054801F049F8044801F046F8BDE808400348DD
:2062000001F041B88C4500208045002098450020014B00221A607047C04E002010B50446E5
:20622000FEF7E0F90B4B19880B4B1868FEF7EAF90CB1214600E009490E20FEF72BFA0849FC
:206240000D20FEF727FA074B002108469B689847012010BDA8560020A4560020107B200087
:20626000DA560020847A20002DE9F0410C4B1C68A4B1FEF749F90546FEF734F906460D201C
:20628000FEF714FA07460E20FEF710FA3A46034631462846A446BDE8F0416047BDE8F08156
:2062A000C04E0020014B1860704700BFC04E002073B5064608460D4600F0B0F904462A46E0
:2062C000314600F091FCE078A3786278217800900248FEF7FDFE02B070BD00BF007F2000DD
:2062E00010B50388044613B90348FFF7DBFF00232380032010BD00BFB162200053B94AB966
:20630000002908BF00281CBF4FF0FF314FF0FF3000F082B9ADF1080C6DE904CE00F006F8BA
:20632000DDF804E0DDE9022304B070472DE9F04F8C460C460546099E002B4FD18A4217466F
:206340006BD9B2FA82FEBEF1000F0BD0CEF1200520FA05F501FA0EF345EA030C02FA0EF701
:2063600000FA0EF5390CBCFBF1F0BAB201FB10C300FB02F84FEA154C4CEA0344A04509D935
:20638000E41900F1FF3380F02881A04540F2258102383C44C8EB0404B4FBF1F301FB134CA4
:2063A00003FB02F2ACB244EA0C418A4209D9C91903F1FF3480F00F818A4240F20C81023B93
:2063C00039448A1A43EA00400021002E63D022FA0EF2002386E80C00BDE8F08F8B4207D923
:2063E000002E56D0002186E811000846BDE8F08FB3FA83F1002940F09380A34202D382422C
:2064000000F2FE80851A64EB03039C460120002E41D086E82010BDE8F08F12B90127B7FB6F
:20642000F2F7B7FA87FEBEF1000F36D1E41B4FEA17481FFA87F90121B4FBF8F308FB134432
:2064400009FB03F24FEA154C4CEA0444A24207D9E41903F1FF3002D2A24200F2D380034601
:20646000A41AB4FBF8F008FB104809FB00F9ACB244EA0842914507D9D21900F1FF3402D200
:20648000914500F2BA802046C9EB020240EA03409BE731463046BDE8F08F07FA0EF7CEF117
:2064A000200C24FA0CF34FEA1748B3FBF8FA1FFA87F908FB1A3520FA0CFC04FA0EF40AFB49
:2064C00009FB4CEA040C4FEA1C4242EA05439B4500FA0EF50AD9DB190AF1FF3280F08B800C
:2064E0009B4540F28880AAF1020A3B44CBEB0303B3FBF8F008FB103300FB09F41FFA8CFC2B
:206500004CEA03439C4207D9DB1900F1FF326ED29C426CD902383B441C1B40EA0A418BE7F1
:20652000C1F1200E8B4022FA0EFC4CEA030C24FA0EF74FEA1C49B7FBF9FA1FFA8CF309FB43
:206540001A7720FA0EF88C400AFB03F548EA04044FEA144848EA0747BD4202FA01F200FA8A
:2065600001FB09D917EB0C070AF1FF3041D2BD423FD9AAF1020A67447F1BB7FBF9F509FB44
:20658000157705FB03F3A4B244EA0747BB4208D917EB0C0705F1FF3027D2BB4225D9023D5C
:2065A000674445EA0A40A0FB0289FF1A4F4545464C4614D329D066B3BBEB050367EB0407C3
:2065C00007FA0EFECB40CF404EEA030386E888000021BDE8F08F2346F3E61846DAE6B8EB18
:2065E000020569EB0C040138E5E70546D9E7104692E78246C0E7924678E702383A4443E7C9
:20660000084604E7023B3C442AE7C345E7D33C46D1E73146BDE8F08F704700BF024B0146D2
:20662000186800F003B800BFC44900202DE9F04F01F10B05162D83B0064640F2A08035F0B3
:20664000070500F1C080A94200F2BD8000F090FBB5F5FC7FC0F090826B0A00F0BB80042BB2
:2066600000F27781A80900F1390E4FEA4E013830BE4F07EB81014C680839A14207D1AEE098
:20668000002A80F2AE80E468A14200F0A880636823F003035A1B0F2AF2DDB4493C6901F1F4
:2066A000080E744500F0A881636823F003035A1B0F2A00F38E81002AC1F814E0C1F810E0DE
:2066C00080F29380B3F5007F80F05C81DB084A684FEAA3094FF0010C013351F833800CFAC5
:2066E00009F901EBC30C49EA0202ACF1080CC4F80CC0C4F808804A6041F83340C8F80C40C7
:20670000831001249C4094427CD8144206D120F003006400144200F10400FAD007EBC00947
:20672000CC468046DCF80C108C4507D166E1002A80F27481C9688C4500F060814B6823F077
:2067400003035A1B0F2AF2DD0C46CB6854F808CF45F00108C1F804800D4442F00101CCF84A
:206760000C303046C3F808C07D613D61C5F80CE0C5F808E06960AA5000F0FCFA1FE0102939
:2067800021D800F0F5FA102506230220774F07EB83035C68A3F10802944200F038816368B7
:2067A000E16823F0030323445A68A56842F00102E96030468D605A6000F0DCFA083420463E
:2067C00003B0BDE8F08F002420460C23336003B0BDE8F08F80214FF0400E3F2048E770464D
:2067E0005BE723445A68E168DFE723445A68304642F001025A60083400F0BCFA204603B096
:20680000BDE8F08FBC68636823F00308A84504D3C5EB08030F2B00F38C80554BDFF8609127
:206820001A68D9F800302A44013304EB080A00F0608102F580520F3222F47F6222F00F023D
:2068400011463046019200F097FAB0F1FF3F8346019A00F05881824500F2FC80454BDA4567
:2068600019681144196000F05381D9F80000DFF810E101301BBFCAEB0B0A5144CEF800B08C
:2068800019601BF0070100F01781C1F10800C1F58051834408315A44C2F30B02C2EB01098C
:2068A00049463046019300F067FA431C019B00F03F81CBEB00024A4442F001021968BC4249
:2068C0004944C7F808B01960CBF80420DFF8A49016D0B8F10F0F40F2FD806268A8F10C037B
:2068E00023F0070302F00102E0184FF0050E1A430F2B6260C0F804E0C0F808E000F21C8118
:206900001D4BBC681A68914288BF19601B4B1A689142626888BF196022F003029542A2EB16
:20692000050301D80F2B04DC304600F023FA002445E745F0010243F0010325446260304679
:20694000BD6008346B6000F015FA204603B0BDE8F08F142B71D9542B00F2A480280B00F195
:206960006F0E4FEA4E016E3082E600BFB4450020CC4E0020D04E0020C84E0020C44E002054
:20698000C04900205A0A042A5ED9142A00F2B38002F15C0149005B3207EB810C57F821107D
:2069A000ACF1080C8C45DFF8D88100F088804A6822F00302934202D289688C45F7D1D1F868
:2069C0000CC07A68C4F80CC0A160CCF80840CC6096E645F0010742F00103254467603046B3
:2069E0004D610D61C5F80CE0C5F808E06B60AA50083400F0BFF9E2E64A6881E608F10108A1
:206A000018F0030F0CF1080C7FF48CAE30E0DC68A34208BF02303FF440AEC0E60C460B4404
:206A20005A68C96854F8085F42F001025A603046E9608D6000F09EF9C1E603F15C0E03F195
:206A40005B004FEA4E0113E69A0902F1390149003832A1E7BC424A4B3FF400AF9C6862680C
:206A600022F003025AE759F80839994540F0828010F0030F00F1FF30F5D17B6823EA04032D
:206A80007B6064009C423FF6BDAE002C3FF4BAAE1C4240467FF442AE64001C4200F1040074
:206AA000FAD03BE6B3F5AA7F18D8E80B00F1780E4FEA4E017730DBE54FF48051EBE60121CA
:206AC000D8F80430921001FA02F21A43C8F80420614677E70123CBF8043025E740F25452DC
:206AE000934220D8A80C00F17D0E4FEA4E017C30BEE51032A4E6542A26D81A0B02F16F01F2
:206B000049006E3248E7BC68626822F0030205E7CAF30B0000287FF4A8AE4244BB6842F0D8
:206B200001025A60ECE6FE214FF07F0E7E209FE501224FF00009C1E604F10801304600F043
:206B40007BF9D9F80010DBE6B2F5AA7F05D8DA0B02F17801490077321EE740F254518A4287
:206B600005D89A0C02F17D0149007C3214E7FE217E2211E77B6884E7E808431C5B0005E695
:206B8000B4450020032A70B426D940EA01039B0711D004780D78AC4222D10244431C05E06F
:206BA00013F8014B11F8015FAC4219D19342F7D1002070BC70470C4603461E682568184691
:206BC000AE42214603F1040304F10404E1D1043A032A18462146F0D8002ADAD11046E8E7C2
:206BE000601B70BC704700BF844641EA000313F0030349D1403A23D30B6803604B684360C1
:206C00008B688360CB68C3600B6903614B6943618B698361CB69C3610B6A03624B6A4362B4
:206C20008B6A8362CB6AC3620B6B03634B6B43638B6B8363CB6BC36340304031403ADBD2A8
:206C400030320BD30B6803604B6843608B688360CB68C36010301031103AF3D20C3205D3F6
:206C600051F8043B40F8043B043AF9D2043208D0D2071CBF11F8013B00F8013B01D30B886A
:206C800003806046704700BF082A13D38B07B1D010F00303AED0C3F10403D21ADB071CBF42
:206CA00011F8013B00F8013BA4D331F8023B20F8023B9FE7043AD9D3013A11F8013B00F841
:206CC000013BF9D20B7803704B7843708B7883706046704770B4840746D0541E002A41D07C
:206CE000CDB2034602E0621EE4B3144603F8015B9A07F8D1032C2ED9CDB245EA05250F2C6F
:206D000045EA054519D9264603F11002103E0F2E42F8105C42F80C5C42F8085C42F8045C8B
:206D200002F11002F2D8A4F1100222F00F0204F00F041032032C13440DD91E462246043AFB
:206D4000032A46F8045BFAD8221F22F003020432134404F003042CB1C9B21C4403F8011BE8
:206D6000A342FBD170BC704714460346C2E700BF704700BF704700BF38B5074C00230546DA
:206D800008462360FDF70AFE431C00D038BD2368002BFBD02B6038BDAC560020F8B50C46E0
:206DA000224F0646FFF7E4FFBB685D6825F00305291B01F6EF7121F47F6121F00F01A1F5F1
:206DC0008054B4F5805F07DB00213046FFF7D4FFBB682B44984204D03046FFF7CBFF00207F
:206DE000F8BD61423046FFF7C7FF01300DD0104BBA6819682D1B45F001053046091B55602B
:206E00001960FFF7B7FF0120F8BD00213046FFF7B3FFBA68831A0F2BDEDD064C0449246859
:206E200043F00103001B53600860D5E7B4450020D04E0020C0490020002945D02DE9F04124
:206E40000D468046FFF794FF55F8047C6A49A5F1080427F00103E2188E685068B24220F0A7
:206E6000030062D0FE0750600BD455F8087C01F1080EE41BA5683B4475456FD0E768EF604E
:206E8000BD6015186D68ED0742D543F001026260E350B3F5007F18D2DB0848689D10012229
:206EA000013351F8337002FA05F501EBC3022843083AE260A760486041F83340FC604046DF
:206EC000BDE8F041FFF756BF70475A0A042A53D89A0902F139077F0002F1380501EB870065
:206EE00051F827200838904243494DD0516821F003018B4202D292689042F7D1D068E060CC
:206F0000A2608460D4604046BDE8F041FFF732BF95683A4F0344BD423FD0D06843F00102CB
:206F2000E86085606260E350B3E7FF07034407D455F8085C641BE268A0682B44C26090606A
:206F40002F4A43F001001268606093428C60B6D32C4B40461968FFF721FFB0E711184968FB
:206F6000C90744D491680344D26843F00100CA6091606060E350A2E7142A17D802F15C0761
:206F80007F0002F15B05A9E7AA104B68012505FA02F213434B600246B1E743F001024C6145
:206FA0000C61E560A5606260E35088E7542A06D81A0B02F16F077F0002F16E058EE7B2F5CB
:206FC000AA7F06D8DA0B02F178077F0002F1770584E740F25450824206D89A0C02F17D0765
:206FE0007F0002F17C0579E7FE277E2576E743F001026260E35062E7B4450020BC4500206B
:20700000BC490020CC4E0020FEE708B5FBF73EF9F7B500240646254627463046FBF7C2F92F
:207020000197019B9D4204DD00BF019B01330193F7E73046FBF7E6F9C5F5C8750197019BE9
:207040009D4204DD00BF019B01330193F7E70134B4F5487F06D0B4F5C87FCCBFC4F5487503
:207060002546DAE703B0F0BD08B500F00DF8FBF7EDF9BDE808400120FFF7CABFFCF756BA6A
:20708000FEF7F6B9FBF732BB08B5FBF77DFDFBF7E3FDFBF781FDFBF77BFBFCF7B5FA00F008
:2070A0009AF8BDE80840FDF79BB980B2FBF7AABBFBF748BB70470020FBF736BC0120FBF7BD
:2070C00033BC0020FBF7A2BD0120FBF79FBD0220FBF79CBD0320FBF799BDEFF3108072B66F
:2070E000704780F31088704710B50446C1B20020FBF728FD204610BD70B505460446461813
:20710000601B44B1237833B1B44204D01846013400F060FBF4E770BD002070470120704721
:2071200010B50446302200210E20FBF759FE84B1012C0CD142F210730011A0F28E50584344
:207140002A2390FBF3F000F5C340283010BD4FF0004010BD002070470120704710B504464D
:20716000302200210F20FBF73BFE5CB1012C07D140F6F253584347F6F07390FBF3F010BD3F
:207180004FF0004010BD10B5041F54F8040F18B10021FCF7FFFDF8E710BD704710B5044611
:2071A00000F01BF82046BDE81040FCF7EBBB10B5044600F027F82046BDE81040FCF7E2BBCF
:2071C000C068B0FA80F040097047837BDB0701D5FCF7D6BC7047FFF76DBF10B541600446A9
:2071E000FBF7FCFA206010BD10B50446FBF7F6FA2368C3F1010303446068834294BF0020DF
:20720000012010BD10B50446FFF7EEFF18B194E80C001344236010BD0023036070470068F1
:207220007047006800B9704703680BB11846FBE77047036810B573B1002499421A6806D1F5
:207240000CB9026000E0226000221A6010BD1C460AB11346F1E710BD38B50546FFF7E9FF0B
:2072600000230B60FFF7DDFF08B9296038BD016038BD0368002013B101301B68FBE770477D
:2072800000B10068704710B50446428800214068FFF720FD23886288A0685A43BDE810403A
:2072A0000021FFF717BD10B5418800238B420CDA4268D418D25C32B90122227002888068A9
:2072C00003FB020010BD0133F0E7002010BD30B5826844880023A3420BDA8A4205D1426815
:2072E000D15C31B10020D05430BD058801332A44F1E74FF0FF3030BD82688A4208D843888B
:20730000008800FB032081422CBF002001207047002070470023013A016002714371837170
:20732000704710B5427983790479D31A34EA030308D00368995443795A1C037913404371A7
:20734000012010BD002010BD837942790179D21A0A421FBF0268D25C01330B401ABF837127
:2073600010464FF0FF30704790F845200121D3081B0303F1804302F0070203F5592301FA69
:2073800002F253F8223090F844000BB180F001007047006800F19C018230FDF749B90822E4
:2073A000FFF722BC08B50822FFF7ECFBB0FA80F0400908BD30B40D460446114620B11A4604
:2073C0002846234630BC184730BC704730B591B0FDF79AF80446FDF785F86A460146204624
:2073E000FDF74AFA044610B94FF0FF3036E0FDF75BF80028F8D09DF810100C20FDF73CF97D
:207400009DF813100820FDF737F99DF81730ABB1BDF81C50FDF72AFA854205D04FF6FF73A4
:20742000BDF81C209A42DFD169469DF8170000F0F4F818B969460E20FDF72CF902A90D20F9
:20744000FDF728F99DF8153013B99DF81A1001E04FF6FF710720FDF70FF9204611B030BDE5
:20746000F8B50E461446054600283AD0002A38D00C20A84700232074A37416B1E374637523
:2074800003E00820A8476675E0740920A847002701232376A07567740720A847A076FDF7B7
:2074A000E5F9E0830A20A847012816BF032367766376FDF7DBF9A0830B20A847012801D198
:2074C000002303E00EB1022300E00323E375637E022B02D0E37D022B01D1012300E00023FE
:2074E0002375F8BD0120FDF759B90020FDF756B930B500284ED0037A022B2ED1C479437A27
:20750000057914B983B9012D0AE003B975B1032C0ED1032B03D1002D3AD1012019E0022B5B
:2075200014BF0020012008E0204606E0012005E0022CF4D1181C18BF012005BB0CB1022C33
:2075400005D1023B012B8CBF002301231BE0032C15D19C1E6342634115E00378022B10D0CA
:2075600003792BB9437A13F0030318BF012300E00023C07910F0030018BF012003E00023AD
:2075800001E00020034601B10B601AB1106030BD0020D2E730BD37B50D46044600210622C4
:2075A0002846FFF797FB637DD9075CBF01232B70237E012B0DD8E37D9A0708D0637E9B072D
:2075C00005D0E28BA38B9A4201D1012300E00023237501AA694604F11000FFF789FF009B56
:2075E0000BB10223EB70019B0BB102236B70E37D03F00303022B03D0032B0CBF0823002357
:20760000AB70637E03F00303022B03D0032B0CBF082300232B7103B030BD02280CBF0223D8
:2076200008230B448B4205D013F8012DFF2AF9D0002070470120704707B56946FFF7ABFF49
:207640009DF800009DF80130023018449DF802309DF8032018449DF80430104403449DF86D
:207660000500184403B05DF804FB837810B544781B01E40003F0100304F008041C43C27887
:207680000378520103F00703234302F020021A4303799B0103F0400313430B704379427AB1
:2076A000847903F0010343EA8213C279640004F002049200234302F00C021A43037A1B018D
:2076C00003F0300313434B7010BDF7B504460D466946FFF760FF04F110002946FFF7C5FF2B
:2076E0009DF80030012B02BFA37E0320AB709DF8013018BF0220022B08D1A28B431C2A54AA
:20770000A28BDBB20230120AC0B2EA5401469DF80230E218A24205D012F8017D4E1C6F543B
:20772000F1B2F7E718449DF80330C0B2022B08D1E28B431C2A54E28BDBB20230120AC0B228
:20774000EA549DF804301844C0B2C21AD2B223B1013BE118097AA954F7E703B0F0BD1FB559
:2077600002461378084603F007018DF80410C3F3C0018DF80510C3F300118DF80610C3F32B
:207780004011C3F380138DF8083053788DF8071003F001028DF80920C3F340028DF80A20E0
:2077A000C3F381028DF80B20C3F301128DF80C209B090A2201A98DF80D30FFF715FA05B070
:2077C0005DF804FB08B5084612B11146FFF794FC002008BD10B50446FFF786FC204610BD0B
:2077E0000120704710B50446FAF752FE2046FAF76BFE0446FAF762FEE0B210BD08B53D208D
:20780000FFF7F0FF00F0700008BD38B504460D46FAF73EFE14F43C5FE4B202D02F20FAF75C
:2078200053FE2046FAF750FE2846FAF74DFE0446FAF744FEE0B238BD10B50446FAF728FE7E
:2078400014F43C5F04D0AF20FAF73EFEE0B202E064F07F00C0B2FAF737FE0020FAF734FE93
:207860000446FAF72BFEE0B210BD0C2805D1042A05D121B10020086070470120704702202C
:20788000704710B5FAF7D8FEFFF7B8FFB8B1602801D13A2002E0702802D13B20FFF7A2FF9C
:2078A0003620FFF79FFFFAF7D1FF6FF4A374241AFFF7A4FF18B1FAF7C9FFC442F8D410BDAB
:2078C00038B50D460446FAF7E3FDFF20FAF7FCFD2A4620460021FAF709FEBDE83840FAF747
:2078E000EDBD38B50D460446FAF7D2FD7F20FAF7EBFD2A4621460020FAF7F8FDBDE8384022
:20790000FAF7DCBD10B50C46FDF788FD20B92046BDE81040FEF79AB810BDFEF7C9BB7047D5
:207920000020704770470120704701207047012070470020704700207047704770470020F5
:2079400070470020704701207047012070477047704770470020704700207047704700005F
:2079600001000000010000000100000000C0004000410D4000000000080000002C00000042
:2079800000000001FFFFFFFF0500000002000000020000000200000000D0004008410D4039
:2079A00002000000080000002C00000002010200FFFFFFFF060000000080004010410D402C
:2079C000040000000300000002010201010103000090004020410D40080000000700000008
:2079E0000202040205020600617C200021712000197120001D712000757C20005D7120006A
:207A00005571200059712000EB742000E5742000CD732000BD7E2000187B2000D000000060
:207A20006606000047010000350000000D00000000000000952B0D00400D030000210EA55F
:207A4000AF00000050C30000E87B20003D5B20001D5420004D5A200005792000B55320000B
:207A6000B5592000ED52200045522000895220007156200089582000F95720006B7820006C
:207A8000E1772000EF7E2000A95D20001B792000C95D2000555D2000615D20006D5D200027
:207AA0009C7D200011622000696220001D622000F47E20005D7920001F7920005579200042
:207AC00059792000437920002179200025792000477920004B7920004F79200051792000CA
:207AE000277920002B7920002F79200033792000377920003B792000537920003D79200008
:207B00003F792000A4450020000000004300000000000000000000000100060004006E00C8
:207B200005004E000600900007004E000800E500090023000A0047000B000B000C00560025
:207B40000D0019000E00BA000F00C8001000840011004200120005001300940014007A002D
:207B60001500E100160027001700F1001B0011001C0090001D000000200012002600240059
:207B8000280020002E00FF00002F1800022F0300052F02000C2F56000D2FCC000E2FCC001D
:207BA000102FEE00112F1000122F0400132F5000162F4000172F0E00192F03001B2F3300D0
:207BC0001C2FF7001D2F0F001F2F0000202F6E00212F1C00222FAC00272FB5002F2F050026
:207BE000322F0E00362F030008078000D80E6C07D007B80BB80BB004C000200D4051E47AD9
:207C00005A6F756C00494E464F005B252D34733A20252D3130735D20005A6F6C6572746954
:207C2000612052452D4D6F7465207265766973696F6E204120706C6174666F726D001D00D8
:207C40001C001B005573657220627574746F6E006363323533382052462064726976657296
:207C6000004F6E2D436869702054656D70657261747572650056444433004D61696E0053FF
:207C800074617274696E6720436F6E74696B692D4E472D72656C656173652F76342E372DBF
:207CA0003133392D676433323830646133632D64697274790A002D20526F7574696E673A35
:207CC0002025730A002D204E65743A2025730A002D204D41433A2025730A002D2038303271
:207CE0002E31352E342050414E49443A203078253034780A002D203830322E31352E3420F8
:207D000044656661756C74206368616E6E656C3A2025750A004E6F64652049443A20257580
:207D20000A004C696E6B2D6C6179657220616464726573733A2000284E554C4C204C4C20C6
:207D40006164647229002E0025303278004C4C2D4E554C4C004C4C2D2530347800616C6C33
:207D6000004E2F41004E6F6E65004572726F7273005761726E696E677300496E666F00441F
:207D8000656275670072706C007463706970006970763600366C6F7770616E006E756C6CCB
:207DA0006E6574006D6163006672616D65720036746F7000636F617000736E6D70006C7701
:207DC0006D326D006D61696E004576656E742074696D6572004374696D65722070726F6377
:207DE00065737300537461636B0045525200436865636B20696E20696E636F6E736973748A
:207E0000656E742073746174653A20256C642076732E20256C640A00436865636B20666170
:207E2000696C65643A20256C642076732E20256C640A00537461636B20636865636B005398
:207E4000656E736F727300427574746F6E2048414C2070726F636573730053657269616C98
:207E60002064726976657200202020202020202020202020202020203030303030303030D6
:207E800030303030303030303031323334353637383941424344454600303132333435365B
:207EA000373839616263646566003078003058002D002B00286E756C6C2900250038303272
:207EC0002E31352E3467203836332D3837304D487A204D522D46534B206D6F6465202331A0
:207EE00000434331323030206472697665720043534D41006E756C6C726F7574696E6700A6
:207F0000446174612073656E736F72733A2025642025642025642025640A00626561636FD8
:037F20006E73007D
:207F2400000000002C43002094430020FC4300200000000000000000000000000000000058
:207F440000000000000000000000000000000000000000000C7B2000000000000000000076
:207F64000000000000000000000000000000000000000000000000000000000000000000FD
:207F84000000000000000000000000000000000000000000000000000000000000000000DD
:207FA4000000000000000000000000000000000000000000000000000000000000000000BD
:207FC400000000000000000001000000000000000E33CDAB34126DE6ECDE05000B00000070
:207FE40000000000000000000000000000000000000000000000000000000000000000007D
:2080040000000000000000000000000000000000000000000000000000000000000000005C
:2080240000000000000000000000000000000000000000000000000000000000000000003C
:2080440000000000000000000000000000000000000000000000000000000000000000001C
:208064000000000000000000000000000000000000000000000000000000000000000000FC
:208084000000000000000000000000000000000000000000000000000000000000000000DC
:2080A4000000000000000000000000000000000000000000000000000000000000000000BC
:2080C40000000000000000000000000000000000000000000000000000000000000000009C
:2080E40000000000000000000000000000000000000000000000000000000000000000007C
:2081040000000000000000000000000000000000000000000000000000000000000000005B
:2081240000000000000000000000000000000000000000000000000000000000000000003B
:2081440000000000000000000000000000000000000000000000000000000000000000001B
:208164000000000000000000000000000000000000000000000000000000000000000000FB
:208184000000000000000000000000000000000000000000000000000000000000000000DB
:2081A4000000000000000000000000000000000000000000000000000000000000000000BB
:2081C40000000000000000000000000000000000000000000000000000000000000000009B
:2081E40000000000000000000000000000000000000000000000000000000000000000007B
:2082040000000000000000000000000000000000000000000000000000000000000000005A
:2082240000000000000000000000000000000000000000000000000000000000000000003A
:2082440000000000000000000000000000000000000000000000000000000000000000001A
:208264000000000000000000000000000000000000000000000000000000000000000000FA
:208284000000000000000000000000000000000000000000000000000000000000000000DA
:2082A4000000000000000000000000000000000000000000000000000000000000000000BA
:2082C40000000000000000000000000000000000000000000000000000000000000000009A
:1C82E400000000000000000000000000000000000000000000000000000000007E
:2083000000000000000000000000000000000000000000000000000000000000000000005D
:2083200000000000000000000000000000000000000000000000000000000000000000003D
:208340000000000000000000000000000000000081702000001100000000000000000000FB
:208360000000000000000000000000000000000000000000000000000000000000000000FD
:20838000000000000000000000000000000000000000000000000000447C200001030000F9
:2083A00001000000000000007444002000000000F8792000E87920000000000000000000D2
:2083C000507C200001332000000000000300000000000000C97D2000D938200000000000C3
:2083E00000000000D57D2000213A20000000000000000000337E20006D3E200000000000F4
:20840000000000003F7E2000193F20000000000000000000477E2000C540200000000000FD
:20842000000000005A7E2000A942200000000000040008007D550020E04B0020AC0008003C
:2084400075550020FA4E0020F05E0020C57720000000000000000000E17E2000A15C200064
:20846000000000000C000800975600208C4D00200C0008008F560020F04D00203800020032
:20848000A0560020504E0020000000001B7F2000E1622000000000000000000000000000EB
:2084A000B4450020B4450020BC450020BC450020C4450020C4450020CC450020CC45002094
:2084C000D4450020D4450020DC450020DC450020E4450020E4450020EC450020EC45002074
:2084E000F4450020F4450020FC450020FC45002004460020044600200C4600200C46002050
:2085000014460020144600201C4600201C46002024460020244600202C4600202C4600202B
:2085200034460020344600203C4600203C46002044460020444600204C4600204C4600200B
:2085400054460020544600205C4600205C46002064460020644600206C4600206C460020EB
:2085600074460020744600207C4600207C46002084460020844600208C4600208C460020CB
:2085800094460020944600209C4600209C460020A4460020A4460020AC460020AC460020AB
:2085A000B4460020B4460020BC460020BC460020C4460020C4460020CC460020CC4600208B
:2085C000D4460020D4460020DC460020DC460020E4460020E4460020EC460020EC4600206B
:2085E000F4460020F4460020FC460020FC46002004470020044700200C4700200C47002047
:2086000014470020144700201C4700201C47002024470020244700202C4700202C47002022
:2086200034470020344700203C4700203C47002044470020444700204C4700204C47002002
:2086400054470020544700205C4700205C47002064470020644700206C4700206C470020E2
:2086600074470020744700207C4700207C47002084470020844700208C4700208C470020C2
:2086800094470020944700209C4700209C470020A4470020A4470020AC470020AC470020A2
:2086A000B4470020B4470020BC470020BC470020C4470020C4470020CC470020CC47002082
:2086C000D4470020D4470020DC470020DC470020E4470020E4470020EC470020EC47002062
:2086E000F4470020F4470020FC470020FC47002004480020044800200C4800200C4800203E
:2087000014480020144800201C4800201C48002024480020244800202C4800202C48002019
:2087200034480020344800203C4800203C48002044480020444800204C4800204C480020F9
:2087400054480020544800205C4800205C48002064480020644800206C4800206C480020D9
:2087600074480020744800207C4800207C48002084480020844800208C4800208C480020B9
:2087800094480020944800209C4800209C480020A4480020A4480020AC480020AC48002099
:2087A000B4480020B4480020BC480020BC480020C4480020C4480020CC480020CC48002079
:2087C000D4480020D4480020DC480020DC480020E4480020E4480020EC480020EC48002059
:2087E000F4480020F4480020FC480020FC48002004490020044900200C4900200C49002035
:2088000014490020144900201C4900201C49002024490020244900202C4900202C49002010
:2088200034490020344900203C4900203C49002044490020444900204C4900204C490020F0
:2088400054490020544900205C4900205C49002064490020644900206C4900206C490020D0
:2088600074490020744900207C4900207C49002084490020844900208C4900208C490020B0
:2088800094490020944900209C4900209C490020A4490020A4490020AC490020AC49002090
:0F88A00000000200FFFFFFFF40400020CDAB0AA9
:0888B0007CDAFF7F01000000EB
:020000040027D3
:20FFD400FFFFFFF30000000000202000FFFFFFFFFFFFFFFFFFFFFFFFFFFFFFFFFFFFFFFFF1
:0CFFF400FFFFFFFFFFFFFFFFFFFFFFFF0D
:040000050027FFD4FD
:00000001FF
