:020000040020DA
:20200000305B00208D222000DB6B2000D96B2000D96B2000D96B2000D96B20000000000050
:20202000000000000000000000000000D96B2000D96B200000000000D96B2000816C200067
:20204000936C2000996C20009F6C2000A56C200000000000876C20008D6C2000D96B200050
:20206000D96B20000000000000000000000000000000000000000000D96B20000000000098
:202080000000000000000000D96B2000D96B2000D96B2000D96B2000D96B2000D96B2000E8
:2020A000D96B2000D96B2000D96B2000D96B2000D96B2000D96B2000D96B2000D96B200000
:2020C000D96B2000D96B2000D96B2000D96B2000D96B20000000000000000000000000000C
:2020E000000000000000000000000000000000000000000000000000AD342000BD342000CE
:202100000000000000000000000000000000000000000000000000000000000000000000BF
:2021200000000000000000000000000000000000000000000000000000000000000000009F
:2021400000000000000000000000000000000000000000000000000000000000000000007F
:2021600000000000000000000000000000000000000000000000000000000000000000005F
:2021800000000000000000000000000000000000000000000000000000000000000000003F
:2021A00000000000000000000000000000000000000000000000000000000000000000001F
:2021C0000000000000000000000000000000000000000000000000000000000000000000FF
:2021E0000000000000000000000000000000000000000000000000000000000000000000DF
:202200000000000000000000000000000000000000000000000000000000000000000000BE
:2022200000000000000000000000000000000000000000000000000000000000000000009E
:2022400000000000000000000000000000000000000000000000000000000000000000007E
:2022600000000000000000000000000000000000D96B200091332000B5332000692E200057
:202280002D362000D1282000D96B200008B5094BFF221A600848094A4824E369121A0849BA
:2022A00098470848084AA369121A0021984701F005FAFEE7B4200D4040400020BB450020AF
:2022C000207C2000C04500202E53002008B5002000F05CFB012000F059FB0D49002000F08D
:2022E00029FC02F053F8002001F094FE01F076F800F0E2FD00F0FEFD0821064801F0AEF9B1
:2023000001F058FF62B6BDE80840042004F068BC494320001E53002073B51A4B1B68022BBA
:2023200008DD1949194A1A4802F0BCFE19491A4802F0B8FE6846082101F090F9174E9DF82E
:2023400007309DF80650F46A43EA05254AF6CD310220A04729460320A0470A210120A047B3
:20236000736B082269460B20984704F073FC00F0E1F900210A4801F00DFD022004F030FCBF
:2023800002B070BDE8440020D9782000D4782000DE782000ED782000AB7920001C76200044
:2023A0001C4500200022F0B51746154C0125FF2640FA02F3DB071ED504EB4203597814F8B7
:2023C000123061B1D908090301F1804103F0070301F5592105FA03F341F823700BE0D9080F
:2023E000090301F1804103F0070301F5592105FA03F341F823600132032AD9D1F0BD00BF8A
:2024000012792000F0B5104C00210125FF2640FA01F3DB0714D504EB41035F7814F8113054
:20242000DA08120302F1804203F0070302F5592205FA03F317B142F8236001E042F8237059
:2024400001310329E3D1F0BD1279200070B40E4E0022012516F812300C49D80800030C585E
:2024600003F0070305FA03F324EA03040C5020390144086801320343032A0B60EAD170BCF3
:202480000720FFF7BFBF00BF1279200020940D4038B5084B00221A6000F0D8F96FF4A3741F
:2024A000054D241A2B681BB100F0D0F9C442F9D438BD00BF80A00D4020A00D40014BFF2206
:2024C0001A60704780A00D40064B186006480268054912F0100FFAD10A685207FCD5186887
:2024E000C0B27047088000400C800040F0B510B9002936D100E00AB90120F0BD29B1234CC7
:20250000234D002326462F4624E0204C204D03462746AE461E1A964201DB0020F0BD216086
:202520002E68F606FCD4DEF800607607FBD53E6803F8016BEEE7D5F800E01EF0100FFAD12F
:20254000D7F800E01EF0040FFAD0D6F800E000F803E001339342E0DA11F803E0C4F800E00D
:20256000E9E7002AC8D0094C09480B46264605465F1ABA42D1DD13F8017B27600768FF0676
:20258000FCD42F687F07FCD53768F1E7088000400C80004008B5194A136823F0100313603E
:2025A00052F8203C23F0100342F8203C52F81C3C23F0100342F81C3C52F8183C23F010039B
:2025C00042F8183C0E4B1A6810B142F0100201E022F010021A600B4A0120136843F01003D7
:2025E00013600422114600F045FB074B02221A600648BDE8084001F0DBBE00BF20A40D4036
:202600000CA40D4010A40D4000E100E06844002008B5074A0120136843F0100313600422A6
:20262000114600F027FB034B02221A6008BD00BF10A40D4000E100E0024A136823F0100312
:202640001360704710A40D40024B1868003018BF0120704740A00D4038B51F4A072113687D
:20266000022023F08003136052F8203CFF2443F0800342F8203C082200F0FCFA174B052182
:202680001C60012000F090FB002000F013FB144A144D136823F010031360134B1968A3F5BA
:2026A000607321F01001C3F88013116821F001011160D3F8802322F00102C3F880231C607D
:2026C00000F0C4F8A4F6CB54241A2B681BB900F0BDF8C442F9D438BD20B40D4000B20D4063
:2026E00020A40D4020A00D4000A40D40084A136823F00403136052F8203C43F0040342F857
:20270000203C044B04221A60034B01221A70704720C40D4010C00D4034500020044B1868FB
:20272000C0F30720030904BF1030C0B2704700BF1C300D4008B5FFF7F1FF014B1B6808BDF8
:202740001C300D40F8B500F081F80F4B0024D3E900673A46B04238BF7A1C15460443C3E9DC
:202760000045DFF828E0DEE90001821B61EB070312196B41CEE9002301F024F918B1BDE84D
:20278000F84001F0A3B8F8BDC0450020C84500200D4B0E4AE0215A600D4A82F8231000221D
:2027A00007219A6019600B490B6843F001030B60094B1A60042243F80C2C012243F8082C1C
:2027C0000F22DA62704700BF10E000E047E8010000ED00E008200D400C000340034BD3E97B
:2027E0000023100A40EA0360704700BFC0450020034BD3E90023D00B40EA4340704700BF49
:20280000C8450020054B18601C3B1A6842F001021A601A68D207FCD4704700BF280003402F
:2028200010B5064C236823F001032360FFF78AFF236843F00103236010BD00BF10E000E03C
:20284000014B1868704700BFD0450020074B084A196804331B681268120442EA0323054AF1
:202860000B43106843EA0060704700BF40500D4048500D404C500D4010B50446104A136800
:20288000DB07FCD572B6FFF7E1FF231A062BD8BFC41D0C4B220E1A60C4F3074243F8042C35
:2028A000C4F3072243F8082CE2B243F80C2C62B6054B1C60054B4FF400321A6110BD00BF12
:2028C00050500D404C500D40D045002000E100E008B500F011FE094B00221A60084B4FF4EA
:2028E0000032C3F89021C3F89020BFF34F8FBFF36F8FBDE8084001F071BA00BFD045002092
:2029000000E100E0064B1B681B075FBF054B186880F00800C0F3C00048BF0020704700BF8A
:2029200018C0004018D00040164A2C2303FB00234FF6BF7270B5DC680546236C62649BB2BB
:2029400013F050020DD0104EA369DB0608D456F825301BB12068C0B29847F5E72368F3E795
:2029600070BD13F4D06F0BD04FF440732363FF236360E36AE262E362236B43F00103236387
:2029800070BD00BF30752000D445002001282DE9F74F064600F2BD802C2545435E4B5C1956
:2029A00094F920909846B9F1000FC0F2B28094F92230002BC0F2AD80584800F013FE584A33
:2029C00058F805301168E5680B4313605168636894F921A00B4353609168A36894F82270F6
:2029E0000B4393600023C5F8C83F23690AEBC9021A6094F823305FFA87FB00939DF80030D7
:202A0000227D19465846019300F03EF9019B08221946584600F02EF97FB2424B3F039DF9EF
:202A20000020F9584FF0010E0EFA02F20A43FA504FEA093959F803100EFA0AF20A4349F8D3
:202A400003205022AA63AA6B94F8240042F4D062AA6302226A634FF440722A63A2696A6250
:202A6000E269AA627022EA6242B2002A1D4617DB94F925302C4943EAC2030B6094F8251039
:202A8000120353594CB20EFA04FE4EEA03035351002200F0EFF8254A136843F400431360BB
:202AA0002C2303FB068393F826904FFA89F4002C1CDB93F827705FFA89F95FFA87FA01221C
:202AC00051464846240300F0DFF87FB26359012202FA07F71F43082267515146484600F080
:202AE000C9F8124A136843F4804313602C2303FB0686F268136B43F00103136396F828308D
:202B00000122590903F01F0302FA03F3084A42F8213003B0BDE8F08F307520000529200062
:202B200028200D4020940D4004410D4030D0004000E100E001289CBF014B43F8201070477A
:202B4000D4450020012808D8044B2C2202FB0030C3689A699206FCD41960704730752000DE
:202B6000014B00221A60704700500D40014B08221A60704700500D40024BA0221A605022DA
:202B80001A60704700500D40014B024A9A60704700ED00E00020200038B5164D164C2B68CC
:202BA000012223F040032B602368062123F040032360032000F05EF82B68012223F08003D1
:202BC0002B602368072123F080032360032000F051F80A4A0A4B0B491A600A680A4B1340B1
:202BE000084A002BF9D113685901FCD413685B01FCD538BD20C40D4000C40D400101020006
:202C000000200D4004200D40000001012DE9F84304464FEA0438DFF83C9008F1804606F567
:202C2000592600F069FCD6F8187458F80930E50023FA05F447EA0400C0B2E4B2A840FFB20C
:202C4000AC4001F0BBFBC6F81C7448F80940BDE8F88300BF18970D40034A044B1A60044BCA
:202C6000803A1A60704700BF80400D40E0450020DC450020034B01EBC0011B6843F821201D
:202C8000704700BFE0450020034B01EBC0011B6843F82120704700BFDC450020012806D8C1
:202CA000034901220B6802FA00F018430860704718200D402DE9F04F012887B005466BD804
:202CC00018235D43364E741994F811904FFA89FABAF1000F60DBFFF7E1FFA77C76594FF013
:202CE0000008FBB25FFA89F91946C6F80480227A4846C6F8C88F0593FFF7C6FFE57C227B13
:202D0000EBB20193237D019802939DF808B04FEA0A3A5946FFF7B8FF637D62680393A37D3E
:202D20009DF90CC004939DF910E001200EEBCC0111601C4A7FB25AF8021000FA07F70F4377
:202D40006DB24AF802702D039DF90810AF5800FA01F139434FEA0C3CA9505CF80210059BD3
:202D600000FA0EF008434CF80200194642464846FFF780FF424659460198FFF77BFF424628
:202D800004990398FFF776FF237C3361C7233360736843F00203736007B0BDE8F08F00BF60
:202DA0008875200020940D4038B50B4A0403A35801258D4023EA0503A3500022FFF75AFF45
:202DC000064AA3582B43A35004F1804404F55924FF2344F8253038BD20940D4000940D408E
:202DE0000E2870B50BD1164B164E1C6844F002051D60356825F03F0343F001033360124E7D
:202E0000336823F0FF031A43114301430F4A316013681B06FCD50E4B0E4A1B6812680E28D2
:202E200003F0FC0343EA022308BF064A9BB204BF1560034A9BB208BF146018B270BD00BF27
:202E400034000144F486084008700D4000700D400C700D4010700D40024B1868B0FA80F038
:202E60004009704700B70840094B4FF4004210B5C3F89021C3F89020BFF34F8FBFF36F8F9E
:202E8000044C206818B100F09DFF0023236010BD00E100E0E4450020064A136843F0020385
:202EA0001360536843F002035360936843F002039360704748200D4007B50C4800F092FBDA
:202EC000FFF7EAFF0A4B1A6842F002021A6000220192019A0F2A02DC019A0132F8E71A68F6
:202EE00022F002021A6003B05DF804FB592E200054200D40064A136823F0020313605368C2
:202F000023F002035360936823F002039360704748200D402DE9F0410E464FEAD0084FEA8F
:202F2000083400F00701012704F180448F4016F00C0304F559246FEA070505D1D4F81034D7
:202F40002B40C4F810342DE0042B0DD1D4F804342B40C4F80434D4F808342B40C4F808341E
:202F6000D4F80C343B430EE0082B0FD1D4F804342B40C4F80434D4F808342B40C4F80834F8
:202F8000D4F80C342B40C4F80C340BE00C2B09D1D4F804342B40C4F80434D4F808343B43D9
:202FA000C4F8083416F0030204D0022A02D0012A03D104224046FFF75DFE16F0800605D1DE
:202FC000D4F810342B40C4F810340AE04EB1D4F810341F43C4F81074054A012303FA08F370
:202FE0001360D4F820341D40C4F82054BDE8F08100E100E0074B93F90020002A08DB064A7F
:20300000ED211160E32111601A7862F07F021A700120704738500020388808400B4A136875
:203020009907FCD4094B1B685B065EBF084BED221A60084B1B6813B1054BEF221A60064A2A
:203040000120137803F07F03137070474C860840388808402C8608403850002010B50A4B37
:2030600004461B6813F03F0302D0FFF7D7FF012304EB840205492C3A0A600BB1FFF7BAFF7E
:20308000034B1C7010BD00BF488608403C860840BA45002070B52F4E336813F0400307D031
:2030A0002D4D2B68DCB21B0604D52C4BED221A60002070BD042CF8D9023C8C42F5DCE4B2BA
:2030C000032C21D001190139032000F0A9F9631E23491B011943032000F0ACF9032000F097
:2030E000B3F9032000F0C8F9032000F0D1F90028FAD129681B4B4939C9B219702B681A4D09
:2031000018062B70D1D506E02B6803702B6843702B688370EDE749B289B2042001F0ACFAD3
:203120002978032001F07F0101F0A6FA0F4B1B786BB933685A060AD5064B1B681B0603D511
:203140000B4800F03FFE02E0044BED221A60204670BD00BF4C8608402888084038880840C9
:2031600002C0010C365000203550002037500020D8440020234B1870002838D0224A136845
:203180001B03FCD5214B1A6842F002021A601A6842F001021A601A681C495007FBD50A68F1
:2031A00022F001020A601968184A4907FBD4116841F002011160116841F0010111601A68D1
:2031C0005207FCD5124A136823F004031360D2F8A83123F00403C2F8A8310E4B4FF4005223
:2031E000C3F89020BFF34F8FBFF36F8F7047084A136843F004031360064B4FF400521A6192
:20320000704700BF3750002004200D40048808408C86084000E100E02DE9F0412E4F3D78B8
:2032200015F0010555D12D4B01241C605C609C60A3F59323A3F51473F8221A600922C3F8A5
:203240009021152270331A6003F59B230B2203F59E731A60A3F59B23214EA3F5A6731C6011
:203260004023336033684FF07F0843F0200333601C4BD5221D60C3F848809A631A4B1878BE
:20328000FFF7ECFE336823F00C033360174BC3F80080174B4FF480421A61022000F0E0F895
:2032A0001449022000F0BCF8032000F0D9F81149032000F0ADF8104B1878FFF75BFF29464B
:2032C0000E4800F067FD3B78204623433B70BDE8F0810020BDE8F08138500020A8200D4011
:2032E0002486084008860840BA4500209486084000E100E02888084037500020D8440020E9
:2033000038B503880446CBB140F25D42934203D000230380032038BD194B18781A4628B10B
:203320001B7873B1174B1B7858060AD5822908D1137843B1134B1A78520614D440F25D439F
:203340002380012038BD01F04DF901F0DDF88021FFF7A0FE0028EDDD80B201F0B9F80A4B67
:20336000DB689847E6E700221A70084B1D68FFF755FEFFF751FFAB06E0D0FFF73BFEDDE7F7
:203380003750002038500020547620004886084008B5054B1B7813B9044800F013FD044BD7
:2033A00000221A6008BD00BF37500020D844002034880840064B07481A68042A1FBF064989
:2033C0000A7842F040020A7000221A6000F0FABC2C880840D84400203850002010B5094C41
:2033E00040220021204603F023FA074B01221A605C60064B4FF480425A604FF400425A60DA
:2034000010BD00BF0040002004F00F4000E100E003289EBF014B0001195070470040002067
:2034200003289EBF024B03EB00104160704700BF0040002003289EBF024B03EB001081608E
:20344000704700BF00400020032806D8034901220B6802FA00F018430860704728F00F40DE
:20346000032806D8034901220B6802FA00F018430860704720F00F40032806D80349012224
:203480000B6802FA00F018430860704714F00F4003289FBF044B03EB0010806800F007004B
:2034A00088BF0020704700BF00400020024B4FF0FF321A60704700BF04F50F40014B01226B
:2034C0001A6070474CF00F40094A1368084913F4801FFAD1074B1A6822F480321A600A6818
:2034E000D203FCD41A6842F400321A60704700BF04200D4000200D4010B50A4C23689A0728
:203500000FD009490B68084A13F0806FFAD113685B01FCD5FFF784F9FFF7D6FF2368002364
:20352000236010BD58200D4004200D4038B5274B1C6814F03F0413D1254D55F8243023B110
:20354000984768B10134052CF7D1224D2B783BB1FFF776F90446FFF779F9201A092801D8EC
:2035600030BF38BD002CFBD01B4B1C481A6822F400321A600268194912F4801FFAD11A68A4
:2035800042F480321A600B68DB03FCD5FFF75EF9201A092803D8BDE83840FFF795BF632822
:2035A0000F4C02D92B78022B00D00123236000F0BFFB20B1FFF788FF0023236038BDFFF705
:2035C0003FF90028F6D02368CAE700BF48860840E84500203950002000200D4004200D40E0
:2035E00058200D400749002351F82320824207D01AB9044A42F8230070470133052BF3D10F
:20360000704700BFE8450020054B00221A60054A136943F004031361034B02221A707047CF
:2036200058200D4000ED00E039500020094B4FF4803210B5C3F89021C3F89020BFF34F8FDA
:20364000BFF36F8F044C206818B100F0BBFB0023236010BD00E100E0FC450020134B1B78ED
:203660002BB101F5201127310138114B16E0114A1278122AF5D1104A12784B2AF1D1084416
:203680008B420ADA03F52012032BD4BF2C3224321278013300F8012DF2E77047994204D0B7
:2036A00011F8012900F8012FF8E770472B002800270028002A0028002900280010B54F4C74
:2036C00003F0BAFAFFF764F803F06DFB00F0D6FA00214B4800F05EFB00F0E2F9FFF740FADE
:2036E00003F043FB00F08EFBFEF7F0FD00F07EFE00F0ECFF00F088F92368022B07DD414A5F
:203700004149424801F0CEFC414801F0CBFC2368022B09DD3C493B4A3C4801F0C3FC3D4B35
:203720003D48196801F0BEFC2368022B09DD3649344A364801F0B6FC384B3948196801F0A6
:20374000B1FC2368022B09DD2F492E4A2F4801F0A9FC344B3448196801F0A4FC2368022B5C
:2037600009DD2949274A294801F09CFC4AF6CD312E4801F097FC2368022B08DD2249214ADB
:20378000224801F08FFC0A21294801F08BFC2368022B09DD1C491B4A1C4801F083FC254B83
:2037A0002548198801F07EFC2368022B07DD154A1549164801F076FC204801F073FC236823
:2037C000022B02DD1E4800F041F82368022B02DD1C4801F067FCFEF79FFD1B4803F0BBFA63
:2037E000FFF7C4F900F062FA0446FFF7C5F914F0FF0FF7D103F02AFAF4E700BFE8440020F5
:20380000EC4400204E792000D9782000DE78200053792000807620008A792000707620005F
:203820009979200054762000A4792000AF792000C9792000C44A0020E9792000F679200046
:203840001E530020F67B2000D476200038B5054608B1002409E00948BDE8384001F022BCA1
:20386000E30702D4064801F01DFC295D0548013401F018FC082CF3D138BD00BF0B7A2000D2
:203880001A7A20001C7A200010B50E4C236813B90D4A136010BDFEF7A1FF216891E80C000E
:2038A0001A44131A8A6842B192E812002144091A8B4228BF0B469268F5E71844024B186088
:2038C00010BD00BF0046002004460020014800F079BA00BFEC4400202DE9F84303880546EA
:2038E00033B1592B0BD0002303800320BDE8F883234A136059232B800120BDE8F8838729A4
:2039000024D08229F6D11E4F4FF00008B9463C680026002CEED0204603F04EFA98B1224688
:203920008821E06800F00EFA58B9E060A3680EB1B36001E0C9F80030C4F80880FFF7A4FFC1
:20394000E5E7FFF7C3FF2646A468E2E70C4900200B681BB90028CDD00B60CBE7DC68A242DC
:2039600002D19B680120F4E700B10B6099680029C0D0C86882420ABF89680B469960F5E7CB
:203980000046002010B50446FFF7A0FFE3680B4A4BB113683BB1A34203D1094A1268DA605A
:2039A00007E09B68F6E7064B1B68E36013681460A360BDE81040FFF767BF00BF0046002001
:2039C0000C460020024B1868003018BF012070470046002010B50B4A04461368834206D1E8
:2039E0008368136008E09A68944203D01346002BF9D103E0A2689A60FFF746FF0023A36040
:203A0000E36010BD00460020034A9179D379034A03EB0123138070471E530020C44A002025
:203A2000F8B50388064615462BB14A2B15D0002303800320F8BD174803F0D9F904462CB1A8
:203A4000A168201D03F092F92468F8E7124B01221A704A2333800120F8BD8829FBD10D4865
:203A600003F0C5F90446002CF3D0231D9D420ED12146084803F0C5F9084B62691F681A60D7
:203A8000A2691D460AB1E06990472F60E1E72468E9E700BF084600203A5000200C460020E1
:203AA00010B5064B002406481C7003F09DF92146BDE81040034800F06DB900BF3A50002043
:203AC00008460020FC44002070B50446E3610B4B049D1B786561A26143B1094D094B2E68DE
:203AE000201D2B6003F042F92E6000E0A1602146BDE87040044803F097B900BF3A500020AD
:203B00000C460020FC4400200846002013B5034C24680094FFF7D8FF02B010BD0C46002070
:203B200010B5084B04461B781BB10430FFF752FF01E0C36003612146BDE81040024803F048
:203B400060B900BF3A5000200846002010B50A4B04461B7823B1BDE81040043003F018B9BD
:203B6000064803F044F918B1A04203D00068FAE7012010BD002010BD3A500020084600200D
:203B800038B5836804460D469BB10A4804600220A07304F10C0098470238012801D9832DAC
:203BA00005D121462046BDE8384000F005B80123A37338BD0C4600202DE9F8431C4A0446F6
:203BC000156889462B4690461A4E3768A34204D00BB11B68FAE7BDE8F88334B3A37BABB1F1
:203BE0000023A37345B1A54204D022468721284603F0D3F82D68F5E7A3683BB14C4505D0D1
:203C000034602A46832104F10C009847D8F800309C4203D12268064B05E0134623B11A68FB
:203C20009442FAD122681A603760BDE8F88300BF104600200C460020002370B51D46094A83
:203C400001261370084A146854B1E37B33B1A673E573002282212046FFF792FF2468F3E71C
:203C600070BD00BF3D50002010460020024B1878421C1A70704700BF3E500020064B8A224F
:203C80001A70064A00231370054A1370054A1360054A1360704700BF3E5000203B5000207F
:203CA0003C500020104600200C4600202DE9F0411A4D2B780BB1FFF7BFFF194C22783AB3C3
:203CC000184E0C213378184F5943781817F8018001334768806803F01F03013A3370227033
:203CE00068B9124B1E689EB12B780BB1FFF7A4FF30463A46414603F050F83668F3E7B8F1A0
:203D0000810F04BF012383733A46414603F045F82B7820781844BDE8F08100BF3D500020E6
:203D20003C5000203B5000201446002010460020024A034B10781B78184470473C500020C8
:203D40003D500020F0B50B4E3378202B0FD00A4C0C252478094F1C4404F01F046C4301330E
:203D60003D19A86039556A6033700020F0BD0120F0BD00BF3C5000203B50002014460020BF
:203D800038B5034C256803F008F8256038BD00BF0C46002030B40A4C0A4625682B4683426F
:203DA0000CD00BB11B68FAE740B101210560817320608381812130BCFFF7E2BF30BC70474F
:203DC0001046002038B1837B013B012B9FBF024A0123C373137070473D50002010B5084C1A
:203DE000206858B100232360816843689847236823B1BDE810401868FEF73EBD10BD00BFC9
:203E00009447002082B0074B02AA42F8043DCD21934202D203F8011BFAE70348002102B04F
:203E2000FFF7B8BF2E5300200C45002038B5FEF7A3FE0C4C0C4B22780B4DCD2A06D09C4234
:203E400007D20134F7E7AC4203D201342378CD2BF9D0FEF791FEAC423ABF0348001B4FF012
:203E6000FF3038BD2E530020305B002070B5038805462BB1912B0BD000230380032070BD6E
:203E80004FF4A0611B4802F071FF91232B8003E0184802F07DFF08B9012070BDFFF7C6FF3F
:203EA000154C164B061EA3EB040401DB002C0CDA134B1B68002B18DD124A1349134801F093
:203EC000F1F82246314612480DE0A6420DDD0C4B1B68002B09DD0B4A0B490C4801F0E2F84E
:203EE000224631460B4801F0DDF8024802F047FFCBE700BF984700202E530020305B00208C
:203F0000E8440020B87A2000BE7A2000DE782000C27A2000EC7A20002DE9F0410688054633
:203F2000772E31D07E2E40D0002E4ED12B4CFFF79DFE266026462A4B2A4FDFF8B08018705B
:203F4000236857F823204AB1002108F80310936880209847336801333360F1E7224A137072
:203F6000772320E0214AD256002A12DB1B4A136801331360194B1C4A1B6812789A42F1DCF6
:203F80001B4B1B68002BEBD0194A00231360134AEFE7144A002052F82320114B1978FFF738
:203FA000D1FE30B97E232B8014E00D4B1B788B4210D10A4B0D491A688B5C03F07F038B5408
:203FC0000B4A136801331360D0E7002303800320BDE8F0810120BDE8F08100BFA8470020CF
:203FE00029530020CC4400203F50002026530020AC470020054A136843F004031360044BD4
:204000001B68906943EA002080B2704700700D4014700D4010B5184A136823F00C03136029
:20402000164B01221A601A68012AFCD1144B08221A60E322C3F8142203F505731946114AE5
:204040001368DB07FCD5104C102000232268013802F0010243EA02034FEA43039BB2F5D107
:20406000002BF1D0094A180A03F0FE0310601360EF230B6010BD00BF00700D40A8200D402D
:2040800024860840648608409C86084014700D4010B5044690F84C30084A013380F84C3034
:2040A000802103462030FFF731FD054B2246BDE8104019780020FFF745BE00BF914020009B
:2040C0002B53002070B503880446C3B1B3F5867F03D000230380032070BD822912D102F0DE
:2040E000E4FDBFF35F8F114B00221E681A60BFF35F8F02F0DEFD0E4D55F8040F20B94FF47D
:2041000086732380012070BD90F8453026FA03F3DB07F1D5FFF71AFD0028EDD02B68054A26
:2041200002211846FFF7F2FCE6E700BFB0470020C044002051412000034A1368184310600E
:204140000248FFF73FBE00BFB04700202C45002070B50446FFF7FAFC20B304F120063046FC
:20416000FFF7F4FC0546204602F0E6FE01280CD1C5B1002523460C4A84F84C507E21304645
:20418000FFF7C4FC2246094B06E058B955B93046FFF7C6FC2246064B2846BDE8704019786D
:2041A000FFF7D0BD70BD00BF914020002C5300202A530020F8B5FFF759FD304B304D1870EA
:2041C000FFF754FD2F4B304C1870FFF74FFD2F4B2F4F18700023AB602E4B01266B60216836
:2041E000002943D091F84530886C2B4AD90809030A44116803F0070306FA03F321EA030364
:2042000013602368254A93F84530D90809030A44116803F0070306FA03F321EA0303136006
:20422000236840F08C0193F84500FEF773FE23681B4A93F84530D90809030A44116803F069
:20424000070306FA03F30B431360236893F84530DB0806FA03F33B6054F8043B93F8453013
:2042600006FA03F2AB681343AB60B8E70D48FFF791FDBDE8F840024800F09AB82C53002055
:20428000B44700202A530020C44400202B53002000E100E03941200020940D4000940D4063
:2042A00010940D402C45002070B505880446672D09D0792D32D0002D36D1FFF7D7FC1D4B06
:2042C00018701D4B1D601C4D2E461C4802F024FE431C01D167231FE00A28174A09D00D28C1
:2042E00007D02B687E2BF0DC5A1C3260144AD054EBE713680025591C1160114A2846D5540B
:204300000C4B1978FFF71EFD0E4B2A4685211868FFF718FD20B97923238009E0852907D123
:20432000054B00221A60CEE700230380032070BD012070BD2D530020C8470020C0470020A2
:20434000C15000200C46002038B50D4C01462378254633B90B4802F0CCFD60B9012323705D
:2043600009E00A2801D00D2805D1064802F0C1FD08B100232B700448FFF724FD012038BD58
:20438000C0500020C04700203C45002008B505490548802202F0A6FDBDE80840002103483D
:2043A000FFF7F8BC40500020C04700203C4500200146014802F038BDCC47002038B50546F9
:2043C000064802F014FD04463CB1A068284002D0636803B198472468F6E738BDCC47002024
:2043E000014802F001BD00BFCC47002008B5044802F031FDBDE80840024802F02CBD00BFD8
:20440000584500204C45002038B50E4802F033FD0446A8B10C4802F02EFD0546206028B909
:204420002146084802F03BFD284638BD00F074F805F19C01A5F8800005F1820000F0F8F8D4
:20444000204638BD4C4500205845002010B501460446074802F038FD48B12168054802F006
:204460001EFD2146BDE81040014802F018BD10BD4C4500205845002010B5014604460948D3
:2044800002F022FD68B12468B4F88010204600F0B9F804F19C0104F18200BDE8104000F035
:2044A000D9B810BD4C45002010B507490B88834208DB064C80B222880244181A08802280CD
:2044C000012010BD002010BD2650002028500020014B1880704700BF2650002000487047E4
:2044E000F0470020014B1888704700BF26500020034A044B10781B781844C0B2704700BF72
:20450000515100202850002008B5FFF7F1FF014B184408BDF047002070B50D4D0D4C2A7860
:20452000238806461344802B0FDC0B4902F00AF92B781E44FFF7E8FF22880146304602F013
:2045400001F928782388184470BD002070BD00BF5151002026500020F047002008B5FFF71F
:20456000C7FF024B1B88184480B208BD2650002038B50146FFF7F2FF4318802B11DC0A4A3A
:20458000013880B2541803B2002B04DBD55C0138E55480B2F7E7054B01201A7811441970F1
:2045A00038BD002038BD00BFF04700205151002038B5094D094C1A220021094802F038F9B0
:2045C0002946204602F0D3FC294604F10800BDE8384002F0CCBC00BFE4772000F4520020A2
:2045E00004530020044A00231380044A1380044A1370FFF7DDBF00BF28500020265000200F
:204600005151002038B50C460546FFF7EBFF802C28BF802422462946034802F093F8034B4A
:2046200020461C8038BD00BFF04700202650002010B50C461A22054902F084F82046BDE8BD
:2046400010401022024902F07DB800BF04530020F452002010B50C461A220146044802F0F2
:2046600071F82146BDE810401022024802F06AB804530020F4520020024B23F8101001205F
:20468000704700BF04530020014B33F8100070470453002008B5044B0D3803EBC00002F087
:2046A00066FC012008BD00BFF4520020024B0D3803EBC000704700BFF452002001490248DD
:2046C00002F058BCE4772000FC520020054B10B51B689847044B5B689847BDE81040034B40
:2046E0005B6818471C7620005476200070762000F8B5FEF773F804460F4F00250D2007EBFD
:204700000516FFF7D3FF314602F034FC78B10720FFF7BAFF337B834201D00020F8BDB068ED
:20472000201AB0F5206F8CBF00200120F8BD0135102DE3D1F1E700BF7048002070B5164EAB
:2047400000240D20FFF7B2FF06EB041102F012FC114D611C10B910290C46F2D14C1E05EB0F
:204760000111A1F110063CB120391022304601F0E9FF013C3146F4E70720FFF785FF2873ED
:20478000FEF72CF8A8600D20FFF790FFBDE870400146014802F0EBBB7048002030B591B0CB
:2047A000054600F063F84FF6FF73984202D14FF0FF3052E040220021684602F039F8284B98
:2047C0001A782AB901221A70FFF714FC254B18707DB10720FFF758FF58B9224C23780BB939
:2047E0000123237021780720FFF746FF237801332370FFF763FF6A46C1B21B4802F018FCC1
:20480000FFF75CFF28B1FF238DF800308DF8013006E00E20FFF74AFF0146684602F0A7FB05
:204820000D20FFF743FF014602A802F0A0FBFFF76BFE0E90FFF756FE0F90684602F0E4FC2F
:2048400004464DB1FFF794FE0028B0D0FFF746FE0146684602F021FD204611B030BD00BFCE
:20486000535100205251002089462000014B1888704700BFB84500202DE9F041012986B09C
:2048800006460F46144640F3838003A902F04FFD0A2203A904F1100001F054FF9DF8113006
:2048A0000BB1B51C02E0B378F51CA37602AA01A903A802F005FC9DF81380B8F1000F23D06D
:2048C000029B23B16A7815F8023B03EB0223B8F1020FA38309D13049204602F048FB6B7877
:2048E000237015F8023B637014E0B8F1030F11D105F108021346611E13F8010DAB4201F8A0
:20490000010FF9D1154605E02349204602F02FFBA4F81C809DF81580B8F1000F2BD0019BDE
:2049200053B16A7815F8023B03EB0223029A9BB2E3831AB9A38301E0A38BE383B8F1020FBD
:204940000AD1154904F1080002F011FB6B78237215F8023B637215E0B8F1030F12D105F103
:2049600008021346E11D13F8010D9D4201F8010FF9D1154606E0084904F1080002F0F7FA99
:20498000A4F81E80A81B3B1A8742E363A56300DA002006B0BDE8F081E477200070B50546FD
:2049A0000C46102C07D92B68102208496868984750B9103CF5E734B12B6822466868034997
:2049C000BDE870401847204670BD00BF3C7B20002DE9F04F064615468FB006914FF0000BDE
:2049E000069B1B78CBB1069C274617F8013B1BB1252B14D03C46F7E7069BA3420DD0069B49
:204A00000699C3EB04084246336870689847002840F025832378C34423B958463AE3069B89
:204A2000A342ECD16378002BF7D039460024084610F8013B0A462B2B11D006D8202B11D041
:204A4000232B12D144F0080416E02D2B04D0302B0BD144F010040FE044F001040CE044F0FC
:204A6000060409E044F0020406E0A3F13107082F11D84FF0000801E00146D8E70A4611F8B0
:204A8000013BA3F13000092813D80A2202FB0838A8F13008F2E72A2B09D12B680246002BB2
:204AA00005F10405B8BF44F00104984601E04FF0000813782E2B1AD15178531CA1F1300078
:204AC00009280ED8194600270A780B46A2F13000092801F101010DD80A2303FB0727303FD1
:204AE000F2E72A2904D12F68931C043502E013464FF0FF371A786C2A09D15A786C2A02D149
:204B000044F080040AE0013344F0600411E0682A0AD15A78682A03D144F02004023308E01C
:204B2000013344F0400404E07A2A04BF44F0600401331A78642A3CD01FD8462A48D00DD822
:204B4000252A5AD003D8002A3FF467AF57E0412A4AD0452A53D144F4424450E0582A31D0CE
:204B600004D8472A4BD144F4A13448E0612A38D0632A44D144F4A06441E06E2A3AD007D884
:204B8000662A22D027D3672A28D0692A11D036E0732A2CD006D86F2A11D0702A2FD144F4C3
:204BA00040742CE0752A07D0782A28D144F4C85425E044F4245422E044F410641FE044F436
:204BC00088541CE044F4B24419E044F4007416E044F4844413E044F4024410E044F48134E6
:204BE0000DE044F4C1340AE044F4E13407E044F4806404E044F4E06401E044F4C064013390
:204C0000069304F4E063B3F5806F00F08F8113D8B3F5807F27D0B3F5407F7FF4E1AEAE4B3E
:204C200014F4804FAD4A18BF1A460DF133032868002104351F46B5E1B3F5C06F08D0B3F5FF
:204C4000E06F00F02282B3F5A06F7FF4C9AEF2E133680122A24970689847002840F0FF81C5
:204C60000BF1010BBCE6002FACBF24F01004012714F40053079304F0E0032ED0402B12D089
:204C800005D8ABB1202B21D195F900200DE0602B0ED0802B1AD1073525F0070303F10805A8
:204CA000D3E9002307E0B5F90020D317043502E02A680435D317002A73F1000108DA5242A1
:204CC00063EB4303CDE90023012304E000220023CDE900230023059329E0402B13D004D853
:204CE000BBB1202B1DD12A780EE0602B11D0802B17D1073525F0070303F10805D3E9002345
:204D0000CDE900230BE02A880023CDE90023043505E02B6800221946CDE900120435079B4C
:204D2000D9E70023059300220023CDE9002304F4C053B3F5805F0CD0B3F5C05F33D0B3F5FA
:204D4000006F4FD1DDE900230DF13609CDE9022304E0DDE900230DF1360915E0DDE90223D9
:204D600013433AD0DDE902010A22002301F024FBDDE90201303209F8012D00230A2201F011
:204D80001BFBCDE90201E9E752EA030125D002F00701303109F8011DD10841EA4371D8082D
:204DA0000A460346F0E74C4B14F4804F0DF136094A4918BF1946DDE9002352EA03000CD00B
:204DC00002F00F00085C4FEA131E09F8010D100940EA037002467346EFE70DF13603C9EB7D
:204DE000030302E00DF1360900230293029B41F60802BB4238BFFF1A41F2080302EA0402BB
:204E000028BF00279A4202D1002F08BF012741F60801029B8A4203EB07000DD1DDE9002352
:204E2000134309D02F4A304914F4804F4FF0020A0CBF0B46134602E04FF0000A5346079A55
:204E40009AB1059A52B904F00602022A0AD0062A264A04BF4FF0010A134606E04FF0010A25
:204E6000234B02E0234B4FF0010A0AEB000290458CBFC2EB08084FF0000814F00102009276
:204E80000DD1E10602D54744904608E0414630460593FFF783FD059B002840F0E080BAF11F
:204EA000000F07D03468524619467068A047002840F0D580029B03EB0B04BB46BBF1100FA7
:204EC00033681BD910220C4970689847002840F0C680ABF1100BF1E75C7B20006D7B2000D9
:204EE0008F7B2000817B20007E7B2000867B2000847B2000097A20004C7B2000BBF1000FCE
:204F000006D05A46654970689847002840F0A7803368029A4946706854449847002840F0CA
:204F20009E80009B3C44002B39D032E0D5F800900435B9F1000F0AD0CA469AF800300AF1FC
:204F400001020BB19246F8E7C9EB0A0A03E0DFF850914FF0060A002F02DBBA4528BFBA4637
:204F6000D0458CBFCAEB08084FF0000814F0010705D141463046FFF711FD00286FD13368DF
:204F80005246494670689847002868D10AEB0B042FB141463046FFF701FD00285FD108EBB2
:204FA000040B1DE550EA010E0ED000F00F0E12F80EE04FEA111C03F801ED4FEA101E4EEAC6
:204FC000017E70466146EDE7FF1A02BF3022012703F8012C07F1030708BF03F1FF3378221C
:204FE000B84503F8012C4FF0300203F8022C88BFC7EB08084FF0230298BF4FF0000814F0E3
:205000000104A3F1030903F8032C04D141463046FFF7C4FC18BB33683A4649467068984705
:20502000E8B95F4424B141463046FFF7B7FCB0B908EB070BD4E4B8F1010F2B688CBF08F1FB
:20504000FF384FF0000814F0010405F104058DF8203008D141463046FFF7A0FC10B14FF08D
:20506000FF3017E0C3443368012208A9706898470028F4D108F101072CB141463046FFF71F
:205080008DFC0028EBD1BB44AAE42B680435C3F800B0A5E40FB0BDE8F08F00BF4C7B2000CD
:2050A000887B20000FB407B504AA52F8041B04480192FFF78DFC03B05DF804EB04B0704777
:2050C0006445002010B504462B2002F09DF96300233303F03F0300F0C00119432B2002F0ED
:2050E0007CF9014B1C7010BD5852002010B502F06DF9C0B1602801D13A2002E0702803D13C
:205100003B2002F057F90EE0362002F053F9FDF79DFB6FF4A374241A02F058F918B1FDF72C
:2051200095FBC442F8D40D4A6FF4A374137823F004031370FDF76CFA3A2002F03BF93420E6
:2051400002F038F9FDF782FB241A02F03FF9102803D0FDF77BFBC442F7D410BD5952002075
:2051600010B51A4C23785B060CD52378332023F04003237002F01EF9FDF768FB6FF4A37476
:20518000241A0CE0FDF734FB114B1B68C01AB0F5617FEAD210BDFDF759FBC44203D502F0E3
:2051A00015F94028F7D1FDF751FB6FF4A374241A03E0FDF74BFBC44203D502F007F90028A4
:2051C000F7D1FDF715FB024B186010BD595200207049002010B5FFF7C3FF0E4A3A20137813
:2051E0006FF4A37423F00403137002F0E3F8342002F0E0F8FDF72AFB241A02F0E7F810284D
:2052000003D1BDE81040FDF703BAFDF71FFBC442F3D4F6E75952002010B50E4B1B889BB283
:20522000002B14BF0120002012D10B4C23787BB9237842F6D7700133DBB2237002F0E4F8EA
:205240002378003003F1FF33DBB218BF0120237010BD00BF2A500020D651002070B5164D50
:205260002B7803F0020303F0FF001BBB134C23780BBB23786FF4A3760133DBB22370FDF7AC
:2052800007F9FDF7E3FA361AFDF7DEF968B9FDF715F903200621287002F09FF8FFF79AFF05
:2052A0002378013BDBB2237004E0FDF7CFFAC642EAD4ECE7012070BD59520020D65100205D
:2052C00008B5094B1B7803F00A03022B01D0002008BDFDF7B9F9012805D0044B1B889BB264
:2052E000002BF4D0012008BD595200202A50002038B5234A3A2013786FF4A37423F00403A1
:20530000137002F057F82621032002F066F8352002F050F8FDF79AFA241AFDF795F901280F
:2053200003D1FDF791F928B111E0FDF78FFAC442F3D4F6E742F6D67002F066F838B102F081
:2053400088F80621032002F048F8012038BDFDF77DFA04460B4DFDF777F948B9FDF774F968
:205360000128ECD00621032002F037F8002038BDFDF76CFAEB682344C01A0028EBDBEDE718
:2053800059520020E4752000F8B5154D0A462C88A4B21CB32B8813499BB20B4413F9024C8C
:2053A000114B124E93F92C30234433802B882C889BB2A4B2023C944210DC0B4413F8017C4E
:2053C000224601F0BFF90023318804202B80FFF753F907F07F010320FFF74EF92046F8BDDD
:2053E0002A50002054510020E475200030500020CB1E7A2B73B506460C461BD80F4B02ADE5
:20540000198025F8021D02F024F80D4A3A20137823F00403137001F0CDFF3B2001F0CAFFFE
:205420000121284602F045F83046E1B202F041F8002000E0012002B070BD00BF2E5000201C
:20544000595200202DE9F043744D93B02B782F4603F0FF04DFF8E8814BB198F80030704872
:2054600043F0200388F80030FEF7ACFCCAE098F8003023F0200388F800302B780133DBB2D5
:205480002B7001F0A3FF00F0EF0060281DD042F6D77001F0B9FF064620B92B78013BDBB2D1
:2054A0002B70B8E098F8003003F0040303F0FF04EBB9DFF874910121484601F0E9FFB9F84F
:2054C0000030022B01D97D2B07D9FFF70FFE2B782046013BDBB22B709DE0524B701E1C8059
:2054E00098F80030C6B243F0040388F8003098F80030590740F18A804A4C4B4D20882B88A6
:20550000321802339A427FDCDFF82C813146404401F0BEFF20882B88304481B20233994296
:20552000218073D108EB010313F9013C002B6BDA3E4D2B889BB2002B66D102AE324640463B
:20554000FFF79AF9002849D0394B1A68984612F0010F04D1D8F800309A0715D510E09DF8A6
:205560001830022BF6D09DF81F30022B0CBF0223082313F1FF33EDD3F25CFF2AF9D026E088
:205580009DF81820012A01D0022027E09DF81B20002AF9D0DB0713D402238DF8043000238C
:2055A0008DF805309DF822308DF8063001F051FF032101A8FFF71CFFFFF79AFE03200DE0D2
:2055C0001C49304601F0D6FC0028E5D1DCE71949304601F0CFFC0028BCD1012002380128BF
:2055E00012D8238814492B802A88144892B201F0A9F8FFF77BFD0A48FEF7E4FB3B78013BA7
:20560000DBB23B70012006E0FFF770FD3B780020013BDBB23B7013B0BDE8F083D65100207F
:205620006C4500202C500020325000202A500020784900201E530020D85100205451002041
:205640005952002038B5184D2B789B072AD5174C23780BB1002038BD23780133DBB223702B
:2056600001F0F7FE42F6D77001F0CEFE60B12378013BDBB22370FFF7E5FE2378002BE9D1A7
:2056800023780133DBB223703221032001F0A5FE392001F08FFE23780120013BDBB228701D
:2056A000237038BD012038BD59520020D6510020404A2DE9F34792F8281092F829509246C3
:2056C0006B1A013390FBF3F404FB1300C4B20F19FFB2B94268D8BD4266D3374DDFF8E88008
:2056E0002B7863B1354B36481F7098F80030012643F0100388F80030FEF764FB55E098F870
:2057000000301A07EED4FFF7DBFD06460028E9D198F8003023F010029B0788F8002004D47B
:20572000FFF79CFD4FF0010900E081462B780133DBB22B7001F08DFEDAF8243042F60E7093
:205740005C434FF47A73B4FBF3F1DAF820300B4440F271211B03B3FBF1F10191C9B201F006
:205760003CFE9DF8051042F60D7001F036FE9DF8061042F60C7001F030FE124B1F70B9F157
:20578000000F07D198F8003043F0400388F80030FFF720FD2B78013BDBB22B70B9F1000F69
:2057A00003D0FFF74FFF00E00226304602B0BDE8F08700BFE4752000D6510020D5510020C1
:2057C0006C450020D45100205952002010B50C46072836D8DFE800F00410353516181B2AEC
:2057E000012902D1FFF73AFD1EE009B1022010BDFFF728FF204610BDC8B2FFF759FF022896
:2058000012D1F3E7104B00E0104B1C600CE0104B93F92A106FF00F038C42A8BF0C469C42D6
:20582000B8BF1C460B4B1C70002010BD7F2905DC6FF07E039942B8BF1C4600E07F24064BCF
:20584000F1E7012010BD00BF7849002074490020E4752000D35100205752002070B50C4608
:2058600000297BD018287BD8DFE800F00D187A7A1D1F222428527A7A7A7A565A5E617A651F
:20588000676D70737600374B1B7803F0020303F0FF000BB1012303E0086070BD324B1B7874
:2058A0002360002070BD314B00E0314B1B68F7E7304B00E0304B93F90030F1E7294B1B786E
:2058C0009A0703D4FFF7CAFC012600E00026FCF7BDFF6FF4A3752D1A42F6727001F094FD5A
:2058E00083070DD542F6717001F08EFD234B40B293F92C500544ADB23EB1FFF7A3FE04E02D
:20590000FCF7A4FFC542E7D4ECE72DB22560C8E71B4BB3F90030C3E7184B93F82830BFE771
:20592000164B93F82930BBE76FF00F03B8E7134B93F92A30B4E70323B2E7104B1A6B114B96
:20594000B3FBF2F3ACE70D4B5B69A9E70B4B9B69A6E70A4BDB69A3E77D23A1E7022070BDF4
:20596000012070BD59520020D4510020784900207449002058520020D7510020E475200080
:205980003050002000127A00F8B5214D2B7803F0FF06002B39D11F4B1B789A0702D4FFF786
:2059A0005DFC01262B780133DBB22B70FCF74CFE012820D0184B194F1C783B789C4204D04E
:2059C0002146172001F009FD3C70FCF73FFF6FF4A3773F1A42F6727001F016FD830704468D
:2059E00004D584F00404C4F3800405E0FCF72EFFC742EFD4F5E700242B78013BDBB22B703F
:205A00000EB1FFF71FFE2046F8BD0020F8BD00BFD65100205952002057520020D7510020E2
:205A20002DE9F041334B1B8883425FD1324C237843F0080222709A0703D4FFF70FFC012780
:205A400000E000272D4B1B68DB070CD5FFF79CFF48B90FB1FFF7F6FD2378022023F008036B
:205A60002370BDE8F081264E33780133DBB2337001F0EFFC234B244A93F9003092F90000FB
:205A8000834201D0FFF71EFB0FB9FFF769FBFFF72FFCA8B9FCF7DAFE0546DFF8708001F0EF
:205AA00095FC102803D1FCF7B3FD002510E0FCF7CDFED8F810302B44C01A0028EFDBF2E7AF
:205AC0002FB9237843F040032370FFF783FB01253378013BDBB233700FB1FFF7B3FD237888
:205AE000284623F008032370BDE8F0810120BDE8F08100BF2E500020595200207449002035
:205B0000D651002058520020D3510020E47520002DE9F0414E4B1878984610F0010440F034
:205B200094804C4F3B780133DBB23B70FCF794FD2046FCF72FFD484CFCF7AAFC3020FCF71E
:205B4000C3FC642001F099F8FCF7B8FC25896668AD08002E6ED194F82C10182001F03DFC11
:205B60002621002001F039FC2621012001F035FC0621032001F031FC1F2001F045FC00F045
:205B8000E7011F2001F029FC292001F03DFC00F0CF0141F03F01292001F01FFC2A2001F094
:205BA00033FC00F0CF0141F030012A2001F015FC0021262001F011FC272001F025FC40F05A
:205BC0000101C9B2272001F008FC282001F01CFC00F09F0141F02001282001F0FEFB1F4B3D
:205BE00003221A601E4B01221A6094F82A001D4B187040B2FFF766FA94F82B401A4B21464F
:205C000017201C7001F0E9FB184B002118481C70FEF7C0F898F800301A2043F0030388F81C
:205C200000303B78013BDBB23B70FFF741FDFFF709FD0AE00436002D8DD016F8021C36F8D5
:205C4000040C01F0CAFB013DF4E70120BDE8F08159520020D6510020E475200078490020C2
:205C600074490020D351002057520020D75100206C450020822970B505460E4626D11C4B54
:205C80001A781C4602F02202222A01D1FFF7DAFB2378DA0603D5174B1878FFF709FD164B6F
:205CA0001B685B0712D4154B1B889BB273B1FEF799FCFEF729FC8021FFF766FB002805DDFF
:205CC00080B2FEF705FC0E4BDB6898472A8840F2622312B19A4202D003E02B8005E0832E23
:205CE00003D100232B80032070BD012070BD00BF59520020D5510020784900202A50002019
:205D00005476200010B501210C20FEF7B5FCBDE81040014B5B681847D8752000014B9B68C1
:205D2000184700BFD8752000014B1B6A184700BF1C762000014B5B6A184700BF1C76200056
:205D40000C4B13B51B6898470B4B044601A918209B6A984701280AD0002C0198B8BF1524E4
:205D60008028D4BFC4EB0000C4F1800000E0002002B010BDD87520001C76200007B5064B59
:205D800001A918209B6A984718B900F019FAFFF7CBFF03B05DF804FB1C76200007B5FEF73F
:205DA000A1FB032823D0FFF7B9FF00281FDB0E20FEF77CFC0F4901F0DDF838B10D20FEF795
:205DC00075FC0C4901F0D6F888B904E0FEF776FC0028F3D10BE0FEF78BFC40B9FEF7AEFCC7
:205DE000054B9B68019303B05DF804EB184703B05DF804FB1E5300207076200070B590F81B
:205E00002D400122012CD4BF03340524054602FA04F4FEF7EFF8013CB0FBF4F12B4601FB7D
:205E20001401034A05F10C00BDE87040FDF76EBEB95E20002DE9F0470D4614468B6880469F
:205E400093E8C000506B92F82C9000F0DAFF6868FEF7FCFAA968144801F021F82946134841
:205E600001F01DF8606B00F0C2FF40B1002384F82C3084F82D302046FFF7C0FF0BE004F1E0
:205E80000C00FDF74DFE2146094800F0BAFF2146084801F004F84B46424639463046BDE8FF
:205EA000F04701F06FB800BF7C45002088450020DC490020944500202DE9F74F04460028FA
:205EC00000F0D980406B00F092FF0546002800F0D2804068FEF7D0FA68490D20FEF7DAFB89
:205EE00001210820FEF7C8FBFFF70CFF0028C0F2C080FEF7F3FA624E90F802807768FEF715
:205F0000EDFA8146FEF72AFB01464846B847FEF7D5FBD6F818908246C847002860D1BAF1CF
:205F2000000F0BD0B768FEF719FBB8470746FCF78DFC6FF0A20BC0EB0B0B04E0F36998479B
:205F400000284DD1EEE7FCF781FC1BEB000FFAD417F0FF0704D0022F0CBF0120042040E091
:205F6000BAF1000F01D000203BE0FCF76FFC6FF0A20AF769C0EB0A0AB84710B1C84740B90B
:205F800005E0FCF763FC1AEB000FF5D4F6E7B84730B1FCF75BFC6FF01409C0EB090909E0C4
:205FA000736998470028F4D009E0FCF74FFC19EB000F02D5B8470028F7D0B84708B9022059
:205FC0000FE03369032101A89847032808D19DF80600B0EB080018BF01200028C3D000E0B5
:205FE0000120AA68002A46D003283DD8DFE800F0021B0B4394F82C300020013384F82D00E7
:2060000084F82C3030E0002384F82D3094F82C300133DBB284F82C30127A9A421DD8224656
:206020002946022022E094F82D300133DBB2052B83BF002384F82D3094F82C3084F82D30F4
:2060400084BF013384F82C3094F82C10137A994203D322462946012008E02046FFF7CEFEE3
:20606000686800F07EFF06E022462946FFF7E2FE01E00520B5E703B0BDE8F08F1E53002046
:206080001C7620002DE9F04107460E208846FEF70DFB454B05461A78444C22B901221A703C
:2060A000FDF7A8FF2070237813B9404B01221A70217807204B1C2370FEF7DEFA01210C2041
:2060C000FEF7DAFA3A4800F092FE044640B12946201D00F04FFFD8B9204600F0B9FEF4E757
:2060E000344800F0C8FE044640B32946201D00F03EFF002304F13000606384F82C3084F8F9
:206100002D30236300F070FE2146294800F08CFE606B00F096FE072810DC274800F0ABFE7A
:20612000054698B9606B00F08CFE38B92146204800F067FE21461F4800F0B1FE41463846F7
:20614000BDE8F0410123062200F01CBF1B4800F092FEA86008B3FEF757F96860C8B1062000
:20616000AE68FEF791FAC0B208B1307201E00823337286E880012946606B00F055FE606BD4
:2061800000F035FE85420DD12046BDE8F041FFF735BEA968094800F082FE2946064800F093
:2061A0007EFEBFE7BDE8F0816B5200205A520020DC49002094450020884500207C450020F2
:2061C00008B5054800F047FE044800F044FEBDE80840034800F03FBE884500207C4500200F
:2061E00094450020014B00221A607047B04A002010B50446FEF7F6F90B4B19880B4B18682D
:20620000FEF700FA0CB1214600E009490E20FEF741FA08490D20FEF73DFA074B0021084670
:206220009B689847012010BDD8520020D4520020E47720001E530020547620002DE9F041C1
:206240000C4B1C68A4B1FEF75FF90546FEF74AF906460D20FEF72AFA07460E20FEF726FA1C
:206260003A46034631462846A446BDE8F0416047BDE8F081B04A002010B5038804462BB163
:206280006F2B0FD000230380032010BD09490120FCF750FC4FF40071074800F067FD6F2354
:2062A000238004E0044800F073FD0028F2D1012010BD00BF85632000B44A002070B588B090
:2062C000264903A800F002FB03A92548FEF7EAFE244903A800F0A6FB044601462248FEF728
:2062E000E1FE02222149204600F04EFB002833D0204600F0F1F91E4C1A492070174800F07B
:2063000091FB06460025B6B11649002000F08AFB06461DB900F0E0F960700AE0012D03D17E
:2063200000F0DAF9A07004E0022D02D100F0D4F9E0700135E7E7E078A3786278217800901D
:206340000C48FEF7AFFE0C4B04221C600B4B30461A800B4BDB68984708B070BD6E520020AB
:20636000D47B20001C7C2000D77B2000E27B2000DE520020E47B2000D4520020D8520020A8
:206380007076200010B5094C094923880A28C85403F10103238006D10648FEF783FE002339
:2063A0002380FFF78BFF012010BD00BFDC5200206E520020F87B200053B94AB9002908BF4D
:2063C00000281CBF4FF0FF314FF0FF3000F082B9ADF1080C6DE904CE00F006F8DDF804E031
:2063E000DDE9022304B070472DE9F04F8C460C460546099E002B4FD18A4217466BD9B2FA78
:2064000082FEBEF1000F0BD0CEF1200520FA05F501FA0EF345EA030C02FA0EF700FA0EF533
:20642000390CBCFBF1F0BAB201FB10C300FB02F84FEA154C4CEA0344A04509D9E41900F183
:20644000FF3380F02881A04540F2258102383C44C8EB0404B4FBF1F301FB134C03FB02F2DF
:20646000ACB244EA0C418A4209D9C91903F1FF3480F00F818A4240F20C81023B39448A1AA3
:2064800043EA00400021002E63D022FA0EF2002386E80C00BDE8F08F8B4207D9002E56D02F
:2064A000002186E811000846BDE8F08FB3FA83F1002940F09380A34202D3824200F2FE804F
:2064C000851A64EB03039C460120002E41D086E82010BDE8F08F12B90127B7FBF2F7B7FA85
:2064E00087FEBEF1000F36D1E41B4FEA17481FFA87F90121B4FBF8F308FB134409FB03F213
:206500004FEA154C4CEA0444A24207D9E41903F1FF3002D2A24200F2D3800346A41AB4FBCC
:20652000F8F008FB104809FB00F9ACB244EA0842914507D9D21900F1FF3402D2914500F2E4
:20654000BA802046C9EB020240EA03409BE731463046BDE8F08F07FA0EF7CEF1200C24FAD4
:206560000CF34FEA1748B3FBF8FA1FFA87F908FB1A3520FA0CFC04FA0EF40AFB09FB4CEA98
:20658000040C4FEA1C4242EA05439B4500FA0EF50AD9DB190AF1FF3280F08B809B4540F273
:2065A0008880AAF1020A3B44CBEB0303B3FBF8F008FB103300FB09F41FFA8CFC4CEA034300
:2065C0009C4207D9DB1900F1FF326ED29C426CD902383B441C1B40EA0A418BE7C1F1200ECD
:2065E0008B4022FA0EFC4CEA030C24FA0EF74FEA1C49B7FBF9FA1FFA8CF309FB1A7720FAB8
:206600000EF88C400AFB03F548EA04044FEA144848EA0747BD4202FA01F200FA01FB09D996
:2066200017EB0C070AF1FF3041D2BD423FD9AAF1020A67447F1BB7FBF9F509FB157705FBD5
:2066400003F3A4B244EA0747BB4208D917EB0C0705F1FF3027D2BB4225D9023D674445EA4D
:206660000A40A0FB0289FF1A4F4545464C4614D329D066B3BBEB050367EB040707FA0EFECF
:20668000CB40CF404EEA030386E888000021BDE8F08F2346F3E61846DAE6B8EB020569EB09
:2066A0000C040138E5E70546D9E7104692E78246C0E7924678E702383A4443E7084604E72A
:2066C000023B3C442AE7C345E7D33C46D1E73146BDE8F08F704700BF0A22002100F070BA78
:2066E000032A70B426D940EA01039B0711D004780D78AC4222D10244431C05E013F8014BD6
:2067000011F8015FAC4219D19342F7D1002070BC70470C4603461E6825681846AE42214635
:2067200003F1040304F10404E1D1043A032A18462146F0D8002ADAD11046E8E7601B70BC16
:20674000704700BF844641EA000313F0030349D1403A23D30B6803604B6843608B68836036
:20676000CB68C3600B6903614B6943618B698361CB69C3610B6A03624B6A43628B6A836255
:20678000CB6AC3620B6B03634B6B43638B6B8363CB6BC36340304031403ADBD230320BD3E7
:2067A0000B6803604B6843608B688360CB68C36010301031103AF3D20C3205D351F8043B53
:2067C00040F8043B043AF9D2043208D0D2071CBF11F8013B00F8013B01D30B88038060466E
:2067E000704700BF082A13D38B07B1D010F00303AED0C3F10403D21ADB071CBF11F8013BCB
:2068000000F8013BA4D331F8023B20F8023B9FE7043AD9D3013A11F8013B00F8013BF9D223
:206820000B7803704B7843708B7883706046704770B4840746D0541E002A41D0CDB203465F
:2068400002E0621EE4B3144603F8015B9A07F8D1032C2ED9CDB245EA05250F2C45EA054562
:2068600019D9264603F11002103E0F2E42F8105C42F80C5C42F8085C42F8045C02F11002A4
:20688000F2D8A4F1100222F00F0204F00F041032032C13440DD91E462246043A032A46F83A
:2068A000045BFAD8221F22F003020432134404F003042CB1C9B21C4403F8011BA342FBD147
:2068C00070BC704714460346C2E700BF80EA0102844612F0030F4FD111F0030F32D14DF804
:2068E000044D11F0040F51F8043B0BD0A3F101329A4312F0803F04BF4CF8043B51F8043B9D
:2069000016D100BF51F8044BA3F101329A4312F0803FA4F101320BD14CF8043BA24312F0C6
:20692000803F04BF51F8043B4CF8044BEAD023460CF8013B13F0FF0F4FEA3323F8D15DF899
:20694000044B704711F0010F06D011F8012B0CF8012B002A08BF704711F0020FBFD031F873
:20696000022B12F0FF0F16BF2CF8022B8CF8002012F47F4FB3D1704711F8012B0CF8012B9C
:20698000002AF9D1704700BF002A3FD040EA010313F00303F0B425D1032A23D904680D6879
:2069A000AC421FD1043A33D0A4F1013525EA040414F0803F2FD1071D0D1D0DE057F8043B4A
:2069C0000E68A3F10134B34224EA03040AD1043A1ED014F0803F21D1032A2946384605F1A2
:2069E0000405EBD803780C78013A9C420BD17AB114B915E062B173B110F8013F11F8014F12
:206A0000013AA342F6D0181BF0BC7047104670471046F0BC70471846F0BC70470020F3E779
:206A20002046F1E7024A012312685C3200F002B8B4450020F0B420B307460D4617F8016B4B
:206A400001E0A64216D015F8014B002CF9D1EEB13E460C4616F8015B00E073B114F8013B0D
:206A60009D42FAD15DB100233B70166006463046F0BC704763B13846DEE73746E8E72E46DE
:206A8000F3E710680028D7D10646F0E71660EEE7176006460370EAE72DE9F04F474C8346AE
:206AA0000E46D4F800E000E02646344614F8015B0EEB0500407800F0080000F0FF080028DB
:206AC000F2D12D2D5CD02B2D04BF7578B41C002B3ED0102B60D09A46B8F1000F0CBF6FF02F
:206AE00000404FF00040B0FBFAF90027BC460AFB19000CE0303DAB4219DD7E1C05D0CC4536
:206B000023D820D00AFB0C5C012714F8015B0EEB0506767816F0040FECD116F0030606D0E0
:206B2000012E14BF57263726AD1BAB42E5DC7B1C16D0B8F1000F10D16046002A39D0DFB97C
:206B40001160BDE8F08F8542DCDD4FF0FF37DCE7302D1AD00A239A46BEE7CCF1000CEBE754
:206B6000B8F1000F4FF022030CBF6FF000404FF00040CBF80030F2B1611E1160BDE8F08F66
:206B8000B41C75784FF00108A1E7237803F0DF03582B08D008239EE7302D9CD1207800F09B
:206BA000DF00582897D14FF0100A65785346023492E7BDE8F08FBDE8F08F00BFB045002074
:206BC00010B4044C13460A460146206810BCFFF763BF00BFB4450020FEE708B5FBF756FB88
:206BE000F7B500240646254627463046FBF7DAFB0197019B9D4204DD00BF019B013301934D
:206C0000F7E73046FBF7FEFBC5F5C8750197019B9D4204DD00BF019B01330193F7E7013414
:206C2000B4F5487F06D0B4F5C87FCCBFC4F548752546DAE703B0F0BD08B500F00DF8FBF7ED
:206C400005FCBDE808400120FFF7CABFFCF76EBCFEF7F8BBFBF74ABD08B5FBF795FFFBF7B3
:206C6000FBFFFBF799FFFBF793FDFCF7CDFC00F09AF8BDE80840FDF7B3BB80B2FBF7C2BDDE
:206C8000FBF760BD70470020FBF74EBE0120FBF74BBE0020FBF7BABF0120FBF7B7BF0220BE
:206CA000FBF7B4BF0320FBF7B1BFEFF3108072B6704780F31088704710B50446C1B2002035
:206CC000FBF740FF204610BD70B5054604464618601B44B1237833B1B44204D018460134EC
:206CE00000F060FBF4E770BD002070470120704710B50446302200210E20FCF771F884B151
:206D0000012C0CD142F210730011A0F28E5058432A2390FBF3F000F5C340283010BD4FF07F
:206D2000004010BD002070470120704710B50446302200210F20FCF753F85CB1012C07D196
:206D400040F6F253584347F6F07390FBF3F010BD4FF0004010BD10B5041F54F8040F18B1E6
:206D60000021FDF717F8F8E710BD704710B5044600F01BF82046BDE81040FCF703BE10B5A6
:206D8000044600F027F82046BDE81040FCF7FABDC068B0FA80F040097047837BDB0701D59D
:206DA000FCF7EEBE7047FFF76DBF10B541600446FBF714FD206010BD10B50446FBF70EFD4F
:206DC0002368C3F1010303446068834294BF0020012010BD10B50446FFF7EEFF18B194E804
:206DE0000C001344236010BD00230360704700687047006800B9704703680BB11846FBE745
:206E00007047036810B573B1002499421A6806D10CB9026000E0226000221A6010BD1C46BB
:206E20000AB11346F1E710BD38B50546FFF7E9FF00230B60FFF7DDFF08B9296038BD016083
:206E400038BD0368002013B101301B68FBE7704700B10068704710B504464288002140682F
:206E6000FFF7E6FC23886288A0685A43BDE810400021FFF7DDBC10B5418800238B420CDAF7
:206E80004268D418D25C32B9012222700288806803FB020010BD0133F0E7002010BD30B572
:206EA000826844880023A3420BDA8A4205D14268D15C31B10020D05430BD058801332A4474
:206EC000F1E74FF0FF3030BD82688A4208D84388008800FB032081422CBF002001207047D2
:206EE000002070470023013A0160027143718371704710B5427983790479D31A34EA030320
:206F000008D00368995443795A1C037913404371012010BD002010BD837942790179D21A94
:206F20000A421FBF0268D25C01330B401ABF837110464FF0FF30704790F845200121D308DE
:206F40001B0303F1804302F0070203F5592301FA02F253F8223090F844000BB180F0010068
:206F60007047006800F19C018230FDF761BB0822FFF7E8BB08B50822FFF7B2FBB0FA80F03B
:206F8000400908BD30B40D460446114620B11A462846234630BC184730BC704730B591B0EF
:206FA000FDF7B2FA0446FDF79DFA6A4601462046FDF762FC044610B94FF0FF3036E0FDF722
:206FC00073FA0028F8D09DF810100C20FDF754FB9DF813100820FDF74FFB9DF81730ABB1DA
:206FE000BDF81C50FDF742FC854205D04FF6FF73BDF81C209A42DFD169469DF8170000F023
:20700000F4F818B969460E20FDF744FB02A90D20FDF740FB9DF8153013B99DF81A1001E056
:207020004FF6FF710720FDF727FB204611B030BDF8B50E461446054600283AD0002A38D040
:207040000C20A84700232074A37416B1E374637503E00820A8476675E0740920A8470027E9
:2070600001232376A07567740720A847A076FDF7FDFBE0830A20A847012816BF03236776CE
:207080006376FDF7F3FBA0830B20A847012801D1002303E00EB1022300E00323E375637ED4
:2070A000022B02D0E37D022B01D1012300E000232375F8BD0120FDF771BB0020FDF76EBB80
:2070C00030B500284ED0037A022B2ED1C479437A057914B983B9012D0AE003B975B1032C32
:2070E0000ED1032B03D1002D3AD1012019E0022B14BF0020012008E0204606E0012005E0E2
:20710000022CF4D1181C18BF012005BB0CB1022C05D1023B012B8CBF002301231BE0032CAA
:2071200015D19C1E6342634115E00378022B10D003792BB9437A13F0030318BF012300E0E8
:207140000023C07910F0030018BF012003E0002301E00020034601B10B601AB1106030BD43
:207160000020D2E730BD37B50D460446002106222846FFF75DFB637DD9075CBF01232B7021
:20718000237E012B0DD8E37D9A0708D0637E9B0705D0E28BA38B9A4201D1012300E000239C
:2071A000237501AA694604F11000FFF789FF009B0BB10223EB70019B0BB102236B70E37DCB
:2071C00003F00303022B03D0032B0CBF08230023AB70637E03F00303022B03D0032B0CBF81
:2071E000082300232B7103B030BD02280CBF022308230B448B4205D013F8012DFF2AF9D0A4
:20720000002070470120704707B56946FFF7ABFF9DF800009DF80130023018449DF8023004
:207220009DF8032018449DF80430104403449DF80500184403B05DF804FB837810B544785D
:207240001B01E40003F0100304F008041C43C2780378520103F00703234302F020021A43ED
:2072600003799B0103F0400313430B704379427A847903F0010343EA8213C279640004F02E
:2072800002049200234302F00C021A43037A1B0103F0300313434B7010BDF7B504460D46AD
:2072A0006946FFF760FF04F110002946FFF7C5FF9DF80030012B02BFA37E0320AB709DF8F6
:2072C000013018BF0220022B08D1A28B431C2A54A28BDBB20230120AC0B2EA5401469DF8E0
:2072E0000230E218A24205D012F8017D4E1C6F54F1B2F7E718449DF80330C0B2022B08D1D7
:20730000E28B431C2A54E28BDBB20230120AC0B2EA549DF804301844C0B2C21AD2B223B160
:20732000013BE118097AA954F7E703B0F0BD1FB502461378084603F007018DF80410C3F31B
:20734000C0018DF80510C3F300118DF80610C3F34011C3F380138DF8083053788DF80710FC
:2073600003F001028DF80920C3F340028DF80A20C3F381028DF80B20C3F301128DF80C205F
:207380009B090A2201A98DF80D30FFF7DBF905B05DF804FB08B5084612B11146FFF794FC33
:2073A000002008BD10B50446FFF786FC204610BD0120704710B50446FBF76AF82046FBF79B
:2073C00083F80446FBF77AF8E0B210BD08B53D20FFF7F0FF00F0700008BD38B504460D4677
:2073E000FBF756F814F43C5FE4B202D02F20FBF76BF82046FBF768F82846FBF765F80446DF
:20740000FBF75CF8E0B238BD10B50446FBF740F814F43C5F04D0AF20FBF756F8E0B202E06C
:2074200064F07F00C0B2FBF74FF80020FBF74CF80446FBF743F8E0B210BD0C2805D1042A6A
:2074400005D121B1002008607047012070470220704710B5FBF7F0F8FFF7B8FFB8B1602857
:2074600001D13A2002E0702802D13B20FFF7A2FF3620FFF79FFFFBF7E9F96FF4A374241A2B
:20748000FFF7A4FF18B1FBF7E1F9C442F8D410BD38B50D460446FAF7FBFFFF20FBF714F88D
:2074A0002A4620460021FBF721F8BDE83840FBF705B838B50D460446FAF7EAFF7F20FBF709
:2074C00003F82A4621460020FBF710F8BDE83840FAF7F4BF10B50C46FDF78AFF20B920462C
:2074E000BDE81040FEF79CBA10BDFEF7CBBD704700207047704701207047012070470120EC
:20750000704700207047002070477047704700207047002070470120704701207047704783
:207520007047704700207047002070477047000001000000010000000100000000C0004075
:2075400000410D4000000000080000002C00000000000001FFFFFFFF050000000200000065
:20756000020000000200000000D0004008410D4002000000080000002C0000000201020026
:20758000FFFFFFFF060000000080004010410D400400000003000000020102010101030079
:2075A0000090004020410D400800000007000000020204020502060035792000F16C2000DC
:2075C000E96C2000ED6C2000497920002D6D2000256D2000296D2000BB702000B570200029
:2075E0009D6F2000917B2000EC772000D00000006606000047010000350000000D000000EA
:2076000000000000952B0D00400D030000210EA5AF00000050C30000BC782000115B2000D7
:20762000F1532000215A2000D57420008953200089592000C1522000195220005D52200057
:20764000455620005D582000CD5720003B742000B1732000C37B20007D5D2000EB7420006C
:207660009D5D2000295D2000355D2000415D2000707A2000E56120003D622000F161200039
:20768000C87B20002D752000EF742000257520002975200013752000F1742000F574200014
:2076A000177520001B7520001F75200021752000F7742000FB742000FF74200003752000BF
:2076C000077520000B752000237520000D7520000F752000A045002000000000002020200B
:2076E00020202020202028282828282020202020202020202020202020202020208810101A
:2077000010101010101010101010101010040404040404040404041010101010101041417F
:2077200041414141010101010101010101010101010101010101010110101010101042424D
:20774000424242420202020202020202020202020202020202020202101010102000000099
:20776000000000000000000000000000000000000000000000000000000000000000000009
:207780000000000000000000000000000000000000000000000000000000000000000000E9
:2077A0000000000000000000000000000000000000000000000000000000000000000000C9
:2077C0000000000000000000000000000000000000000000000000000000000000000000A9
:2077E0004300000000000000000000000100060004006E0005004E000600900007004E008F
:207800000800E500090023000A0047000B000B000C0056000D0019000E00BA000F00C800C1
:207820001000840011004200120005001300940014007A001500E100160027001700F100DA
:207840001B0011001C0090001D0000002000120026002400280020002E00FF00002F1800FB
:20786000022F0300052F02000C2F56000D2FCC000E2FCC00102FEE00112F1000122F04003A
:20788000132F5000162F4000172F0E00192F03001B2F33001C2FF7001D2F0F001F2F0000CA
:2078A000202F6E00212F1C00222FAC00272FB5002F2F0500322F0E00362F030008078000CE
:2078C000D80E6C07D007B80BB80BB004C000200D4051E47A5A6F756C00494E464F005B250C
:2078E0002D34733A20252D3130735D20005A6F6C65727469612052452D4D6F7465207265FD
:20790000766973696F6E204120706C6174666F726D001D001C001B0055736572206275748B
:20792000746F6E0063633235333820524620647269766572004F6E2D436869702054656D46
:2079400070657261747572650056444433004D61696E005374617274696E6720436F6E7429
:20796000696B692D4E472D72656C656173652F76342E372D3133392D676433323830646168
:2079800033632D64697274790A002D20526F7574696E673A2025730A002D204E65743A20EF
:2079A00025730A002D204D41433A2025730A002D203830322E31352E342050414E49443A68
:2079C000203078253034780A002D203830322E31352E342044656661756C74206368616E58
:2079E0006E656C3A2025750A004E6F64652049443A2025750A004C696E6B2D6C6179657241
:207A000020616464726573733A2000284E554C4C204C4C206164647229002E0025303278DA
:207A2000004C4C2D4E554C4C004C4C2D2530347800616C6C004E2F41004E6F6E6500457242
:207A4000726F7273005761726E696E677300496E666F0044656275670072706C007463700F
:207A60006970006970763600366C6F7770616E006E756C6C6E6574006D6163006672616D08
:207A800065720036746F7000636F617000736E6D70006C776D326D006D61696E0045766571
:207AA0006E742074696D6572004374696D65722070726F6365737300537461636B00455293
:207AC0005200436865636B20696E20696E636F6E73697374656E742073746174653A20257E
:207AE0006C642076732E20256C640A00436865636B206661696C65643A20256C64207673A5
:207B00002E20256C640A00537461636B20636865636B0053656E736F727300427574746F09
:207B20006E2048414C2070726F636573730053657269616C20647269766572002020202037
:207B40002020202020202020202020203030303030303030303030303030303030313233DF
:207B600034353637383941424344454600303132333435363738396162636465660030781F
:207B8000003058002D002B00286E756C6C290025003830322E31352E3467203836332D38B7
:207BA00037304D487A204D522D46534B206D6F646520233100434331323030206472697628
:207BC00065720043534D41006E756C6C726F7574696E670062756668656164657220257389
:207BE0000A003000484F4C412025642025642C2025642C2025640A0053455249414C2044FD
:1E7C000041544120494E202D2D3E2025730A006475616C62616E6420383638002C0032
:207C2000000000002C43002094430020FC430020000000000000000000000000000000005F
:207C40000000000000000000000000000000000000000000E07720000000000000000000AD
:207C6000000000000000000000000000000000000000000000000000000000000000000004
:207C80000000000000000000000000000000000000000000000000000000000000000000E4
:207CA0000000000000000000000000000000000000000000000000000000000000000000C4
:207CC000000000000000000001000000000000000E33CDAB34126DE6ECDE05000B00000077
:207CE000000000000000000000000000000000000000000000000000000000000000000084
:207D0000000000000000000000000000000000000000000000000000000000000000000063
:207D2000000000000000000000000000000000000000000000000000000000000000000043
:207D4000000000000000000000000000000000000000000000000000000000000000000023
:207D6000000000000000000000000000000000000000000000000000000000000000000003
:207D80000000000000000000000000000000000000000000000000000000000000000000E3
:207DA0000000000000000000000000000000000000000000000000000000000000000000C3
:207DC0000000000000000000000000000000000000000000000000000000000000000000A3
:207DE000000000000000000000000000000000000000000000000000000000000000000083
:207E0000000000000000000000000000000000000000000000000000000000000000000062
:207E2000000000000000000000000000000000000000000000000000000000000000000042
:207E4000000000000000000000000000000000000000000000000000000000000000000022
:207E6000000000000000000000000000000000000000000000000000000000000000000002
:207E80000000000000000000000000000000000000000000000000000000000000000000E2
:207EA0000000000000000000000000000000000000000000000000000000000000000000C2
:207EC0000000000000000000000000000000000000000000000000000000000000000000A2
:207EE000000000000000000000000000000000000000000000000000000000000000000082
:207F0000000000000000000000000000000000000000000000000000000000000000000061
:207F2000000000000000000000000000000000000000000000000000000000000000000041
:207F4000000000000000000000000000000000000000000000000000000000000000000021
:207F6000000000000000000000000000000000000000000000000000000000000000000001
:207F80000000000000000000000000000000000000000000000000000000000000000000E1
:207FA0000000000000000000000000000000000000000000000000000000000000000000C1
:207FC0000000000000000000000000000000000000000000000000000000000000000000A1
:207FE000000000000000000000000000000000000000000000000000000000000000000081
:20800000000000000000000000000000000000000000000000000000000000000000000060
:20802000000000000000000000000000000000000000000000000000000000000000000040
:20804000000000000000000000000000516C20000011000000000000000000000000000032
:20806000000000000000000000000000000000000000000000000000000000000000000000
:2080800000000000000000000000000000000000000000001879200001030000010000002A
:2080A000000000007444002000000000C8752000B875200000000000000000002479200081
:2080C000013320000000000003000000000000009D7A2000D93820000000000000000000E1
:2080E000A97A2000213A20000000000000000000077B20006D3E2000000000000000000055
:20810000137B2000193F200000000000000000001B7B2000C540200000000000000000005E
:208120002E7B2000A9422000000000000400080049510020D0470020AC0008004151002008
:20814000C64A0020957320000000000000000000B57B2000755C2000000000000C00080072
:20816000635200207C4900200C0008005B520020E0490020380002006C520020404A002059
:1B818000000000000F7C20007962200000000000DC76200040400020CDAB0AAA
:08819C004CE2FF7F010000002E
:020000040027D3
:20FFD400FFFFFFF30000000000202000FFFFFFFFFFFFFFFFFFFFFFFFFFFFFFFFFFFFFFFFF1
:0CFFF400FFFFFFFFFFFFFFFFFFFFFFFF0D
:040000050027FFD4FD
:00000001FF
