:020000040020DA
:20200000405C00208D222000E37B2000E17B2000E17B2000E17B2000E17B200000000000C7
:20202000000000000000000000000000E17B2000E17B200000000000E17B2000897C200007
:202040009B7C2000A17C2000A77C2000AD7C2000000000008F7C2000957C2000E17B2000A8
:20206000E17B20000000000000000000000000000000000000000000E17B20000000000068
:202080000000000000000000E17B2000E17B2000E17B2000E17B2000E17B2000E17B200058
:2020A000E17B2000E17B2000E17B2000E17B2000E17B2000E17B2000E17B2000E17B200040
:2020C000E17B2000E17B2000E17B2000E17B2000E17B200000000000000000000000000094
:2020E0000000000000000000000000000000000000000000000000002135200031352000E4
:202100000000000000000000000000000000000000000000000000000000000000000000BF
:2021200000000000000000000000000000000000000000000000000000000000000000009F
:2021400000000000000000000000000000000000000000000000000000000000000000007F
:2021600000000000000000000000000000000000000000000000000000000000000000005F
:2021800000000000000000000000000000000000000000000000000000000000000000003F
:2021A00000000000000000000000000000000000000000000000000000000000000000001F
:2021C0000000000000000000000000000000000000000000000000000000000000000000FF
:2021E0000000000000000000000000000000000000000000000000000000000000000000DF
:202200000000000000000000000000000000000000000000000000000000000000000000BE
:2022200000000000000000000000000000000000000000000000000000000000000000009E
:2022400000000000000000000000000000000000000000000000000000000000000000007E
:2022600000000000000000000000000000000000E17B200005342000293420008D2E200031
:2022800021372000F5282000E17B200008B5094BFF221A600848094A4824E369121A084989
:2022A00098470848084AA369121A0021984701F0B7FBFEE7B4200D4040400020FB450020BC
:2022C0004C912000004600204054002008B5002000F06EFB012000F06BFB0D49002000F0D4
:2022E0003BFC02F059FA002002F09AF801F0B0F800F0F4FD00F010FE0821064801F028FABC
:2023000002F05EF962B6BDE80840042005F06CBC554720001C54002073B51A4B1B68022BA5
:2023200008DD1949194A1A4803F0C2F819491A4803F0BEF86846082101F00AFA174E9DF8B1
:2023400007309DF80650F46A43EA05254AF6CD310220A04729460320A0470A210120A047B3
:20236000736B082269460B20984705F077FC00F0F3F900210A4801F013FF022005F034FC9B
:2023800002B070BDF84400206D8920006889200072892000818920007A8B20009C8620002F
:2023A0002C4500200022F0B51746154C0125FF2640FA02F3DB071ED504EB4203597814F8A7
:2023C000123061B1D908090301F1804103F0070301F5592105FA03F341F823700BE0D9080F
:2023E000090301F1804103F0070301F5592105FA03F341F823600132032AD9D1F0BD00BF8A
:20240000A6892000F0B5104C00210125FF2640FA01F3DB0714D504EB41035F7814F81130B0
:20242000DA08120302F1804203F0070302F5592205FA03F317B142F8236001E042F8237059
:2024400001310329E3D1F0BDA689200070B40E4E0022012516F812300C49D80800030C58BA
:2024600003F0070305FA03F324EA03040C5020390144086801320343032A0B60EAD170BCF3
:202480000720FFF7BFBF00BFA689200020940D4070B50546064E002445FA04F3DB0703D5BA
:2024A00016F8140005F082FD0134032CF4D170BDA689200038B5084B00221A6000F0D8F944
:2024C0006FF4A374054D241A2B681BB100F0D0F9C442F9D438BD00BF80A00D4020A00D40D9
:2024E000014BFF221A60704780A00D40064B186006480268054912F0100FFAD10A6852074B
:20250000FCD51868C0B27047088000400C800040F0B510B9002936D100E00AB90120F0BD9E
:2025200029B1234C234D002326462F4624E0204C204D03462746AE461E1A964201DB00204B
:20254000F0BD21602E68F606FCD4DEF800607607FBD53E6803F8016BEEE7D5F800E01EF0CB
:20256000100FFAD1D7F800E01EF0040FFAD0D6F800E000F803E001339342E0DA11F803E09F
:20258000C4F800E0E9E7002AC8D0094C09480B46264605465F1ABA42D1DD13F8017B27602E
:2025A0000768FF06FCD42F687F07FCD53768F1E7088000400C80004008B5194A136823F030
:2025C0001003136052F8203C23F0100342F8203C52F81C3C23F0100342F81C3C52F8183C1B
:2025E00023F0100342F8183C0E4B1A6810B142F0100201E022F010021A600B4A01201368D7
:2026000043F0100313600422114600F045FB074B02221A600648BDE8084002F0CFB800BFF1
:2026200020A40D400CA40D4010A40D4000E100E06844002008B5074A0120136843F010030E
:2026400013600422114600F027FB034B02221A6008BD00BF10A40D4000E100E0024A13687F
:2026600023F010031360704710A40D40024B1868003018BF0120704740A00D4038B51F4ADA
:2026800007211368022023F08003136052F8203CFF2443F0800342F8203C082200F0FCFA47
:2026A000174B05211C60012000F090FB002000F013FB144A144D136823F010031360134B2B
:2026C0001968A3F5607321F01001C3F88013116821F001011160D3F8802322F00102C3F863
:2026E00080231C6000F0C4F8A4F6CB54241A2B681BB900F0BDF8C442F9D438BD20B40D4023
:2027000000B20D4020A40D4020A00D4000A40D40084A136823F00403136052F8203C43F078
:20272000040342F8203C044B04221A60034B01221A70704720C40D4010C00D405E5100203E
:20274000044B1868C0F30720030904BF1030C0B2704700BF1C300D4008B5FFF7F1FF014B51
:202760001B6808BD1C300D40F8B500F081F80F4B0024D3E900673A46B04238BF7A1C154667
:202780000443C3E90045DFF828E0DEE90001821B61EB070312196B41CEE9002301F018FBB2
:2027A00018B1BDE8F84001F097BAF8BD00460020084600200D4B0E4AE0215A600D4A82F86C
:2027C0002310002207219A6019600B490B6843F001030B60094B1A60042243F80C2C012216
:2027E00043F8082C0F22DA62704700BF10E000E047E8010000ED00E008200D400C000340F6
:20280000034BD3E90023100A40EA0360704700BF00460020034BD3E90023D00B40EA434053
:20282000704700BF08460020054B18601C3B1A6842F001021A601A68D207FCD4704700BFC3
:202840002800034010B5064C236823F001032360FFF78AFF236843F00103236010BD00BF81
:2028600010E000E0014B1868704700BF10460020074B084A196804331B681268120442EA35
:202880000323054A0B43106843EA0060704700BF40500D4048500D404C500D4010B5044640
:2028A000104A1368DB07FCD572B6FFF7E1FF231A062BD8BFC41D0C4B220E1A60C4F30742AB
:2028C00043F8042CC4F3072243F8082CE2B243F80C2C62B6054B1C60054B4FF400321A6113
:2028E00010BD00BF50500D404C500D401046002000E100E008B500F065FE094B00221A603F
:20290000084B4FF40032C3F89021C3F89020BFF34F8FBFF36F8FBDE8084001F065BC00BF1A
:202920001046002000E100E0064B1B681B075FBF054B186880F00800C0F3C00048BF00206A
:20294000704700BF18C0004018D00040164A2C2303FB00234FF6BF7270B5DC680546236C38
:2029600062649BB213F050020DD0104EA369DB0608D456F825301BB12068C0B29847F5E7C7
:202980002368F3E770BD13F4D06F0BD04FF440732363FF236360E36AE262E362236B43F08C
:2029A0000103236370BD00BFB08520001446002001282DE9F74F064600F2BD802C254543F9
:2029C0005E4B5C1994F920909846B9F1000FC0F2B28094F92230002BC0F2AD80584800F0A8
:2029E0007BFE584A58F805301168E5680B4313605168636894F921A00B4353609168A368D9
:202A000094F822700B4393600023C5F8C83F23690AEBC9021A6094F823305FFA87FB00935D
:202A20009DF80030227D19465846019300F03EF9019B08221946584600F02EF97FB2424BE2
:202A40003F039DF90020F9584FF0010E0EFA02F20A43FA504FEA093959F803100EFA0AF269
:202A60000A4349F803205022AA63AA6B94F8240042F4D062AA6302226A634FF440722A6379
:202A8000A2696A62E269AA627022EA6242B2002A1D4617DB94F925302C4943EAC2030B6003
:202AA00094F82510120353594CB20EFA04FE4EEA03035351002200F0EFF8254A136843F490
:202AC000004313602C2303FB068393F826904FFA89F4002C1CDB93F827705FFA89F95FFAEA
:202AE00087FA012251464846240300F0DFF87FB26359012202FA07F71F430822675151463A
:202B0000484600F0C9F8124A136843F4804313602C2303FB0686F268136B43F001031363D4
:202B200096F828300122590903F01F0302FA03F3084A42F8213003B0BDE8F08FB08520001A
:202B40002929200028200D4020940D4004410D4030D0004000E100E001289CBF014B43F8CF
:202B60002010704714460020012808D8044B2C2202FB0030C3689A699206FCD4196070475B
:202B8000B0852000014B00221A60704700500D40014B08221A60704700500D40024BA02251
:202BA0001A6050221A60704700500D40014B024A9A60704700ED00E00020200038B5164DB5
:202BC000164C2B68012223F040032B602368062123F040032360032000F05EF82B68012252
:202BE00023F080032B602368072123F080032360032000F051F80A4A0A4B0B491A600A68A3
:202C00000A4B1340084A002BF9D113685901FCD413685B01FCD538BD20C40D4000C40D4041
:202C20000101020000200D4004200D40000001012DE9F84304464FEA0438DFF83C9008F104
:202C4000804606F5592600F0BDFCD6F8187458F80930E50023FA05F447EA0400C0B2E4B270
:202C6000A840FFB2AC4001F0AFFDC6F81C7448F80940BDE8F88300BF18970D40034A044BE4
:202C80001A60044B803A1A60704700BF80400D40204600201C460020034B01EBC0011B682E
:202CA00043F82120704700BF20460020034B01EBC0011B6843F82120704700BF1C460020AA
:202CC000012806D8034901220B6802FA00F018430860704718200D402DE9F04F012887B06B
:202CE00005466BD818235D43364E741994F811904FFA89FABAF1000F60DBFFF7E1FFA77C73
:202D000076594FF00008FBB25FFA89F91946C6F80480227A4846C6F8C88F0593FFF7C6FFE2
:202D2000E57C227BEBB20193237D019802939DF808B04FEA0A3A5946FFF7B8FF637D6268D6
:202D40000393A37D9DF90CC004939DF910E001200EEBCC0111601C4A7FB25AF8021000FAF1
:202D600007F70F436DB24AF802702D039DF90810AF5800FA01F139434FEA0C3CA9505CF815
:202D80000210059B00FA0EF008434CF80200194642464846FFF780FF424659460198FFF758
:202DA0007BFF424604990398FFF776FF237C3361C7233360736843F00203736007B0BDE87C
:202DC000F08F00BF0886200020940D4038B50B4A0403A35801258D4023EA0503A3500022A5
:202DE000FFF75AFF064AA3582B43A35004F1804404F55924FF2344F8253038BD20940D4000
:202E000000940D400E2870B50BD1164B164E1C6844F002051D60356825F03F0343F001036E
:202E20003360124E336823F0FF031A43114301430F4A316013681B06FCD50E4B0E4A1B686F
:202E400012680E2803F0FC0343EA022308BF064A9BB204BF1560034A9BB208BF146018B243
:202E600070BD00BF34000144F486084008700D4000700D400C700D4010700D40024B186846
:202E8000B0FA80F04009704700B70840094B4FF4004210B5C3F89021C3F89020BFF34F8F14
:202EA000BFF36F8F044C206818B101F091F90023236010BD00E100E024460020064A1368BD
:202EC00043F002031360536843F002035360936843F002039360704748200D4007B50C48FF
:202EE00000F0FAFBFFF7EAFF0A4B1A6842F002021A6000220192019A0F2A02DC019A013252
:202F0000F8E71A6822F002021A6003B05DF804FB7D2E200054200D40064A136823F002034A
:202F20001360536823F002035360936823F002039360704748200D402DE9F0410E464FEA52
:202F4000D0084FEA083400F00701012704F180448F4016F00C0304F559246FEA070505D1B6
:202F6000D4F810342B40C4F810342DE0042B0DD1D4F804342B40C4F80434D4F808342B40E6
:202F8000C4F80834D4F80C343B430EE0082B0FD1D4F804342B40C4F80434D4F808342B40D8
:202FA000C4F80834D4F80C342B40C4F80C340BE00C2B09D1D4F804342B40C4F80434D4F87B
:202FC00008343B43C4F8083416F0030204D0022A02D0012A03D104224046FFF75DFE16F060
:202FE000800605D1D4F810342B40C4F810340AE04EB1D4F810341F43C4F81074054A0123EC
:2030000003FA08F31360D4F820341D40C4F82054BDE8F08100E100E070B52F4E336813F081
:20302000400307D02D4D2B68DCB21B0604D52C4BED221A60002070BD042CF8D9023C8C4287
:20304000F5DCE4B2032C21D001190139032000F021FA631E23491B011943032000F024FAD1
:20306000032000F02BFA032000F040FA032000F049FA0028FAD129681B4B4939C9B2197005
:203080002B681A4D18062B70D1D506E02B6803702B6843702B688370EDE749B289B20420F1
:2030A00001F0F0FC2978032001F07F0101F0EAFC0F4B1B786BB933685A060AD5064B1B6868
:2030C0001B0603D50B4801F083F802E0044BED221A60204670BD00BF4C860840288808401A
:2030E0003888084002C0010C605100205F51002061510020D844002010B5154A136899070B
:20310000FCD4134B1B685B065EBF124BED221A60114B1B6813B10F4BEF221A600F4A104C5D
:20312000137803F07F031370237973B1FFF7A0FB0C4B0D491B69C01AD1E90823121843F16D
:203140000003C1E9082300232371012010BD00BF4C860840388808402C8608406251002044
:20316000D0530020D8530020A853002010B50C4B93F90020002A08DB0A4AED211160E321FA
:2031800011601A7862F07F021A70074C23792BB9FFF76EFB054B186101232371012010BD2E
:2031A0006251002038880840D0530020D853002010B50A4B04461B6813F03F0302D0FFF7B2
:2031C0009BFF012304EB840205492C3A0A600BB1FFF7CCFF034B1C7010BD00BF48860840A5
:2031E0003C860840FA450020234B1870002838D0224A13681B03FCD5214B1A6842F0020246
:203200001A601A6842F001021A601A681C495007FBD50A6822F001020A601968184A4907D1
:20322000FBD4116841F002011160116841F0010111601A685207FCD5124A136823F00403E7
:203240001360D2F8A83123F00403C2F8A8310E4B4FF40052C3F89020BFF34F8FBFF36F8F12
:203260007047084A136843F004031360064B4FF400521A61704700BF6151002004200D4003
:20328000048808408C86084000E100E02DE9F0412E4F3D7815F0010555D12D4B01241C607C
:2032A0005C609C60A3F59323A3F51473F8221A600922C3F89021152270331A6003F59B23B4
:2032C0000B2203F59E731A60A3F59B23214EA3F5A6731C604023336033684FF07F0843F0C2
:2032E000200333601C4BD5221D60C3F848809A631A4B1878FFF75CFF336823F00C03336027
:20330000174BC3F80080174B4FF480421A61022000F0E0F81449022000F0BCF8032000F00E
:20332000D9F81149032000F0ADF8104B1878FFF75BFF29460E4800F033FF3B782046234309
:203340003B70BDE8F0810020BDE8F08162510020A8200D402486084008860840FA45002067
:203360009486084000E100E02888084061510020D844002038B503880446CBB140F25D4215
:20338000934203D000230380032038BD194B18781A4628B11B7873B1174B1B7858060AD5B1
:2033A000822908D1137843B1134B1A78520614D440F25D432380012038BD01F019FB01F059
:2033C000A9FA8021FFF728FE0028EDDD80B201F085FA0A4BDB689847E6E700221A70084BB6
:2033E0001D68FFF789FEFFF751FFAB06E0D0FFF7BDFEDDE76151002062510020D486200090
:203400004886084008B5054B1B7813B9044800F0DFFE044B00221A6008BD00BF61510020D0
:20342000D844002034880840064B07481A68042A1FBF06490A7842F040020A7000221A60C3
:2034400000F0C6BE2C880840D84400206251002010B5094C40220021204604F05DF9074B4E
:2034600001221A605C60064B4FF480425A604FF400425A6010BD00BF0040002004F00F4075
:2034800000E100E003289EBF014B0001195070470040002003289EBF024B03EB00104160A2
:2034A000704700BF0040002003289EBF024B03EB00108160704700BF00400020032806D8A3
:2034C000034901220B6802FA00F018430860704728F00F40032806D8034901220B6802FA56
:2034E00000F018430860704720F00F40032806D8034901220B6802FA00F0184308607047B2
:2035000014F00F4003289FBF044B03EB0010806800F0070088BF0020704700BF0040002066
:20352000024B4FF0FF321A60704700BF04F50F40014B01221A6070474CF00F40094A13689D
:20354000084913F4801FFAD1074B1A6822F480321A600A68D203FCD41A6842F400321A6018
:20356000704700BF04200D4000200D402DE9F04107468846FFF77CF90F4BDA5D7AB10F4916
:203580000F4A51F8276002EBC702861BD2E90045A41945F10005C2E900450022DA5513F867
:2035A000083033B9054B012243F82800024B03F80820BDE8F08100BFD0530020D85300203E
:2035C000A853002010B50E4C23689A0717D00D490B680C4A13F0806FFAD113685B01FCD51A
:2035E000FFF730F9FFF7AAFF2068002100F00300012818BF0220FFF7B9FF0023236010BD2E
:2036000058200D4004200D4038B52D4B1C6814F03F0413D12B4D55F8243023B1984768B17B
:203620000134052CF7D1284D2B783BB1FFF71AF90446FFF71DF9201A092803D8BDE8384096
:2036400004F04DBB002CF9D0204B21481A6822F400321A6002681E4912F4801FFAD11A689E
:2036600042F480321A600B68DB03FCD5FFF700F9201A092803D8BDE83840FFF75FBF6328D5
:20368000144C02D92B78022B00D00123236000F055FD054620B1FFF751FF0023236038BD69
:2036A000FFF7E0F80028F6D02168284601F00301012918BF0221FFF759FF30BF38BD00BF4D
:2036C00048860840284600206351002000200D4004200D4058200D400749002351F82320D0
:2036E000824207D01AB9044A42F8230070470133052BF3D1704700BF28460020054B00225C
:203700001A60054A136943F004031361034B02221A70704758200D4000ED00E0635100209D
:20372000094B4FF4803210B5C3F89021C3F89020BFF34F8FBFF36F8F044C206818B100F0D3
:2037400047FD0023236010BD00E100E03C460020134B1B782BB101F5201127310138114B6E
:2037600016E0114A1278122AF5D1104A12784B2AF1D108448B420ADA03F52012032BD4BF69
:203780002C3224321278013300F8012DF2E77047994204D011F8012900F8012FF8E7704761
:2037A0002B002800270028002A002800290028002DE9F04F038885B005462BB1702B0CD011
:2037C000002303800320CBE04FF41641664804F0F2FA70232B800120C2E0634804F0FDFAB6
:2037E0000028F8D0604804F0EFFA00F021FA00F041FA80465D4BDFF8C4C11A691868996850
:2038000001929A691B6ADFF8B8E10393DCF80030574CC3EB08032360DEF800300292554A6B
:20382000C31A1360544BDFF89C911B68534ECB1A3360D9F80030019EDFF88CA1F31A504EAA
:20384000504F3360DAF80030029EDFF880B1F31A039A3B60DBF800304B4ED31A3360464B9A
:20386000CEF800001960019BCBF80020C9F80030029B464A46494748CCF80080CAF8003018
:2038800001F016FE444B454819684FF47A784A1C1A602268D20B01F00BFE3C4A3C493D4880
:2038A00001F006FE21683E4801F002FE374A3849384801F0FDFD2F4B22681968394808FB9D
:2038C00001F3B3FBF2F301F0F3FD304A3049314801F0EEFD294B22681968334808FB01F347
:2038E000B3FBF2F301F0E4FD284A2949294801F0DFFD234B226819682C4808FB01F3B3FBAF
:20390000F2F301F0D5FD214A2149224801F0D0FD3968226808FB01F32548B3FBF2F301F0EF
:20392000C7FD1A4A1A491B4801F0C2FD3168226808FB01F31F48B3FBF2F301F0B9FD134AD1
:203940001349144801F0B4FD336839682268194408FB01F31848B3FBF2F301F0A9FD38E74A
:2039600005B0BDE8F08F00BF54460020A853002050460020684600207046002064460020B6
:203980006C460020444600207C460020148B20006D8920007289200080460020E289200068
:2039A000088A20001D8A2000458A20006D8A2000958A2000BD8A2000E58A200040460020AD
:2039C0004C46002078460020744600204846002008B500F02DF900F04DF90A4B0A4A1860A5
:2039E0000A4B0B481968116099680A4A11601969094A11601A6A094B00211A60BDE80840C1
:203A000000F0CEBB404600204C460020A8530020E84400207046002078460020484600200C
:203A200010B5504C04F00CF9FEF7C4FE04F0E0F900F02AFB00214C4800F0B2FB00F036FA21
:203A4000FFF7A0F800F0D4F800F0E2FBFEF73EFC00F0D2FE01F040F800F0DCF92368022BBA
:203A600007DD424A4249434801F022FD424801F01FFD2368022B09DD3D493C4A3D4801F0F9
:203A800017FD3E4B3E48196801F012FD2368022B09DD3749354A374801F00AFD394B3A4868
:203AA000196801F005FD2368022B09DD30492F4A304801F0FDFC354B3548196801F0F8FC3D
:203AC0002368022B09DD2A49284A2A4801F0F0FC4AF6CD312F4801F0EBFC2368022B08DDEA
:203AE0002349224A234801F0E3FC0A212A4801F0DFFC2368022B09DD1D491C4A1D4801F08A
:203B0000D7FC264B2648198801F0D2FC2368022B07DD164A1649174801F0CAFC214801F0C8
:203B2000C7FC2368022B02DD1F4800F043F82368022B02DD1D4801F0BBFCFEF7EDFBFFF722
:203B400047FF1B4804F02DF9FFF722F800F0B4FA0446FFF723F814F0FF0FF7D104F07AF859
:203B6000F4E700BFF8440020FC4400201D8B20006D89200072892000228B20000087200082
:203B8000598B2000F0862000688B2000D4862000738B20007E8B2000988B20009C4B00206D
:203BA000B88B2000C58B20001C540020748E20005487200038B5054608B1002409E0094836
:203BC000BDE8384001F074BCE30702D4064801F06FFC295D0548013401F06AFC082CF3D1E6
:203BE00038BD00BFDA8B2000E98B2000EB8B2000F8B500231A460B490B4D0C4800260027E5
:203C000045F823201A540133052BE1E90267074CF6D123782BB9FEF72BFE034B186001237E
:203C20002370F8BDA0530020D8530020D0530020F8B50D4D0D4F0E4E0024E35D6BB1FEF767
:203C400017FE56F8243046F82400C11AD5E90023521843F10003C5E900230134052C05F1C1
:203C60000805EAD1F8BD00BFA8530020D0530020D853002030B50649D1E90245D1E900234D
:203C800012196B41D1E904018018594130BD00BFA853002010B50E4C236813B90D4A136055
:203CA00010BDFEF7ADFD216891E80C001A44131A8A6842B192E812002144091A8B4228BF52
:203CC0000B469268F5E71844024B186010BD00BF8446002088460020014800F079BA00BF0D
:203CE000FC4400202DE9F8430388054633B1592B0BD0002303800320BDE8F883234A136031
:203D000059232B800120BDE8F883872924D08229F6D11E4F4FF00008B9463C680026002C7C
:203D2000EED0204604F06DF898B122468821E06800F00EFA58B9E060A3680EB1B36001E05D
:203D4000C9F80030C4F80880FFF7A4FFE5E7FFF7C3FF2646A468E2E70C4900200B681BB914
:203D60000028CDD00B60CBE7DC68A24202D19B680120F4E700B10B6099680029C0D0C86861
:203D800082420ABF89680B469960F5E78446002010B50446FFF7A0FFE3680B4A4BB11368DA
:203DA0003BB1A34203D1094A1268DA6007E09B68F6E7064B1B68E36013681460A360BDE8E2
:203DC0001040FFF767BF00BF8446002090460020024B1868003018BF012070478446002042
:203DE00010B50B4A04461368834206D18368136008E09A68944203D01346002BF9D103E026
:203E0000A2689A60FFF746FF0023A360E36010BD84460020034A9179D379034A03EB012341
:203E2000138070471C5400209C4B0020F8B50388064615462BB14A2B15D0002303800320C3
:203E4000F8BD174803F0F8FF04462CB1A168201D03F0B1FF2468F8E7124B01221A704A2372
:203E600033800120F8BD8829FBD10D4803F0E4FF0446002CF3D0231D9D420ED12146084823
:203E800003F0E4FF084B62691F681A60A2691D460AB1E06990472F60E1E72468E9E700BF72
:203EA0008C460020645100209046002010B5064B002406481C7003F0BCFF2146BDE8104027
:203EC000034800F06DB900BF645100208C4600200C45002070B50446E3610B4B049D1B784D
:203EE0006561A26143B1094D094B2E68201D2B6003F061FF2E6000E0A1602146BDE870407F
:203F0000044803F0B6BF00BF64510020904600200C4500208C46002013B5034C24680094C9
:203F2000FFF7D8FF02B010BD9046002010B5084B04461B781BB10430FFF752FF01E0C360FF
:203F400003612146BDE81040024803F07FBF00BF645100208C46002010B50A4B04461B78A9
:203F600023B1BDE81040043003F037BF064803F063FF18B1A04203D00068FAE7012010BD03
:203F8000002010BD645100208C46002038B5836804460D469BB10A4804600220A07304F1CC
:203FA0000C0098470238012801D9832D05D121462046BDE8384000F005B80123A37338BD8D
:203FC000904600202DE9F8431C4A0446156889462B4690461A4E3768A34204D00BB11B6858
:203FE000FAE7BDE8F88334B3A37BABB10023A37345B1A54204D022468721284603F0F2FE14
:204000002D68F5E7A3683BB14C4505D034602A46832104F10C009847D8F800309C4203D198
:204020002268064B05E0134623B11A689442FAD122681A603760BDE8F88300BF94460020FC
:2040400090460020002370B51D46094A01261370084A146854B1E37B33B1A673E57300221A
:2040600082212046FFF792FF2468F3E770BD00BF6751002094460020024B1878421C1A70C7
:20408000704700BF68510020064B8A221A70064A00231370054A1370054A1360054A1360FE
:2040A000704700BF68510020655100206651002094460020904600202DE9F0411A4D2B78C3
:2040C0000BB1FFF7BFFF194C22783AB3184E0C213378184F5943781817F801800133476840
:2040E000806803F01F03013A3370227068B9124B1E689EB12B780BB1FFF7A4FF30463A4612
:20410000414603F06FFE3668F3E7B8F1810F04BF012383733A46414603F064FE2B78207893
:204120001844BDE8F08100BF6751002066510020655100209846002094460020024A034B37
:2041400010781B78184470476651002067510020F0B50B4E3378202B0FD00A4C0C2524788C
:20416000094F1C4404F01F046C4301333D19A86039556A6033700020F0BD0120F0BD00BFDA
:2041800066510020655100209846002038B5034C256803F027FE256038BD00BF9046002064
:2041A00030B40A4C0A4625682B4683420CD00BB11B68FAE740B101210560817320608381C6
:2041C000812130BCFFF7E2BF30BC70479446002038B1837B013B012B9FBF024A0123C373CA
:2041E000137070476751002010B5084C206858B100232360816843689847236823B1BDE8E6
:2042000010401868FEF74ABB10BD00BF1848002082B0074B02AA42F8043DCD21934202D286
:2042200003F8011BFAE70348002102B0FFF7B8BF405400201C45002038B5FEF7AFFC0C4CE1
:204240000C4B22780B4DCD2A06D09C4207D20134F7E7AC4203D201342378CD2BF9D0FEF735
:204260009DFCAC423ABF0348001B4FF0FF3038BD40540020405C002070B5038805462BB1AE
:20428000912B0BD000230380032070BD4FF4A0611B4803F090FD91232B8003E0184803F0D5
:2042A0009CFD08B9012070BDFFF7C6FF154C164B061EA3EB040401DB002C0CDA134B1B6850
:2042C000002B18DD124A1349134801F0F1F82246314612480DE0A6420DDD0C4B1B68002BD4
:2042E00009DD0B4A0B490C4801F0E2F8224631460B4801F0DDF8024803F066FDCBE700BF07
:204300001C48002040540020405C0020F8440020878C20008D8C200072892000918C200089
:20432000BB8C20002DE9F04106880546772E31D07E2E40D0002E4ED12B4CFFF79DFE2660B9
:2043400026462A4B2A4FDFF8B0801870236857F823204AB1002108F80310936880209847AE
:20436000336801333360F1E7224A1370772320E0214AD256002A12DB1B4A13680133136049
:20438000194B1C4A1B6812789A42F1DC1B4B1B68002BEBD0194A00231360134AEFE7144A44
:2043A000002052F82320114B1978FFF7D1FE30B97E232B8014E00D4B1B788B4210D10A4B87
:2043C0000D491A688B5C03F07F038B540B4A136801331360D0E7002303800320BDE8F081BD
:2043E0000120BDE8F08100BF2C48002027540020CC4400206951002024540020304800205E
:20440000054A136843F004031360044B1B68906943EA002080B2704700700D4014700D4096
:2044200010B5184A136823F00C031360164B01221A601A68012AFCD1144B08221A60E322C5
:20444000C3F8142203F505731946114A1368DB07FCD5104C102000232268013802F00102AC
:2044600043EA02034FEA43039BB2F5D1002BF1D0094A180A03F0FE0310601360EF230B60C3
:2044800010BD00BF00700D40A8200D4024860840648608409C86084014700D4010B5044650
:2044A00090F84C30084A013380F84C30802103462030FFF731FD054B2246BDE810401978E2
:2044C0000020FFF745BE00BF9D4420002954002070B503880446C3B1B3F5867F03D0002355
:2044E0000380032070BD822912D103F004FCBFF35F8F114B00221E681A60BFF35F8F03F0B7
:20450000FEFB0E4D55F8040F20B94FF486732380012070BD90F8453026FA03F3DB07F1D526
:20452000FFF71AFD0028EDD02B68054A02211846FFF7F2FCE6E700BF34480020C0440020F6
:204540005D452000034A1368184310600248FFF73FBE00BF344800203C45002070B504465E
:20456000FFF7FAFC20B304F120063046FFF7F4FC0546204603F005FD01280CD1C5B10025BE
:2045800023460C4A84F84C507E213046FFF7C4FC2246094B06E058B955B93046FFF7C6FC8A
:2045A0002246064B2846BDE870401978FFF7D0BD70BD00BF9D4420002A5400202854002044
:2045C000F8B5FFF759FD304B304D1870FFF754FD2F4B304C1870FFF74FFD2F4B2F4F1870DB
:2045E0000023AB602E4B01266B602168002943D091F84530886C2B4AD90809030A44116842
:2046000003F0070306FA03F321EA030313602368254A93F84530D90809030A44116803F082
:20462000070306FA03F321EA03031360236840F08C0193F84500FEF77FFC23681B4A93F8F3
:204640004530D90809030A44116803F0070306FA03F30B431360236893F84530DB0806FA0F
:2046600003F33B6054F8043B93F8453006FA03F2AB681343AB60B8E70D48FFF791FDBDE898
:20468000F840024800F09AB82A5400203848002028540020C44400202954002000E100E0F6
:2046A0004545200020940D4000940D4010940D403C45002070B505880446672D09D0792DCD
:2046C00032D0002D36D1FFF7D7FC1D4B18701D4B1D601C4D2E461C4803F043FC431C01D162
:2046E00067231FE00A28174A09D00D2807D02B687E2BF0DC5A1C3260144AD054EBE71368DA
:204700000025591C1160114A2846D5540C4B1978FFF71EFD0E4B2A4685211868FFF718FDA9
:2047200020B97923238009E0852907D1054B00221A60CEE700230380032070BD012070BD0D
:204740002B5400204C48002044480020EB5100209046002038B50D4C01462378254633B989
:204760000B4803F0EBFB60B90123237009E00A2801D00D2805D1064803F0E0FB08B100234E
:204780002B700448FFF724FD012038BDEA510020444800204C45002008B505490548802253
:2047A00003F0C5FBBDE8084000210348FFF7F8BC6A510020444800204C450020014601487B
:2047C00003F057BB5048002038B50546064803F033FB04463CB1A068284002D0636803B17D
:2047E00098472468F6E738BD50480020014803F020BB00BF5048002008B5044803F050FBEF
:20480000BDE80840024803F04BBB00BF684500205C45002038B50E4803F052FB0446A8B1F5
:204820000C4803F04DFB0546206028B92146084803F05AFB284638BD00F074F805F19C01EC
:20484000A5F8800005F1820000F0F8F8204638BD5C4500206845002010B501460446074855
:2048600003F057FB48B12168054803F03DFB2146BDE81040014803F037BB10BD5C450020E1
:204880006845002010B501460446094803F041FB68B12468B4F88010204600F0B9F804F198
:2048A0009C0104F18200BDE8104000F0D9B810BD5C45002010B507490B88834208DB064C3E
:2048C00080B222880244181A08802280012010BD002010BDFE50002000510020014B1880BC
:2048E000704700BFFE5000200048704774480020014B1888704700BFFE500020034A044B8D
:2049000010781B781844C0B2704700BF7B5200200051002008B5FFF7F1FF014B184408BDCA
:204920007448002070B50D4D0D4C2A78238806461344802B0FDC0B4902F078FE2B781E447C
:20494000FFF7E8FF22880146304602F06FFE28782388184470BD002070BD00BF7B520020E7
:20496000FE5000207448002008B5FFF7C7FF024B1B88184480B208BDFE50002038B501468F
:20498000FFF7F2FF4318802B11DC0A4A013880B2541803B2002B04DBD55C0138E55480B27E
:2049A000F7E7054B01201A781144197038BD002038BD00BF744800207B52002038B5094D63
:2049C000094C1A220021094802F0A6FE2946204603F007FB294604F10800BDE8384003F0F8
:2049E00000BB00BF70882000F253002002540020044A00231380044A1380044A1370FFF79E
:204A0000DDBF00BF00510020FE5000207B52002038B50C460546FFF7EBFF802C28BF8024CE
:204A200022462946034802F001FE034B20461C8038BD00BF74480020FE50002010B50C46FE
:204A40001A22054902F0F2FD2046BDE810401022024902F0EBBD00BF02540020F2530020DF
:204A600010B50C461A220146044802F0DFFD2146BDE810401022024802F0D8BD02540020AD
:204A8000F2530020024B23F810100120704700BF02540020014B33F8100070470254002068
:204AA00008B5044B0D3803EBC00003F09AFA012008BD00BFF2530020024B0D3803EBC00026
:204AC000704700BFF25300200149024803F08CBA70882000FA530020054B10B51B68984732
:204AE000044B5B689847BDE81040034B5B6818479C862000D4862000F0862000F8B5FDF76D
:204B00007FFE04460F4F00250D2007EB0516FFF7D3FF314603F068FA78B10720FFF7BAFF7E
:204B2000337B834201D00020F8BDB068201AB0F5206F8CBF00200120F8BD0135102DE3D16E
:204B4000F1E700BFF448002070B5164E00240D20FFF7B2FF06EB041103F046FA114D611CCD
:204B600010B910290C46F2D14C1E05EB0111A1F110063CB120391022304602F057FD013C99
:204B80003146F4E70720FFF785FF2873FDF738FEA8600D20FFF790FFBDE8704001460148BE
:204BA00003F01FBAF448002030B591B0054600F063F84FF6FF73984202D14FF0FF3052E00D
:204BC00040220021684602F0A7FD284B1A782AB901221A70FFF714FC254B18707DB1072026
:204BE000FFF758FF58B9224C23780BB90123237021780720FFF746FF237801332370FFF780
:204C000063FF6A46C1B21B4803F04CFAFFF75CFF28B1FF238DF800308DF8013006E00E20A8
:204C2000FFF74AFF0146684603F0DBF90D20FFF743FF014602A803F0D4F9FFF76BFE0E9066
:204C4000FFF756FE0F90684603F018FB04464DB1FFF794FE0028B0D0FFF746FE0146684610
:204C600003F055FB204611B030BD00BF7D5200207C520020954A2000014B1888704700BFE0
:204C8000F84500202DE9F041012986B006460F46144640F3838003A903F083FB0A2203A9EA
:204CA00004F1100002F0C2FC9DF811300BB1B51C02E0B378F51CA37602AA01A903A803F0B1
:204CC00039FA9DF81380B8F1000F23D0029B23B16A7815F8023B03EB0223B8F1020FA3833E
:204CE00009D13049204603F07CF96B78237015F8023B637014E0B8F1030F11D105F108026F
:204D00001346611E13F8010DAB4201F8010FF9D1154605E02349204603F063F9A4F81C8049
:204D20009DF81580B8F1000F2BD0019B53B16A7815F8023B03EB0223029A9BB2E3831AB995
:204D4000A38301E0A38BE383B8F1020F0AD1154904F1080003F045F96B78237215F8023BD5
:204D6000637215E0B8F1030F12D105F108021346E11D13F8010D9D4201F8010FF9D115464E
:204D800006E0084904F1080003F02BF9A4F81E80A81B3B1A8742E363A56300DA002006B0AF
:204DA000BDE8F0817088200070B505460C46102C07D92B68102208496868984750B9103CCD
:204DC000F5E734B12B68224668680349BDE870401847204670BD00BF0B8D20002DE9F04FE8
:204DE000064615468FB006914FF0000B069B1B78CBB1069C274617F8013B1BB1252B14D0E2
:204E00003C46F7E7069BA3420DD0069B0699C3EB04084246336870689847002840F02583FB
:204E20002378C34423B958463AE3069BA342ECD16378002BF7D039460024084610F8013BF4
:204E40000A462B2B11D006D8202B11D0232B12D144F0080416E02D2B04D0302B0BD144F0C3
:204E600010040FE044F001040CE044F0060409E044F0020406E0A3F13107082F11D84FF098
:204E8000000801E00146D8E70A4611F8013BA3F13000092813D80A2202FB0838A8F1300874
:204EA000F2E72A2B09D12B680246002B05F10405B8BF44F00104984601E04FF000081378A4
:204EC0002E2B1AD15178531CA1F1300009280ED8194600270A780B46A2F13000092801F13E
:204EE00001010DD80A2303FB0727303FF2E72A2904D12F68931C043502E013464FF0FF37D3
:204F00001A786C2A09D15A786C2A02D144F080040AE0013344F0600411E0682A0AD15A78B6
:204F2000682A03D144F02004023308E0013344F0400404E07A2A04BF44F0600401331A7841
:204F4000642A3CD01FD8462A48D00DD8252A5AD003D8002A3FF467AF57E0412A4AD0452A61
:204F600053D144F4424450E0582A31D004D8472A4BD144F4A13448E0612A38D0632A44D1C9
:204F800044F4A06441E06E2A3AD007D8662A22D027D3672A28D0692A11D036E0732A2CD00B
:204FA00006D86F2A11D0702A2FD144F440742CE0752A07D0782A28D144F4C85425E044F465
:204FC000245422E044F410641FE044F488541CE044F4B24419E044F4007416E044F48444D3
:204FE00013E044F4024410E044F481340DE044F4C1340AE044F4E13407E044F4806404E02B
:2050000044F4E06401E044F4C0640133069304F4E063B3F5806F00F08F8113D8B3F5807FA6
:2050200027D0B3F5407F7FF4E1AEAE4B14F4804FAD4A18BF1A460DF13303286800210435F4
:205040001F46B5E1B3F5C06F08D0B3F5E06F00F02282B3F5A06F7FF4C9AEF2E133680122E9
:20506000A24970689847002840F0FF810BF1010BBCE6002FACBF24F01004012714F40053C7
:20508000079304F0E0032ED0402B12D005D8ABB1202B21D195F900200DE0602B0ED0802B2F
:2050A0001AD1073525F0070303F10805D3E9002307E0B5F90020D317043502E02A68043545
:2050C000D317002A73F1000108DA524263EB4303CDE90023012304E000220023CDE900234E
:2050E0000023059329E0402B13D004D8BBB1202B1DD12A780EE0602B11D0802B17D1073552
:2051000025F0070303F10805D3E90023CDE900230BE02A880023CDE90023043505E02B686D
:2051200000221946CDE900120435079BD9E70023059300220023CDE9002304F4C053B3F5FF
:20514000805F0CD0B3F5C05F33D0B3F5006F4FD1DDE900230DF13609CDE9022304E0DDE9E8
:2051600000230DF1360915E0DDE9022313433AD0DDE902010A22002302F092F8DDE9020132
:20518000303209F8012D00230A2202F089F8CDE90201E9E752EA030125D002F007013031A3
:2051A00009F8011DD10841EA4371D8080A460346F0E74C4B14F4804F0DF136094A4918BFB3
:2051C0001946DDE9002352EA03000CD002F00F00085C4FEA131E09F8010D100940EA0370D8
:2051E00002467346EFE70DF13603C9EB030302E00DF1360900230293029B41F60802BB4235
:2052000038BFFF1A41F2080302EA040228BF00279A4202D1002F08BF012741F60801029B96
:205220008A4203EB07000DD1DDE90023134309D02F4A304914F4804F4FF0020A0CBF0B4687
:20524000134602E04FF0000A5346079A9AB1059A52B904F00602022A0AD0062A264A04BF36
:205260004FF0010A134606E04FF0010A234B02E0234B4FF0010A0AEB000290458CBFC2EB8F
:2052800008084FF0000814F0010200920DD1E10602D54744904608E0414630460593FFF7AE
:2052A00083FD059B002840F0E080BAF1000F07D03468524619467068A047002840F0D58086
:2052C000029B03EB0B04BB46BBF1100F33681BD910220C4970689847002840F0C680ABF161
:2052E000100BF1E72B8D20003C8D20005E8D2000508D20004D8D2000558D2000538D2000F6
:20530000599020001B8D2000BBF1000F06D05A46654970689847002840F0A7803368029A70
:205320004946706854449847002840F09E80009B3C44002B39D032E0D5F800900435B9F178
:20534000000F0AD0CA469AF800300AF101020BB19246F8E7C9EB0A0A03E0DFF850914FF07F
:20536000060A002F02DBBA4528BFBA46D0458CBFCAEB08084FF0000814F0010705D1414656
:205380003046FFF711FD00286FD133685246494670689847002868D10AEB0B042FB14146E6
:2053A0003046FFF701FD00285FD108EB040B1DE550EA010E0ED000F00F0E12F80EE04FEAC2
:2053C000111C03F801ED4FEA101E4EEA017E70466146EDE7FF1A02BF3022012703F8012CEC
:2053E00007F1030708BF03F1FF337822B84503F8012C4FF0300203F8022C88BFC7EB08085C
:205400004FF0230298BF4FF0000814F00104A3F1030903F8032C04D141463046FFF7C4FC2F
:2054200018BB33683A46494670689847E8B95F4424B141463046FFF7B7FCB0B908EB070B0B
:20544000D4E4B8F1010F2B688CBF08F1FF384FF0000814F0010405F104058DF8203008D1D0
:2054600041463046FFF7A0FC10B14FF0FF3017E0C3443368012208A9706898470028F4D15D
:2054800008F101072CB141463046FFF78DFC0028EBD1BB44AAE42B680435C3F800B0A5E481
:2054A0000FB0BDE8F08F00BF1B8D2000578D20000FB407B504AA52F8041B04480192FFF713
:2054C0008DFC03B05DF804EB04B0704774450020F8B50B4D04462B5C8BB1FDF7C9F9094AED
:2054E000094B52F8242003EBC403801AD3E90067361847F10007C3E9006700232B55F8BD60
:20550000D0530020D8530020A853002010B504462B2002F0B3FF6300233303F03F0300F006
:20552000C00119432B2002F092FF014B1C7010BD8253002010B502F083FFC0B1602801D1E2
:205540003A2002E0702803D13B2002F06DFF0EE0362002F069FFFDF78BF96FF4A374241A1C
:2055600002F06EFF18B1FDF783F9C442F8D40D4A6FF4A374137823F004031370FDF75AF882
:205580003A2002F051FF342002F04EFFFDF770F9241A02F055FF102803D0FDF769F9C44294
:2055A000F7D410BD8353002010B51A4C23785B060CD52378332023F04003237002F034FF59
:2055C000FDF756F96FF4A374241A0CE0FDF722F9114B1B68C01AB0F5617FEAD210BDFDF71A
:2055E00047F9C44203D502F02BFF4028F7D1FDF73FF96FF4A374241A03E0FDF739F9C4424E
:2056000003D502F01DFF0028F7D1FDF703F9024B186010BD83530020F449002010B50E4BC1
:205620001B889BB2002B14BF0120002012D10B4C23787BB9237842F6D7700133DBB22370C4
:2056400002F01CFF2378003003F1FF33DBB218BF0120237010BD00BF02510020FF520020C4
:2056600008B5094B1B7803F00A03022B01D0002008BDFCF7FBFF012805D0044B1B889BB279
:20568000002BF4D0012008BD8353002002510020F8B5154D0A462C88A4B21CB32B88134985
:2056A0009BB20B4413F9024C114B124E93F92C30234433802B882C889BB2A4B2023C944218
:2056C00010DC0B4413F8017C224601F0AFFF0023318804202B80FFF7D5F907F07F010320F7
:2056E000FFF7D0F92046F8BD025100207E520020648620000A510020CB1E7A2B73B50646E6
:205700000C461BD80F4B02AD198025F8021D02F0DAFE0D4A3A20137823F00403137002F0D1
:2057200083FE3B2002F080FE0121284602F001FF3046E1B202F0FDFE002000E0012002B0D2
:2057400070BD00BF085100208353002070B5364A3A2013786FF4A37423F00403137002F05B
:2057600063FE2621032002F072FE352002F05CFEFDF77EF8241AFCF779FF012809D12B4CCE
:20578000E3785BB9FDF774F8294BD8600123E37004E0FDF76DF8C442EDD4F0E7FCF766FFE4
:2057A00060B942F6D67002F069FE38B102F08BFE0621032002F04BFE012070BDFDF758F87E
:2057C00005461C4EFCF752FF20B9FCF74FFF012808D1EBE7FDF74CF8F3682B44C01A0028DE
:2057E000F0DBF2E70621032002F031FEFDF740F8E3786BB10E4B104DD968D5E90623411ABE
:20580000521843F10003C5E90623084B0022DA70237933B9064A01211061044A18461171B8
:2058200070BD002070BD00BF83530020D0530020D853002064862000A853002010B5FFF7CB
:20584000B3FE134A3A2013786FF4A37423F00403137002F0E9FD342002F0E6FDFDF708F849
:20586000241A02F0EDFD10280BD10A4CFCF7E2FE23795BB9FCF7FCFF074B186101232371B0
:2058800004E0FCF7F5FFC442EBD4EEE710BD00BF83530020D0530020D853002070B5164D0B
:2058A0002B7803F0020303F0FF001BBB134C23780BBB23786FF4A3760133DBB22370FCF767
:2058C000F9FDFCF7D5FF361AFCF7D0FE68B9FCF707FE03200621287002F0B9FDFFF7AEFFB4
:2058E0002378013BDBB2237004E0FCF7C1FFC642EAD4ECE7012070BD83530020FF520020CC
:205900002DE9F043744D93B02B782F4603F0FF04DFF8E8814BB198F80030704843F0200322
:2059200088F80030FEF754FCCAE098F8003023F0200388F800302B780133DBB22B7002F031
:205940007FFD00F0EF0060281DD042F6D77002F095FD064620B92B78013BDBB22B70B8E0B0
:2059600098F8003003F0040303F0FF04EBB9DFF874910121484602F0CBFDB9F80030022B7F
:2059800001D97D2B07D9FFF7D5FD2B782046013BDBB22B709DE0524B701E1C8098F800306C
:2059A000C6B243F0040388F8003098F80030590740F18A804A4C4B4D20882B883218023322
:2059C0009A427FDCDFF82C813146404402F0A0FD20882B88304481B202339942218073D18B
:2059E00008EB010313F9013C002B6BDA3E4D2B889BB2002B66D102AE32464046FFF742F92B
:205A0000002849D0394B1A68984612F0010F04D1D8F800309A0715D510E09DF81830022BF5
:205A2000F6D09DF81F30022B0CBF0223082313F1FF33EDD3F25CFF2AF9D026E09DF818206B
:205A4000012A01D0022027E09DF81B20002AF9D0DB0713D402238DF8043000238DF80530DA
:205A60009DF822308DF8063002F02DFD032101A8FFF742FEFFF76AFE03200DE01C4930461C
:205A800002F0B2FA0028E5D1DCE71949304602F0ABFA0028BCD101200238012812D823888A
:205AA00014492B802A88144892B201F0BFFDFFF741FD0A48FEF78CFB3B78013BDBB23B70B6
:205AC000012006E0FFF736FD3B780020013BDBB23B7013B0BDE8F083FF5200207C45002022
:205AE000065100200451002002510020F84900201C540020035300207E52002083530020FA
:205B000038B5184D2B789B072AD5174C23780BB1002038BD23780133DBB2237002F0D3FC70
:205B200042F6D77002F0AAFC60B12378013BDBB22370FFF7E5FE2378002BE9D1237801331E
:205B4000DBB223703221032002F081FC392002F06BFC23780120013BDBB22870237038BDE9
:205B6000012038BD83530020FF520020404A2DE9F34792F8281092F8295092466B1A013378
:205B800090FBF3F404FB1300C4B20F19FFB2B94268D8BD4266D3374DDFF8E8802B7863B145
:205BA000354B36481F7098F80030012643F0100388F80030FEF70CFB55E098F800301A0769
:205BC000EED4FFF74DFD06460028E9D198F8003023F010029B0788F8002004D4FFF75EFE44
:205BE0004FF0010900E081462B780133DBB22B7002F069FCDAF8243042F60E705C434FF4A1
:205C00007A73B4FBF3F1DAF820300B4440F271211B03B3FBF1F10191C9B202F018FC9DF879
:205C2000051042F60D7002F012FC9DF8061042F60C7002F00CFC124B1F70B9F1000F07D1C4
:205C400098F8003043F0400388F80030FFF7F6FD2B78013BDBB22B70B9F1000F03D0FFF7EC
:205C60004FFF00E00226304602B0BDE8F08700BF64862000FF520020FE5200207C450020FF
:205C8000015300208353002010B50C46072836D8DFE800F00410353516181B2A012902D1A1
:205CA000FFF7FCFD1EE009B1022010BDFFF728FF204610BDC8B2FFF759FF022812D1F3E74F
:205CC000104B00E0104B1C600CE0104B93F92A106FF00F038C42A8BF0C469C42B8BF1C46F6
:205CE0000B4B1C70002010BD7F2905DC6FF07E039942B8BF1C4600E07F24064BF1E70120EB
:205D000010BD00BFF8490020FC4900206486200000530020FD52002070B50C4600297BD05A
:205D200018287BD8DFE800F00D187A7A1D1F222428527A7A7A7A565A5E617A65676D707317
:205D40007600374B1B7803F0020303F0FF000BB1012303E0086070BD324B1B7823600020C3
:205D600070BD314B00E0314B1B68F7E7304B00E0304B93F90030F1E7294B1B789A0703D4D4
:205D8000FFF78CFD012600E00026FCF771FD6FF4A3752D1A42F6727002F070FB83070DD551
:205DA00042F6717002F06AFB234B40B293F92C500544ADB23EB1FFF7A3FE04E0FCF758FDB1
:205DC000C542E7D4ECE72DB22560C8E71B4BB3F90030C3E7184B93F82830BFE7164B93F857
:205DE0002930BBE76FF00F03B8E7134B93F92A30B4E70323B2E7104B1A6B114BB3FBF2F32B
:205E0000ACE70D4B5B69A9E70B4B9B69A6E70A4BDB69A3E77D23A1E7022070BD012070BD74
:205E20008353002001530020F8490020FC4900208253002002530020648620000A51002043
:205E400000127A00F8B5214D2B7803F0FF06002B39D11F4B1B789A0702D4FFF71FFD01261E
:205E60002B780133DBB22B70FCF700FC012820D0184B194F1C783B789C4204D021461720B9
:205E800002F0E5FA3C70FCF7F3FC6FF4A3773F1A42F6727002F0F2FA8307044604D584F0B4
:205EA0000404C4F3800405E0FCF7E2FCC742EFD4F5E700242B78013BDBB22B700EB1FFF761
:205EC0001FFE2046F8BD0020F8BD00BFFF52002083530020FD520020025300202DE9F04164
:205EE000334B1B8883425FD1324C237843F0080222709A0703D4FFF7D1FC012700E000273A
:205F00002D4B1B68DB070CD5FFF79CFF48B90FB1FFF7F6FD2378022023F008032370BDE875
:205F2000F081264E33780133DBB2337002F0CBFA234B244A93F9003092F90000834201D0FD
:205F4000FFF7E4FA0FB9FFF72FFBFFF7FFFBA8B9FCF78EFC0546DFF8708002F071FA102810
:205F600003D1FCF767FB002510E0FCF781FCD8F810302B44C01A0028EFDBF2E72FB92378CC
:205F800043F040032370FFF759FC01253378013BDBB233700FB1FFF7B3FD2378284623F0EE
:205FA00008032370BDE8F0810120BDE8F08100BF0851002083530020FC490020FF520020F2
:205FC0008253002000530020648620002DE9F0414E4B1878984610F0010440F094804C4F1D
:205FE0003B780133DBB23B70FCF748FB2046FCF7E3FA484CFCF75EFA3020FCF777FA6420FF
:2060000001F03FFEFCF76CFA25896668AD08002E6ED194F82C10182002F019FA26210020EF
:2060200002F015FA2621012002F011FA0621032002F00DFA1F2002F021FA00F0E7011F2054
:2060400002F005FA292002F019FA00F0CF0141F03F01292002F0FBF92A2002F00FFA00F06C
:20606000CF0141F030012A2002F0F1F90021262002F0EDF9272002F001FA40F00101C9B2A8
:20608000272002F0E4F9282002F0F8F900F09F0141F02001282002F0DAF91F4B03221A60C7
:2060A0001E4B01221A6094F82A001D4B187040B2FFF72CFA94F82B401A4B214617201C70A0
:2060C00002F0C5F9184B002118481C70FEF768F898F800301A2043F0030388F800303B78B5
:2060E000013BDBB23B70FFF741FDFFF709FD0AE00436002D8DD016F8021C36F8040C02F0F2
:20610000A6F9013DF4E70120BDE8F08183530020FF52002064862000F8490020FC49002059
:2061200000530020FD520020025300207C450020822970B505460E4626D11C4B1A781C4666
:2061400002F02202222A01D1FFF7DAFB2378DA0603D5174B1878FFF709FD164B1B685B07B9
:2061600012D4154B1B889BB273B1FEF741FCFEF7D1FB8021FFF78CFA002805DD80B2FEF784
:20618000ADFB0E4BDB6898472A8840F2622312B19A4202D003E02B8005E0832E03D10023E7
:2061A0002B80032070BD012070BD00BF83530020FE520020F849002002510020D486200023
:2061C00010B501210C20FEF75DFCBDE81040014B5B68184758862000014B9B68184700BF90
:2061E00058862000014B1B6A184700BF9C862000014B5B6A184700BF9C8620000C4B13B5E0
:206200001B6898470B4B044601A918209B6A984701280AD0002C0198B8BF15248028D4BF03
:20622000C4EB0000C4F1800000E0002002B010BD588620009C86200007B5064B01A91820CC
:206240009B6A984718B900F019FAFFF7CBFF03B05DF804FB9C86200007B5FEF749FB03285D
:2062600023D0FFF7B9FF00281FDB0E20FEF724FC0F4901F0B9FE38B10D20FEF71DFC0C499F
:2062800001F0B2FE88B904E0FEF71EFC0028F3D10BE0FEF733FC40B9FEF756FC054B9B689B
:2062A000019303B05DF804EB184703B05DF804FB1C540020F086200070B590F82D4001228A
:2062C000012CD4BF03340524054602FA04F4FEF797F8013CB0FBF4F12B4601FB1401034A3F
:2062E00005F10C00BDE87040FDF716BE756320002DE9F0470D4614468B68804693E8C00099
:20630000506B92F82C9001F0A1FD6868FEF7A4FAA968144801F0E8FD2946134801F0E4FDAB
:20632000606B01F089FD40B1002384F82C3084F82D302046FFF7C0FF0BE004F10C00FDF75B
:20634000F5FD2146094801F081FD2146084801F0CBFD4B46424639463046BDE8F04701F0D9
:206360004BBE00BF8C45002098450020604A0020A44500202DE9F74F0446002800F0D9807D
:20638000406B01F059FD0546002800F0D2804068FEF778FA68490D20FEF782FB01210820AD
:2063A000FEF770FBFFF70CFF0028C0F2C080FEF79BFA624E90F802807768FEF795FA8146F4
:2063C000FEF7D2FA01464846B847FEF77DFBD6F818908246C847002860D1BAF1000F0BD080
:2063E000B768FEF7C1FAB8470746FCF741FA6FF0A20BC0EB0B0B04E0F369984700284DD122
:20640000EEE7FCF735FA1BEB000FFAD417F0FF0704D0022F0CBF0120042040E0BAF1000FA6
:2064200001D000203BE0FCF723FA6FF0A20AF769C0EB0A0AB84710B1C84740B905E0FCF776
:2064400017FA1AEB000FF5D4F6E7B84730B1FCF70FFA6FF01409C0EB090909E073699847B8
:206460000028F4D009E0FCF703FA19EB000F02D5B8470028F7D0B84708B902200FE0336912
:20648000032101A89847032808D19DF80600B0EB080018BF01200028C3D000E00120AA6848
:2064A000002A46D003283DD8DFE800F0021B0B4394F82C300020013384F82D0084F82C307D
:2064C00030E0002384F82D3094F82C300133DBB284F82C30127A9A421DD8224629460220D9
:2064E00022E094F82D300133DBB2052B83BF002384F82D3094F82C3084F82D3084BF01334A
:2065000084F82C3094F82C10137A994203D322462946012008E02046FFF7CEFE686801F0D4
:206520005AFD06E022462946FFF7E2FE01E00520B5E703B0BDE8F08F1C5400209C86200026
:206540002DE9F04107460E208846FEF7B5FA454B05461A78444C22B901221A70FDF750FF3F
:206560002070237813B9404B01221A70217807204B1C2370FEF786FA01210C20FEF782FAFE
:206580003A4801F059FC044640B12946201D01F02BFDD8B9204601F080FCF4E7344801F087
:2065A0008FFC044640B32946201D01F01AFD002304F13000606384F82C3084F82D3023631D
:2065C00001F037FC2146294801F053FC606B01F05DFC072810DC274801F072FC054698B9E5
:2065E000606B01F053FC38B92146204801F02EFC21461F4801F078FC41463846BDE8F041A7
:206600000123062201F0F8BC1B4801F059FCA86008B3FEF7FFF86860C8B10620AE68FEF7BF
:2066200039FAC0B208B1307201E00823337286E880012946606B01F01CFC606B01F0FCFBC4
:2066400085420DD12046BDE8F041FFF735BEA968094801F049FC2946064801F045FCBFE743
:20666000BDE8F0819553002084530020604A0020A4450020984500208C45002008B505483A
:2066800001F00EFC044801F00BFCBDE80840034801F006BC984500208C450020A4450020D9
:2066A000014B00221A607047344B002010B50446FEF79EF90B4B19880B4B1868FEF7A8F99E
:2066C0000CB1214600E009490E20FEF7E9F908490D20FEF7E5F9074B002108469B6898476B
:2066E000012010BDF0530020EC530020708820001C540020D48620002DE9F0410C4B1C68A6
:20670000A4B1FEF707F90546FEF7F2F806460D20FEF7D2F907460E20FEF7CEF93A460346CC
:2067200031462846A446BDE8F0416047BDE8F081344B0020014B1860704700BF344B00207F
:20674000F8B504880546C92C00F09B8024D8942C00F081801BD8002C79D1A74EFF21A7489B
:206760003170FEF7A5FEA64B32781C705A70A54A9C701360A44B0322A4481A80FFF7DAFF18
:206780004FF42071A24801F016FB94235DE0AC2C67D0B22C7CD05AE0EA2C00F0198103D857
:2067A000D42C00F0868052E0ED2C00F01D81F62C4DD1984801F011FB002867D0964A9749CE
:2067C0009748FEF775FE9748FEF772FE924A93499348FEF76DFE884B93481978FEF768FEA1
:2067E0009248FEF765FE924B92481988FEF760FE4FF4F051874801F0DEFA8F4B00221A701A
:206800008D4E3378022B35D87D4C7B4A23707D4B03271C607C4B12781F80884B6270DB6851
:20682000002098477C4A86497D48FEF741FE63783A4631788348FEF73BFE3378012B14D80B
:206840004021814801F0B7FAAC232B801EE000232B800320F8BD6E4801F0BFFA0028B5D140
:2068600014E0794801F0B9FA80B1734A137801331370C5E74FF4A061744801F09CFAB22387
:20688000E3E7634801F0A9FA002873D10120F8BD6E4801F0A2FA0028F8D0FBF7B1FF6C4B21
:2068A000C10918606B48FEF703FE634B01221A700FE0574801F091FA0028E7D0664B1A7866
:2068C0001C46002A6DD0002323705B4A137801331370594E3178082942D8474A5C4F1378F0
:2068E0005E4C13F0010F4FEA5303137022D05C4B60221A70434A59701360434B02221A800F
:20690000FBF77EFF3B68444AC01A20604C494448FEF7CEFD22683178D2095248FEF7C8FD3A
:20692000464B0020DB689847C021394801F043FAC9238AE7FBF764FF3B68374AC01A2060C4
:206940003F493748FEF7B4FD22683178D2094648FEF7AEFDC0212E4801F02DFAEA2374E777
:206960002D4A37492E48FEF7A3FD4048FEF7A0FDF6236AE7384B1C786CB9274A30492848FB
:20698000FEF796FD2C4B3A481978FEF791FD2B4B2046DB68984740211D4801F00CFAD423B0
:2069A00053E7254B1C4A1B782549022B1C4809D8FEF77EFD2F48FEF77BFD1D4A13880133CA
:2069C000138080E7FEF774FD2B48FEF771FD7AE70F4801F002FA00283FF458AF40210C48C5
:2069E00001F0E9F9ED2330E7094801F0F6F900287FF46BAF4AE700BF9B530020A38D200069
:206A000098530020EC530020F0530020996F2000884B0020484B0020B18D2000B58D20001B
:206A200072892000A68E2000B98D2000C88D20005C510020CD8D20009C530020F086200020
:206A40006D892000D58D2000584B0020384B0020844B0020FC8D20009E530020684B0020BC
:206A60009F5300207A8E2000768E2000948E2000158E2000438E20005E8E200070B5044647
:206A8000008888B0154630B1B0F5F77F0ED000232380032057E02D49FCF75EF80220FBF70E
:206AA000F7FC4FF4F773238001204CE0284B1B788B42F6D10120274EFBF7EAFC2946264861
:206AC0003560FEF7F5FC0120FBF7E2FC3168684600F04EFF69462148FEF7EAFC20496846BC
:206AE00000F0A4FF054601461E48FEF7E1FC1E49284600F05FFE0028D3D1194900F096FF64
:206B00001A4A0546B8B11A491A48FEF7D1FC29461948FEF7CDFC284600F052FD0546134AF3
:206B200013491448FEF7C4FCE9B21448FEF7C0FC134B1D70B5E713490E48FEF7B9FC124803
:206B4000FEF7B6FCADE708B070BD00BF554720002B540020984B0020B58E2000D28E200015
:206B6000E58E2000D98E2000E78E2000B18D2000B58D200072892000EA8E2000F58E200050
:206B80009B5300208D8C2000118F20002DE9F341038807461BB3B3F5877F03D000230380D7
:206BA000032051E082291DD1294C2A4A2A492B48FEF77EFC61782A48FEF77AFC294D6378A3
:206BC000294E2B700024294906EBC40001F00CFADFF8948040B121462548FEF769FC4FF414
:206BE00087733B8001202FE00134082CEBD1044608EBC4061F49304601F0F6F900B31B49AF
:206C0000304601F0EEF91C48FEF752FC1748FCF7D1FF21461948FEF74BFC40238DF804303D
:206C20002B7801AA8DF80530154B10481A60154B02221A80144BDB68984729781348CCE7CC
:206C40000134082CD4D1CAE702B0BDE8F08100BF2C540020B18D2000B58D20007289200073
:206C6000288F20009D5300201C51002014510020428F200060892000638F20006C8F2000F4
:206C8000EC530020F0530020F08620007E8F2000F7B503880646A3B1B3F5AA7F15D00023BF
:206CA000038003203EE1012B20D1FEF701FC9E48FEF7FEFB9D489E4901F093F99D48FDF70A
:206CC00087FA4FF4AA73338001E0822901D0012028E1FDF71FFE037804465B09964A97499F
:206CE0009748E0D1FEF7E4FB9648FDE0022B03D1FEF7DEFB9448F7E0032B03D1FEF7D8FB29
:206D00009248F1E0042B40F00381FEF7D1FB9048FEF7CEFB8F4B01228F481A70FEF7C8FB78
:206D2000237803F01F03013B072BCAD8DFE813F04B004B004B00080084008400DF00DF001A
:206D40006378864D8DF80430A37885488DF80530E3788DF8063023798DF80730019B2B6194
:206D600063798DF80430A3798DF80530E3798DF80630237A8DF80730019B6B6121786424AF
:206D800001F01F01FEF794FB7648FEF791FB7649286900F015F900F063FAB0FBF4F104FBF5
:206DA00011027248FEF784FB7148FEF781FB6E49686900F005F900F053FAB0FBF4F104FB26
:206DC00011026A488DE06378644F8DF80030A37869460222381D8DF8013000F027FCE378D7
:206DE00002228DF800302379B81869468DF8013000F01CFC21785A4801F01F01FEF758FB4D
:206E0000B7F902300A2593FBF5F205FB123321781BB201F01F015748FEF74AFBB7F9043073
:206E2000217893FBF5F205FB123301F01F011BB25148FEF73DFB44E76378484D8DF800300B
:206E4000A37802226946281D8DF8013000F0EEFBE37802228DF8003023796946A8188DF8AC
:206E6000013000F0E3FB637904228DF80430A3790DEB02018DF80530E37905F10C008DF8A4
:206E80000630237A8DF8073000F0D0FB3649E86800F096F800F0E4F907462178304801F03F
:206EA0001F01FEF705FB3548FEF702FB6422B7FBF2F12E4802FB1172FEF7FAFAB5F9022084
:206EC0000A2492FBF4F104FB11222D4812B2FEF7EFFAB5F904202B4892FBF4F104FB1122E0
:206EE00012B2FEF7E5FA2848FEF7E2FAE9E6A27863781A4D43EA0223EB802178184801F0E7
:206F00001F01FEF7D5FAE9882048FEF7D1FAEAE7052B03D1FEF7CCFA1D48E5E7FEF7C8FA7C
:206F20001C48E1E703B0F0BDB78F2000145100200C510020B0450020B18D2000B58D200088
:206F400072892000A38F2000D58F2000F78F2000129020009E530020289020006C4B002018
:206F6000319020003F9020000000C84247902000519020005B902000709020008A902000DA
:206F800093902000A690200087902000BC902000C8902000E090200008B5064913680648D8
:206FA0000B6053684B60FDF7BDFCBDE808400348FDF70EB90C5100202C540020C04500201E
:206FC0004FF0FF0C1CEAD0521EBF1CEAD15392EA0C0F93EA0C0F6FD01A4480EA010C4002B3
:206FE00018BF5FEA41211ED04FF0006343EA501043EA5111A0FB01310CF00040B1F5000FA5
:207000003EBF490041EAD3715B0040EA010062F17F02FD2A1DD8B3F1004F40EBC25008BF4E
:2070200020F00100704790F0000F0CF0004C08BF49024CEA502040EA51207F3AC2BFD2F161
:20704000FF0340EAC250704740F400004FF00003013A5DDC12F1190FDCBF00F000407047A4
:20706000C2F10002410021FA02F1C2F1200200FA02FC5FEA310040F1000053EA4C0308BF41
:2070800020EADC70704792F0000F00F0004C02BF400010F4000F013AF9D040EA0C0093F045
:2070A000000F01F0004C02BF490011F4000F013BF9D041EA0C018FE70CEAD15392EA0C0F02
:2070C00018BF93EA0C0F0AD030F0004C18BF31F0004CD8D180EA010000F00040704790F03C
:2070E000000F17BF90F0004F084691F0000F91F0004F14D092EA0C0F01D142020FD193EA40
:207100000C0F03D14B0218BF084608D180EA010000F0004040F0FE4040F40000704740F011
:20712000FE4040F4400070474FF0FF0C1CEAD0521EBF1CEAD15392EA0C0F93EA0C0F69D005
:20714000A2EB030280EA010C49024FEA402037D04FF0805343EA111143EA10130CF000404E
:207160008B4238BF5B0042F17D024FF4000C8B4224BF5B1A40EA0C00B3EB510F24BFA3EB25
:20718000510340EA5C00B3EB910F24BFA3EB910340EA9C00B3EBD10F24BFA3EBD10340EA1F
:2071A000DC001B0118BF5FEA1C1CE0D1FD2A3FF650AF8B4240EBC25008BF20F001007047DA
:2071C0000CF0004C4CEA50207F32C2BFD2F1FF0340EAC250704740F400004FF00003013A26
:2071E00037E792F0000F00F0004C02BF400010F4000F013AF9D040EA0C0093F0000F01F0D3
:20720000004C02BF490011F4000F013BF9D041EA0C0195E70CEAD15392EA0C0F08D142027D
:207220007FF47DAF93EA0C0F7FF470AF084676E793EA0C0F04D14B023FF44CAF08466EE74F
:2072400030F0004C18BF31F0004CCAD130F000427FF45CAF31F000437FF43CAF5FE700BF3C
:2072600042000ED2B2F1FE4F0BD34FF09E03B3EB126209D44FEA002343F0004323FA02F06E
:2072800070474FF00000704712F1610F01D1420202D14FF0FF3070474FF00000704700BF0B
:2072A00053B94AB9002908BF00281CBF4FF0FF314FF0FF3000F082B9ADF1080C6DE904CEEA
:2072C00000F006F8DDF804E0DDE9022304B070472DE9F04F8C460C460546099E002B4FD1FB
:2072E0008A4217466BD9B2FA82FEBEF1000F0BD0CEF1200520FA05F501FA0EF345EA030C2A
:2073000002FA0EF700FA0EF5390CBCFBF1F0BAB201FB10C300FB02F84FEA154C4CEA03444B
:20732000A04509D9E41900F1FF3380F02881A04540F2258102383C44C8EB0404B4FBF1F388
:2073400001FB134C03FB02F2ACB244EA0C418A4209D9C91903F1FF3480F00F818A4240F252
:207360000C81023B39448A1A43EA00400021002E63D022FA0EF2002386E80C00BDE8F08F56
:207380008B4207D9002E56D0002186E811000846BDE8F08FB3FA83F1002940F09380A34268
:2073A00002D3824200F2FE80851A64EB03039C460120002E41D086E82010BDE8F08F12B901
:2073C0000127B7FBF2F7B7FA87FEBEF1000F36D1E41B4FEA17481FFA87F90121B4FBF8F303
:2073E00008FB134409FB03F24FEA154C4CEA0444A24207D9E41903F1FF3002D2A24200F294
:20740000D3800346A41AB4FBF8F008FB104809FB00F9ACB244EA0842914507D9D21900F1BB
:20742000FF3402D2914500F2BA802046C9EB020240EA03409BE731463046BDE8F08F07FA24
:207440000EF7CEF1200C24FA0CF34FEA1748B3FBF8FA1FFA87F908FB1A3520FA0CFC04FADC
:207460000EF40AFB09FB4CEA040C4FEA1C4242EA05439B4500FA0EF50AD9DB190AF1FF32D0
:2074800080F08B809B4540F28880AAF1020A3B44CBEB0303B3FBF8F008FB103300FB09F4A1
:2074A0001FFA8CFC4CEA03439C4207D9DB1900F1FF326ED29C426CD902383B441C1B40EA5E
:2074C0000A418BE7C1F1200E8B4022FA0EFC4CEA030C24FA0EF74FEA1C49B7FBF9FA1FFA5A
:2074E0008CF309FB1A7720FA0EF88C400AFB03F548EA04044FEA144848EA0747BD4202FA45
:2075000001F200FA01FB09D917EB0C070AF1FF3041D2BD423FD9AAF1020A67447F1BB7FB99
:20752000F9F509FB157705FB03F3A4B244EA0747BB4208D917EB0C0705F1FF3027D2BB42F7
:2075400025D9023D674445EA0A40A0FB0289FF1A4F4545464C4614D329D066B3BBEB050333
:2075600067EB040707FA0EFECB40CF404EEA030386E888000021BDE8F08F2346F3E618466E
:20758000DAE6B8EB020569EB0C040138E5E70546D9E7104692E78246C0E7924678E702385E
:2075A0003A4443E7084604E7023B3C442AE7C345E7D33C46D1E73146BDE8F08F704700BF0F
:2075C0000A22002100F000BB032A70B426D940EA01039B0711D004780D78AC4222D102448A
:2075E000431C05E013F8014B11F8015FAC4219D19342F7D1002070BC70470C4603461E68EE
:2076000025681846AE42214603F1040304F10404E1D1043A032A18462146F0D8002ADAD1B1
:207620001046E8E7601B70BC704700BF844641EA000313F0030349D1403A23D30B680360A7
:207640004B6843608B688360CB68C3600B6903614B6943618B698361CB69C3610B6A03626E
:207660004B6A43628B6A8362CB6AC3620B6B03634B6B43638B6B8363CB6BC363403040312B
:20768000403ADBD230320BD30B6803604B6843608B688360CB68C36010301031103AF3D29B
:2076A0000C3205D351F8043B40F8043B043AF9D2043208D0D2071CBF11F8013B00F8013B71
:2076C00001D30B8803806046704700BF082A13D38B07B1D010F00303AED0C3F10403D21A4E
:2076E000DB071CBF11F8013B00F8013BA4D331F8023B20F8023B9FE7043AD9D3013A11F86E
:20770000013B00F8013BF9D20B7803704B7843708B7883706046704770B4840746D0541E38
:20772000002A41D0CDB2034602E0621EE4B3144603F8015B9A07F8D1032C2ED9CDB245EA4E
:2077400005250F2C45EA054519D9264603F11002103E0F2E42F8105C42F80C5C42F8085C76
:2077600042F8045C02F11002F2D8A4F1100222F00F0204F00F041032032C13440DD91E46BD
:207780002246043A032A46F8045BFAD8221F22F003020432134404F003042CB1C9B21C440F
:2077A00003F8011BA342FBD170BC704714460346C2E700BF80EA010C1CF0030F37D110F076
:2077C000030C20F0030021F0030150F8042B08BF51F8043B0ED08CF0030C6FF07F434FEAE9
:2077E000CC0C23FA0CFC51F8043B42EA0C0243EA0C0300BFA2F1013C9A4201BF2CEA020C3F
:207800001CF0803F50F8042B51F8043BF2D04FEA02604FEA1222012828BFB0EB036F08BFF0
:207820001B0AF4D003F0FF03000EC01A704710F0030F0AD010F8012B11F8013B012A28BF54
:207840009A42F4D0A2EB030070474DF8045D50F8042B01F0030521F0030151F8043B022D5F
:2078600026D04DD822F07F45B5EB132FA2F1013C2CEA020C0DD11CF0803C08BF51F8043B4C
:207880000AD185EA0205B5EB036F0CD150F8042BE8E74FEA13235BE03CF07F4C54D10B7819
:2078A0004FEA126554E04FEA126503F0FF034FE04FEA0245A2F1013C4FEA15452CEA020C09
:2078C000B5EB134F18D11CF0803C08BF51F8043B07D185EA0205B5EB034F09D150F8042B15
:2078E000E6E75FEA0C4C2FD10B884FEA12452FE04FEA03434FEA12454FEA134328E000BF83
:2079000002F0FF05B5EB136FA2F1013C2CEA020C0DD11CF0803C08BF51F8043B0AD185EA1C
:207920000205B5EB032F0AD150F8042BE8E74FEA13630DE012F0FF0F06D051F8043B4FEA0A
:20794000122523F07F4303E04FF0000020BC704705F0FF0203F0FF00012828BF904204BFD9
:207960002D0A1B0AF4D0A2EB000020BC704700BF80EA0102844612F0030F4FD111F0030F8A
:2079800032D14DF8044D11F0040F51F8043B0BD0A3F101329A4312F0803F04BF4CF8043B2C
:2079A00051F8043B16D100BF51F8044BA3F101329A4312F0803FA4F101320BD14CF8043B75
:2079C000A24312F0803F04BF51F8043B4CF8044BEAD023460CF8013B13F0FF0F4FEA332320
:2079E000F8D15DF8044B704711F0010F06D011F8012B0CF8012B002A08BF704711F0020F5D
:207A0000BFD031F8022B12F0FF0F16BF2CF8022B8CF8002012F47F4FB3D1704711F8012B63
:207A20000CF8012B002AF9D1704700BF024A012312685C3200F002B8F4450020F0B420B3BA
:207A400007460D4617F8016B01E0A64216D015F8014B002CF9D1EEB13E460C4616F8015B2E
:207A600000E073B114F8013B9D42FAD15DB100233B70166006463046F0BC704763B1384607
:207A8000DEE73746E8E72E46F3E710680028D7D10646F0E71660EEE7176006460370EAE7CA
:207AA0002DE9F04F474C83460E46D4F800E000E02646344614F8015B0EEB0500407800F041
:207AC000080000F0FF080028F2D12D2D5CD02B2D04BF7578B41C002B3ED0102B60D09A46DA
:207AE000B8F1000F0CBF6FF000404FF00040B0FBFAF90027BC460AFB19000CE0303DAB42BA
:207B000019DD7E1C05D0CC4523D820D00AFB0C5C012714F8015B0EEB0506767816F0040FFC
:207B2000ECD116F0030606D0012E14BF57263726AD1BAB42E5DC7B1C16D0B8F1000F10D13B
:207B40006046002A39D0DFB91160BDE8F08F8542DCDD4FF0FF37DCE7302D1AD00A239A4613
:207B6000BEE7CCF1000CEBE7B8F1000F4FF022030CBF6FF000404FF00040CBF80030F2B12A
:207B8000611E1160BDE8F08FB41C75784FF00108A1E7237803F0DF03582B08D008239EE7C9
:207BA000302D9CD1207800F0DF00582897D14FF0100A65785346023492E7BDE8F08FBDE865
:207BC000F08F00BFF045002010B4044C13460A460146206810BCFFF763BF00BFF44500208A
:207BE000FEE708B5FAF752FBF7B500240646254627463046FAF7D6FB0197019B9D4204DD85
:207C000000BF019B01330193F7E73046FAF7FAFBC5F5C8750197019B9D4204DD00BF019BC1
:207C200001330193F7E70134B4F5487F06D0B4F5C87FCCBFC4F548752546DAE703B0F0BDA6
:207C400008B500F00DF8FAF701FCBDE808400120FFF7CABFFBF7D8BCFDF752BEFAF758BD67
:207C600008B5FAF7A3FFFBF709F8FAF7A7FFFAF7A1FDFBF743FD00F0BBF8BDE80840FCF7E6
:207C8000B5BD80B2FAF7D0BDFAF76EBD70470020FAF75CBE0120FAF759BE0020FAF7C8BF03
:207CA0000120FAF7C5BF0220FAF7C2BF0320FAF7BFBFC30801294FEA033300F0070003F1B9
:207CC000804318BF012103F5592307BF01FA00F0FF2201FA00F0002243F82020704708B5A6
:207CE00001210020FBF742FC30BFBDE8084000210120FBF73BBCEFF3108072B6704780F347
:207D00001088704710B50446C1B20020FAF72CFF204610BD70B5054604464618601B44B19B
:207D2000237833B1B44204D01846013400F074FBF4E770BD002070470120704710B5044642
:207D4000302200210E20FBF75DF884B1012C0CD142F210730011A0F28E5058432A2390FB51
:207D6000F3F000F5C340283010BD4FF0004010BD002070470120704710B504463022002186
:207D80000F20FBF73FF85CB1012C07D140F6F253584347F6F07390FBF3F010BD4FF0004009
:207DA00010BD10B5041F54F8040F18B10021FCF7F7F9F8E710BD10B5044600F01BF82046BE
:207DC000BDE81040FBF7E4BF10B5044600F027F82046BDE81040FBF7DBBFC068B0FA80F0D2
:207DE00040097047837BDB0701D5FCF7CFB87047FFF74CBF10B541600446FAF701FD20607C
:207E000010BD10B50446FAF7FBFC2368C3F1010303446068834294BF0020012010BD10B561
:207E20000446FFF7EEFF18B194E80C001344236010BD00230360704700687047006800B9A0
:207E4000704703680BB11846FBE77047036810B573B1002499421A6806D10CB9026000E09A
:207E6000226000221A6010BD1C460AB11346F1E710BD38B50546FFF7E9FF00230B60FFF762
:207E8000DDFF08B9296038BD016038BD0368002013B101301B68FBE7704700B10068704705
:207EA00010B50446428800214068FFF735FC23886288A0685A43BDE810400021FFF72CBCCB
:207EC00010B5418800238B420CDA4268D418D25C32B9012222700288806803FB020010BD9B
:207EE0000133F0E7002010BD30B5826844880023A3420BDA8A4205D14268D15C31B1002087
:207F0000D05430BD058801332A44F1E74FF0FF3030BD82688A4208D84388008800FB0320E7
:207F200081422CBF002001207047002070470023013A0160027143718371704710B54279B3
:207F400083790479D31A34EA030308D00368995443795A1C037913404371012010BD0020A4
:207F600010BD837942790179D21A0A421FBF0268D25C01330B401ABF837110464FF0FF3045
:207F8000704790F845200121D3081B0303F1804302F0070203F5592301FA02F253F8223070
:207FA00090F844000BB180F0010070471F2811D8C3081B03012103F1804300F0070203F52E
:207FC000592301FA02F253F82210B1FA81F14909FFF76FBE7047006800F19C018230FCF7D5
:207FE0002DBD0822FFF722BB08B50822FFF7ECFAB0FA80F0400908BD30B40D4604461146D7
:2080000020B11A462846234630BC184730BC704730B591B0FCF77EFC0446FCF769FC6A4685
:2080200001462046FCF72EFE044610B94FF0FF3036E0FCF73FFC0028F8D09DF810100C20DE
:20804000FCF720FD9DF813100820FCF71BFD9DF81730ABB1BDF81C50FCF70EFE854205D031
:208060004FF6FF73BDF81C209A42DFD169469DF8170000F0F4F818B969460E20FCF710FDE7
:2080800002A90D20FCF70CFD9DF8153013B99DF81A1001E04FF6FF710720FCF7F3FC2046A2
:2080A00011B030BDF8B50E461446054600283AD0002A38D00C20A84700232074A37416B158
:2080C000E374637503E00820A8476675E0740920A847002701232376A07567740720A84746
:2080E000A076FCF7C9FDE0830A20A847012816BF032367766376FCF7BFFDA0830B20A8476F
:20810000012801D1002303E00EB1022300E00323E375637E022B02D0E37D022B01D10123B9
:2081200000E000232375F8BD0120FCF73DBD0020FCF73ABD30B500284ED0037A022B2ED103
:20814000C479437A057914B983B9012D0AE003B975B1032C0ED1032B03D1002D3AD101203B
:2081600019E0022B14BF0020012008E0204606E0012005E0022CF4D1181C18BF012005BBAC
:208180000CB1022C05D1023B012B8CBF002301231BE0032C15D19C1E6342634115E00378A0
:2081A000022B10D003792BB9437A13F0030318BF012300E00023C07910F0030018BF01205A
:2081C00003E0002301E00020034601B10B601AB1106030BD0020D2E730BD37B50D460446BB
:2081E000002106222846FFF797FA637DD9075CBF01232B70237E012B0DD8E37D9A0708D01C
:20820000637E9B0705D0E28BA38B9A4201D1012300E00023237501AA694604F11000FFF7A9
:2082200089FF009B0BB10223EB70019B0BB102236B70E37D03F00303022B03D0032B0CBF35
:2082400008230023AB70637E03F00303022B03D0032B0CBF082300232B7103B030BD02282E
:208260000CBF022308230B448B4205D013F8012DFF2AF9D0002070470120704707B56946AD
:20828000FFF7ABFF9DF800009DF80130023018449DF802309DF8032018449DF8043010445D
:2082A00003449DF80500184403B05DF804FB837810B544781B01E40003F0100304F00804F8
:2082C0001C43C2780378520103F00703234302F020021A4303799B0103F0400313430B7044
:2082E0004379427A847903F0010343EA8213C279640004F002049200234302F00C021A4362
:20830000037A1B0103F0300313434B7010BDF7B504460D466946FFF760FF04F110002946FF
:20832000FFF7C5FF9DF80030012B02BFA37E0320AB709DF8013018BF0220022B08D1A28B80
:20834000431C2A54A28BDBB20230120AC0B2EA5401469DF80230E218A24205D012F8017D3F
:208360004E1C6F54F1B2F7E718449DF80330C0B2022B08D1E28B431C2A54E28BDBB202303D
:20838000120AC0B2EA549DF804301844C0B2C21AD2B223B1013BE118097AA954F7E703B000
:2083A000F0BD1FB502461378084603F007018DF80410C3F3C0018DF80510C3F300118DF82A
:2083C0000610C3F34011C3F380138DF8083053788DF8071003F001028DF80920C3F3400277
:2083E0008DF80A20C3F381028DF80B20C3F301128DF80C209B090A2201A98DF80D30FFF739
:2084000015F905B05DF804FB08B5084612B11146FFF780FC002008BD10B50446FFF772FC56
:20842000204610BD0120704710B50446FAF742F82046FAF75BF80446FAF752F8E0B210BD69
:2084400008B53D20FFF7F0FF00F0700008BD38B504460D46FAF72EF814F43C5FE4B202D04C
:208460002F20FAF743F82046FAF740F82846FAF73DF80446FAF734F8E0B238BD10B5044661
:20848000FAF718F814F43C5F04D0AF20FAF72EF8E0B202E064F07F00C0B2FAF727F8002095
:2084A000FAF724F80446FAF71BF8E0B210BD0C2805D1042A05D121B10020086070470120C2
:2084C00070470220704710B5FAF7C8F80420FCF7FFFF0320FCF7FCFFFFF7B2FFB8B16028D8
:2084E00001D13A2002E0702802D13B20FFF79CFF3620FFF799FFFAF7BBF96FF4A374241AD6
:20850000FFF79EFF18B1FAF7B3F9C442F8D410BD38B50D460446F9F7CDFFFF20F9F7E6FF89
:208520002A4620460021F9F7F3FFBDE83840F9F7D7BF38B50D460446F9F7BCFF7F20F9F7FB
:20854000D5FF2A4621460020F9F7E2FFBDE83840F9F7C6BF10B50C46FDF7CEF820B92046DD
:20856000BDE81040FDF7BABC10BDFDF7E9BF7047002070477047012070470120704701201D
:208580007047002070470020704770477047002070470020704701207047012070477047F3
:2085A0007047704700207047002070477047000001000000010000000100000000C00040E5
:2085C00000410D4000000000080000002C00000000000001FFFFFFFF0500000002000000D5
:2085E000020000000200000000D0004008410D4002000000080000002C0000000201020096
:20860000FFFFFFFF060000000080004010410D4004000000030000000201020101010300E8
:208620000090004020410D4008000000070000000202040205020600C98920003D7D20004A
:20864000357D2000397D2000DD892000797D2000717D2000757D20002F812000298120001C
:2086600011802000608D200078882000D00000006606000047010000350000000D00000056
:2086800000000000952B0D00400D030000210EA5AF00000050C3000048892000CD5F2000EA
:2086A000F9562000DD5E20005585200091562000455E2000615620001D5620009D582000AD
:2086C000015B2000195D2000895C2000AF84200025842000928D2000396220006B8520005D
:2086E00059622000E5612000F1612000FD6120003F8C2000A1662000F9662000AD66200085
:20870000978D2000AD8520006F852000A5852000A9852000938520007185200075852000AF
:20872000978520009B8520009F852000A1852000778520007B8520007F85200083852000AB
:20874000878520008B852000A38520008D8520008F852000D0450020B0450020C0450020A0
:20876000E045002000000000002020202020202020202828282828202020202020202020AC
:20878000202020202020202020881010101010101010101010101010100404040404040425
:2087A0000404041010101010101041414141414101010101010101010101010101010101A7
:2087C000010101011010101010104242424242420202020202020202020202020202020289
:2087E000020202021010101020000000000000000000000000000000000000000000000011
:20880000000000000000000000000000000000000000000000000000000000000000000058
:20882000000000000000000000000000000000000000000000000000000000000000000038
:20884000000000000000000000000000000000000000000000000000000000000000000018
:208860000000000000000000000000004300000000000000000000000100060004006E003C
:2088800005004E000600900007004E000800E500090023000A0047000B000B000C005600B8
:2088A0000D0019000E00BA000F00C8001000840011004200120005001300940014007A00C0
:2088C0001500E100160027001700F1001B0011001C0090001D0000002000120026002400EC
:2088E000280020002E00FF00002F1800022F0300052F02000C2F56000D2FCC000E2FCC00B0
:20890000102FEE00112F1000122F0400132F5000162F4000172F0E00192F03001B2F330062
