:020000040020DA
:20200000C05A00201D322000A38F2000A18F2000A18F2000A18F2000A18F20000000000085
:20202000000000000000000000000000A18F2000A18F200000000000A18F200001912000FE
:2020400013912000199120001F9120002591200000000000079120000D912000A18F200086
:20206000A18F20000000000000000000000000000000000000000000A18F200000000000C0
:202080000000000000000000A18F2000A18F2000A18F2000A18F2000A18F2000A18F200060
:2020A000A18F2000A18F2000A18F2000A18F2000A18F2000A18F2000A18F2000A18F2000A0
:2020C000A18F2000A18F2000A18F2000A18F2000A18F200000000000000000000000000070
:2020E000000000000000000000000000000000000000000000000000F54820000549200015
:202100000000000000000000000000000000000000000000000000000000000000000000BF
:2021200000000000000000000000000000000000000000000000000000000000000000009F
:2021400000000000000000000000000000000000000000000000000000000000000000007F
:2021600000000000000000000000000000000000000000000000000000000000000000005F
:2021800000000000000000000000000000000000000000000000000000000000000000003F
:2021A00000000000000000000000000000000000000000000000000000000000000000001F
:2021C0000000000000000000000000000000000000000000000000000000000000000000FF
:2021E0000000000000000000000000000000000000000000000000000000000000000000DF
:202200000000000000000000000000000000000000000000000000000000000000000000BE
:2022200000000000000000000000000000000000000000000000000000000000000000009E
:2022400000000000000000000000000000000000000000000000000000000000000000007E
:2022600000000000000000000000000000000000A18F2000D9472000FD472000093C200005
:20228000F54A2000B5372000A18F2000000000002DE9F04FCA4E85B08346308806F022FA4E
:2022A000C84D0446288806F021FA0146204606F025FB0446708806F015FA0746688806F0C1
:2022C00015FA0146384606F019FB8046B08806F009FA0646A88806F009FA0146304606F001
:2022E0000DFBB94B05461E680393012E0ED1B74F3B782BB901F02AF80028C0F289813E701B
:2023000001F03EF8002880F2BD8083E1022E40F0868101F069F80821062006F04FFE0A21E5
:202320008046062006F04AFE0C210746062006F045FE0546012000F091FF0446304600F0FE
:202340008DFF0646032000F089FF8246204606F0CDF98146404606F0C9F90146484606F050
:20236000CDFA05F0CBFDCDE90001404605F0B4FD02460B4674A1D1E9000105F05FFC0246F5
:202380000B46DDE9000105F00DFE80462046894605F0A2FD02460B466BA1D1E9000105F041
:2023A0004DFC02460B464046494605F025FF06F093F80446304606F099F98046384606F00A
:2023C00095F90146404606F099FA05F097FD80463846894605F080FD02460B465AA1D1E9BD
:2023E000000105F02BFC02460B464046494605F0D9FD80463046894605F06EFD02460B4643
:2024000051A1D1E9000105F019FC02460B464046494605F0F1FE06F05FF88046504606F0D4
:2024200065F90646284606F061F90146304606F065FA05F063FD064628460F4605F04CFD80
:2024400002460B4640A1D1E9000105F0F7FB02460B463046394605F0A5FD064650460F4604
:2024600005F03AFD02460B4637A1D1E9000105F0E5FB02460B463046394605F0BDFE06F0FB
:202480002BF80546BBF1070F00F2B380DFE80BF004101C2A36424EA0404605F02FFD2CA3EF
:2024A000D3E9002305F0B4F82BA3D3E900239AE0284605F023FD2AA3D3E9002305F0A8F8B1
:2024C00029A3D3E900230AE0204605F017FD28A3D3E9002305F09CF827A3D3E9002305F027
:2024E0008BFE82E0204605F009FD25A3D3E9002305F08EF824A3D3E9002374E0204605F019
:20250000FDFC23A3D3E9002305F082F822A3D3E9002368E0404605F0F1FC21A3D3E90023B7
:2025200005F076F820A3D3E900235CE0404605F0E5FC1FA3D3E9002305F06AF81EA3D3E989
:20254000002350E0AFF300800000000000F88F4077BE9F1A2FDDF2BF0AD7A3703D8A114088
:20256000E9263108AC1CF03FEC51B81E856B1B40B81E85EB51B8FABF85EB51B81E85F73F64
:20258000BE9F1A2FDD2404C05A643BDF4FD18140B4C876BE9F1A01C0C1CAA145B6E178402D
:2025A000C1CAA145B67311C02DB29DEFA7B78340CDCCCCCCCCCCFCBF5C8FC2F5285CE73F54
:2025C000645200206C520020745200206A520020404605F093FC20A3D3E9002305F018F8D4
:2025E0001FA3D3E9002305F0DDFC05F075FF044600E00024039B1B68022B03D100F002FFA2
:2026000000E00024204604F0E9FF30B120461DE015481BE04FF0404018E0144816E0BBF123
:20262000070FEED801A353F82BF000BF99242000B1242000C9242000E5242000FD242000AC
:20264000152520002D252000D125200005B0BDE8F08F00BFAFF30080A245B6F3FDD4F8BFC6
:20266000C1CAA145B6F3F93F000080BF000040C02DE9F04F23F0004858EA020993B03CD07D
:20268000714C21F00046A64283460D460CDD06F1404606F5801656EA0B0038D183466B495A
:2026A000584613B0BDE8F08F9A4696462BD0A045EDDC654CA04578D0002D0F468146CDE953
:2026C000002376DB0024BEF1000F27D15E4B984500F08B805D4B984552D0BAF1804F00F01A
:2026E000C9835B4B9A4519D1002D17DB4846394613B0BDE8F04F05F009B9CB46584653494A
:2027000013B0BDE8F08F0028C1D1B045D1DD514813B0BDE8F04F05F0EFB900244846394667
:2027200004F058FFBBF1000F1CD0ED0F013D54EA050370D0484B984540F3948003F10473C5
:20274000984540F30D84454B9E4270DDBAF1000F70DD3BA3D3E900231046194605F022FC8F
:2027600083469DE726B1394B25F040429A42DCD1BAF1000FC0F2B783002D08DB83468FE79C
:20278000BAF1000FC0F25E84CB46394688E706F1404606F5801656EA040300F08384012C73
:2027A000ECD101F1004183467AE7BEF1000F83D06DE72B4B98452CDCA3F15473984581DDA9
:2027C0004FEA2853A3F2FF33142B40F35384C3F134032EFA03F202FA03F39E457FF472AFC4
:2027E00002F00102C2F102046DE706F1404303F5801353EA0B0300F03A83184B9E4240F364
:202800006783BAF1000F15DBDDE900349B46214646E7022457E74A4648463B46394605F03E
:202820000DFA02460B4605F0E7FC834638E7BAF1000F8EDB4FF0000B594631E7AFF30080F2
:202840009C7500883CE4377E0000F07F0000F03F0000E03FC49A20000000E041FFFFEF3F82
:20286000FFFF3F43B6F5801F4FF0000205DAD04B05F098FB0E466FF03402DFF844E333159C
:20288000C6F31306A3F2FF3346F07F57764503EB020A47F4401740F3C983C64B00229E42BA
:2028A00040F304840023CDE90823CDE90C23C24B0022CDE906230AF1010AA7F58017002607
:2028C0003946DDE90623CDE90A0105F0B7F9DDE9062380468946DDE90A0105F0B1F90246E8
:2028E0000B460020B44905F087FC0A4601461346CDE90E1202464946404605F053FB8C46BA
:2029000083467B1043F0005303F5002399190020CDE904BC06460F464FF0000B614658464A
:2029200032463B46CDE910BCCDE9020105F03AFB02460B464046494605F080F9DDE906232E
:20294000804689463046394605F078F902460B46DDE90A0105F072F9DDE9022305F022FBC0
:2029600002460B464046494605F068F9DDE90E2305F018FBDDE90478CDE906013A4643464C
:202980003846414605F00EFB77A3D3E9002306460F4605F007FB76A3D3E9002305F050F96D
:2029A00032463B4605F0FEFA73A3D3E9002305F047F932463B4605F0F5FA71A3D3E9002337
:2029C00005F03EF932463B4605F0ECFA6EA3D3E9002305F035F932463B4605F0E3FA6CA30A
:2029E000D3E9002305F02CF93246804689463B463046394605F0D6FA02460B4640464946E8
:202A000005F0D0FADDE9022306460F46DDE9040105F016F9DDE9062305F0C4FA32463B4601
:202A200005F00EF9DDE902678046894632463B463046394605F0B6FA0022604BCDE90A01B5
:202A400005F0FEF842464B4605F0FAF8DDE910BC0F46DDE902015A463B46CDE90EBC5E4696
:202A600005F0A0FA0022CDE90201544B3046394605F0E4F8DDE90A2305F0E0F802460B462E
:202A80004046494605F0DAF8DDE9042305F08AFA324680468946DDE906013B4605F082FA28
:202AA00002460B464046494605F0CAF88046894602460B46DDE9020105F0C2F8DDE90EBC7B
:202AC00035A3D3E900235846CDE906BC5E460F4605F068FADDE90223CDE90401304639463E
:202AE00005F0ACF802460B464046494605F0A6F82BA3D3E9002305F055FA2BA3D3E900235E
:202B0000804689463046394605F04CFA02460B464046494605F094F8DDE90C2305F090F84F
:202B200080465046894605F0D7F906460F46DDE9040142464B4605F083F8DDE9082305F0CA
:202B40007FF832463B4605F07BF8DDE906BC324658463B46DA468B4605F070F8DDE908233F
:202B600030E000BFAFF30080EF4E454A287ECA3F65DBC9934A86CD3F01411DA96074D13F85
:202B80004D268F515555D53FFFAB6FDBB66DDB3F033333333333E33F000000E009C7EE3FF2
:202BA000FD033ADC09C7EE3FF5015B14E02F3EBE0000404379B60B000000F03F000008405E
:202BC0008E98030005F03AF8DDE9042305F036F802460B464046494605F030F88046894635
:202BE000DDE90012013C54EA050314BFD64CD74C0023CDE904340B461446CDE90234002397
:202C00000293DDE9024508462B461146224605F015F852465B4605F0C5F9DDE90023064671
:202C20000F464046494605F0BDF902460B463046394605F005F806460F4622462B465046EF
:202C40005946CDE9006705F0ADF90B460246804689463046394604F0F3FFBD4B06469942E5
:202C60000D460C4640F30E8101F13F4303F5E003034340F0F081A0A3D3E90023DDE90001CE
:202C800004F0DEFF424682468B464B463046294604F0D4FF02460B465046594605F012FC34
:202CA000002840F0D8812F463B154FF48012A3F2FE3342FA03F32344C3F30A52A54EA2F2D1
:202CC000FF321641C3F3130B0020C2F1140523EA06014BF4801B02460B46002C4BFA05FBB4
:202CE00040464946B8BFCBF1000B04F0A7FF02460B4680468946DDE9000104F0A1FF4FEA25
:202D00000B5A00247EA3D3E9002320460D4605F049F9424606460F464B462046294604F0B7
:202D20008DFF02460B46DDE9000104F087FF76A3D3E9002305F036F975A3D3E90023804654
:202D400089462046294605F02DF902460B464046494604F075FF8046894602460B463046FA
:202D6000394604F06DFF32463B4604460D4604F065FF02460B464046494604F05FFF22461E
:202D8000804689462B462046294605F00BF962A3D3E9002306460F4605F004F960A3D3E929
:202DA000002304F04BFF32463B4605F0FBF85EA3D3E9002304F044FF32463B4605F0F2F8E2
:202DC0005BA3D3E9002304F039FF32463B4605F0E9F859A3D3E9002304F032FF32463B4622
:202DE00005F0E0F802460B462046294604F026FF06460F4602460B462046294605F0D2F8B1
:202E00000022CDE900014FF080433046394604F015FF02460B46DDE9000105F0EDF9424617
:202E200006460F464B462046294605F0BBF842464B4604F005FF02460B463046394604F050
:202E4000FDFE22462B4604F0F9FE02460B4600203D4904F0F3FE8A44BAF5801FC0F2378109
:202E60005146DDE9042305F09DF8834618E4F346354915E44A4648463B46394605F092F832
:202E800083460DE4344B21F000479F4240F30181324B0B4403430CD142464B4604F0CEFE43
:202EA00002460B46DDE9000105F0F8FA00283FF4FBAE23A3D3E90023DDE9040105F072F8F8
:202EC0001FA3D3E9002305F06DF88346FFF7E8BBBAF1000FBFF6AEACDDE900349B4604F1FC
:202EE0000041FFF7DDBB02460B460020164905F083F941E4AFF30080FE822B654715973CF4
:202F000000000000432EE63FEF39FAFE422EE63F396CA80C615C20BED0A4BE726937663E8A
:202F2000F16BD2C541BDBB3E2CDE25AF6A56113F93BDBE166CC1663F3E5555555555C53FD8
:202F400059F3F8C21F6EA5010000F03F0000F0BFFFFF8F40FFFF0F00FFCB904000346F3F04
:202F60006F4B9E427FF763AC6E4B9E423FF7EEAB00226C4B04F062FE5BA3D3E90023064674
:202F80000F4605F00FF85AA3D3E90023804689463046394605F006F8002282468B46624B1F
:202FA0003046394604F0FEFF02460B4652A1D1E9000104F043FE32463B4604F0F3FF024688
:202FC0000B460020594904F039FE3246CDE902013B463046394604F0E5FF02460B46DDE9D5
:202FE000020104F0DFFF46A3D3E9002304F0DAFF02460B465046594604F020FE02460B46EE
:2030000006460F464046494604F01AFE42464B46002082468B4604F011FE02460B4630460A
:20302000394604F00BFE80468946D9E500220023CDE90823CDE90C233A4B00220026CDE933
:2030400006233DE44A463B460020364905F0D4F88346FFF725BB2CA3D3E90023DDE904019D
:2030600004F0A0FF28A3D3E9002304F09BFF8346FFF716BBBEF1000F7FF44FABC3F11403FF
:2030800048FA03F202FA03F3984524D07446FFF721BB264B9F423FF707AEDDE902349A4691
:2030A0009B462EE602460B46FFF7B9BB204B4FF48026CDE9062316A3D3E90023CDE908236C
:2030C00015A3D3E90023CDE90C23FFF7F9BB5A4600F032F8C5E602F00102C2F10204FFF7C1
:2030E000F9BA00BFAFF30080000000604715F73F44DF5DF80BAE543E555555555555D53F75
:20310000FE822B654715F73F9C7500883CE4377E0000004003B8E23F06D0CF43EBFD4C3E29
:20312000FEFFEF3F0000F03F0000D03F0000E03F0000F83F00000000F8B5C1F30A560446C5
:203140000D460B46174606BB21F00043034325D000222F4B04F026FF2E4A044697420D467B
:203160000B462ADBC1F30A56363E40F2FE723E44964228DC002E12DD23F0FF4323F4E00305
:2031800043EA065520462946F8BD40F2FF729642EBD102460B4604F053FDF8BDF8BD16F198
:2031A000350F1DDA4CF250339F420CDC14A1D1E9000122462B4604F035FD11A3D3E9002348
:2031C00004F0F0FEF8BD22460FA1D1E900012B4604F028FD0CA3D3E9002304F0E3FEF8BDE3
:2031E00023F0FF4323F4E003363643EA0655204629460022084B04F0D5FEF8BDAFF30080A4
:2032000059F3F8C21F6EA5019C7500883CE4377E00005043B03CFFFF0000903C08B5094BAD
:20322000FF221A600848094A4824E369121A084998470848084AA369121A0021984701F071
:2032400001FEFEE7B4200D4040400020CD450020D0A32000D0450020BC52002013B504468F
:2032600001F090FC2146042001F024FD08B100201DE001F009FD0028FBD1022201A9042081
:2032800001F094FD0028F2D1BDF80400022C40BA80B205D0032C05D0012C08D1054B02E09D
:2032A000054B00E0054B08B1186000E0188802B010BD00BF4C520020485200204452002071
:2032C00038B50021062005F079FE40F2664398420A4D03D102242C6009480AE0002106203A
:2032E00005F06CFE0146074803F0F2FA012406482C6003F0EDFA204638BD00BF7452002021
:20330000DE9A2000EB9A2000FB9A200013B5044601F038FC094B02221146009310460323A6
:2033200001F046FC064B1C70FFF7CAFF054B00221860054B1A7002B010BD00BFA086010095
:2033400078520020745200206A52002010B5112005F062FE00280EDD084C2080122005F048
:203360005BFE002807DD6080132005F055FE0028C4BFA080012000B210BD00BF6C52002085
:2033800010B5012005F048FE00280EDB084C2080022005F041FE002807DB6080032005F0AF
:2033A0003BFE0028A4BFA080002000B210BD00BF64520020094B1A68012A02D1212005F0EB
:2033C000F3BD022A08D106490B230B7001234B70044B187805F013BE704700BF7452002060
:2033E000505200207852002004490A230B7001234B70034B0222187801F08CBC5052002050
:203400007852002004490A230B7000234B70034B0222187801F07EBC505200207852002016
:2034200008B5002000F024FA012000F021FA0D49002000F0F1FA02F0BFFB002002F000FA6C
:2034400001F0F0F900F008FC00F024FC0821064801F068FB02F0C4FA62B6BDE808400420EA
:2034600005F003BE755B2000AC52002073B51A4B1B68022B08DD1949194A1A4803F028FA2A
:2034800019491A4803F024FA6846082101F04AFB174E9DF807309DF80650F46A43EA052579
:2034A0004AF6CD310220A04729460320A04711210120A047736B082269460B20984705F05C
:2034C0000CFE00F0B3F800210A4802F079F8022005F0CBFD02B070BDDC440020159D2000A1
:2034E000109D20001A9D2000299D2000D59D200058992000104500200022F0B51746154CA5
:203500000125FF2640FA02F3DB071ED504EB4203597814F8123061B1D908090301F1804157
:2035200003F0070301F5592105FA03F341F823700BE0D908090301F1804103F0070301F5DF
:20354000592105FA03F341F823600132032AD9D1F0BD00BF4E9D2000F0B5104C0021012577
:20356000FF2640FA01F3DB0714D504EB41035F7814F81130DA08120302F1804203F007032D
:2035800002F5592205FA03F317B142F8236001E042F8237001310329E3D1F0BD4E9D2000C7
:2035A00070B40E4E0022012516F812300C49D80800030C5803F0070305FA03F324EA030450
:2035C0000C5020390144086801320343032A0B60EAD170BC0720FFF7BFBF00BF4E9D200024
:2035E00020940D40084A136823F00403136052F8203C43F0040342F8203C044B00221A600F
:20360000034B01221A70704720C40D4010C00D40B0500020044B1868C0F30720030904BF12
:203620001030C0B2704700BF1C300D4008B5FFF7F1FF014B1B6808BD1C300D40F8B500F05C
:2036400077F80F4B0024D3E900673A46B04238BF7A1C15460443C3E90045DFF828E0DEE922
:203660000001821B61EB070312196B41CEE9002301F0BEFD18B1BDE8F84001F03DBDF8BDB3
:20368000D0450020D84500200D4B0E4AE0215A600D4A82F82310002207219A6019600B4938
:2036A0000B6843F001030B60094B1A60042243F80C2C012243F8082C0F22DA62704700BF19
:2036C00010E000E047E8010000ED00E008200D400C000340034BD3E90023100A40EA036085
:2036E000704700BFD0450020054B18601C3B1A6842F001021A601A68D207FCD4704700BF2E
:203700002800034010B5064C236823F001032360FFF794FF236843F00103236010BD00BFA8
:2037200010E000E0014B1868704700BFE0450020074B084A196804331B681268120442EA97
:203740000323054A0B43106843EA0060704700BF40500D4048500D404C500D4010B5044671
:20376000104A1368DB07FCD572B6FFF7E1FF231A062BD8BFC41D0C4B220E1A60C4F30742DC
:2037800043F8042CC4F3072243F8082CE2B243F80C2C62B6054B1C60054B4FF400321A6144
:2037A00010BD00BF50500D404C500D40E045002000E100E008B501F0EFF8094B00221A601C
:2037C000084B4FF40032C3F89021C3F89020BFF34F8FBFF36F8FBDE8084001F015BF00BF99
:2037E000E045002000E100E0064B1B681B075FBF054B186880F00800C0F3C00048BF0020CD
:20380000704700BF18C0004018D00040164A2C2303FB00234FF6BF7270B5DC680546236C69
:2038200062649BB213F050020DD0104EA369DB0608D456F825301BB12068C0B29847F5E7F8
:203840002368F3E770BD13F4D06F0BD04FF440732363FF236360E36AE262E362236B43F0BD
:203860000103236370BD00BF00992000E445002001282DE9F74F064600F2BD802C254543F7
:203880005E4B5C1994F920909846B9F1000FC0F2B28094F92230002BC0F2AD80584801F0D8
:2038A00005F9584A58F805301168E5680B4313605168636894F921A00B4353609168A36885
:2038C00094F822700B4393600023C5F8C83F23690AEBC9021A6094F823305FFA87FB00938F
:2038E0009DF80030227D19465846019300F03EF9019B08221946584600F02EF97FB2424B14
:203900003F039DF90020F9584FF0010E0EFA02F20A43FA504FEA093959F803100EFA0AF29A
:203920000A4349F803205022AA63AA6B94F8240042F4D062AA6302226A634FF440722A63AA
:20394000A2696A62E269AA627022EA6242B2002A1D4617DB94F925302C4943EAC2030B6034
:2039600094F82510120353594CB20EFA04FE4EEA03035351002200F0EFF8254A136843F4C1
:20398000004313602C2303FB068393F826904FFA89F4002C1CDB93F827705FFA89F95FFA1B
:2039A00087FA012251464846240300F0DFF87FB26359012202FA07F71F430822675151466B
:2039C000484600F0C9F8124A136843F4804313602C2303FB0686F268136B43F00103136306
:2039E00096F828300122590903F01F0302FA03F3084A42F8213003B0BDE8F08F00992000E8
:203A0000E937200028200D4020940D4004410D4030D0004000E100E001289CBF014B43F832
:203A200020107047E4450020012808D8044B2C2202FB0030C3689A699206FCD419607047BD
:203A400000992000014B00221A60704700500D40014B08221A60704700500D40024BA0221E
:203A60001A6050221A60704700500D40014B024A9A60704700ED00E00020200038B5164DE6
:203A8000164C2B68012223F040032B602368062123F040032360032000F05EF82B68012283
:203AA00023F080032B602368072123F080032360032000F051F80A4A0A4B0B491A600A68D4
:203AC0000A4B1340084A002BF9D113685901FCD413685B01FCD538BD20C40D4000C40D4073
:203AE0000101020000200D4004200D40000001012DE9F84304464FEA0438DFF83C9008F136
:203B0000804606F5592600F047FFD6F8187458F80930E50023FA05F447EA0400C0B2E4B214
:203B2000A840FFB2AC4002F05FF8C6F81C7448F80940BDE8F88300BF18970D40034A044B69
:203B40001A60044B803A1A60704700BF80400D40F0450020EC450020034B01EBC0011B68C1
:203B600043F82120704700BFF0450020034B01EBC0011B6843F82120704700BFEC4500203D
:203B80000E2870B50BD1164B164E1C6844F002051D60356825F03F0343F001033360124ECF
:203BA000336823F0FF031A43114301430F4A316013681B06FCD50E4B0E4A1B6812680E2825
:203BC00003F0FC0343EA022308BF064A9BB204BF1560034A9BB208BF146018B270BD00BF7A
:203BE00034000144F486084008700D4000700D400C700D4010700D40024B1868B0FA80F08B
:203C00004009704700B70840094B4FF4004210B5C3F89021C3F89020BFF34F8FBFF36F8FF0
:203C2000044C206818B101F0E3FC0023236010BD00E100E0F4450020064A136843F0020383
:203C40001360536843F002035360936843F002039360704748200D4007B50C4800F026FF94
:203C6000FFF7EAFF0A4B1A6842F002021A6000220192019A0F2A02DC019A0132F8E71A6848
:203C800022F002021A6003B05DF804FBF93B200054200D40064A136823F002031360536867
:203CA00023F002035360936823F002039360704748200D402DE9F0410E464FEAD0084FEAE2
:203CC000083400F00701012704F180448F4016F00C0304F559246FEA070505D1D4F810342A
:203CE0002B40C4F810342DE0042B0DD1D4F804342B40C4F80434D4F808342B40C4F8083471
:203D0000D4F80C343B430EE0082B0FD1D4F804342B40C4F80434D4F808342B40C4F808344A
:203D2000D4F80C342B40C4F80C340BE00C2B09D1D4F804342B40C4F80434D4F808343B432B
:203D4000C4F8083416F0030204D0022A02D0012A03D104224046FFF7FFFE16F0800605D18E
:203D6000D4F810342B40C4F810340AE04EB1D4F810341F43C4F81074054A012303FA08F3C2
:203D80001360D4F820341D40C4F82054BDE8F08100E100E0044B186800F02200A0F1200397
:203DA00058425841704700BF4C860840024B186800F04000704700BF4C8608402DE9F0416C
:203DC00007468846FFF7B4FC0F4BDA5D7AB10F490F4A51F8276002EBC702861BD2E900458E
:203DE000A41945F10005C2E900450022DA5513F8083033B9054B012243F82800024B03F83D
:203E00000820BDE8F08100BF2852002030520020005200200B280DD1082A0DD161B1074B72
:203E2000074A083111F8010D43F8040F9342F9D1002070470120704702207047A4850840FB
:203E4000C485084070B52F4E336813F0400307D02D4D2B68DCB21B0604D52C4BED221A60E2
:203E6000002070BD042CF8D9023C8C42F5DCE4B2032C21D001190139032000F0F5FC631E88
:203E800023491B011943032000F0F8FC032000F0FFFC032000F014FD032000F01DFD0028B0
:203EA000FAD129681B4B4939C9B219702B681A4D18062B70D1D506E02B6803702B6843702F
:203EC0002B688370EDE749B289B2042001F0EAFF2978032001F07F0101F0E4FF0F4B1B785E
:203EE0006BB933685A060AD5064B1B681B0603D50B4801F07DFB02E0044BED221A6020461B
:203F000070BD00BF4C860840288808403888084002C0010CB3500020B1500020B450002064
:203F2000CC4400200B282DE9F84F0E4610D1082A40F0828000297FD0414B424A4E1E53F8E1
:203F4000041D934206F8011FF9D10020BDE8F88F0C286ED1042A6FD100296DD03A4B3B48E8
:203F60001A68DFF8F8C022F007021A600268DFF8F0A042F008020260DAF80040DCF8001036
:203F80001A68DFF8E0E022F07002314F1A60DEF800203D68E4B2090244EA056401F47F4102
:203FA0001204214302F47F020A432A490024D1F800805FFA88F544EA02081A68A94622F052
:203FC000070242F001021A60026842F008020260DAF80000DCF800201D68C0B225F07005DA
:203FE00045F010051D60DEF800303D68120240EA056002F47F421B04024303F47F031343C2
:204000000A6844EA030A5FFA82FBFFF791FBB8EB0A0869EB0B094FEAC93105460E4A002385
:204020004FEAC83041EA584104F02AFD281A30608BE70120BDE8F88F0220BDE8F88F00BFD2
:20404000C8850840A88508401088084004880840208808401C8808400048E80118880840AD
:20406000148808402488084010B5154A13689907FCD4134B1B685B065EBF124BED221A6014
:20408000114B1B6813B10F4BEF221A600F4A104C137803F07F031370237973B1FFF748FB67
:2040A0000C4B0D491B69C01AD1E90823121843F10003C1E9082300232371012010BD00BF76
:2040C0004C860840388808402C860840B550002028520020305200200052002010B50C4BD5
:2040E00093F90020002A08DB0A4AED211160E32111601A7862F07F021A70074C23792BB9FD
:20410000FFF716FB054B186101232371012010BDB5500020388808402852002030520020C0
:2041200010B50A4B04461B6813F03F0302D0FFF79BFF012304EB840205492C3A0A600BB17E
:20414000FFF7CCFF034B1C7010BD00BF488608403C860840CB45002038B50C46002900F090
:204160009780182800F29680DFE800F00D1A1F21283E475B60767A9494947F8158839485BA
:2041800087898B8D9000444B186810F0FF007BD0424B1B6813F0030F0CBF0123022301E0F4
:2041A0003F4B1B782360002038BD3E4B00E03E4B1A68043B1B6843EA0223F3E700230B605A
:2041C0003A4B364A1B6803F001030B601268920644BF43F002030B60354B1B78002BE2D04D
:2041E0000B6843F00403DDE7324B00201B780860002BD8D001230B6038BD2F4B2F491A68EB
:204200000023D2B201EBC3000079904203D82B4A52F83330C6E701330E2BF3D16FF01703A9
:20422000C0E7274B1B685BB2493BBBE7254B1B689B0603D1FFF752FF012200E00022224871
:20424000036859B28031FBD0493BDDB20AB1FFF70BFF6DB22560A6E71C4B93F90030A1E7C2
:204260001B4B1B7803F07F039CE70B239AE71A2398E7072396E7032394E7202392E70C23AF
:2042800090E708238EE70020206038BD7D2389E7022038BD012038BD2C8608402486084049
:2042A000CB450020CC850840D485084000860840B4500020CA45002040860840909920001C
:2042C000588608404886084060860840B3500020B150002010B50B4B1B68990603D1FFF729
:2042E000FDFE012300E0002307490A68D207FCD5064A1468C4F300140BB1FFF7B5FE2046CE
:2043000010BD00BF48860840648608404C8608407D2938B505460C4624D8134A13689B0709
:20432000FCD4124B93F90030002B01DBFFF7D6FE0F4BEE221A60691EA21C43F8102C2144BE
:20434000022000F089FA013C0A4924012143022000F094FA022000F09BFA022000F0B0FAAC
:20436000002038BD012038BD4C860840B55000203888084002C001C07D28F8B549D8274B63
:2043800093F90030002B0DDBFFF7D2F90546FFF7A5FE6FF00904641BFFF7CAF9C442FBD430
:2043A000012600E000261E4B1B7823B91D4C2368990604D405E0FFF78DFF0028F6D1022015
:2043C000F8BD03210420FFF7F9FC174BE9221F461A60042523689A0707D4013D15F0FF0532
:2043E00003D00620FFF780F9F4E723689B0703D4EE233B60012404E0206810F00200FBD16B
:20440000044604210320FFF7D9FC26B1FFF72CFE01E00120F8BD2046F8BD00BFB550002092
:20442000CA4500204C86084038880840234B1870002838D0224A13681B03FCD5214B1A6841
:2044400042F002021A601A6842F001021A601A681C495007FBD50A6822F001020A601968FB
:20446000184A4907FBD4116841F002011160116841F0010111601A685207FCD5124A1368FD
:2044800023F004031360D2F8A83123F00403C2F8A8310E4B4FF40052C3F89020BFF34F8F56
:2044A000BFF36F8F7047084A136843F004031360064B4FF400521A61704700BFB450002020
:2044C00004200D40048808408C86084000E100E02DE9F0412E4F3D7815F0010555D12D4B5A
:2044E00001241C605C609C60A3F59323A3F51473F8221A600922C3F89021152270331A6077
:2045000003F59B230B2203F59E731A60A3F59B23214EA3F5A6731C604023336033684FF073
:204520007F0843F0200333601C4BD5221D60C3F848809A631A4B1878FFF7F2FD336823F028
:204540000C033360174BC3F80080174B4FF480421A61022000F0A8F91449022000F084F99B
:20456000032000F0A1F91149032000F075F9104B1878FFF75BFF29460E4801F021F83B78F6
:20458000204623433B70BDE8F0810020BDE8F081B5500020A8200D40248608400886084056
:2045A000CB4500209486084000E100E028880840B4500020CC44002038B503880446CBB11E
:2045C00040F25D42934203D000230380032038BD194B18781A4628B11B7873B1174B1B78CB
:2045E00058060AD5822908D1137843B1134B1A78520614D440F25D432380012038BD01F0CF
:2046000007FC01F097FB8021FFF71CFC0028EDDD80B201F073FB0A4BDB689847E6E700227C
:204620001A70084B1D68FFF71FFDFFF751FFAB06E0D0FFF753FDDDE7B4500020B55000200C
:204640002C9A20004886084013B50C460D2800F2A380DFE800F007464E5259757B8FA1A13C
:20466000A1A1A195012939D011B9FFF7FDFC85E08B1E012B00F2928001A90020FFF76CFD6F
:20468000022C019B19D1022B78D05A1E53425341444A1370FFF7E8FC434B444A1968116057
:2046A00042221A60D3F8C010414A11601822C3F8C020E922C3F8142260E0022B5ED13D4B90
:2046C000EF221A60394B1A68374B1A60384B1A68394B1A60334B1B78002B4FD0FFF7FEFCFF
:2046E0004CE0A1F10B030F2B58D8C8B2FFF718FD44E08CB2E2B2314B02E08CB2304BE2B25E
:20470000240A1A605C6039E031F0070346D12D4B11F0010F1A68C1F3800014BF42F0010293
:2047200022F001021A60204B11F0020F1A6814BF42F0200222F020021A60FFF777FE1DE0AE
:2047400031F001002AD1204B197028E001F118031F2B23D81D490D2351F83300DA0084423C
:2047600004DC1A4B13441A79194B10E013F1FF33F2D203E0CCB2174B49341C6000200EE0F2
:2047800001290BD8084B1A6819B122F00C021A60F4E742F00C02FAE7012000E0022002B002
:2047A00010BD00BFB250002024860840FC450020F845002038880840E4860840C88508404C
:2047C000D085084000860840CA45002090992000408608405886084008B5054B1B7813B956
:2047E000044800F005FF044B00221A6008BD00BFB4500020CC44002034880840064B074812
:204800001A68042A1FBF06490A7842F040020A7000221A6000F0ECBE2C880840CC440020E9
:20482000B550002010B5094C40220021204604F069FB074B01221A605C60064B4FF48042F7
:204840005A604FF400425A6010BD00BF0040002004F00F4000E100E003289EBF014B00019A
:20486000195070470040002003289EBF024B03EB00104160704700BF0040002003289EBFE6
:20488000024B03EB00108160704700BF00400020032806D8034901220B6802FA00F01843E4
:2048A0000860704728F00F40032806D8034901220B6802FA00F018430860704720F00F40C2
:2048C000032806D8034901220B6802FA00F018430860704714F00F4003289FBF044B03EB6E
:2048E0000010806800F0070088BF0020704700BF00400020024B4FF0FF321A60704700BFDF
:2049000004F50F40014B01221A6070474CF00F40094A1368084913F4801FFAD1074B1A68C0
:2049200022F480321A600A68D203FCD41A6842F400321A60704700BF04200D4000200D4066
:204940002DE9F04107468846FEF7F2FE0F4BDA5D7AB10F490F4A51F8276002EBC702861B7C
:20496000D2E90045A41945F10005C2E900450022DA5513F8083033B9054B012243F82800F9
:20498000024B03F80820BDE8F08100BF28520020305200200052002010B50E4C23689A07D9
:2049A00017D00D490B680C4A13F0806FFAD113685B01FCD5FEF7A6FEFFF7AAFF20680021AB
:2049C00000F00300012818BF0220FFF7B9FF0023236010BD58200D4004200D4038B52D4B06
:2049E0001C6814F03F0413D12B4D55F8243023B1984768B10134052CF7D1284D2B783BB1F1
:204A0000FEF790FE0446FEF793FE201A092803D8BDE8384004F092BB002CF9D0204B2148D6
:204A20001A6822F400321A6002681E4912F4801FFAD11A6842F480321A600B68DB03FCD5EB
:204A4000FEF776FE201A092803D8BDE83840FFF75FBF6328144C02D92B78022B00D00123EC
:204A6000236000F07BFD054620B1FFF751FF0023236038BDFEF756FE0028F6D02168284620
:204A800001F00301012918BF0221FFF759FF30BF38BD00BF4886084000460020B65000206A
:204AA00000200D4004200D4058200D400749002351F82320824207D01AB9044A42F823003B
:204AC00070470133052BF3D1704700BF00460020054B00221A60054A136943F004031361B6
:204AE000034B02221A70704758200D4000ED00E0B6500020094B4FF4803210B5C3F89021D1
:204B0000C3F89020BFF34F8FBFF36F8F044C206818B100F06DFD0023236010BD00E100E0BB
:204B200014460020134B1B782BB101F5201127310138114B16E0114A1278122AF5D1104AE3
:204B400012784B2AF1D108448B420ADA03F52012032BD4BF2C3224321278013300F8012D14
:204B6000F2E77047994204D011F8012900F8012FF8E770472B002800270028002A00280011
:204B800029002800024A136843F01003136070472000024014235843034B044A0344B3FBC8
:204BA000F0F3013B13607047FF23F4000C0002402DE9F84306460F4614461D462A4ADFF84E
:204BC000B4901368DDF8208043F001031360D9F80030322043F00103C9F80030FEF784FD06
:204BE000D9F80030214A23F00103C9F8003030038158012303FA07F921EA0901815021030A
:204C000051F802C0AB402CEA030C41F802C0203250F802E049EA0E0E40F802E08858034373
:204C20008B50304639460022FEF796FF294620460022FEF791FF0E4B47EAC6021A6045EA81
:204C4000C4025A60394630460B22FEF78FFF204629460C22FEF78AFFFFF794FF4046BDE8FA
:204C6000F843FFF797BF00BF38200D4000940D402C410D4044200D40024B18600120FEF722
:204C800033BD00BF04000240024B186800F00100704700BF04000240054B1868C0B2C30799
:204CA00004D410F0120F08BF00207047002070470400024008B5074B400018609960072059
:204CC000FFF7DAFF044A1368DB07FCD4BDE80840FFF7E2BF00000240040002400A4B4000E9
:204CE00040F0010010B5186007200C46FFF7C4FF064A1368DB07FCD4FFF7CEFF10B9044BBC
:204D00001B68237010BD00BF0000024004000240080002402DE9F8430F461446002A3CD0E9
:204D200000293AD0012A04D1BDE8F8430978FFF7C1BF1B4A430013600B781A4E03203360AD
:204D4000FFF79AFF184A1368DFF85C8013F0010FF9D1FFF7A1FF70B9012504F1FF3914E051
:204D60003C4414F8013C05203360FFF785FFD8F80030DB07FBD4BDE8F843FFF78DBFD8F895
:204D80000030DA07FBD40135EDB2A945E8DD7B5D01203360FFF770FFF1E78020BDE8F88322
:204DA0000000024008000240040002402DE9F8430F461446002A3CD000293AD0012A03D1B9
:204DC000BDE8F843FFF78ABF1B4A430043F0010313600B20FFF750FF184A1368DFF85C8062
:204DE00013F0010FF9D1FFF757FFF0B9144E0125336804F1FF393B70A9450BDD0920FFF7F1
:204E00003BFFD8F80030DA07FBD433687B550135EDB2F1E70520FFF72FFFD8F80030DB0765
:204E2000FBD433683C4404F8013CBDE8F843FFF733BF8020BDE8F88300000240040002403F
:204E40000800024010B54F4C04F03BF9FEF71CFC04F0FDF900F028FB00214B4800F0B0FB27
:204E600000F034FAFEF7EEFD00F0D2F800F0E0FBFEF7D6FA00F0D0FE01F03EF800F0DAF942
:204E80002368022B07DD414A4149424801F020FD414801F01DFD2368022B09DD3C493B4A8D
:204EA0003C4801F015FD3D4B3D48196801F010FD2368022B09DD3649344A364801F008FDD0
:204EC000384B3948196801F003FD2368022B09DD2F492E4A2F4801F0FBFC344B34481968F3
:204EE00001F0F6FC2368022B09DD2949274A294801F0EEFC4AF6CD312E4801F0E9FC2368ED
:204F0000022B08DD2249214A224801F0E1FC1121294801F0DDFC2368022B09DD1C491B4A9C
:204F20001C4801F0D5FC254B2548198801F0D0FC2368022B07DD154A1549164801F0C8FCA4
:204F4000204801F0C5FC2368022B02DD1E4800F041F82368022B02DD1C4801F0B9FCFEF77B
:204F600085FA1B4804F04CF9FEF772FD00F0B4FA0446FEF773FD14F0FF0FF7D104F0ABF8F4
:204F8000F4E700BFDC440020E04400208A9D2000159D20001A9D20008F9D2000589A2000A5
:204FA000B49D2000489A2000C39D20002C9A2000CE9D2000D99D2000F39D2000384B0020A4
:204FC000139E2000209E2000AC520020F6A22000AC9A200038B5054608B1002409E0094897
:204FE000BDE8384001F074BCE30702D4064801F06FFC295D0548013401F06AFC082CF3D1B2
:2050000038BD00BF359E2000D49C2000449E2000F8B500231A460B490B4D0C4800260027DA
:2050200045F823201A540133052BE1E90267074CF6D123782BB9FEF77BFB034B18600123FD
:205040002370F8BDF85100203052002028520020F8B50D4D0D4F0E4E0024E35D6BB1FEF72F
:2050600067FB56F8243046F82400C11AD5E90023521843F10003C5E900230134052C05F140
:205080000805EAD1F8BD00BF00520020285200203052002030B50649D1E90245D1E9002314
:2050A00012196B41D1E904018018594130BD00BF0052002010B50E4C236813B90D4A1360CA
:2050C00010BDFEF707FB216891E80C001A44131A8A6842B192E812002144091A8B4228BFC6
:2050E0000B469268F5E71844024B186010BD00BF184600201C460020014800F079BA00BFB1
:20510000E04400202DE9F8430388054633B1592B0BD0002303800320BDE8F883234A136018
:2051200059232B800120BDE8F883872924D08229F6D11E4F4FF00008B9463C680026002C48
:20514000EED0204604F08CF898B122468821E06800F00EFA58B9E060A3680EB1B36001E00A
:20516000C9F80030C4F80880FFF7A4FFE5E7FFF7C3FF2646A468E2E70C4900200B681BB9E0
:205180000028CDD00B60CBE7DC68A24202D19B680120F4E700B10B6099680029C0D0C8682D
:2051A00082420ABF89680B469960F5E71846002010B50446FFF7A0FFE3680B4A4BB1136812
:2051C0003BB1A34203D1094A1268DA6007E09B68F6E7064B1B68E36013681460A360BDE8AE
:2051E0001040FFF767BF00BF1846002024460020024B1868003018BF012070471846002052
:2052000010B50B4A04461368834206D18368136008E09A68944203D01346002BF9D103E0F1
:20522000A2689A60FFF746FF0023A360E36010BD18460020034A9179D379034A03EB012379
:2052400013807047AC520020384B0020F8B50388064615462BB14A2B15D000230380032065
:20526000F8BD174804F017F804462CB1A168201D03F0D0FF2468F8E7124B01221A704A2306
:2052800033800120F8BD8829FBD10D4804F003F80446002CF3D0231D9D420ED121460848D6
:2052A00004F003F8084B62691F681A60A2691D460AB1E06990472F60E1E72468E9E700BF25
:2052C00020460020B75000202446002010B5064B002406481C7003F0DBFF2146BDE810405A
:2052E000034800F06DB900BFB750002020460020F044002070B50446E3610B4B049D1B7850
:205300006561A26143B1094D094B2E68201D2B6003F080FF2E6000E0A1602146BDE870402B
:20532000044803F0D5BF00BFB750002024460020F04400202046002013B5034C2468009419
:20534000FFF7D8FF02B010BD2446002010B5084B04461B781BB10430FFF752FF01E0C36037
:2053600003612146BDE81040024803F09EBF00BFB75000202046002010B50A4B04461B7870
:2053800023B1BDE81040043003F056BF064803F082FF18B1A04203D00068FAE7012010BD91
:2053A000002010BDB75000202046002038B5836804460D469BB10A4804600220A07304F1B2
:2053C0000C0098470238012801D9832D05D121462046BDE8384000F005B80123A37338BD59
:2053E000244600202DE9F8431C4A0446156889462B4690461A4E3768A34204D00BB11B6890
:20540000FAE7BDE8F88334B3A37BABB10023A37345B1A54204D022468721284603F011FFBF
:205420002D68F5E7A3683BB14C4505D034602A46832104F10C009847D8F800309C4203D164
:205440002268064B05E0134623B11A689442FAD122681A603760BDE8F88300BF2846002034
:2054600024460020002370B51D46094A01261370084A146854B1E37B33B1A673E573002252
:2054800082212046FFF792FF2468F3E770BD00BFBA50002028460020024B1878421C1A70AD
:2054A000704700BFBB500020064B8A221A70064A00231370054A1370054A1360054A136078
:2054C000704700BFBB500020B8500020B950002028460020244600202DE9F0411A4D2B7871
:2054E0000BB1FFF7BFFF194C22783AB3184E0C213378184F5943781817F80180013347680C
:20550000806803F01F03013A3370227068B9124B1E689EB12B780BB1FFF7A4FF30463A46DD
:20552000414603F08EFE3668F3E7B8F1810F04BF012383733A46414603F083FE2B78207821
:205540001844BDE8F08100BFBA500020B9500020B85000202C46002028460020024A034BE5
:2055600010781B7818447047B9500020BA500020F0B50B4E3378202B0FD00A4C0C252478B4
:20558000094F1C4404F01F046C4301333D19A86039556A6033700020F0BD0120F0BD00BFA6
:2055A000B9500020B85000202C46002038B5034C256803F046FE256038BD00BF2446002045
:2055C00030B40A4C0A4625682B4683420CD00BB11B68FAE740B10121056081732060838192
:2055E000812130BCFFF7E2BF30BC70472846002038B1837B013B012B9FBF024A0123C37302
:2056000013707047BA50002010B5084C206858B100232360816843689847236823B1BDE85F
:2056200010401868FEF79AB810BD00BFAC47002082B0074B02AA42F8043DCD21934202D272
:2056400003F8011BFAE70348002102B0FFF7B8BFBC5200200045002038B5FEF7FFF90C4C02
:205660000C4B22780B4DCD2A06D09C4207D20134F7E7AC4203D201342378CD2BF9D0FEF701
:20568000EDF9AC423ABF0348001B4FF0FF3038BDBC520020C05A002070B5038805462BB135
:2056A000912B0BD000230380032070BD4FF4A0611B4803F0AFFD91232B8003E0184803F082
:2056C000BBFD08B9012070BDFFF7C6FF154C164B061EA3EB040401DB002C0CDA134B1B68FD
:2056E000002B18DD124A1349134801F0F1F82246314612480DE0A6420DDD0C4B1B68002BA0
:2057000009DD0B4A0B490C4801F0E2F8224631460B4801F0DDF8024803F085FDCBE700BFB3
:20572000B0470020BC520020C05A0020DC440020E09E2000E69E20001A9D2000EA9E2000E9
:20574000149F20002DE9F04106880546772E31D07E2E40D0002E4ED12B4CFFF79DFE266019
:2057600026462A4B2A4FDFF8B0801870236857F823204AB1002108F803109368802098477A
:20578000336801333360F1E7224A1370772320E0214AD256002A12DB1B4A13680133136015
:2057A000194B1C4A1B6812789A42F1DC1B4B1B68002BEBD0194A00231360134AEFE7144A10
:2057C000002052F82320114B1978FFF7D1FE30B97E232B8014E00D4B1B788B4210D10A4B53
:2057E0000D491A688B5C03F07F038B540B4A136801331360D0E7002303800320BDE8F08189
:205800000120BDE8F08100BFC0470020B7520020C0440020BC500020B4520020C4470020A1
:20582000054A136843F004031360044B1B68906943EA002080B2704700700D4014700D4062
:2058400010B5184A136823F00C031360164B01221A601A68012AFCD1144B08221A60E32291
:20586000C3F8142203F505731946114A1368DB07FCD5104C102000232268013802F0010278
:2058800043EA02034FEA43039BB2F5D1002BF1D0094A180A03F0FE0310601360EF230B608F
:2058A00010BD00BF00700D40A8200D4024860840648608409C86084014700D4010B504461C
:2058C00090F84C30084A013380F84C30802103462030FFF731FD054B2246BDE810401978AE
:2058E0000020FFF745BE00BFBD582000B952002070B503880446C3B1B3F5867F03D000235F
:205900000380032070BD822912D103F023FCBFF35F8F114B00221E681A60BFF35F8F03F063
:205920001DFC0E4D55F8040F20B94FF486732380012070BD90F8453026FA03F3DB07F1D5D2
:20594000FFF71AFD0028EDD02B68054A02211846FFF7F2FCE6E700BFC8470020B44400203B
:205960007D592000034A1368184310600248FFF73FBE00BFC84700202045002070B504467F
:20598000FFF7FAFC20B304F120063046FFF7F4FC0546204603F024FD01280CD1C5B100256B
:2059A00023460C4A84F84C507E213046FFF7C4FC2246094B06E058B955B93046FFF7C6FC56
:2059C0002246064B2846BDE870401978FFF7D0BD70BD00BFBD582000BA520020B8520020C0
:2059E000F8B5FFF759FD304B304D1870FFF754FD2F4B304C1870FFF74FFD2F4B2F4F1870A7
:205A00000023AB602E4B01266B602168002943D091F84530886C2B4AD90809030A4411680D
:205A200003F0070306FA03F321EA030313602368254A93F84530D90809030A44116803F04E
:205A4000070306FA03F321EA03031360236840F08C0193F84500FEF72DF923681B4A93F814
:205A60004530D90809030A44116803F0070306FA03F30B431360236893F84530DB0806FADB
:205A800003F33B6054F8043B93F8453006FA03F2AB681343AB60B8E70D48FFF791FDBDE864
:205AA000F840024800F09AB8BA520020CC470020B8520020B8440020B952002000E100E091
:205AC0006559200020940D4000940D4010940D402045002070B505880446672D09D0792D81
:205AE00032D0002D36D1FFF7D7FC1D4B18701D4B1D601C4D2E461C4803F062FC431C01D10F
:205B000067231FE00A28174A09D00D2807D02B687E2BF0DC5A1C3260144AD054EBE71368A5
:205B20000025591C1160114A2846D5540C4B1978FFF71EFD0E4B2A4685211868FFF718FD75
:205B400020B97923238009E0852907D1054B00221A60CEE700230380032070BD012070BDD9
:205B6000BB520020E0470020D84700203E5100202446002038B50D4C01462378254633B9BA
:205B80000B4803F00AFC60B90123237009E00A2801D00D2805D1064803F0FFFB08B10023DB
:205BA0002B700448FFF724FD012038BD3D510020D84700203045002008B505490548802255
:205BC00003F0E4FBBDE8084000210348FFF7F8BCBD500020D847002030450020014601485F
:205BE00003F076BBE447002038B50546064803F052FB04463CB1A068284002D0636803B178
:205C000098472468F6E738BDE4470020014803F03FBB00BFE447002008B5044803F06FFB56
:205C2000BDE80840024803F06ABB00BF4C4500204045002038B50E4803F071FB0446A8B1BB
:205C40000C4803F06CFB0546206028B92146084803F079FB284638BD00F074F805F19C017A
:205C6000A5F8800005F1820000F0F8F8204638BD404500204C45002010B501460446074859
:205C800003F076FB48B12168054803F05CFB2146BDE81040014803F056BB10BD404500206C
:205CA0004C45002010B501460446094803F060FB68B12468B4F88010204600F0B9F804F161
:205CC0009C0104F18200BDE8104000F0D9B810BD4045002010B507490B88834208DB064C26
:205CE00080B222880244181A08802280012010BD002010BD9A5000209C500020014B188051
:205D0000704700BF9A5000200048704708480020014B1888704700BF9A500020034A044B8C
:205D200010781B781844C0B2704700BFCE5100209C50002008B5FFF7F1FF014B184408BDA9
:205D40000848002070B50D4D0D4C2A78238806461344802B0FDC0B4903F05EF82B781E44D3
:205D6000FFF7E8FF22880146304603F055F828782388184470BD002070BD00BFCE51002080
:205D80009A5000200848002008B5FFF7C7FF024B1B88184480B208BD9A50002038B501468F
:205DA000FFF7F2FF4318802B11DC0A4A013880B2541803B2002B04DBD55C0138E55480B24A
:205DC000F7E7054B01201A781144197038BD002038BD00BF08480020CE51002038B5094D49
:205DE000094C1A220021094803F08CF82946204603F011FB294604F10800BDE8384003F0D9
:205E00000ABB00BFCC9A20008252002092520020044A00231380044A1380044A1370FFF7D4
:205E2000DDBF00BF9C5000209A500020CE51002038B50C460546FFF7EBFF802C28BF802411
:205E400022462946034802F0E7FF034B20461C8038BD00BF084800209A50002010B50C46B3
:205E60001A22054902F0D8FF2046BDE810401022024902F0D1BF00BF9252002082520020BE
:205E800010B50C461A220146044802F0C5FF2146BDE810401022024802F0BEBF925200201B
:205EA00082520020024B23F810100120704700BF92520020014B33F8100070479252002089
:205EC00008B5044B0D3803EBC00003F0A4FA012008BD00BF82520020024B0D3803EBC00059
:205EE000704700BF825200200149024803F096BACC9A20008A520020054B10B51B68984768
:205F0000044B5B689847BDE81040034B5B681847589920002C9A2000489A2000F8B5FDF791
:205F2000D9FB04460F4F00250D2007EB0516FFF7D3FF314603F072FA78B10720FFF7BAFFE9
:205F4000337B834201D00020F8BDB068201AB0F5206F8CBF00200120F8BD0135102DE3D13A
:205F6000F1E700BF8848002070B5164E00240D20FFF7B2FF06EB041103F050FA114D611CFB
:205F800010B910290C46F2D14C1E05EB0111A1F110063CB120391022304602F03DFF013C7D
:205FA0003146F4E70720FFF785FF2873FDF792FBA8600D20FFF790FFBDE870400146014833
:205FC00003F029BA8848002030B591B0054600F063F84FF6FF73984202D14FF0FF3052E03B
:205FE00040220021684602F08DFF284B1A782AB901221A70FFF714FC254B18707DB107200A
:20600000FFF758FF58B9224C23780BB90123237021780720FFF746FF237801332370FFF74B
:2060200063FF6A46C1B21B4803F056FAFFF75CFF28B1FF238DF800308DF8013006E00E206A
:20604000FFF74AFF0146684603F0E5F90D20FFF743FF014602A803F0DEF9FFF76BFE0E901E
:20606000FFF756FE0F90684603F022FB04464DB1FFF794FE0028B0D0FFF746FE01466846D2
:2060800003F05FFB204611B030BD00BFD0510020CF510020B55E2000014B1888704700BFCA
:2060A000C84500202DE9F041012986B006460F46144640F3838003A903F08DFB0A2203A9DC
:2060C00004F1100002F0A8FE9DF811300BB1B51C02E0B378F51CA37602AA01A903A803F095
:2060E00043FA9DF81380B8F1000F23D0029B23B16A7815F8023B03EB0223B8F1020FA38300
:2061000009D13049204603F086F96B78237015F8023B637014E0B8F1030F11D105F1080230
:206120001346611E13F8010DAB4201F8010FF9D1154605E02349204603F06DF9A4F81C800B
:206140009DF81580B8F1000F2BD0019B53B16A7815F8023B03EB0223029A9BB2E3831AB961
:20616000A38301E0A38BE383B8F1020F0AD1154904F1080003F04FF96B78237215F8023B97
:20618000637215E0B8F1030F12D105F108021346E11D13F8010D9D4201F8010FF9D115461A
:2061A00006E0084904F1080003F035F9A4F81E80A81B3B1A8742E363A56300DA002006B071
:2061C000BDE8F081CC9A200070B505460C46102C07D92B68102208496868984750B9103C2B
:2061E000F5E734B12B68224668680349BDE870401847204670BD00BF649F20002DE9F04F49
:20620000064615468FB006914FF0000B069B1B78CBB1069C274617F8013B1BB1252B14D0AD
:206220003C46F7E7069BA3420DD0069B0699C3EB04084246336870689847002840F02583C7
:206240002378C34423B958463AE3069BA342ECD16378002BF7D039460024084610F8013BC0
:206260000A462B2B11D006D8202B11D0232B12D144F0080416E02D2B04D0302B0BD144F08F
:2062800010040FE044F001040CE044F0060409E044F0020406E0A3F13107082F11D84FF064
:2062A000000801E00146D8E70A4611F8013BA3F13000092813D80A2202FB0838A8F1300840
:2062C000F2E72A2B09D12B680246002B05F10405B8BF44F00104984601E04FF00008137870
:2062E0002E2B1AD15178531CA1F1300009280ED8194600270A780B46A2F13000092801F10A
:2063000001010DD80A2303FB0727303FF2E72A2904D12F68931C043502E013464FF0FF379E
:206320001A786C2A09D15A786C2A02D144F080040AE0013344F0600411E0682A0AD15A7882
:20634000682A03D144F02004023308E0013344F0400404E07A2A04BF44F0600401331A780D
:20636000642A3CD01FD8462A48D00DD8252A5AD003D8002A3FF467AF57E0412A4AD0452A2D
:2063800053D144F4424450E0582A31D004D8472A4BD144F4A13448E0612A38D0632A44D195
:2063A00044F4A06441E06E2A3AD007D8662A22D027D3672A28D0692A11D036E0732A2CD0D7
:2063C00006D86F2A11D0702A2FD144F440742CE0752A07D0782A28D144F4C85425E044F431
:2063E000245422E044F410641FE044F488541CE044F4B24419E044F4007416E044F484449F
:2064000013E044F4024410E044F481340DE044F4C1340AE044F4E13407E044F4806404E0F6
:2064200044F4E06401E044F4C0640133069304F4E063B3F5806F00F08F8113D8B3F5807F72
:2064400027D0B3F5407F7FF4E1AEAE4B14F4804FAD4A18BF1A460DF13303286800210435C0
:206460001F46B5E1B3F5C06F08D0B3F5E06F00F02282B3F5A06F7FF4C9AEF2E133680122B5
:20648000A24970689847002840F0FF810BF1010BBCE6002FACBF24F01004012714F4005393
:2064A000079304F0E0032ED0402B12D005D8ABB1202B21D195F900200DE0602B0ED0802BFB
:2064C0001AD1073525F0070303F10805D3E9002307E0B5F90020D317043502E02A68043511
:2064E000D317002A73F1000108DA524263EB4303CDE90023012304E000220023CDE900231A
:206500000023059329E0402B13D004D8BBB1202B1DD12A780EE0602B11D0802B17D107351D
:2065200025F0070303F10805D3E90023CDE900230BE02A880023CDE90023043505E02B6839
:2065400000221946CDE900120435079BD9E70023059300220023CDE9002304F4C053B3F5CB
:20656000805F0CD0B3F5C05F33D0B3F5006F4FD1DDE900230DF13609CDE9022304E0DDE9B4
:2065800000230DF1360915E0DDE9022313433AD0DDE902010A22002302F072FADDE902011C
:2065A000303209F8012D00230A2202F069FACDE90201E9E752EA030125D002F0070130318D
:2065C00009F8011DD10841EA4371D8080A460346F0E74C4B14F4804F0DF136094A4918BF7F
:2065E0001946DDE9002352EA03000CD002F00F00085C4FEA131E09F8010D100940EA0370A4
:2066000002467346EFE70DF13603C9EB030302E00DF1360900230293029B41F60802BB4200
:2066200038BFFF1A41F2080302EA040228BF00279A4202D1002F08BF012741F60801029B62
:206640008A4203EB07000DD1DDE90023134309D02F4A304914F4804F4FF0020A0CBF0B4653
:20666000134602E04FF0000A5346079A9AB1059A52B904F00602022A0AD0062A264A04BF02
:206680004FF0010A134606E04FF0010A234B02E0234B4FF0010A0AEB000290458CBFC2EB5B
:2066A00008084FF0000814F0010200920DD1E10602D54744904608E0414630460593FFF77A
:2066C00083FD059B002840F0E080BAF1000F07D03468524619467068A047002840F0D58052
:2066E000029B03EB0B04BB46BBF1100F33681BD910220C4970689847002840F0C680ABF12D
:20670000100BF1E7849F2000959F2000B49F2000B89C2000A69F2000AB9F2000A99F2000D1
:2067200086A22000749F2000BBF1000F06D05A46654970689847002840F0A7803368029A92
:206740004946706854449847002840F09E80009B3C44002B39D032E0D5F800900435B9F144
:20676000000F0AD0CA469AF800300AF101020BB19246F8E7C9EB0A0A03E0DFF850914FF04B
:20678000060A002F02DBBA4528BFBA46D0458CBFCAEB08084FF0000814F0010705D1414622
:2067A0003046FFF711FD00286FD133685246494670689847002868D10AEB0B042FB14146B2
:2067C0003046FFF701FD00285FD108EB040B1DE550EA010E0ED000F00F0E12F80EE04FEA8E
:2067E000111C03F801ED4FEA101E4EEA017E70466146EDE7FF1A02BF3022012703F8012CB8
:2068000007F1030708BF03F1FF337822B84503F8012C4FF0300203F8022C88BFC7EB080827
:206820004FF0230298BF4FF0000814F00104A3F1030903F8032C04D141463046FFF7C4FCFB
:2068400018BB33683A46494670689847E8B95F4424B141463046FFF7B7FCB0B908EB070BD7
:20686000D4E4B8F1010F2B688CBF08F1FF384FF0000814F0010405F104058DF8203008D19C
:2068800041463046FFF7A0FC10B14FF0FF3017E0C3443368012208A9706898470028F4D129
:2068A00008F101072CB141463046FFF78DFC0028EBD1BB44AAE42B680435C3F800B0A5E44D
:2068C0000FB0BDE8F08F00BF749F2000AD9F20000FB407B504AA52F8041B04480192FFF70C
:2068E0008DFC03B05DF804EB04B070475845002010B501210C20FFF7D5FABDE81040014BD7
:206900005B681847209A2000014B9B68184700BF209A2000014B1B6A184700BF5899200034
:20692000014B5B6A184700BF589920000C4B13B51B6898470B4B044601A918209B6A984730
:2069400001280AD0002C0198B8BF15248028D4BFC4EB0000C4F1800000E0002002B010BD21
:20696000209A20005899200007B5064B01A918209B6A984718B900F019FAFFF7CBFF03B012
:206980005DF804FB5899200007B5FFF7C1F9032823D0FFF7B9FF00281FDB0E20FFF79CFA7E
:2069A0000F4902F03BFD38B10D20FFF795FA0C4902F034FD88B904E0FFF796FA0028F3D1AB
:2069C0000BE0FFF7ABFA40B9FFF7CEFA054B9B68019303B05DF804EB184703B05DF804FB36
:2069E000AC520020489A200070B590F82D400122012CD4BF03340524054602FA04F4FEF7E6
:206A00000FFF013CB0FBF4F12B4601FB1401034A05F10C00BDE87040FEF78EBCA56A200007
:206A20002DE9F0470D4614468B68804693E8C000506B92F82C9002F038FC6868FFF71CF966
:206A4000A968144802F07FFC2946134802F07BFC606B02F020FC40B1002384F82C3084F8E8
:206A60002D302046FFF7C0FF0BE004F10C00FEF76DFC2146094802F018FC2146084802F0ED
:206A800062FC4B46424639463046BDE8F04702F0CDBC00BF604500206C450020E84900208D
:206AA000784500202DE9F74F0446002800F0D980406B02F0F0FB0546002800F0D2804068FD
:206AC000FFF7F0F868490D20FFF7FAF901210820FFF7E8F9FFF70CFF0028C0F2C080FFF7DF
:206AE00013F9624E90F802807768FFF70DF98146FFF74AF901464846B847FFF7F5F9D6F86F
:206B000018908246C847002860D1BAF1000F0BD0B768FFF739F9B8470746FCF709FE6FF01C
:206B2000A20BC0EB0B0B04E0F369984700284DD1EEE7FCF7FDFD1BEB000FFAD417F0FF07D0
:206B400004D0022F0CBF0120042040E0BAF1000F01D000203BE0FCF7EBFD6FF00C0AF7698A
:206B6000C0EB0A0AB84710B1C84740B905E0FCF7DFFD1AEB000FF5D4F6E7B84730B1FCF74D
:206B8000D7FD6FF01409C0EB090909E0736998470028F4D009E0FCF7CBFD19EB000F02D5CA
:206BA000B8470028F7D0B84708B902200FE03369032101A89847032808D19DF80600B0EB94
:206BC000080018BF01200028C3D000E00120AA68002A46D003283DD8DFE800F0021B0B4345
:206BE00094F82C300020013384F82D0084F82C3030E0002384F82D3094F82C300133DBB223
:206C000084F82C30127A9A421DD822462946022022E094F82D300133DBB2052B83BF002305
:206C200084F82D3094F82C3084F82D3084BF013384F82C3094F82C10137A994203D32246FD
:206C40002946012008E02046FFF7CEFE686802F0DCFB06E022462946FFF7E2FE01E0052062
:206C6000B5E703B0BDE8F08FAC520020589920002DE9F04107460E208846FFF72DF9454B36
:206C800005461A78444C22B901221A70FEF7C8FD2070237813B9404B01221A702178072056
:206CA0004B1C2370FFF7FEF801210C20FFF7FAF83A4802F0F0FA044640B12946201D02F081
:206CC000ADFBD8B9204602F017FBF4E7344802F026FB044640B32946201D02F09CFB002312
:206CE00004F13000606384F82C3084F82D30236302F0CEFA2146294802F0EAFA606B02F050
:206D0000F4FA072810DC274802F009FB054698B9606B02F0EAFA38B92146204802F0C5FA57
:206D200021461F4802F00FFB41463846BDE8F0410123062202F07ABB1B4802F0F0FAA860F4
:206D400008B3FEF777FF6860C8B10620AE68FFF7B1F8C0B208B1307201E00823337286E805
:206D600080012946606B02F0B3FA606B02F093FA85420DD12046BDE8F041FFF735BEA96894
:206D8000094802F0E0FA2946064802F0DCFABFE7BDE8F081E2510020D1510020E8490020AF
:206DA000784500206C4500206045002008B5054802F0A5FA044802F0A2FABDE808400348B3
:206DC00002F09DBA6C4500206045002078450020014B00221A607047BC4A002010B5044623
:206DE000FFF716F80B4B19880B4B1868FFF720F80CB1214600E009490E20FFF761F8084990
:206E00000D20FFF75DF8074B002108469B689847012010BD805200207C520020CC9A200003
:206E2000AC5200202C9A20002DE9F0410C4B1C68A4B1FEF77FFF0546FEF76AFF06460D2042
:206E4000FFF74AF807460E20FFF746F83A46034631462846A446BDE8F0416047BDE8F08120
:206E6000BC4A0020014B1860704700BFBC4A002010B50C460548114602F0CDFA044B05487C
:206E80001C80BDE81040FEF7B3BB00BFA6500020AE500020844500202DE9F74F0388804675
:206EA0003BB140F2862293420ED000230380032092E04FF4F0514A4802F0ACF940F2862396
:206EC000A8F80030012087E0454802F0B5F90028F8D0444C424802F0A6F9FEF7B9F8424862
:206EE000FFF7F6FC25686368A668ED0B45EA4345E3682769F60B46EA43466369FF0B47EAF9
:206F00004347FEF7C7F8C00B40EA41403B463246294600903548FFF7DBFC256A636AA26914
:206F2000ED0B45EA4345E3694FEAD23949EA4349FEF7B0F8D4E90667D4E908AB801B61EB35
:206F40000701B0EB0A0061EB0B01C30B43EA41434A4629462648FFF7BBFCFEF79BF8D4E94E
:206F60000623D4E90867801A4FF47A7561EB0301801B61EB0701A0FB056705FB0177FEF73D
:206F800089F802460B463046394601F079FDA669DFF86090A6FB0567E369A9F80A0005FBA1
:206FA0000377FEF777F802460B463046394601F067FD266A636AA6FB0567A9F80C0005FBF9
:206FC0000377FEF767F802460B463046394601F057FDA9F80E0071E703B0BDE8F08F00BF73
:206FE000C44A002000520020CA9F2000D69F20001AA02000EB51002008B5044BDB6898476F
:20700000034A13890133138108BD00BF489A2000EB51002040F2172270B5038804469342A3
:2070200008D040F22E22934252D0002B37D140F2172332E082294FD1FCF74CFB304B314D50
:207040001860314B1B7803F0FF02002B33D12F4B20211970297859702D490B602D4B02215C
:2070600019802D4B1A702C4D2B78022B1BD8FEF7D7FB00F07F0101F58071284802F0CAF8F7
:20708000274E2B780620F15C264BDB6A98472B78F25C254B5A7140F22E2323801CE000235F
:2070A0000380032070BD184B1B78002BBFD11F48FFF70EFCBBE71E48FFF70AFC1D4B2A78D7
:2070C00019781D48FFF704FC1C48FEF791FAAEE7124802F0B1F808B9012070BD0A4B1B785F
:2070E000002BE0D10C4D0E4A2B781548D15CFFF7EFFB1448FFF780FF2B7801332B70B2E71A
:20710000C04A0020FB510020E5510020E85100207C52002080520020E6510020084B002080
:20712000C79F200058992000EB51002075A0200091A02000E7510020A9A02000A44500200C
:207140004DA020009E500020F8B504880546B4F5DB7F00F0E98005D874B140F299139C4276
:2071600026D021E0B4F5DF7F00F0DE8040F2E3139C4200F0A28017E06D48FFF773FE012077
:2071800002F08CFB6B4B014618706B48FFF7A0FB6A4B9C71DC711C725C729C72DC725C7119
:2071A00040F299132B80C1E000232B800320F8BD822940F0BB80FEF7BDFD0378604C5B09AF
:2071C000206045D15F48FFF783FB5F4E5F48FDF701FF5F48FFF77CFB3378002B31D1574A29
:2071E0005C48D38859490133D38002F014F92368187810F01F040CD1012434705B78564A11
:20720000DBB280215548137002F004F84FF4DB7350E0012C0BD134705B784F4ADBB240216A
:207220004E48137001F0F6FF4FF4DF7342E0022CB6D1012232705B78474ADBB2137048481A
:2072400041E0484A48494948FFF742FB484808E0012BDAB208D1434A43494448FFF738FB4F
:207260004448FFF735FB9BE7022A35D13D4A3E493E48FFF72DFB23683F485978FFF728FBFA
:207280003449324802F0CAF8364AF8B136493748FFF71EFB3948FFF71BFB394B01241C704B
:2072A000FEF7BEFA00F03F018031364801F0B2FF40F2E3132B802046F8BD324801F0BCFF0C
:2072C000002833D03048FEF793F969E72F492748FFF7FEFA2E48C4E7032A0FD1284B214A59
:2072E0001B782BB129492148FFF7F2FA2948B8E729491E48FFF7ECFA2848B2E7042A06D190
:20730000184A19491948FFF7E3FA2548A9E7052A1549144A154803D1FFF7DAFA2148A0E7A2
:20732000FFF7D6FA20489CE7882988D00120F8BD716E2000FB510020C4A02000EB51002072
:20734000D84A0020D6A02000EA510020A6500020F6A220009E500020E7510020DC4A002080
:20736000B4450020F4A02000159D20001A9D2000F8A0200009A120002AA1200050A1200019
:20738000E5510020184B0020A445002071A1200075A120008FA12000E69E2000A6A1200048
:2073A000BFA12000D7A12000EFA12000F8B50D46044601F03FFB064602F07FFA304601F072
:2073C00095F90146204601F0DBF80446284601F089F9214601F0DEF9054601F02BFB01F001
:2073E000DFFC0446284600F089FD00F0F3F8064620460F4600F070FD02460B4630463946B7
:2074000000F01CFC0022084B01F052F800B101342E2002F01BFA204602F04FFABDE8F840FB
:207420000A2002F013BA00BF0000E03F2DE9F0470446FDF7A7FB0420FBF768FFFBF7BAFF30
:2074400001F00DFE0646DFF864A0DFF86490DFF86480524649464046FFF73AFA104F1148F4
:20746000FFF736FA64213046FFF7A0FF3846FFF72FFA01F0F7FD0546524649464046FFF7E6
:2074800027FA0948FFF724FA64212846FFF78EFF3846FFF71DFA266065602046BDE8F08798
:2074A000F6A220007DA2200082A22000F4A0200071A120001A9D200040F25222F0B50388FE
:2074C00087B09342054609D040F26F22934246D0002B57D140F252232B8057E0822955D121
:2074E0002E4B1B78DB0753D502AC2046FFF79EFF94E8030004AB83E803000422194628483E
:2075000001F08AFC042205A9264801F085FC264B264F5B6A9847FCF7DDF83B68244EC01AFF
:20752000244A306024492548FFF7D2F93168C1F5C851CC09FCF7CEF832683B68D209DB09C0
:2075400000922146C2091E48FFF7C2F931681D48C1F5E45101F05EFE40F26F232B8019484A
:2075600001F06AFEC0B1104B1B6A9847114A12491248FFF7ADF91448FFF7AAF9134B002261
:207580001A70A7E700230380032005E0012003E00F48FFF79DF9BAE707B0F0BDE7510020E1
:2075A000F44A0020F84A002058992000C04A0020D44A0020F4A0200071A120001A9D2000D5
:2075C00088A22000284B0020D6A22000EA510020F8A2200021F00041704700BF30F00040F9
:2075E00001D102207047A0F50003B3F1FE4F01D204207047054B421E9A4201D8032070476A
:20760000A0F1FF40B0FA80F040097047FEFF7F002DE9F04F8BB01F46804689461646FBF72C
:2076200027F8DFF8E4A204469AF900300D46013304D03046394600F033FA20B920462946A6
:207640000BB0BDE8F08F4046494600F029FA834600282BD1002200233046394600F00AFF03
:207660000028EBD09AF900300122A04DA049002400925A1CCDF820B0CDE90289CDE9046748
:20768000CDE906450191D9D0022BD7D0684600F031FA002800F09580089B002B65D001F0F0
:2076A00083FBDDE90645089B0360C7E7404649460022002300F0DEFEE8B10022002330460D
:2076C000394600F0D7FE8346002851D088489AF900300121002200240025CDE90289CDE93D
:2076E0000467CDE90645019000910892002BCDD000247E4DA2E72046294600F0CBF98346D0
:20770000002863D0204629460022002300F0B2FE002893D04046494600F0BCF900288DD08A
:207720003046394600F0B6F9002887D09AF900306F480421002200240025022BCDE90289BE
:20774000CDE90467CDE9064501900091089200F0A580684600F0CEF9002800F09F80089BF7
:207760001BB101F021FB089B0360DDE9064565E73046394600F08EF900283FF45FAF0022D6
:2077800000233046394600F07FFE00283FF456AF57499AF800300122CDF820B0CDE90289A9
:2077A000CDE9046701910092002B3CD051490020022BCDE9060130D101F0F6FA2123036020
:2077C000CDE701F0F1FA2123036065E74046494600F060F9002895D03046394600F05AF903
:2077E00000288FD02046294600F05AF900BB404A9AF8004001230890CDE90289CDE90467B5
:20780000019200937CB1002200231046194600F0F3FC022CCDE90601CED0684600F06AF9B2
:2078200000289CD1C8E700230024CDE90634F4E72F4A9AF9003001920322CDF820B0CDE9B3
:207840000289CDE9046700926BBB2B4D4FF060440022002340464946CDE9064500F014FE0C
:2078600000283FF476AF0022244B3046394600F099FB04460D4600F045F902460B462046B4
:20788000294600F0F7FD20B91D4B4FF06042CDE906239AF90030022B7FF45BAF01F084FAB8
:2078A000222303605BE7174D00240022002340464946CDE9064500F0E7FD0028E9D0002224
:2078C0000E4B3046394600F06DFB04460D4600F019F902460B462046294600F0CBFD002815
:2078E000D7D1044B0022CDE90623D2E70000F03FC09A20000000F0FFFFFFEF470000E03FEC
:20790000FFFFEFC70000F07FCC4500202DE9F0415F4E0C46B6460E407645054600F0988075
:2079200000290B46024674DD5FEA215E7FD0AEF2FF3EC3F313031EF0010F43F4801363D158
:2079400000273E4603EBD2710B444FEA6E0E520016204FF4001174189C424FEAD2754FEA48
:20796000420202DC1B1B66180F44013805EB43034FEA5101EFD1844620244FF0004109E0AD
:2079800020D003EBD275013C4FEA51012B444FEA420220D09E4201EB0C05F1DA002D05EB59
:2079A000010C09DBB0469542A3EB060300D9013B4646521B0844E4E7BCF1000FF2DB06F1CD
:2079C0000108F0E7954217D8002D05EB010C49DB98460023ECE7134310D140087B1003F1E1
:2079E0007F5303F50013FA0703EB0E57394648BF40F00040BDE8F0813346C2E7411C35D0C6
:207A000000F001031844E8E75B0003EBD273520096E721F000460643ECD079BB8E46D30AA9
:207A2000AEF1150E5205002BF9D0DD0221D4002100E001465B00DC0201F10100F9D5C0F172
:207A4000200422FA04F42343C1EB0E0E82406EE702460B4600F0A6FA2A46234600F0F0F8CF
:207A6000BDE8F081BCF1000FB2DBA8E701372046B4E720244FF0FF310020E2E702460B46AA
:207A800000F0DCF802460B4600F0B6FBB2E700BF0000F07F41F0004101F58010C00F7047A3
:207AA00031F0004310B407D0104AA1F58014944206D8042010BC704710B9022010BC70477A
:207AC00001F1FF41094A01F5E0019142F1D9B3F5801F01D20320EDE7054A934201D0002087
:207AE000E8E7B0FA80F04009E4E700BFFFFFDF7F0000F07F0020704700200149704700BF48
:207B00000000F87FF0B5C1F30A5EAEF2FF36132E83B002460B460C464FEAD17507462EDC23
:207B2000002E49DB3D49314103EA010010432BD049080B4053EA02070CD04FF48023132EDA
:207B400024EA010143FA06F444EA01040CBF4FF000470027324B214603EBC505D5E9004594
:207B6000384622462B4600F06BF8CDE90001DDE9000122462B4600F061F803B0F0BD332EFA
:207B800006DDB6F5806F45D01046194603B0F0BDAEF2134E4FF0FF3121FA0EF10842F3D0A7
:207BA00049080842D6D04FF0804320EA010143FA0EFE4EEA0107CDE721F000410143194644
:207BC000E4D0C3F3130343EA000CCCF1000343EA0C0C134B640C4FEA1C3C0CF4002C03EB6E
:207BE000C5036404D3E900674CEA040132463B4600F026F8CDE90001DDE9000132463B4679
:207C000000F01CF8024621F0004141EAC57310461946BBE700F014F8B8E700BFFFFF0F00A5
:207C2000F098200003F0004321F0004242EA0301704700BF81F0004102E000BF83F0004364
:207C400030B54FEA41044FEA430594EA050F08BF90EA020F1FBF54EA000C55EA020C7FEA7E
:207C6000645C7FEA655C00F0E2804FEA5454D4EB5555B8BF6D420CDD2C4480EA020281EA26
:207C8000030382EA000083EA010180EA020281EA0303362D88BF30BD11F0004F4FEA0131D2
:207CA0004FF4801C4CEA113102D0404261EB410113F0004F4FEA03334CEA133302D05242E8
:207CC00063EB430394EA050F00F0A780A4F10104D5F1200E0DDB02FA0EFC22FA05F2801840
:207CE00041F1000103FA0EF2801843FA05F359410EE0A5F120050EF1200E012A03FA0EFCE5
:207D000028BF4CF0020C43FA05F3C01851EBE37101F0004507D54FF0000EDCF1000C7EEBF4
:207D200000006EEB0101B1F5801F1BD3B1F5001F0CD349085FEA30004FEA3C0C04F10104CC
:207D40004FEA445212F5800F80F09A80BCF1004F08BF5FEA500C50F1000041EB045141EADF
:207D6000050130BD5FEA4C0C404141EB010111F4801FA4F10104E9D191F0000F04BF01462E
:207D80000020B1FA81F308BF2033A3F10B03B3F120020CDA0C3208DD02F1140CC2F10C0245
:207DA00001FA0CF021FA02F10CE002F11402D8BFC2F1200C01FA02F120FA0CFCDCBF41EA7D
:207DC0000C019040E41AA2BF01EB0451294330BD6FEA04041F3C1CDA0C340EDC04F11404E4
:207DE000C4F1200220FA04F001FA02F340EA030021FA04F345EA030130BDC4F10C04C4F1D5
:207E0000200220FA02F001FA04F340EA0300294630BD21FA04F0294630BD94F0000F83F444
:207E2000801306BF81F480110134013D4EE77FEA645C18BF7FEA655C29D094EA050F08BFC0
:207E400090EA020F05D054EA000C04BF1946104630BD91EA030F1EBF0021002030BD5FEA32
:207E6000545C05D14000494128BF41F0004130BD14F580043CBF01F5801130BD01F000453A
:207E800045F0FE4141F470014FF0000030BD7FEA645C1ABF194610467FEA655C1CBF0B468F
:207EA000024650EA013406BF52EA033591EA030F41F4002130BD00BF90F0000F04BF0021D0
:207EC000704730B54FF4806404F132044FF000054FF0000150E700BF90F0000F04BF0021C7
:207EE000704730B54FF4806404F1320410F0004548BF40424FF000013EE700BF42004FEA27
:207F0000E2014FEA31014FEA02701FBF12F07F4393F07F4F81F06051704792F0000F14BF38
:207F200093F07F4F704730B54FF4607401F0004521F0004120E700BF50EA010208BF704734
:207F400030B54FF000050AE050EA010208BF704730B511F0004502D5404261EB41014FF4FE
:207F6000806404F132045FEA915C3FF4DCAE4FF003025FEADC0C18BF03325FEADC0C18BF76
:207F8000033202EBDC02C2F1200300FA03FC20FA02F001FA03FE40EA0E0021FA02F114446C
:207FA000C1E600BF70B54FF0FF0C4CF4E06C1CEA11541DBF1CEA135594EA0C0F95EA0C0F78
:207FC00000F0DEF82C4481EA030621EA4C5123EA4C5350EA013518BF52EA033541F4801122
:207FE00043F4801338D0A0FB02CE4FF00005E1FB02E506F00042E0FB03E54FF00006E1FB21
:2080000003569CF0000F18BF4EF0010EA4F1FF04B6F5007F64F5407404D25FEA4E0E6D4150
:2080200046EB060642EAC62141EA55514FEAC52040EA5E504FEACE2EB4F1FD0C88BFBCF54E
:20804000E06F1ED8BEF1004F08BF5FEA500E50F1000041EB045170BD06F0004646EA010112
:2080600040EA020081EA0301B4EB5C04C2BFD4EB0C0541EA045170BD41F480114FF0000E55
:20808000013C00F3AB8014F1360FDEBF002001F0004170BDC4F10004203C35DA0C341BDCC4
:2080A00004F11404C4F1200500FA05F320FA04F001FA05F240EA020001F0004221F0004136
:2080C00010EBD37021FA04F642EB06015EEA430E08BF20EAD37070BDC4F10C04C4F12005A0
:2080E00000FA04F320FA05F001FA04F240EA020001F0004110EBD37041F100015EEA430E27
:2081000008BF20EAD37070BDC4F1200500FA05F24EEA020E20FA04F301FA05F243EA0203D6
:2081200021FA04F001F0004121FA04F220EA020000EBD3705EEA430E08BF20EAD37070BDD9
:2081400094F0000F0FD101F00046400041EB010111F4801F08BF013CF7D041EA060195F0E1
:20816000000F18BF704703F00046520043EB030313F4801F08BF013DF7D043EA0603704744
:2081800094EA0C0F0CEA135518BF95EA0C0F0CD050EA410618BF52EA4306D1D181EA0301AD
:2081A00001F000414FF0000070BD50EA410606BF1046194652EA430619D094EA0C0F02D14C
:2081C00050EA013613D195EA0C0F05D152EA03361CBF104619460AD181EA030101F0004159
:2081E00041F0FE4141F470014FF0000070BD41F0FE4141F4780170BD70B54FF0FF0C4CF403
:20820000E06C1CEA11541DBF1CEA135594EA0C0F95EA0C0F00F0A7F8A4EB050481EA030E87
:2082200052EA03354FEA013100F088804FEA03334FF0805545EA131343EA12634FEA022290
:2082400045EA111545EA10654FEA00260EF000419D4208BF964244F1FD0404F5407402D252
:208260005B084FEA3202B61A65EB03055B084FEA32024FF480104FF4002CB6EB020E75EBE3
:20828000030E22BFB61A754640EA0C005B084FEA3202B6EB020E75EB030E22BFB61A7546CD
:2082A00040EA5C005B084FEA3202B6EB020E75EB030E22BFB61A754640EA9C005B084FEA78
:2082C0003202B6EB020E75EB030E22BFB61A754640EADC0055EA060E18D04FEA051545EA19
:2082E00016754FEA06164FEAC30343EA52734FEAC2025FEA1C1CC0D111F4801F0BD141EAF3
:2083000000014FF000004FF0004CB6E711F4801F04BF01430020B4F1FD0C88BFBCF5E06F35
:208320003FF6AFAEB5EB030C04BFB6EB020C5FEA500C50F1000041EB045170BD0EF0004EAA
:208340004EEA113114EB5C04C2BFD4EB0C0541EA045170BD41F480114FF0000E013C90E680
:2083600045EA060E8DE60CEA135594EA0C0F08BF95EA0C0F3FF43BAF94EA0C0F0AD150EA24
:2083800001347FF434AF95EA0C0F7FF425AF104619462CE795EA0C0F06D152EA03353FF491
:2083A000FDAE1046194622E750EA410618BF52EA43067FF4C5AE50EA41047FF40DAF52EAA7
:2083C00043057FF4EBAE12E74FF0FF3C06E000BF4FF0010C02E000BF4FF0010C4DF804CDE2
:2083E0004FEA410C7FEA6C5C4FEA430C18BF7FEA6C5C1BD001B050EA410C0CBF52EA430CBD
:2084000091EA030F02BF90EA020F0020704710F1000F91EA030F58BF994208BF90422CBF99
:20842000D8176FEAE37040F0010070474FEA410C7FEA6C5C02D150EA013C07D14FEA430C58
:208440007FEA6C5CD6D152EA033CD3D05DF8040B704700BF8446104662468C4619466346AA
:2084600000E000BF01B5FFF7B7FF002848BF10F1000F01BD4DF808EDFFF7F4FF0CBF0120EF
:2084800000205DF808FB00BF4DF808EDFFF7EAFF34BF012000205DF808FB00BF4DF808ED07
:2084A000FFF7E0FF94BF012000205DF808FB00BF4DF808EDFFF7CEFF94BF012000205DF856
:2084C00008FB00BF4DF808EDFFF7C4FF34BF012000205DF808FB00BF4FEA4102B2F1E0435A
:2084E00024BFB3F5001CDCF1FE5C0DD901F0004C4FEAC0024CEA5070B2F1004F40EB8300FA
:2085000008BF20F00100704711F0804F21D113F13872BCBF01F00040704741F480114FEAFA
:208520005252C2F11802C2F1200C10FA0CF320FA02F018BF40F001004FEAC1234FEAD32382
:2085400003FA0CFC40EA0C0023FA02F34FEA4303CCE77FEA625307D150EA01331EBF4FF01C
:20856000FE4040F44000704701F0004040F0FE4040F40000704700BF80F0004002E000BFF8
:2085800081F0004142001FBF5FEA410392EA030F7FEA226C7FEA236C6AD04FEA1262D2EB5B
:2085A0001363C1BFD218414048404140B8BF5B42192B88BF704710F0004F40F4000020F068
:2085C0007F4018BF404211F0004F41F4000121F07F4118BF494292EA030F3FD0A2F1010297
:2085E00041FA03FC10EB0C00C3F1200301FA03F100F0004302D5494260EB4000B0F5000FA0
:2086000013D3B0F1807F06D340084FEA310102F10102FE2A51D2B1F1004F40EBC25008BF12
:2086200020F0010040EA03007047490040EB000010F4000FA2F10102EDD1B0FA80FCACF1A7
:20864000080CB2EB0C0200FA0CF0AABF00EBC25052421843BCBFD0401843704792F0000FE2
:2086600081F4000106BF80F400000132013BB5E74FEA41037FEA226C18BF7FEA236C21D00C
:2086800092EA030F04D092F0000F08BF0846704790EA010F1CBF0020704712F07F4F04D13A
:2086A000400028BF40F00040704712F100723CBF00F50000704700F0004343F0FE4040F478
:2086C000000070477FEA226216BF08467FEA23630146420206BF5FEA412390EA010F40F429
:2086E000800070474FF0000304E000BF10F0004348BF40425FEA000C08BF704743F09643B3
:2087000001464FF000001CE050EA010208BF70474FF000030AE000BF50EA010208BF704776
:2087200011F0004302D5404261EB41015FEA010C02BF84460146002043F0B64308BFA3F13F
:208740008053A3F50003BCFA8CF2083AA3EBC25310DB01FA02FC634400FA02FCC2F120023A
:20876000BCF1004F20FA02F243EB020008BF20F00100704702F1200201FA02FCC2F120024D
:2087800050EA4C0021FA02F243EB020008BF20EADC7070474FF0FF0C1CEAD0521EBF1CEAEB
:2087A000D15392EA0C0F93EA0C0F6FD01A4480EA010C400218BF5FEA41211ED04FF00063FE
:2087C00043EA501043EA5111A0FB01310CF00040B1F5000F3EBF490041EAD3715B0040EA85
:2087E000010062F17F02FD2A1DD8B3F1004F40EBC25008BF20F00100704790F0000F0CF03E
:20880000004C08BF49024CEA502040EA51207F3AC2BFD2F1FF0340EAC250704740F4000093
:208820004FF00003013A5DDC12F1190FDCBF00F000407047C2F10002410021FA02F1C2F11E
:20884000200200FA02FC5FEA310040F1000053EA4C0308BF20EADC70704792F0000F00F072
:20886000004C02BF400010F4000F013AF9D040EA0C0093F0000F01F0004C02BF490011F480
:20888000000F013BF9D041EA0C018FE70CEAD15392EA0C0F18BF93EA0C0F0AD030F0004CB0
:2088A00018BF31F0004CD8D180EA010000F00040704790F0000F17BF90F0004F084691F076
:2088C000000F91F0004F14D092EA0C0F01D142020FD193EA0C0F03D14B0218BF084608D191
:2088E00080EA010000F0004040F0FE4040F40000704740F0FE4040F4400070474FF0FF0CA1
:208900001CEAD0521EBF1CEAD15392EA0C0F93EA0C0F69D0A2EB030280EA010C49024FEA33
