:020000040020DA
:20200000505E00208D222000F76A2000F56A2000F56A2000F56A2000F56A200000000000A6
:20202000000000000000000000000000F56A2000F56A200000000000F56A2000936B200005
:20204000A56B2000AB6B2000B16B2000B76B200000000000996B20009F6B2000F56A2000CF
:20206000F56A20000000000000000000000000000000000000000000F56A20000000000062
:202080000000000000000000F56A2000F56A2000F56A2000F56A2000F56A2000F56A200046
:2020A000F56A2000F56A2000F56A2000F56A2000F56A2000F56A2000F56A2000F56A200028
:2020C000F56A2000F56A2000F56A2000F56A2000F56A200000000000000000000000000085
:2020E000000000000000000000000000000000000000000000000000E9362000F936200052
:202100000000000000000000000000000000000000000000000000000000000000000000BF
:2021200000000000000000000000000000000000000000000000000000000000000000009F
:2021400000000000000000000000000000000000000000000000000000000000000000007F
:2021600000000000000000000000000000000000000000000000000000000000000000005F
:2021800000000000000000000000000000000000000000000000000000000000000000003F
:2021A00000000000000000000000000000000000000000000000000000000000000000001F
:2021C0000000000000000000000000000000000000000000000000000000000000000000FF
:2021E0000000000000000000000000000000000000000000000000000000000000000000DF
:202200000000000000000000000000000000000000000000000000000000000000000000BE
:2022200000000000000000000000000000000000000000000000000000000000000000009E
:2022400000000000000000000000000000000000000000000000000000000000000000007E
:2022600000000000000000000000000000000000F56A2000CD352000F1352000B52A200078
:202280006938200061262000F56A200008B5094BFF221A600848094A4824E369121A0849D3
:2022A00098470848084AA369121A0021984701F023FBFEE7B4200D4040400020C449002083
:2022C00084792000C84900204E56002008B5002000F024FA012000F021FA0D49002000F06F
:2022E000F1FA02F071F9002001F0B2FF01F094F900F008FC00F024FC0821064801F0CCFA25
:2023000002F076F862B6BDE80840042004F0F6BB854520003E56002073B51A4B1B68022BB4
:2023200008DD1949194A1A4802F0F0FF19491A4802F0ECFF6846082101F0AEFA174E9DF8A5
:2023400007309DF80650F46A43EA05254AF6CD310220A04729460320A0470A210120A047B3
:20236000736B082269460B20984704F0FFFB00F0B3F800210A4801F02BFE022004F0BEFBB7
:2023800002B070BDDC4400201D762000187620002276200031762000EF762000A87320007E
:2023A000104500200022F0B51746154C0125FF2640FA02F3DB071ED504EB4203597814F8C3
:2023C000123061B1D908090301F1804103F0070301F5592105FA03F341F823700BE0D9080F
:2023E000090301F1804103F0070301F5592105FA03F341F823600132032AD9D1F0BD00BF8A
:2024000056762000F0B5104C00210125FF2640FA01F3DB0714D504EB41035F7814F8113013
:20242000DA08120302F1804203F0070302F5592205FA03F317B142F8236001E042F8237059
:2024400001310329E3D1F0BD5676200070B40E4E0022012516F812300C49D80800030C581D
:2024600003F0070305FA03F324EA03040C5020390144086801320343032A0B60EAD170BCF3
:202480000720FFF7BFBF00BF5676200020940D40084A136823F00403136052F8203C43F0C2
:2024A000040342F8203C044B00221A60034B01221A70704720C40D4010C00D405A540020C6
:2024C000044B1868C0F30720030904BF1030C0B2704700BF1C300D4008B5FFF7F1FF014BD4
:2024E0001B6808BD1C300D40F8B500F077F80F4B0024D3E900673A46B04238BF7A1C1546F4
:202500000443C3E90045DFF828E0DEE90001821B61EB070312196B41CEE9002301F070FBDC
:2025200018B1BDE8F84001F0EFBAF8BDC8490020D04900200D4B0E4AE0215A600D4A82F800
:202540002310002207219A6019600B490B6843F001030B60094B1A60042243F80C2C012298
:2025600043F8082C0F22DA62704700BF10E000E047E8010000ED00E008200D400C00034078
:20258000034BD3E90023100A40EA0360704700BFC8490020054B18601C3B1A6842F00102EA
:2025A0001A601A68D207FCD4704700BF2800034010B5064C236823F001032360FFF794FFD0
:2025C000236843F00103236010BD00BF10E000E0014B1868704700BFD8490020074B084A33
:2025E000196804331B681268120442EA0323054A0B43106843EA0060704700BF40500D40C9
:2026000048500D404C500D4010B50446104A1368DB07FCD572B6FFF7E1FF231A062BD8BF52
:20262000C41D0C4B220E1A60C4F3074243F8042CC4F3072243F8082CE2B243F80C2C62B6DF
:20264000054B1C60054B4FF400321A6110BD00BF50500D404C500D40D849002000E100E00A
:2026600008B501F067F8094B00221A60084B4FF40032C3F89021C3F89020BFF34F8FBFF37C
:202680006F8FBDE8084001F0C7BC00BFD849002000E100E0064B1B681B075FBF054B186836
:2026A00080F00800C0F3C00048BF0020704700BF18C0004018D00040164A2C2303FB002382
:2026C0004FF6BF7270B5DC680546236C62649BB213F050020DD0104EA369DB0608D456F887
:2026E00025301BB12068C0B29847F5E72368F3E770BD13F4D06F0BD04FF440732363FF23B3
:202700006360E36AE262E362236B43F00103236370BD00BF50732000DC49002001282DE982
:20272000F74F064600F2BD802C2545435E4B5C1994F920909846B9F1000FC0F2B28094F99C
:202740002230002BC0F2AD80584801F069F8584A58F805301168E5680B43136051686368F9
:2027600094F921A00B4353609168A36894F822700B4393600023C5F8C83F23690AEBC90274
:202780001A6094F823305FFA87FB00939DF80030227D19465846019300F03EF9019B082290
:2027A0001946584600F02EF97FB2424B3F039DF90020F9584FF0010E0EFA02F20A43FA501D
:2027C0004FEA093959F803100EFA0AF20A4349F803205022AA63AA6B94F8240042F4D062B9
:2027E000AA6302226A634FF440722A63A2696A62E269AA627022EA6242B2002A1D4617DBDA
:2028000094F925302C4943EAC2030B6094F82510120353594CB20EFA04FE4EEA0303535198
:20282000002200F0EFF8254A136843F4004313602C2303FB068393F826904FFA89F4002CBF
:202840001CDB93F827705FFA89F95FFA87FA012251464846240300F0DFF87FB26359012264
:2028600002FA07F71F43082267515146484600F0C9F8124A136843F4804313602C2303FBB3
:202880000686F268136B43F00103136396F828300122590903F01F0302FA03F3084A42F829
:2028A000213003B0BDE8F08F507320009526200028200D4020940D4004410D4030D00040CA
:2028C00000E100E001289CBF014B43F820107047DC490020012808D8044B2C2202FB00302D
:2028E000C3689A699206FCD41960704750732000014B00221A60704700500D40014B08227D
:202900001A60704700500D40024BA0221A6050221A60704700500D40014B024A9A607047D7
:2029200000ED00E00020200038B5164D164C2B68012223F040032B602368062123F0400339
:202940002360032000F05EF82B68012223F080032B602368072123F080032360032000F0D5
:2029600051F80A4A0A4B0B491A600A680A4B1340084A002BF9D113685901FCD413685B01BA
:20298000FCD538BD20C40D4000C40D400101020000200D4004200D40000001012DE9F843FA
:2029A00004464FEA0438DFF83C9008F1804606F5592600F0BFFED6F8187458F80930E50007
:2029C00023FA05F447EA0400C0B2E4B2A840FFB2AC4001F011FEC6F81C7448F80940BDE8A3
:2029E000F88300BF18970D40034A044B1A60044B803A1A60704700BF80400D40E849002034
:202A0000E4490020034B01EBC0011B6843F82120704700BFE8490020034B01EBC0011B682A
:202A200043F82120704700BFE44900200E2870B50BD1164B164E1C6844F002051D60356882
:202A400025F03F0343F001033360124E336823F0FF031A43114301430F4A316013681B06CA
:202A6000FCD50E4B0E4A1B6812680E2803F0FC0343EA022308BF064A9BB204BF1560034A74
:202A80009BB208BF146018B270BD00BF34000144F486084008700D4000700D400C700D4072
:202AA00010700D40024B1868B0FA80F04009704700B70840094B4FF4004210B5C3F8902159
:202AC000C3F89020BFF34F8FBFF36F8F044C206818B101F095FA0023236010BD00E100E0F6
:202AE000EC490020064A136843F002031360536843F002035360936843F002039360704788
:202B000048200D4007B50C4800F08AFEFFF7EAFF0A4B1A6842F002021A6000220192019AC2
:202B20000F2A02DC019A0132F8E71A6822F002021A6003B05DF804FBA52A200054200D4008
:202B4000064A136823F002031360536823F002035360936823F002039360704748200D4027
:202B60002DE9F0410E464FEAD0084FEA083400F00701012704F180448F4016F00C0304F57E
:202B800059246FEA070505D1D4F810342B40C4F810342DE0042B0DD1D4F804342B40C4F8BD
:202BA0000434D4F808342B40C4F80834D4F80C343B430EE0082B0FD1D4F804342B40C4F8BC
:202BC0000434D4F808342B40C4F80834D4F80C342B40C4F80C340BE00C2B09D1D4F80434DF
:202BE0002B40C4F80434D4F808343B43C4F8083416F0030204D0022A02D0012A03D10422F6
:202C00004046FFF7FFFE16F0800605D1D4F810342B40C4F810340AE04EB1D4F810341F4303
:202C2000C4F81074054A012303FA08F31360D4F820341D40C4F82054BDE8F08100E100E0F2
:202C4000074B93F90020002A08DB064AED211160E32111601A7862F07F021A70012070475E
:202C60005F540020388808400B4A13689907FCD4094B1B685B065EBF084BED221A60084BB5
:202C80001B6813B1054BEF221A60064A0120137803F07F03137070474C8608403888084045
:202CA0002C8608405F54002010B50A4B04461B6813F03F0302D0FFF7D7FF012304EB8402E4
:202CC00005492C3A0A600BB1FFF7BAFF034B1C7010BD00BF488608403C860840C3490020B9
:202CE00010B50B4B1B68990603D1FFF7A9FF012300E0002307490A68D207FCD5064A1468C6
:202D0000C4F300140BB1FFF7AFFF204610BD00BF48860840648608404C860840044B186865
:202D200000F02200A0F1200358425841704700BF4C860840024B186800F04000704700BF97
:202D40004C86084038B50C46002900F09780182800F29680DFE800F00D1A1F21283E475B7C
:202D600060767A9494947F815883948587898B8D9000444B186810F0FF007BD0424B1B6832
:202D800013F0030F0CBF0123022301E03F4B1B782360002038BD3E4B00E03E4B1A68043BC1
:202DA0001B6843EA0223F3E700230B603A4B364A1B6803F001030B601268920644BF43F0A4
:202DC00002030B60354B1B78002BE2D00B6843F00403DDE7324B00201B780860002BD8D0B7
:202DE00001230B6038BD2F4B2F491A680023D2B201EBC3000079904203D82B4A52F833303D
:202E0000C6E701330E2BF3D16FF01703C0E7274B1B685BB2493BBBE7254B1B689B0603D124
:202E2000FFF70EFF012200E000222248036859B28031FBD0493BDDB20AB1FFF715FF6DB217
:202E40002560A6E71C4B93F90030A1E71B4B1B7803F07F039CE70B239AE71A2398E707232F
:202E600096E7032394E7202392E70C2390E708238EE70020206038BD7D2389E7022038BD76
:202E8000012038BD2C86084024860840C3490020CC850840D4850840008608405E5400202A
:202EA000C249002040860840E07320005886084048860840608608405D5400205B5400205C
:202EC0000B280DD1082A0DD161B1074B074A083111F8010D43F8040F9342F9D10020704708
:202EE0000120704702207047A4850840C485084070B52F4E336813F0400307D02D4D2B68B8
:202F0000DCB21B0604D52C4BED221A60002070BD042CF8D9023C8C42F5DCE4B2032C21D048
:202F200001190139032000F099FB631E23491B011943032000F09CFB032000F0A3FB0320B3
:202F400000F0B8FB032000F0C1FB0028FAD129681B4B4939C9B219702B681A4D18062B70DC
:202F6000D1D506E02B6803702B6843702B688370EDE749B289B2042001F09CFC2978032078
:202F800001F07F0101F096FC0F4B1B786BB933685A060AD5064B1B681B0603D50B4801F041
:202FA0002FF802E0044BED221A60204670BD00BF4C860840288808403888084002C0010CF5
:202FC0005D5400205B5400205E540020CC4400207D2938B505460C4624D8134A13689B07A9
:202FE000FCD4124B93F90030002B01DBFFF728FE0F4BEE221A60691EA21C43F8102C2144C0
:20300000022000F023FB013C0A4924012143022000F02EFB022000F035FB022000F04AFB93
:20302000002038BD012038BD4C8608405F5400203888084002C001C00B282DE9F84F0E4609
:2030400010D1082A40F0828000297FD0414B424A4E1E53F8041D934206F8011FF9D10020E6
:20306000BDE8F88F0C286ED1042A6FD100296DD03A4B3B481A68DFF8F8C022F007021A602F
:203080000268DFF8F0A042F008020260DAF80040DCF800101A68DFF8E0E022F07002314FAE
:2030A0001A60DEF800203D68E4B2090244EA056401F47F411204214302F47F020A432A495D
:2030C0000024D1F800805FFA88F544EA02081A68A94622F0070242F001021A60026842F09E
:2030E00008020260DAF80000DCF800201D68C0B225F0700545F010051D60DEF800303D68AB
:20310000120240EA056002F47F421B04024303F47F0313430A6844EA030A5FFA82FBFFF7A9
:203120005DFAB8EB0A0869EB0B094FEAC93105460E4A00234FEAC83041EA584102F0C2FC7D
:20314000281A30608BE70120BDE8F88F0220BDE8F88F00BFC8850840A885084010880840E7
:2031600004880840208808401C8808400048E8011888084014880840248808407D28F8B55C
:2031800041D8234B93F90030002B0DDBFFF726FA0546FFF755FD6FF00904641BFFF71EFA37
:2031A000C442FBD4012600E000261A4B1B7823B9194C2368990604D405E0FFF791FD002841
:2031C000F6D10220F8BD154BE9221F461A60042523689A0707D4013D15F0FF0503D0062097
:2031E000FFF7D8F9F4E723689B0703D4EE233B60012404E0206810F00200FBD1044626B1FD
:20320000FFF732FD01E00120F8BD2046F8BD00BF5F540020C24900204C86084038880840D8
:20322000234B1870002838D0224A13681B03FCD5214B1A6842F002021A601A6842F001023D
:203240001A601A681C495007FBD50A6822F001020A601968184A4907FBD4116841F0020146
:203260001160116841F0010111601A685207FCD5124A136823F004031360D2F8A83123F0FA
:203280000403C2F8A8310E4B4FF40052C3F89020BFF34F8FBFF36F8F7047084A136843F044
:2032A00004031360064B4FF400521A61704700BF5E54002004200D40048808408C8608404C
:2032C00000E100E02DE9F0412E4F3D7815F0010555D12D4B01241C605C609C60A3F5932364
:2032E000A3F51473F8221A600922C3F89021152270331A6003F59B230B2203F59E731A60CA
:20330000A3F59B23214EA3F5A6731C604023336033684FF07F0843F0200333601C4BD5221D
:203320001D60C3F848809A631A4B1878FFF7BCFC336823F00C033360174BC3F80080174B9E
:203340004FF480421A61022000F0A8F91449022000F084F9032000F0A1F91149032000F034
:2033600075F9104B1878FFF75BFF29460E4800F02FFE3B78204623433B70BDE8F081002062
:20338000BDE8F0815F540020A8200D402486084008860840C34900209486084000E100E018
:2033A000288808405E540020CC44002038B503880446CBB140F25D42934203D000230380B6
:2033C000032038BD194B18781A4628B11B7873B1174B1B7858060AD5822908D1137843B1BC
:2033E000134B1A78520614D440F25D432380012038BD01F015FA01F0A5F98021FFF778FD77
:203400000028EDDD80B201F081F90A4BDB689847E6E700221A70084B1D68FFF725FCFFF748
:2034200051FFAB06E0D0FFF70BFCDDE75E5400205F5400207C7420004886084013B50C4635
:203440000D2800F2A380DFE800F007464E5259757B8FA1A1A1A1A195012939D011B9FFF7F9
:2034600003FC85E08B1E012B00F2928001A90020FFF768FC022C019B19D1022B78D05A1E4A
:2034800053425341444A1370FFF7EEFB434B444A1968116042221A60D3F8C010414A116090
:2034A0001822C3F8C020E922C3F8142260E0022B5ED13D4BEF221A60394B1A68374B1A608A
:2034C000384B1A68394B1A60334B1B78002B4FD0FFF7B6FB4CE0A1F10B030F2B58D8C8B237
:2034E000FFF7E2FB44E08CB2E2B2314B02E08CB2304BE2B2240A1A605C6039E031F00703B0
:2035000046D12D4B11F0010F1A68C1F3800014BF42F0010222F001021A60204B11F0020F41
:203520001A6814BF42F0200222F020021A60FFF777FE1DE031F001002AD1204B197028E0B3
:2035400001F118031F2B23D81D490D2351F83300DA00844204DC1A4B13441A79194B10E0E4
:2035600013F1FF33F2D203E0CCB2174B49341C6000200EE001290BD8084B1A6819B122F0C9
:203580000C021A60F4E742F00C02FAE7012000E0022002B010BD00BF5C5400202486084084
:2035A000F4490020F049002038880840E4860840C8850840D085084000860840C249002070
:2035C000E0732000408608405886084008B5054B1B7813B9044800F013FD044B00221A60A1
:2035E00008BD00BF5E540020CC44002034880840064B07481A68042A1FBF06490A7842F010
:2036000040020A7000221A6000F0FABC2C880840CC4400205F54002010B5094C4022002110
:20362000204602F047FF074B01221A605C60064B4FF480425A604FF400425A6010BD00BF66
:203640000040002004F00F4000E100E003289EBF014B0001195070470040002003289EBF29
:20366000024B03EB00104160704700BF0040002003289EBF024B03EB00108160704700BF5E
:2036800000400020032806D8034901220B6802FA00F018430860704728F00F40032806D809
:2036A000034901220B6802FA00F018430860704720F00F40032806D8034901220B6802FA7C
:2036C00000F018430860704714F00F4003289FBF044B03EB0010806800F0070088BF002011
:2036E000704700BF00400020024B4FF0FF321A60704700BF04F50F40014B01221A6070475F
:203700004CF00F40094A1368084913F4801FFAD1074B1A6822F480321A600A68D203FCD461
:203720001A6842F400321A60704700BF04200D4000200D4010B50A4C23689A070FD0094959
:203740000B68084A13F0806FFAD113685B01FCD5FEF72EFFFFF7D6FF23680023236010BD54
:2037600058200D4004200D4038B5274B1C6814F03F0413D1254D55F8243023B1984768B126
:203780000134052CF7D1224D2B783BB1FEF720FF0446FEF723FF201A092801D830BF38BD60
:2037A000002CFBD01B4B1C481A6822F400321A600268194912F4801FFAD11A6842F480325E
:2037C0001A600B68DB03FCD5FEF708FF201A092803D8BDE83840FFF795BF63280F4C02D9E3
:2037E0002B78022B00D00123236000F0BFFB20B1FFF788FF0023236038BDFEF7E9FE0028EB
:20380000F6D02368CAE700BF48860840F84900206054002000200D4004200D4058200D40F9
:203820000749002351F82320824207D01AB9044A42F8230070470133052BF3D1704700BF1B
:20384000F8490020054B00221A60054A136943F004031361034B02221A70704758200D402A
:2038600000ED00E060540020094B4FF4803210B5C3F89021C3F89020BFF34F8FBFF36F8F82
:20388000044C206818B100F0BBFB0023236010BD00E100E00C4A0020134B1B782BB101F574
:2038A000201127310138114B16E0114A1278122AF5D1104A12784B2AF1D108448B420ADAF5
:2038C00003F52012032BD4BF2C3224321278013300F8012DF2E77047994204D011F80129F3
:2038E00000F8012FF8E770472B002800270028002A0028002900280010B54F4C03F02AF94F
:20390000FEF718FE03F0E1F900F0D6FA00214B4800F05EFB00F0E2F9FEF7EAFF03F0B7F9C6
:2039200000F08EFBFEF7D2FC00F07EFE00F0ECFF00F088F92368022B07DD414A4149424858
:2039400001F0E4FC414801F0E1FC2368022B09DD3C493B4A3C4801F0D9FC3D4B3D481968BF
:2039600001F0D4FC2368022B09DD3649344A364801F0CCFC384B3948196801F0C7FC2368F0
:20398000022B09DD2F492E4A2F4801F0BFFC344B3448196801F0BAFC2368022B09DD2949CE
:2039A000274A294801F0B2FC4AF6CD312E4801F0ADFC2368022B08DD2249214A224801F06A
:2039C000A5FC0A21294801F0A1FC2368022B09DD1C491B4A1C4801F099FC254B254819884C
:2039E00001F094FC2368022B07DD154A1549164801F08CFC204801F089FC2368022B02DDA1
:203A00001E4800F041F82368022B02DD1C4801F07DFCFEF781FC1B4803F02FF9FEF76EFF60
:203A200000F062FA0446FEF76FFF14F0FF0FF7D103F09AF8F4E700BFDC440020E044002010
:203A4000927620001D7620002276200097762000A8742000CE76200098742000DD76200067
:203A60007C742000E8762000F37620000D772000EC4E00202D7720003A7720003E560020E8
:203A800057792000FC74200038B5054608B1002409E00948BDE8384001F038BCE30702D495
:203AA000064801F033FC295D0548013401F02EFC082CF3D138BD00BF4F7720005E772000EE
:203AC0006077200010B50E4C236813B90D4A136010BDFEF755FD216891E80C001A44131A02
:203AE0008A6842B192E812002144091A8B4228BF0B469268F5E71844024B186010BD00BF45
:203B0000104A0020144A0020014800F079BA00BFE04400202DE9F8430388054633B1592BAF
:203B20000BD0002303800320BDE8F883234A136059232B800120BDE8F883872924D082292A
:203B4000F6D11E4F4FF00008B9463C680026002CEED0204603F0C2F898B122468821E06882
:203B600000F00EFA58B9E060A3680EB1B36001E0C9F80030C4F80880FFF7A4FFE5E7FFF7AE
:203B8000C3FF2646A468E2E70C4900200B681BB90028CDD00B60CBE7DC68A24202D19B6886
:203BA0000120F4E700B10B6099680029C0D0C86882420ABF89680B469960F5E7104A0020E5
:203BC00010B50446FFF7A0FFE3680B4A4BB113683BB1A34203D1094A1268DA6007E09B6894
:203BE000F6E7064B1B68E36013681460A360BDE81040FFF767BF00BF104A00201C4A00200F
:203C0000024B1868003018BF01207047104A002010B50B4A04461368834206D183681360A5
:203C200008E09A68944203D01346002BF9D103E0A2689A60FFF746FF0023A360E36010BD4B
:203C4000104A0020034A9179D379034A03EB0123138070473E560020EC4E0020F8B5038858
:203C6000064615462BB14A2B15D0002303800320F8BD174803F04DF804462CB1A168201DE5
:203C800003F006F82468F8E7124B01221A704A2333800120F8BD8829FBD10D4803F039F8D2
:203CA0000446002CF3D0231D9D420ED12146084803F039F8084B62691F681A60A2691D4665
:203CC0000AB1E06990472F60E1E72468E9E700BF184A0020615400201C4A002010B5064BA4
:203CE000002406481C7003F011F82146BDE81040034800F06DB900BF61540020184A0020F7
:203D0000F044002070B50446E3610B4B049D1B786561A26143B1094D094B2E68201D2B604D
:203D200002F0B6FF2E6000E0A1602146BDE87040044803F00BB800BF615400201C4A002095
:203D4000F0440020184A002013B5034C24680094FFF7D8FF02B010BD1C4A002010B5084B6C
:203D600004461B781BB10430FFF752FF01E0C36003612146BDE81040024802F0D4BF00BFCD
:203D800061540020184A002010B50A4B04461B7823B1BDE81040043002F08CBF064802F05B
:203DA000B8FF18B1A04203D00068FAE7012010BD002010BD61540020184A002038B583687B
:203DC00004460D469BB10A4804600220A07304F10C0098470238012801D9832D05D1214605
:203DE0002046BDE8384000F005B80123A37338BD1C4A00202DE9F8431C4A04461568894691
:203E00002B4690461A4E3768A34204D00BB11B68FAE7BDE8F88334B3A37BABB10023A373C1
:203E200045B1A54204D022468721284602F047FF2D68F5E7A3683BB14C4505D034602A4649
:203E4000832104F10C009847D8F800309C4203D12268064B05E0134623B11A689442FAD11C
:203E600022681A603760BDE8F88300BF204A00201C4A0020002370B51D46094A0126137010
:203E8000084A146854B1E37B33B1A673E573002282212046FFF792FF2468F3E770BD00BF98
:203EA00064540020204A0020024B1878421C1A70704700BF65540020064B8A221A70064AB5
:203EC00000231370054A1370054A1360054A1360704700BF655400206254002063540020EA
:203EE000204A00201C4A00202DE9F0411A4D2B780BB1FFF7BFFF194C22783AB3184E0C2172
:203F00003378184F5943781817F8018001334768806803F01F03013A3370227068B9124B05
:203F20001E689EB12B780BB1FFF7A4FF30463A46414602F0C4FE3668F3E7B8F1810F04BF0F
:203F4000012383733A46414602F0B9FE2B7820781844BDE8F08100BF64540020635400207C
:203F600062540020244A0020204A0020024A034B10781B78184470476354002064540020DC
:203F8000F0B50B4E3378202B0FD00A4C0C252478094F1C4404F01F046C4301333D19A8601B
:203FA00039556A6033700020F0BD0120F0BD00BF6354002062540020244A002038B5034C35
:203FC000256802F07CFE256038BD00BF1C4A002030B40A4C0A4625682B4683420CD00BB144
:203FE0001B68FAE740B101210560817320608381812130BCFFF7E2BF30BC7047204A00201B
:2040000038B1837B013B012B9FBF024A0123C373137070476454002010B5084C206858B191
:2040200000232360816843689847236823B1BDE810401868FEF7E8BA10BD00BFA44B002061
:2040400082B0074B02AA42F8043DCD21934202D203F8011BFAE70348002102B0FFF7B8BF9B
:204060004E5600200045002038B5FEF74DFC0C4C0C4B22780B4DCD2A06D09C4207D2013492
:20408000F7E7AC4203D201342378CD2BF9D0FEF73BFCAC423ABF0348001B4FF0FF3038BD12
:2040A0004E560020505E002070B5038805462BB1912B0BD000230380032070BD4FF4A061C6
:2040C0001B4802F0E5FD91232B8003E0184802F0F1FD08B9012070BDFFF7C6FF154C164B9B
:2040E000061EA3EB040401DB002C0CDA134B1B68002B18DD124A1349134801F007F92246AB
:20410000314612480DE0A6420DDD0C4B1B68002B09DD0B4A0B490C4801F0F8F82246314667
:204120000B4801F0F3F8024802F0BBFDCBE700BFA84B00204E560020505E0020DC44002006
:20414000FC772000027820002276200006782000307820002DE9F04106880546772E31D04E
:204160007E2E40D0002E4ED12B4CFFF79DFE266026462A4B2A4FDFF8B0801870236857F8E5
:2041800023204AB1002108F80310936880209847336801333360F1E7224A1370772320E070
:2041A000214AD256002A12DB1B4A136801331360194B1C4A1B6812789A42F1DC1B4B1B6865
:2041C000002BEBD0194A00231360134AEFE7144A002052F82320114B1978FFF7D1FE30B927
:2041E0007E232B8014E00D4B1B788B4210D10A4B0D491A688B5C03F07F038B540B4A1368AE
:2042000001331360D0E7002303800320BDE8F0810120BDE8F08100BFB84B00204956002089
:20422000C04400206654002046560020BC4B0020054A136843F004031360044B1B6890695B
:2042400043EA002080B2704700700D4014700D4010B5184A136823F00C031360164B0122DF
:204260001A601A68012AFCD1144B08221A60E322C3F8142203F505731946114A1368DB07CA
:20428000FCD5104C102000232268013802F0010243EA02034FEA43039BB2F5D1002BF1D036
:2042A000094A180A03F0FE0310601360EF230B6010BD00BF00700D40A8200D4024860840E5
:2042C000648608409C86084014700D4010B5044690F84C30084A013380F84C3080210346FA
:2042E0002030FFF731FD054B2246BDE8104019780020FFF745BE00BFCD4220004B56002044
:2043000070B503880446C3B1B3F5867F03D000230380032070BD822912D102F058FCBFF333
:204320005F8F114B00221E681A60BFF35F8F02F052FC0E4D55F8040F20B94FF486732380BE
:20434000012070BD90F8453026FA03F3DB07F1D5FFF71AFD0028EDD02B68054A02211846FF
:20436000FFF7F2FCE6E700BFC04B0020B44400208D432000034A1368184310600248FFF7C7
:204380003FBE00BFC04B00202045002070B50446FFF7FAFC20B304F120063046FFF7F4FC0C
:2043A0000546204602F05AFD01280CD1C5B1002523460C4A84F84C507E213046FFF7C4FCC0
:2043C0002246094B06E058B955B93046FFF7C6FC2246064B2846BDE870401978FFF7D0BD5E
:2043E00070BD00BFCD4220004C5600204A560020F8B5FFF759FD304B304D1870FFF754FD60
:204400002F4B304C1870FFF74FFD2F4B2F4F18700023AB602E4B01266B602168002943D0FE
:2044200091F84530886C2B4AD90809030A44116803F0070306FA03F321EA0303136023685F
:20444000254A93F84530D90809030A44116803F0070306FA03F321EA03031360236840F007
:204460008C0193F84500FEF77BFB23681B4A93F84530D90809030A44116803F0070306FAD3
:2044800003F30B431360236893F84530DB0806FA03F33B6054F8043B93F8453006FA03F2E6
:2044A000AB681343AB60B8E70D48FFF791FDBDE8F840024800F09AB84C560020C44B0020B6
:2044C0004A560020B84400204B56002000E100E07543200020940D4000940D4010940D40D3
:2044E0002045002070B505880446672D09D0792D32D0002D36D1FFF7D7FC1D4B18701D4BD1
:204500001D601C4D2E461C4802F098FC431C01D167231FE00A28174A09D00D2807D02B6892
:204520007E2BF0DC5A1C3260144AD054EBE713680025591C1160114A2846D5540C4B19784A
:20454000FFF71EFD0E4B2A4685211868FFF718FD20B97923238009E0852907D1054B002257
:204560001A60CEE700230380032070BD012070BD4D560020D84B0020D04B0020E85400202B
:204580001C4A002038B50D4C01462378254633B90B4802F040FC60B90123237009E00A28AA
:2045A00001D00D2805D1064802F035FC08B100232B700448FFF724FD012038BDE754002063
:2045C000D04B00203045002008B505490548802202F01AFCBDE8084000210348FFF7F8BC06
:2045E00067540020D04B0020304500200146014802F0ACBBDC4B002038B50546064802F068
:2046000088FB04463CB1A068284002D0636803B198472468F6E738BDDC4B0020014802F060
:2046200075BB00BFDC4B002008B5044802F0A5FBBDE80840024802F0A0BB00BF4C450020B5
:204640004045002038B50E4802F0A7FB0446A8B10C4802F0A2FB0546206028B921460848F5
:2046600002F0AFFB284638BD00F074F805F19C01A5F8800005F1820000F0F8F8204638BD7C
:20468000404500204C45002010B501460446074802F0ACFB48B12168054802F092FB2146D1
:2046A000BDE81040014802F08CBB10BD404500204C45002010B501460446094802F096FB36
:2046C00068B12468B4F88010204600F0B9F804F19C0104F18200BDE8104000F0D9B810BDA6
:2046E0004045002010B507490B88834208DB064C80B222880244181A08802280012010BD07
:20470000002010BD4E54002050540020014B1880704700BF4E54002000487047004C00209F
:20472000014B1888704700BF4E540020034A044B10781B781844C0B2704700BF785500206D
:204740005054002008B5FFF7F1FF014B184408BD004C002070B50D4D0D4C2A7823880646A8
:204760001344802B0FDC0B4901F02EFE2B781E44FFF7E8FF22880146304601F025FE2878DE
:204780002388184470BD002070BD00BF785500204E540020004C002008B5FFF7C7FF024BF8
:2047A0001B88184480B208BD4E54002038B50146FFF7F2FF4318802B11DC0A4A013880B274
:2047C000541803B2002B04DBD55C0138E55480B2F7E7054B01201A781144197038BD002005
:2047E00038BD00BF004C00207855002038B5094D094C1A220021094801F05CFE2946204646
:2048000002F047FB294604F10800BDE8384002F040BB00BF10762000145600202456002065
:20482000044A00231380044A1380044A1370FFF7DDBF00BF505400204E54002078550020FE
:2048400038B50C460546FFF7EBFF802C28BF802422462946034801F0B7FD034B20461C80A0
:2048600038BD00BF004C00204E54002010B50C461A22054901F0A8FD2046BDE81040102292
:20488000024901F0A1BD00BF245600201456002010B50C461A220146044801F095FD2146CB
:2048A000BDE810401022024801F08EBD2456002014560020024B23F810100120704700BF08
:2048C00024560020014B33F8100070472456002008B5044B0D3803EBC00002F0DAFA012080
:2048E00008BD00BF14560020024B0D3803EBC000704700BF145600200149024802F0CCBA5E
:20490000107620001C560020054B10B51B689847044B5B689847BDE81040034B5B68184792
:20492000A87320007C74200098742000F8B5FDF727FE04460F4F00250D2007EB0516FFF73D
:20494000D3FF314602F0A8FA78B10720FFF7BAFF337B834201D00020F8BDB068201AB0F56B
:20496000206F8CBF00200120F8BD0135102DE3D1F1E700BF804C002070B5164E00240D20E3
:20498000FFF7B2FF06EB041102F086FA114D611C10B910290C46F2D14C1E05EB0111A1F108
:2049A00010063CB120391022304601F00DFD013C3146F4E70720FFF785FF2873FDF7E0FD5C
:2049C000A8600D20FFF790FFBDE870400146014802F05FBA804C002030B591B0054600F0E0
:2049E00063F84FF6FF73984202D14FF0FF3052E040220021684601F05DFD284B1A782AB9F4
:204A000001221A70FFF714FC254B18707DB10720FFF758FF58B9224C23780BB901232370B4
:204A200021780720FFF746FF237801332370FFF763FF6A46C1B21B4802F08CFAFFF75CFF72
:204A400028B1FF238DF800308DF8013006E00E20FFF74AFF0146684602F01BFA0D20FFF77E
:204A600043FF014602A802F014FAFFF76BFE0E90FFF756FE0F90684602F058FB04464DB1E2
:204A8000FFF794FE0028B0D0FFF746FE0146684602F095FB204611B030BD00BF7A55002073
:204AA00079550020C5482000014B1888704700BFC04900202DE9F041012986B006460F4608
:204AC000144640F3838003A902F0C3FB0A2203A904F1100001F078FC9DF811300BB1B51C45
:204AE00002E0B378F51CA37602AA01A903A802F079FA9DF81380B8F1000F23D0029B23B1D5
:204B00006A7815F8023B03EB0223B8F1020FA38309D13049204602F0BCF96B78237015F893
:204B2000023B637014E0B8F1030F11D105F108021346611E13F8010DAB4201F8010FF9D123
:204B4000154605E02349204602F0A3F9A4F81C809DF81580B8F1000F2BD0019B53B16A781E
:204B600015F8023B03EB0223029A9BB2E3831AB9A38301E0A38BE383B8F1020F0AD1154928
:204B800004F1080002F085F96B78237215F8023B637215E0B8F1030F12D105F10802134625
:204BA000E11D13F8010D9D4201F8010FF9D1154606E0084904F1080002F06BF9A4F81E800D
:204BC000A81B3B1A8742E363A56300DA002006B0BDE8F08110762000074A084913681844C1
:204BE000884283BF064B0C224FF0FF3010608CBF1A601846704700BF584500200080002056
:204C00001056002070B505460C46102C07D92B68102208496868984750B9103CF5E734B155
:204C20002B68224668680349BDE870401847204670BD00BF807820002DE9F04F0646154643
:204C40008FB006914FF0000B069B1B78CBB1069C274617F8013B1BB1252B14D03C46F7E7CA
:204C6000069BA3420DD0069B0699C3EB04084246336870689847002840F025832378C3445B
:204C800023B958463AE3069BA342ECD16378002BF7D039460024084610F8013B0A462B2B92
:204CA00011D006D8202B11D0232B12D144F0080416E02D2B04D0302B0BD144F010040FE008
:204CC00044F001040CE044F0060409E044F0020406E0A3F13107082F11D84FF0000801E054
:204CE0000146D8E70A4611F8013BA3F13000092813D80A2202FB0838A8F13008F2E72A2BD1
:204D000009D12B680246002B05F10405B8BF44F00104984601E04FF0000813782E2B1AD12F
:204D20005178531CA1F1300009280ED8194600270A780B46A2F13000092801F101010DD83C
:204D40000A2303FB0727303FF2E72A2904D12F68931C043502E013464FF0FF371A786C2A33
:204D600009D15A786C2A02D144F080040AE0013344F0600411E0682A0AD15A78682A03D11A
:204D800044F02004023308E0013344F0400404E07A2A04BF44F0600401331A78642A3CD0AF
:204DA0001FD8462A48D00DD8252A5AD003D8002A3FF467AF57E0412A4AD0452A53D144F441
:204DC000424450E0582A31D004D8472A4BD144F4A13448E0612A38D0632A44D144F4A0648B
:204DE00041E06E2A3AD007D8662A22D027D3672A28D0692A11D036E0732A2CD006D86F2A72
:204E000011D0702A2FD144F440742CE0752A07D0782A28D144F4C85425E044F4245422E003
:204E200044F410641FE044F488541CE044F4B24419E044F4007416E044F4844413E044F4C3
:204E4000024410E044F481340DE044F4C1340AE044F4E13407E044F4806404E044F4E0647B
:204E600001E044F4C0640133069304F4E063B3F5806F00F08F8113D8B3F5807F27D0B3F525
:204E8000407F7FF4E1AEAE4B14F4804FAD4A18BF1A460DF133032868002104351F46B5E13A
:204EA000B3F5C06F08D0B3F5E06F00F02282B3F5A06F7FF4C9AEF2E133680122A2497068C3
:204EC0009847002840F0FF810BF1010BBCE6002FACBF24F01004012714F40053079304F09E
:204EE000E0032ED0402B12D005D8ABB1202B21D195F900200DE0602B0ED0802B1AD1073538
:204F000025F0070303F10805D3E9002307E0B5F90020D317043502E02A680435D317002AF9
:204F200073F1000108DA524263EB4303CDE90023012304E000220023CDE900230023059348
:204F400029E0402B13D004D8BBB1202B1DD12A780EE0602B11D0802B17D1073525F007038F
:204F600003F10805D3E90023CDE900230BE02A880023CDE90023043505E02B6800221946AD
:204F8000CDE900120435079BD9E70023059300220023CDE9002304F4C053B3F5805F0CD067
:204FA000B3F5C05F33D0B3F5006F4FD1DDE900230DF13609CDE9022304E0DDE900230DF124
:204FC000360915E0DDE9022313433AD0DDE902010A22002300F076FDDDE90201303209F8AB
:204FE000012D00230A2200F06DFDCDE90201E9E752EA030125D002F00701303109F8011DA2
:20500000D10841EA4371D8080A460346F0E74C4B14F4804F0DF136094A4918BF1946DDE94E
:20502000002352EA03000CD002F00F00085C4FEA131E09F8010D100940EA0370024673469D
:20504000EFE70DF13603C9EB030302E00DF1360900230293029B41F60802BB4238BFFF1AC7
:2050600041F2080302EA040228BF00279A4202D1002F08BF012741F60801029B8A4203EB8E
:2050800007000DD1DDE90023134309D02F4A304914F4804F4FF0020A0CBF0B46134602E0A8
:2050A0004FF0000A5346079A9AB1059A52B904F00602022A0AD0062A264A04BF4FF0010AC9
:2050C000134606E04FF0010A234B02E0234B4FF0010A0AEB000290458CBFC2EB08084FF02C
:2050E000000814F0010200920DD1E10602D54744904608E0414630460593FFF783FD059B7F
:20510000002840F0E080BAF1000F07D03468524619467068A047002840F0D580029B03EBBC
:205120000B04BB46BBF1100F33681BD910220C4970689847002840F0C680ABF1100BF1E79A
:20514000A0782000B1782000D3782000C5782000C2782000CA782000C87820004D77200006
:2051600090782000BBF1000F06D05A46654970689847002840F0A7803368029A4946706854
:2051800054449847002840F09E80009B3C44002B39D032E0D5F800900435B9F1000F0AD098
:2051A000CA469AF800300AF101020BB19246F8E7C9EB0A0A03E0DFF850914FF0060A002FCB
:2051C00002DBBA4528BFBA46D0458CBFCAEB08084FF0000814F0010705D141463046FFF7CB
:2051E00011FD00286FD133685246494670689847002868D10AEB0B042FB141463046FFF788
:2052000001FD00285FD108EB040B1DE550EA010E0ED000F00F0E12F80EE04FEA111C03F8A7
:2052200001ED4FEA101E4EEA017E70466146EDE7FF1A02BF3022012703F8012C07F10307B3
:2052400008BF03F1FF337822B84503F8012C4FF0300203F8022C88BFC7EB08084FF023029B
:2052600098BF4FF0000814F00104A3F1030903F8032C04D141463046FFF7C4FC18BB3368C7
:205280003A46494670689847E8B95F4424B141463046FFF7B7FCB0B908EB070BD4E4B8F1BA
:2052A000010F2B688CBF08F1FF384FF0000814F0010405F104058DF8203008D141463046D6
:2052C000FFF7A0FC10B14FF0FF3017E0C3443368012208A9706898470028F4D108F10107FB
:2052E0002CB141463046FFF78DFC0028EBD1BB44AAE42B680435C3F800B0A5E40FB0BDE8C0
:20530000F08F00BF90782000CC7820000FB407B504AA52F8041B04480192FFF78DFC03B01C
:205320005DF804EB04B070475C4500200EB43FB5094B07AA52F8041B0190049304A801AB59
:2053400003920593FFF778FC019B00221A7006B05DF804EB03B07047C972200010B50121C8
:205360000C20FFF7A7FABDE81040014B5B68184770742000014B9B68184700BF7074200092
:20538000014B1B6A184700BFA8732000014B5B6A184700BFA87320000C4B13B51B689847F8
:2053A0000B4B044601A918209B6A984701280AD0002C0198B8BF15248028D4BFC4EB000025
:2053C000C4F1800000E0002002B010BD70742000A873200007B5064B01A918209B6A984707
:2053E00018B900F019FAFFF7CBFF03B05DF804FBA873200007B5FFF793F9032823D0FFF785
:20540000B9FF00281FDB0E20FFF76EFA0F4901F043FD38B10D20FFF767FA0C4901F03CFDB1
:2054200088B904E0FFF768FA0028F3D10BE0FFF77DFA40B9FFF7A0FA054B9B68019303B088
:205440005DF804EB184703B05DF804FB3E5600209874200070B590F82D400122012CD4BFC5
:2054600003340524054602FA04F4FEF7E1FE013CB0FBF4F12B4601FB1401034A05F10C001B
:20548000BDE87040FEF760BC115520002DE9F0470D4614468B68804693E8C000506B92F8ED
:2054A0002C9001F040FC6868FFF7EEF8A968144801F087FC2946134801F083FC606B01F080
:2054C00028FC40B1002384F82C3084F82D302046FFF7C0FF0BE004F10C00FEF73FFC214645
:2054E000094801F020FC2146084801F06AFC4B46424639463046BDE8F04701F0D5BC00BF15
:205500006445002070450020E04D00207C4500202DE9F74F0446002800F0D980406B01F00C
:20552000F8FB0546002800F0D2804068FFF7C2F868490D20FFF7CCF901210820FFF7BAF9DF
:20554000FFF70CFF0028C0F2C080FFF7E5F8624E90F802807768FFF7DFF88146FFF71CF925
:2055600001464846B847FFF7C7F9D6F818908246C847002860D1BAF1000F0BD0B768FFF751
:205580000BF9B8470746FDF729F86FF0A20BC0EB0B0B04E0F369984700284DD1EEE7FDF7AB
:2055A0001DF81BEB000FFAD417F0FF0704D0022F0CBF0120042040E0BAF1000F01D0002006
:2055C0003BE0FDF70BF86FF00C0AF769C0EB0A0AB84710B1C84740B905E0FCF7FFFF1AEB82
:2055E000000FF5D4F6E7B84730B1FCF7F7FF6FF01409C0EB090909E0736998470028F4D064
:2056000009E0FCF7EBFF19EB000F02D5B8470028F7D0B84708B902200FE03369032101A8B2
:205620009847032808D19DF80600B0EB080018BF01200028C3D000E00120AA68002A46D043
:2056400003283DD8DFE800F0021B0B4394F82C300020013384F82D0084F82C3030E00023F8
:2056600084F82D3094F82C300133DBB284F82C30127A9A421DD822462946022022E094F8EC
:205680002D300133DBB2052B83BF002384F82D3094F82C3084F82D3084BF013384F82C306E
:2056A00094F82C10137A994203D322462946012008E02046FFF7CEFE686801F0E4FB06E056
:2056C00022462946FFF7E2FE01E00520B5E703B0BDE8F08F3E560020A87320002DE9F0416E
:2056E00007460E208846FFF7FFF8454B05461A78444C22B901221A70FEF79AFD2070237838
:2057000013B9404B01221A70217807204B1C2370FFF7D0F801210C20FFF7CCF83A4801F092
:20572000F8FA044640B12946201D01F0B5FBD8B9204601F01FFBF4E7344801F02EFB044632
:2057400040B32946201D01F0A4FB002304F13000606384F82C3084F82D30236301F0D6FA17
:205760002146294801F0F2FA606B01F0FCFA072810DC274801F011FB054698B9606B01F0E3
:20578000F2FA38B92146204801F0CDFA21461F4801F017FB41463846BDE8F04101230622AD
:2057A00001F082BB1B4801F0F8FAA86008B3FEF749FF6860C8B10620AE68FFF783F8C0B215
:2057C00008B1307201E00823337286E880012946606B01F0BBFA606B01F09BFA85420DD1F8
:2057E0002046BDE8F041FFF735BEA968094801F0E8FA2946064801F0E4FABFE7BDE8F08107
:205800008C5500207B550020E04D00207C450020704500206445002008B5054801F0ADFA29
:20582000044801F0AAFABDE80840034801F0A5BA70450020644500207C450020014B002212
:205840001A607047B44E002010B50446FEF7E8FF0B4B19880B4B1868FEF7F2FF0CB1214633
:2058600000E009490E20FFF733F808490D20FFF72FF8074B002108469B689847012010BD7B
:205880009455002090550020107620003E5600207C7420002DE9F0410C4B1C68A4B1FEF724
:2058A00051FF0546FEF73CFF06460D20FFF71CF807460E20FFF718F83A460346314628466B
:2058C000A446BDE8F0416047BDE8F081B44E0020014B1860704700BFB44E002010B503887D
:2058E000044613B1892B07D00AE00748FFF7F0FF06490120FCF7E6FF89232380012010BD6C
:2059000000230380032010BD61592000915A200010B503880446ABB19F2B03D000230380D3
:20592000032010BD09490A4B03221960094B0A481A808B784A780978FFF7E8FC074B002060
:20594000DB6898479F232380012010BD985500209055002094550020E6782000987420000D
:20596000F0B506468BB008460C4600F03FFA05462246314600F028FD29461F4C002301F8FD
:20598000013B0222204600F01FFD0222E91CA01800F01AFD691D0222201D00F015FD668876
:2059A000B4F90030A7880A2036B2297893FBF0F2029796FBF0F700FB123300FB176000B243
:2059C000019000971BB20D48FFF7A0FCA188B4F900302A780191B4F9021005A80091084963
:2059E000FFF7A4FC132105A801F0A1FC284600F005FA0BB0F0BD00BF5254002007792000B8
:205A00003179200070B586B01B4901A800F0B6FD1A4901A800F05EFE0322194900F00CFED8
:205A200008B31649144800F055FE0646154D0024B6B11249002000F04DFE06461CB900F0AD
:205A4000D1F928700AE0012C03D100F0CBF9687004E0022C02D100F0C5F9A8700134E7E7BF
:205A60000948FEF7CDFA074908488B784A780978FFF74CFC06B070BDAC55002082792000D6
:205A80003E79200098550020984500204179200010B5094C094923880A28C85403F10103EE
:205AA000238006D10648FFF731FC00232380FFF7A9FF012010BD00BF58540020AC550020FD
:205AC0005979200053B94AB9002908BF00281CBF4FF0FF314FF0FF3000F082B9ADF1080C18
:205AE0006DE904CE00F006F8DDF804E0DDE9022304B070472DE9F04F8C460C460546099E16
:205B0000002B4FD18A4217466BD9B2FA82FEBEF1000F0BD0CEF1200520FA05F501FA0EF314
:205B200045EA030C02FA0EF700FA0EF5390CBCFBF1F0BAB201FB10C300FB02F84FEA154C82
:205B40004CEA0344A04509D9E41900F1FF3380F02881A04540F2258102383C44C8EB040496
:205B6000B4FBF1F301FB134C03FB02F2ACB244EA0C418A4209D9C91903F1FF3480F00F81B5
:205B80008A4240F20C81023B39448A1A43EA00400021002E63D022FA0EF2002386E80C0074
:205BA000BDE8F08F8B4207D9002E56D0002186E811000846BDE8F08FB3FA83F1002940F034
:205BC0009380A34202D3824200F2FE80851A64EB03039C460120002E41D086E82010BDE84B
:205BE000F08F12B90127B7FBF2F7B7FA87FEBEF1000F36D1E41B4FEA17481FFA87F901214B
:205C0000B4FBF8F308FB134409FB03F24FEA154C4CEA0444A24207D9E41903F1FF3002D2C7
:205C2000A24200F2D3800346A41AB4FBF8F008FB104809FB00F9ACB244EA0842914507D9B9
:205C4000D21900F1FF3402D2914500F2BA802046C9EB020240EA03409BE731463046BDE8C0
:205C6000F08F07FA0EF7CEF1200C24FA0CF34FEA1748B3FBF8FA1FFA87F908FB1A3520FA5A
:205C80000CFC04FA0EF40AFB09FB4CEA040C4FEA1C4242EA05439B4500FA0EF50AD9DB19EE
:205CA0000AF1FF3280F08B809B4540F28880AAF1020A3B44CBEB0303B3FBF8F008FB103365
:205CC00000FB09F41FFA8CFC4CEA03439C4207D9DB1900F1FF326ED29C426CD902383B44BF
:205CE0001C1B40EA0A418BE7C1F1200E8B4022FA0EFC4CEA030C24FA0EF74FEA1C49B7FBFD
:205D0000F9FA1FFA8CF309FB1A7720FA0EF88C400AFB03F548EA04044FEA144848EA07472B
:205D2000BD4202FA01F200FA01FB09D917EB0C070AF1FF3041D2BD423FD9AAF1020A6744E2
:205D40007F1BB7FBF9F509FB157705FB03F3A4B244EA0747BB4208D917EB0C0705F1FF3099
:205D600027D2BB4225D9023D674445EA0A40A0FB0289FF1A4F4545464C4614D329D066B3E3
:205D8000BBEB050367EB040707FA0EFECB40CF404EEA030386E888000021BDE8F08F2346EF
:205DA000F3E61846DAE6B8EB020569EB0C040138E5E70546D9E7104692E78246C0E79246B8
:205DC00078E702383A4443E7084604E7023B3C442AE7C345E7D33C46D1E73146BDE8F08FE4
:205DE000704700BF0A22002100F042BD024B0146186800F00BB800BFBC490020024B0146B2
:205E0000186800F08FBD00BFBC4900202DE9F04F01F10B05162D83B0064640F2A08035F052
:205E2000070500F1C080A94200F2BD8000F090FBB5F5FC7FC0F090826B0A00F0BB80042BDA
:205E400000F27781A80900F1390E4FEA4E013830BE4F07EB81014C680839A14207D1AEE0C0
:205E6000002A80F2AE80E468A14200F0A880636823F003035A1B0F2AF2DDB4493C6901F11C
:205E8000080E744500F0A881636823F003035A1B0F2A00F38E81002AC1F814E0C1F810E006
:205EA00080F29380B3F5007F80F05C81DB084A684FEAA3094FF0010C013351F833800CFAED
:205EC00009F901EBC30C49EA0202ACF1080CC4F80CC0C4F808804A6041F83340C8F80C40EF
:205EE000831001249C4094427CD8144206D120F003006400144200F10400FAD007EBC00970
:205F0000CC468046DCF80C108C4507D166E1002A80F27481C9688C4500F060814B6823F09F
:205F200003035A1B0F2AF2DD0C46CB6854F808CF45F00108C1F804800D4442F00101CCF872
:205F40000C303046C3F808C07D613D61C5F80CE0C5F808E06960AA5000F0FCFA1FE0102961
:205F600021D800F0F5FA102506230220774F07EB83035C68A3F10802944200F038816368DF
:205F8000E16823F0030323445A68A56842F00102E96030468D605A6000F0DCFA0834204666
:205FA00003B0BDE8F08F002420460C23336003B0BDE8F08F80214FF0400E3F2048E7704675
:205FC0005BE723445A68E168DFE723445A68304642F001025A60083400F0BCFA204603B0BE
:205FE000BDE8F08FBC68636823F00308A84504D3C5EB08030F2B00F38C80554BDFF8609150
:206000001A68D9F800302A44013304EB080A00F0608102F580520F3222F47F6222F00F0265
:2060200011463046019200F097FAB0F1FF3F8346019A00F05881824500F2FC80454BDA458F
:2060400019681144196000F05381D9F80000DFF810E101301BBFCAEB0B0A5144CEF800B0B4
:2060600019601BF0070100F01781C1F10800C1F58051834408315A44C2F30B02C2EB0109B4
:2060800049463046019300F067FA431C019B00F03F81CBEB00024A4442F001021968BC4271
:2060A0004944C7F808B01960CBF80420DFF8A49016D0B8F10F0F40F2FD806268A8F10C03A3
:2060C00023F0070302F00102E0184FF0050E1A430F2B6260C0F804E0C0F808E000F21C8140
:2060E0001D4BBC681A68914288BF19601B4B1A689142626888BF196022F003029542A2EB3F
:20610000050301D80F2B04DC304600F023FA002445E745F0010243F00103254462603046A1
:20612000BD6008346B6000F015FA204603B0BDE8F08F142B71D9542B00F2A480280B00F1BD
:206140006F0E4FEA4E016E3082E600BFA8450020C04E0020C44E0020BC4E0020B84E0020B8
:20616000B44900205A0A042A5ED9142A00F2B38002F15C0149005B3207EB810C57F82110B1
:20618000ACF1080C8C45DFF8D88100F088804A6822F00302934202D289688C45F7D1D1F890
:2061A0000CC07A68C4F80CC0A160CCF80840CC6096E645F0010742F00103254467603046DB
:2061C0004D610D61C5F80CE0C5F808E06B60AA50083400F0BFF9E2E64A6881E608F10108C9
:2061E00018F0030F0CF1080C7FF48CAE30E0DC68A34208BF02303FF440AEC0E60C460B442D
:206200005A68C96854F8085F42F001025A603046E9608D6000F09EF9C1E603F15C0E03F1BD
:206220005B004FEA4E0113E69A0902F1390149003832A1E7BC424A4B3FF400AF9C68626834
:2062400022F003025AE759F80839994540F0828010F0030F00F1FF30F5D17B6823EA040355
:206260007B6064009C423FF6BDAE002C3FF4BAAE1C4240467FF442AE64001C4200F104009C
:20628000FAD03BE6B3F5AA7F18D8E80B00F1780E4FEA4E017730DBE54FF48051EBE60121F2
:2062A000D8F80430921001FA02F21A43C8F80420614677E70123CBF8043025E740F2545204
:2062C000934220D8A80C00F17D0E4FEA4E017C30BEE51032A4E6542A26D81A0B02F16F011A
:2062E00049006E3248E7BC68626822F0030205E7CAF30B0000287FF4A8AE4244BB6842F001
:2063000001025A60ECE6FE214FF07F0E7E209FE501224FF00009C1E604F10801304600F06B
:2063200001FBD9F80010DBE6B2F5AA7F05D8DA0B02F17801490077321EE740F254518A4227
:2063400005D89A0C02F17D0149007C3214E7FE217E2211E77B6884E7E808431C5B0005E6BD
:20636000A8450020032A70B426D940EA01039B0711D004780D78AC4222D10244431C05E0A3
:2063800013F8014B11F8015FAC4219D19342F7D1002070BC70470C4603461E6825681846B9
:2063A000AE42214603F1040304F10404E1D1043A032A18462146F0D8002ADAD11046E8E7EA
:2063C000601B70BC704700BF844641EA000313F0030349D1403A23D30B6803604B684360E9
:2063E0008B688360CB68C3600B6903614B6943618B698361CB69C3610B6A03624B6A4362DD
:206400008B6A8362CB6AC3620B6B03634B6B43638B6B8363CB6BC36340304031403ADBD2D0
:2064200030320BD30B6803604B6843608B688360CB68C36010301031103AF3D20C3205D31E
:2064400051F8043B40F8043B043AF9D2043208D0D2071CBF11F8013B00F8013B01D30B8892
:2064600003806046704700BF082A13D38B07B1D010F00303AED0C3F10403D21ADB071CBF6A
:2064800011F8013B00F8013BA4D331F8023B20F8023B9FE7043AD9D3013A11F8013B00F869
:2064A000013BF9D20B7803704B7843708B7883706046704770B4840746D0541E002A41D0A4
:2064C000CDB2034602E0621EE4B3144603F8015B9A07F8D1032C2ED9CDB245EA05250F2C97
:2064E00045EA054519D9264603F11002103E0F2E42F8105C42F80C5C42F8085C42F8045CB4
:2065000002F11002F2D8A4F1100222F00F0204F00F041032032C13440DD91E462246043A23
:20652000032A46F8045BFAD8221F22F003020432134404F003042CB1C9B21C4403F8011B10
:20654000A342FBD170BC704714460346C2E700BF704700BF704700BF38B5074C0023054602
:2065600008462360FEF738FB431C00D038BD2368002BFBD02B6038BD1056002080EA01020A
:20658000844612F0030F4FD111F0030F32D14DF8044D11F0040F51F8043B0BD0A3F1013213
:2065A0009A4312F0803F04BF4CF8043B51F8043B16D100BF51F8044BA3F101329A4312F08B
:2065C000803FA4F101320BD14CF8043BA24312F0803F04BF51F8043B4CF8044BEAD023462E
:2065E0000CF8013B13F0FF0F4FEA3323F8D15DF8044B704711F0010F06D011F8012B0CF877
:20660000012B002A08BF704711F0020FBFD031F8022B12F0FF0F16BF2CF8022B8CF80020D5
:2066200012F47F4FB3D1704711F8012B0CF8012B002AF9D1704700BF002A3FD040EA010315
:2066400013F00303F0B425D1032A23D904680D68AC421FD1043A33D0A4F1013525EA04048C
:2066600014F0803F2FD1071D0D1D0DE057F8043B0E68A3F10134B34224EA03040AD1043A2C
:206680001ED014F0803F21D1032A2946384605F10405EBD803780C78013A9C420BD17AB15C
:2066A00014B915E062B173B110F8013F11F8014F013AA342F6D0181BF0BC704710467047B7
:2066C0001046F0BC70471846F0BC70470020F3E72046F1E7024A012312685C3200F002B8E6
:2066E000BC490020F0B420B307460D4617F8016B01E0A64216D015F8014B002CF9D1EEB146
:206700003E460C4616F8015B00E073B114F8013B9D42FAD15DB100233B701660064630462F
:20672000F0BC704763B13846DEE73746E8E72E46F3E710680028D7D10646F0E71660EEE74F
:20674000176006460370EAE72DE9F04F474C83460E46D4F800E000E02646344614F8015B53
:206760000EEB0500407800F0080000F0FF080028F2D12D2D5CD02B2D04BF7578B41C002B00
:206780003ED0102B60D09A46B8F1000F0CBF6FF000404FF00040B0FBFAF90027BC460AFB33
:2067A00019000CE0303DAB4219DD7E1C05D0CC4523D820D00AFB0C5C012714F8015B0EEB23
:2067C0000506767816F0040FECD116F0030606D0012E14BF57263726AD1BAB42E5DC7B1C1C
:2067E00016D0B8F1000F10D16046002A39D0DFB91160BDE8F08F8542DCDD4FF0FF37DCE75C
:20680000302D1AD00A239A46BEE7CCF1000CEBE7B8F1000F4FF022030CBF6FF000404FF01F
:206820000040CBF80030F2B1611E1160BDE8F08FB41C75784FF00108A1E7237803F0DF0371
:20684000582B08D008239EE7302D9CD1207800F0DF00582897D14FF0100A6578534602340F
:2068600092E7BDE8F08FBDE8F08F00BFB849002010B4044C13460A460146206810BCFFF729
:2068800063BF00BFBC490020F8B50C46224F0646FFF75EFEBB685D6825F00305291B01F6A4
:2068A000EF7121F47F6121F00F01A1F58054B4F5805F07DB00213046FFF74EFEBB682B4423
:2068C000984204D03046FFF745FE0020F8BD61423046FFF741FE01300DD0104BBA6819682C
:2068E0002D1B45F001053046091B55601960FFF731FE0120F8BD00213046FFF72DFEBA6878
:20690000831A0F2BDEDD064C0449246843F00103001B53600860D5E7A8450020C44E002052
:20692000B4490020002945D02DE9F0410D468046FFF70EFE55F8047C6A49A5F1080427F061
:206940000103E2188E685068B24220F0030062D0FE0750600BD455F8087C01F1080EE41BE6
:20696000A5683B4475456FD0E768EF60BD6015186D68ED0742D543F001026260E350B3F5F7
:20698000007F18D2DB0848689D100122013351F8337002FA05F501EBC3022843083AE26075
:2069A000A760486041F83340FC604046BDE8F041FFF7D0BD70475A0A042A53D89A0902F137
:2069C00039077F0002F1380501EB870051F827200838904243494DD0516821F003018B426F
:2069E00002D292689042F7D1D068E060A2608460D4604046BDE8F041FFF7ACBD95683A4F5C
:206A00000344BD423FD0D06843F00102E86085606260E350B3E7FF07034407D455F8085C1E
:206A2000641BE268A0682B44C26090602F4A43F001001268606093428C60B6D32C4B4046D6
:206A40001968FFF721FFB0E711184968C90744D491680344D26843F00100CA6091606060BD
:206A6000E350A2E7142A17D802F15C077F0002F15B05A9E7AA104B68012505FA02F2134399
:206A80004B600246B1E743F001024C610C61E560A5606260E35088E7542A06D81A0B02F1F9
:206AA0006F077F0002F16E058EE7B2F5AA7F06D8DA0B02F178077F0002F1770584E740F276
:206AC0005450824206D89A0C02F17D077F0002F17C0579E7FE277E2576E743F001026260E3
:206AE000E35062E7A8450020B0450020B0490020C04E0020FEE708B5FBF7C8FBF7B500248A
:206B00000646254627463046FBF74CFC0197019B9D4204DD00BF019B01330193F7E7304636
:206B2000FBF770FCC5F5C8750197019B9D4204DD00BF019B01330193F7E70134B4F5487F66
:206B400006D0B4F5C87FCCBFC4F548752546DAE703B0F0BD08B500F00BF8FBF777FCBDE828
:206B600008400120FFF7CABFFCF7FEBDFBF790BC08B5FBF7D1FEFBF737FFFBF7D5FEFBF7E4
:206B8000D9FCFCF75FFE00F0A0F8BDE80840FDF745BDFBF7A9BC70470020FBF78DBD0120DA
:206BA000FBF78ABD0020FBF7F9BE0120FBF7F6BE0220FBF7F3BE0320FBF7F0BE10B50C466D
:206BC000FCF706FA2046BDE81040FCF7D7BAEFF3108072B6704780F31088704710B50446C1
:206BE000C1B20020FBF776FE204610BD70B5054604464618601B44B1237833B1B44204D098
:206C00001846013400F06BFBF4E770BD002070470120704710B50446302200210E20FBF732
:206C200005FF84B1012C0CD142F210730011A0F28E5058432A2390FBF3F000F5C340283033
:206C400010BD4FF0004010BD002070470120704710B50446302200210F20FBF7E7FE5CB1D7
:206C6000012C07D140F6F253584347F6F07390FBF3F010BD4FF0004010BD10B5041F54F89E
:206C8000040F18B10021FDF7A3F9F8E710BD704710B5044600F01BF82046BDE81040FCF7A4
:206CA0008FBF10B5044600F027F82046BDE81040FCF786BFC068B0FA80F040097047837B95
:206CC000DB0701D5FDF77AB87047FFF764BF10B541600446FBF754FC206010BD10B50446B8
:206CE000FBF74EFC2368C3F1010303446068834294BF0020012010BD10B50446FFF7EEFFEE
:206D000018B194E80C001344236010BD00230360704700687047006800B9704703680BB120
:206D20001846FBE77047036810B573B1002499421A6806D10CB9026000E0226000221A608B
:206D400010BD1C460AB11346F1E710BD38B50546FFF7E9FF00230B60FFF7DDFF08B929608B
:206D600038BD016038BD0368002013B101301B68FBE7704700B10068704710B50446428883
:206D800000214068FFF796FB23886288A0685A43BDE810400021FFF78DBB10B54188002364
:206DA0008B420CDA4268D418D25C32B9012222700288806803FB020010BD0133F0E7002052
:206DC00010BD30B5826844880023A3420BDA8A4205D14268D15C31B10020D05430BD058845
:206DE00001332A44F1E74FF0FF3030BD82688A4208D84388008800FB032081422CBF0020E9
:206E000001207047002070470023013A0160027143718371704710B5427983790479D31A4C
:206E200034EA030308D00368995443795A1C037913404371012010BD002010BD83794279B7
:206E40000179D21A0A421FBF0268D25C01330B401ABF837110464FF0FF30704790F8452056
:206E60000121D3081B0303F1804302F0070203F5592301FA02F253F8223090F844000BB1BD
:206E800080F001007047006800F19C018230FDF7EDBC0822FFF798BA08B50822FFF762FADA
:206EA000B0FA80F0400908BD30B40D460446114620B11A462846234630BC184730BC7047DC
:206EC00030B591B0FDF73EFC0446FDF729FC6A4601462046FDF7EEFD044610B94FF0FF303E
:206EE00036E0FDF7FFFB0028F8D09DF810100C20FDF7E0FC9DF813100820FDF7DBFC9DF8AD
:206F00001730ABB1BDF81C50FDF7CEFD854205D04FF6FF73BDF81C209A42DFD169469DF8DA
:206F2000170000F0F4F818B969460E20FDF7D0FC02A90D20FDF7CCFC9DF8153013B99DF821
:206F40001A1001E04FF6FF710720FDF7B3FC204611B030BDF8B50E461446054600283AD0BB
:206F6000002A38D00C20A84700232074A37416B1E374637503E00820A8476675E0740920AE
:206F8000A847002701232376A07567740720A847A076FDF789FDE0830A20A847012816BF0E
:206FA000032367766376FDF77FFDA0830B20A847012801D1002303E00EB1022300E003235D
:206FC000E375637E022B02D0E37D022B01D1012300E000232375F8BD0120FDF7FDBC0020B8
:206FE000FDF7FABC30B500284ED0037A022B2ED1C479437A057914B983B9012D0AE003B9BE
:2070000075B1032C0ED1032B03D1002D3AD1012019E0022B14BF0020012008E0204606E073
:20702000012005E0022CF4D1181C18BF012005BB0CB1022C05D1023B012B8CBF00230123AF
:207040001BE0032C15D19C1E6342634115E00378022B10D003792BB9437A13F0030318BFA3
:20706000012300E00023C07910F0030018BF012003E0002301E00020034601B10B601AB17D
:20708000106030BD0020D2E730BD37B50D460446002106222846FFF70DFA637DD9075CBFB5
:2070A00001232B70237E012B0DD8E37D9A0708D0637E9B0705D0E28BA38B9A4201D10123C1
:2070C00000E00023237501AA694604F11000FFF789FF009B0BB10223EB70019B0BB10223E4
:2070E0006B70E37D03F00303022B03D0032B0CBF08230023AB70637E03F00303022B03D020
:20710000032B0CBF082300232B7103B030BD02280CBF022308230B448B4205D013F8012D7D
:20712000FF2AF9D0002070470120704707B56946FFF7ABFF9DF800009DF8013002301844BA
:207140009DF802309DF8032018449DF80430104403449DF80500184403B05DF804FB8378F8
:2071600010B544781B01E40003F0100304F008041C43C2780378520103F00703234302F0CC
:2071800020021A4303799B0103F0400313430B704379427A847903F0010343EA8213C279E8
:2071A000640004F002049200234302F00C021A43037A1B0103F0300313434B7010BDF7B5D3
:2071C00004460D466946FFF760FF04F110002946FFF7C5FF9DF80030012B02BFA37E0320EA
:2071E000AB709DF8013018BF0220022B08D1A28B431C2A54A28BDBB20230120AC0B2EA54ED
:2072000001469DF80230E218A24205D012F8017D4E1C6F54F1B2F7E718449DF80330C0B2E1
:20722000022B08D1E28B431C2A54E28BDBB20230120AC0B2EA549DF804301844C0B2C21A93
:20724000D2B223B1013BE118097AA954F7E703B0F0BD1FB502461378084603F007018DF86E
:207260000410C3F3C0018DF80510C3F300118DF80610C3F34011C3F380138DF808305378AF
:207280008DF8071003F001028DF80920C3F340028DF80A20C3F381028DF80B20C3F3011255
:2072A0008DF80C209B090A2201A98DF80D30FFF78BF805B05DF804FB08B5084612B111463A
:2072C000FFF794FC002008BD38B5044615460068FFF77AF8236800201D44256038BD10B596
:2072E0000446FFF77BFC204610BDFEF7F7B9704700207047704701207047012070470120E9
:20730000704700207047002070477047704700207047002070470120704701207047704785
:20732000704770470020704700207047704770B5054604464618601B44B1217831B1B44281
:2073400004D001200134FBF7C5FAF4E770BD000001000000010000000100000000C0004047
:2073600000410D4000000000080000002C00000000000001FFFFFFFF050000000200000047
:20738000020000000200000000D0004008410D4002000000080000002C0000000201020008
:2073A000FFFFFFFF06000000C5322000D12F20007D312000BD6B2000F12E2000E12C200012
:2073C0001D2D2000352D2000412C2000692C2000452D20003D34200039302000C12E2000C4
:2073E00007000000FF00000005000000ED00000003000000D500000001000000C5000000F7
:2074000000000000B6000000FFFFFFFFB0000000FDFFFFFFA1000000FBFFFFFF91000000E6
:20742000F9FFFFFF88000000F7FFFFFF72000000F5FFFFFF62000000F3FFFFFF58000000CC
:20744000F1FFFFFF42000000E8FFFFFF0000000079762000156C20000D6C2000116C200031
:207460008D762000516C2000496C20004D6C2000DF6F2000D96F2000C16E2000D5782000CC
:20748000D5532000EB722000F5532000815320008D53200099532000B47720003D582000BF
:2074A0009558200049582000DA7820002D732000EF72200025732000297320001373200031
:2074C000F1722000F5722000177320001B7320001F73200021732000F7722000FB722000CE
:2074E000FF72200003732000077320000B732000237320000D7320000F7320008845002048
:20750000984500200000000000202020202020202020282828282820202020202020202066
:20752000202020202020202020881010101010101010101010101010100404040404040497
:20754000040404101010101010104141414141410101010101010101010101010101010119
:207560000101010110101010101042424242424202020202020202020202020202020202FB
:20758000020202021010101020000000000000000000000000000000000000000000000083
:2075A0000000000000000000000000000000000000000000000000000000000000000000CB
:2075C0000000000000000000000000000000000000000000000000000000000000000000AB
:2075E00000000000000000000000000000000000000000000000000000000000000000008B
:207600000000000000000000000000004300000000000000000000005A6F756C00494E46A0
:207620004F005B252D34733A20252D3130735D20005A6F6C65727469612052452D4D6F744C
:2076400065207265766973696F6E204120706C6174666F726D001D001C001B00557365725D
:2076600020627574746F6E0063633235333820524620647269766572004F6E2D43686970E4
:207680002054656D70657261747572650056444433004D61696E005374617274696E67203A
:2076A000436F6E74696B692D4E472D72656C656173652F76342E372D3134312D67393339EF
:2076C0003938313738312D64697274790A002D20526F7574696E673A2025730A002D204E39
:2076E00065743A2025730A002D204D41433A2025730A002D203830322E31352E342050410D
:207700004E49443A203078253034780A002D203830322E31352E342044656661756C74209F
:207720006368616E6E656C3A2025750A004E6F64652049443A2025750A004C696E6B2D6C1A
:207740006179657220616464726573733A2000284E554C4C204C4C206164647229002E00EB
:2077600025303278004C4C2D4E554C4C004C4C2D2530347800616C6C004E2F41004E6F6E22
:2077800065004572726F7273005761726E696E677300496E666F0044656275670072706CFD
:2077A000007463706970006970763600366C6F7770616E006E756C6C6E6574006D6163002A
:2077C0006672616D65720036746F7000636F617000736E6D70006C776D326D006D61696EAE
:2077E000004576656E742074696D6572004374696D65722070726F63657373005374616338
:207800006B0045525200436865636B20696E20696E636F6E73697374656E74207374617422
:20782000653A20256C642076732E20256C640A00436865636B206661696C65643A20256CF0
:20784000642076732E20256C640A00537461636B20636865636B0053656E736F727300422B
:207860007574746F6E2048414C2070726F636573730053657269616C2064726976657200AE
:207880002020202020202020202020202020202030303030303030303030303030303030E8
:2078A00030313233343536373839414243444546003031323334353637383961626364652A
:2078C00066003078003058002D002B00286E756C6C2900250043534D41006E756C6C726FC9
:2078E0007574696E670062726F616463617374696E6720424541434F4E3A2025642C202554
:20790000642C2025640A00446174612073656E736F72733A2020256420253032642E2530EC
:20792000326420253032642E253032642025750A0025642025642025642025750A00424F99
:2079400000426561636F6E3A2042302C2025642C2025642C2025640A0053455249414C20AA
:207960004441544120494E202D2D3E2025730073656E646572006475616C62616E642032B8
:2079800034002C00000000002C43002094430020FC430020000000000000000000000000A2
:2079A0000000000000000000000000000000000000000000000000000C7620000000000025
:2079C0000000000000000000000000000000000000000000000000000000000000000000A7
:2079E000000000000000000000000000000000000000000000000000000000000000000087
:207A0000000000000000000000000000000000000000000000000000000000000000000066
:207A200000000000000000000000000001000000000000000E33CDAB34126DE6ECDE050024
:207A40000B000000000000000000000000000000000000000000000000000000000000001B
:207A6000000000000000000000000000000000000000000000000000000000000000000006
:207A80000000000000000000000000000000000000000000000000000000000000000000E6
:207AA0000000000000000000000000000000000000000000000000000000000000000000C6
:207AC0000000000000000000000000000000000000000000000000000000000000000000A6
:207AE000000000000000000000000000000000000000000000000000000000000000000086
:207B0000000000000000000000000000000000000000000000000000000000000000000065
:207B2000000000000000000000000000000000000000000000000000000000000000000045
:207B4000000000000000000000000000000000000000000000000000000000000000000025
:207B6000000000000000000000000000000000000000000000000000000000000000000005
:207B80000000000000000000000000000000000000000000000000000000000000000000E5
:207BA0000000000000000000000000000000000000000000000000000000000000000000C5
:207BC0000000000000000000000000000000000000000000000000000000000000000000A5
:207BE000000000000000000000000000000000000000000000000000000000000000000085
:207C0000000000000000000000000000000000000000000000000000000000000000000064
:207C2000000000000000000000000000000000000000000000000000000000000000000044
:207C4000000000000000000000000000000000000000000000000000000000000000000024
:207C6000000000000000000000000000000000000000000000000000000000000000000004
:207C80000000000000000000000000000000000000000000000000000000000000000000E4
:207CA0000000000000000000000000000000000000000000000000000000000000000000C4
:207CC0000000000000000000000000000000000000000000000000000000000000000000A4
:207CE000000000000000000000000000000000000000000000000000000000000000000084
:207D0000000000000000000000000000000000000000000000000000000000000000000063
:207D2000000000000000000000000000000000000000000000000000000000000000000043
:207D4000000000000000000000000000000000000000000000000000000000000000000023
:207D6000000000000000000000000000000000000000000000000000000000000000000003
:207D80000000000000000000000000000000000000000000000000000000000000000000E3
:207DA0000000000000000000000000000000000000000000000000000000000000000000C3
:207DC0000000000000000000000000000000000000000000000000000000000000000000A3
:207DE0000000000000000000000000005C76200001030000010000000000000068440020C0
:207E0000000000006074200050742000000000000000000068762000AD332000000000008C
:207E20000300000000000000E1772000153B20000000000000000000ED7720005D3C20001A
:207E400000000000000000004B782000A94020000000000000000000577820005541200091
:207E600000000000000000005F78200001432000000000000000000072782000E544200054
:207E8000000000000400080070550020E04B0020AC00080068550020EE4E0020505E0020EB
:207EA000B9722000000000000C00080084550020804D00200C0008007C550020E44D002027
:207EC000380002008D550020444E00200000000076792000DD582000000000000000000050
:207EE0006F79200011592000000000000000000000000000A8450020A8450020B0450020C1
:207F0000B0450020B8450020B8450020C0450020C0450020C8450020C8450020D045002039
:207F2000D0450020D8450020D8450020E0450020E0450020E8450020E8450020F045002019
:207F4000F0450020F8450020F84500200046002000460020084600200846002010460020F4
:207F60001046002018460020184600202046002020460020284600202846002030460020D1
:207F80003046002038460020384600204046002040460020484600204846002050460020B1
:207FA000504600205846002058460020604600206046002068460020684600207046002091
:207FC000704600207846002078460020804600208046002088460020884600209046002071
:207FE000904600209846002098460020A0460020A0460020A8460020A8460020B046002051
:20800000B0460020B8460020B8460020C0460020C0460020C8460020C8460020D046002030
:20802000D0460020D8460020D8460020E0460020E0460020E8460020E8460020F046002010
:20804000F0460020F8460020F84600200047002000470020084700200847002010470020EB
:208060001047002018470020184700202047002020470020284700202847002030470020C8
:208080003047002038470020384700204047002040470020484700204847002050470020A8
:2080A000504700205847002058470020604700206047002068470020684700207047002088
:2080C000704700207847002078470020804700208047002088470020884700209047002068
:2080E000904700209847002098470020A0470020A0470020A8470020A8470020B047002048
:20810000B0470020B8470020B8470020C0470020C0470020C8470020C8470020D047002027
:20812000D0470020D8470020D8470020E0470020E0470020E8470020E8470020F047002007
:20814000F0470020F8470020F84700200048002000480020084800200848002010480020E2
:208160001048002018480020184800202048002020480020284800202848002030480020BF
:2081800030480020384800203848002040480020404800204848002048480020504800209F
:2081A00050480020584800205848002060480020604800206848002068480020704800207F
:2081C00070480020784800207848002080480020804800208848002088480020904800205F
:2081E000904800209848002098480020A0480020A0480020A8480020A8480020B04800203F
:20820000B0480020B8480020B8480020C0480020C0480020C8480020C8480020D04800201E
:20822000D0480020D8480020D8480020E0480020E0480020E8480020E8480020F0480020FE
:20824000F0480020F8480020F84800200049002000490020084900200849002010490020D9
:208260001049002018490020184900202049002020490020284900202849002030490020B6
:20828000304900203849002038490020404900204049002048490020484900205049002096
:2082A000504900205849002058490020604900206049002068490020684900207049002076
:2082C000704900207849002078490020804900208049002088490020884900209049002056
:2082E000904900209849002098490020A0490020A049002000000200FFFFFFFF08752000D6
:1083000040400020CDAB010AECD7FF7F0100000008
:020000040027D3
:20FFD400FFFFFFF30000000000202000FFFFFFFFFFFFFFFFFFFFFFFFFFFFFFFFFFFFFFFFF1
:0CFFF400FFFFFFFFFFFFFFFFFFFFFFFF0D
:040000050027FFD4FD
:00000001FF
