:020000040020DA
:20200000E85D00208D2220005F6B20005D6B20005D6B20005D6B20005D6B20000000000002
:202020000000000000000000000000005D6B20005D6B2000000000005D6B2000FF6B20005E
:20204000116C2000176C20001D6C2000236C200000000000056C20000B6C20005D6B2000D8
:202060005D6B200000000000000000000000000000000000000000005D6B20000000000090
:2020800000000000000000005D6B20005D6B20005D6B20005D6B20005D6B20005D6B2000D0
:2020A0005D6B20005D6B20005D6B20005D6B20005D6B20005D6B20005D6B20005D6B2000E0
:2020C0005D6B20005D6B20005D6B20005D6B20005D6B200000000000000000000000000078
:2020E0000000000000000000000000000000000000000000000000000D3B20001D3B200000
:202100000000000000000000000000000000000000000000000000000000000000000000BF
:2021200000000000000000000000000000000000000000000000000000000000000000009F
:2021400000000000000000000000000000000000000000000000000000000000000000007F
:2021600000000000000000000000000000000000000000000000000000000000000000005F
:2021800000000000000000000000000000000000000000000000000000000000000000003F
:2021A00000000000000000000000000000000000000000000000000000000000000000001F
:2021C0000000000000000000000000000000000000000000000000000000000000000000FF
:2021E0000000000000000000000000000000000000000000000000000000000000000000DF
:202200000000000000000000000000000000000000000000000000000000000000000000BE
:2022200000000000000000000000000000000000000000000000000000000000000000009E
:2022400000000000000000000000000000000000000000000000000000000000000000007E
:20226000000000000000000000000000000000005D6B2000F1392000153A2000D92E200096
:202280008D3C2000752A20005D6B200008B5094BFF221A600848094A4824E369121A08492A
:2022A00098470848084AA369121A0021984701F035FDFEE7B4200D4040400020B049002083
:2022C0000C792000B0490020E2550020812810B50C461DD1104A00201368052123F02003EA
:2022E000136052F8203C23F0200342F8203C082200F092FD094BFF221A60094B0020187065
:20230000084B14B101221A7010BD1C70204610BD4FF0FF3010BD00BF20940D4080900D4014
:202320005554002054540020431E022B2DE9F74F074600F2A980574D2B78002B40F0988000
:2023400001232B70544B554C1B78554E002B00F093802368DFF8508143F020032360FF23EC
:20236000336000F045FBC0EB080800F041FB18EB000FFAD4052200214A4804F055FA002393
:20238000336000F035FBDFF82481C0EB080800F02FFB18EB000FFAD44FF00008C1464FF0CC
:2023A000FF0AC6F800A0282000F0FEFA2368DFF8F4B023F02003236000233268D9B25245E8
:2023C00008D10120019300F0EFFA019B0133FF2BF3D119463368FF295FFA83FA1DD0B9F149
:2023E000030F13D919F0010F10D14FEAD8021BF8023008294FEA4303DBB288BF43F00103D2
:2024000008F101080BF802305FFA88F809F101095FFA89F9B9F1550FCED1B8F1270F2BD93D
:20242000204B19785A780A4499780A44D9780A441979D2B291421FD12268022F22F02002BA
:2024400022604FF0FF0232600AD0032F12D09878DB7800F07F0000222A7003EB002015E0A9
:2024600018785B7803EB002000232B7080B20DE0FF200BE0002009E0236823F020032360B7
:20248000FF23336000232B704FF0FF3003B0BDE8F08F00BF555400205454002000940D4053
:2024A00080900D405654002000E0FFFF71FDFFFF38B50C46054610B94FF6FF7016E0002985
:2024C000FAD00320FFF730FF0130F5D0084B09499A7802F07F00DA7802EB00222A801A782F
:2024E0005B78002003EB02230870238000B238BD5654002055540020F8B5214C00222178AC
:20250000D3B28B4239D8DD00661977680132B842F6D1FF2B31D01B4B307A5B689847B0F1AB
:20252000004F27D0737A33B941F28833584340F6B833B0FBF3F02C446368013B042B19D8AD
:20254000DFE803F0030B161016000A234343C3F51F533633B3FBF0F00AE040F28D3358432C
:20256000094B03E05823584342F21073B0FBF3F080B2F8BD4FF6FF70F8BD0020F8BD00BFE5
:20258000C0490020A4732000A08601002DE9F041431E4FF0010808FA01F5042B0746EDB2B1
:2025A00003D94FF0FF30BDE8F0811A4C2378012BF7D84B1E062BF4D80329F2D0637815EA91
:2025C0000306EED1031F012B134B29469B684FF080000BD99847B0F1004FE2D0237804EB67
:2025E000C3035F601D7283F8098009E09847B0F1004FD6D0237804EBC3035F601D725E72F7
:20260000237800200133237063781D436570BDE8F08100BFC0490020A473200008B5002016
:2026200000F086FA012000F083FA0D49002000F053FB02F0DBF9002002F01CF801F0FEF914
:2026400000F072FC00F08EFC0821064801F036FB02F0E0F862B6BDE80840042004F082BAE6
:20266000A9492000D255002073B51A4B1B68022B08DD1949194A1A4803F05AF819491A48AF
:2026800003F056F86846082101F018FB174E9DF807309DF80650F46A43EA05254AF6CD310F
:2026A0000220A04729460320A0470A210120A047736B082269460B20984704F08DFA00F039
:2026C00015F900210A4801F095FE022004F04AFA02B070BDDC44002096752000917520002B
:2026E0009B752000AA7520007D7620000C742000104500200022F0B51746154C0125FF2673
:2027000040FA02F3DB071ED504EB4203597814F8123061B1D908090301F1804103F00703B3
:2027200001F5592105FA03F341F823700BE0D908090301F1804103F0070301F5592105FA71
:2027400003F341F823600132032AD9D1F0BD00BFCF752000F0B5104C00210125FF2640FA46
:2027600001F3DB0714D504EB41035F7814F81130DA08120302F1804203F0070302F5592228
:2027800005FA03F317B142F8236001E042F8237001310329E3D1F0BDCF75200070B40E4E6E
:2027A0000022012516F812300C49D80800030C5803F0070305FA03F324EA03040C50203929
:2027C0000144086801320343032A0B60EAD170BC0720FFF7BFBF00BFCF75200020940D408D
:2027E00008B50B4B1B78034203D0202804D0042804D04FF0004008BD052000E00220054B44
:2028000080211A7800F024FB20EAE07000B208BD5C5400205B540020802810B50C4603D074
:20282000B0F5807F25D031E08B1E222B2ED8C943184B1A680A401A60174A13680B401360A3
:20284000A20604D501220521002000F0E5FA630704D501220221002000F0DEFA00F0F0FA74
:202860000E4B30221A700E4B187804431C70002010BDC8B2102806D001D820B106E020281A
:2028800001D0302802D1054B187010BD4FF0004010BD00BF20940D4000940D405B540020DB
:2028A0005C540020084A136823F00403136052F8203C43F0040342F8203C044B00221A608D
:2028C000034B01221A70704720C40D4010C00D405D540020044B1868C0F30720030904BFAF
:2028E0001030C0B2704700BF1C300D4008B5FFF7F1FF014B1B6808BD1C300D40F8B500F0AA
:2029000077F80F4B0024D3E900673A46B04238BF7A1C15460443C3E90045DFF828E0DEE96F
:202920000001821B61EB070312196B41CEE9002301F078FB18B1BDE8F84001F0F7BAF8BD91
:20294000B0490020B84900200D4B0E4AE0215A600D4A82F82310002207219A6019600B49BD
:202960000B6843F001030B60094B1A60042243F80C2C012243F8082C0F22DA62704700BF66
:2029800010E000E047E8010000ED00E008200D400C000340034BD3E90023100A40EA0360D2
:2029A000704700BFB0490020054B18601C3B1A6842F001021A601A68D207FCD4704700BF97
:2029C0002800034010B5064C236823F001032360FFF794FF236843F00103236010BD00BFF6
:2029E00010E000E0014B1868704700BFD4490020074B084A196804331B681268120442EAED
:202A00000323054A0B43106843EA0060704700BF40500D4048500D404C500D4010B50446BE
:202A2000104A1368DB07FCD572B6FFF7E1FF231A062BD8BFC41D0C4B220E1A60C4F3074229
:202A400043F8042CC4F3072243F8082CE2B243F80C2C62B6054B1C60054B4FF400321A6191
:202A600010BD00BF50500D404C500D40D449002000E100E008B501F06FF8094B00221A60F1
:202A8000084B4FF40032C3F89021C3F89020BFF34F8FBFF36F8FBDE8084001F0CFBC00BF2F
:202AA000D449002000E100E0064B1B681B075FBF054B186880F00800C0F3C00048BF002022
:202AC000704700BF18C0004018D00040164A2C2303FB00234FF6BF7270B5DC680546236CB7
:202AE00062649BB213F050020DD0104EA369DB0608D456F825301BB12068C0B29847F5E746
:202B00002368F3E770BD13F4D06F0BD04FF440732363FF236360E36AE262E362236B43F00A
:202B20000103236370BD00BFB4732000D849002001282DE9F74F064600F2BD802C254543BE
:202B40005E4B5C1994F920909846B9F1000FC0F2B28094F92230002BC0F2AD80584801F025
:202B600071F8584A58F805301168E5680B4313605168636894F921A00B4353609168A36867
:202B800094F822700B4393600023C5F8C83F23690AEBC9021A6094F823305FFA87FB0093DC
:202BA0009DF80030227D19465846019300F03EF9019B08221946584600F02EF97FB2424B61
:202BC0003F039DF90020F9584FF0010E0EFA02F20A43FA504FEA093959F803100EFA0AF2E8
:202BE0000A4349F803205022AA63AA6B94F8240042F4D062AA6302226A634FF440722A63F8
:202C0000A2696A62E269AA627022EA6242B2002A1D4617DB94F925302C4943EAC2030B6081
:202C200094F82510120353594CB20EFA04FE4EEA03035351002200F0EFF8254A136843F40E
:202C4000004313602C2303FB068393F826904FFA89F4002C1CDB93F827705FFA89F95FFA68
:202C600087FA012251464846240300F0DFF87FB26359012202FA07F71F43082267515146B8
:202C8000484600F0C9F8124A136843F4804313602C2303FB0686F268136B43F00103136353
:202CA00096F828300122590903F01F0302FA03F3084A42F8213003B0BDE8F08FB4732000A7
:202CC000A92A200028200D4020940D4004410D4030D0004000E100E001289CBF014B43F8CD
:202CE00020107047D8490020012808D8044B2C2202FB0030C3689A699206FCD41960704713
:202D0000B4732000014B00221A60704700500D40014B08221A60704700500D40024BA022DD
:202D20001A6050221A60704700500D40014B024A9A60704700ED00E00020200038B5164D33
:202D4000164C2B68012223F040032B602368062123F040032360032000F05EF82B680122D0
:202D600023F080032B602368072123F080032360032000F051F80A4A0A4B0B491A600A6821
:202D80000A4B1340084A002BF9D113685901FCD413685B01FCD538BD20C40D4000C40D40C0
:202DA0000101020000200D4004200D40000001012DE9F84304464FEA0438DFF83C9008F183
:202DC000804606F5592600F0C7FED6F8187458F80930E50023FA05F447EA0400C0B2E4B2E3
:202DE000A840FFB2AC4001F019FEC6F81C7448F80940BDE8F88300BF18970D40034A044BF8
:202E00001A60044B803A1A60704700BF80400D40E4490020E0490020034B01EBC0011B681E
:202E200043F82120704700BFE4490020034B01EBC0011B6843F82120704700BFE04900209A
:202E4000024A136843F030031360704700700D400E2870B50BD1164B164E1C6844F00205A3
:202E60001D60356825F03F0343F001033360124E336823F0FF031A43114301430F4A316028
:202E800013681B06FCD50E4B0E4A1B6812680E2803F0FC0343EA022308BF064A9BB204BF76
:202EA0001560034A9BB208BF146018B270BD00BF34000144F486084008700D4000700D4055
:202EC0000C700D4010700D40024B1868B0FA80F04009704700B70840094B4FF4004210B5D8
:202EE000C3F89021C3F89020BFF34F8FBFF36F8F044C206818B101F095FA0023236010BD27
:202F000000E100E0E8490020064A136843F002031360536843F002035360936843F0020350
:202F20009360704748200D4007B50C4800F08AFEFFF7EAFF0A4B1A6842F002021A60002222
:202F40000192019A0F2A02DC019A0132F8E71A6822F002021A6003B05DF804FBC92E20004F
:202F600054200D40064A136823F002031360536823F002035360936823F0020393607047F7
:202F800048200D402DE9F0410E464FEAD0084FEA083400F00701012704F180448F4016F0AD
:202FA0000C0304F559246FEA070505D1D4F810342B40C4F810342DE0042B0DD1D4F80434B8
:202FC0002B40C4F80434D4F808342B40C4F80834D4F80C343B430EE0082B0FD1D4F8043498
:202FE0002B40C4F80434D4F808342B40C4F80834D4F80C342B40C4F80C340BE00C2B09D198
:20300000D4F804342B40C4F80434D4F808343B43C4F8083416F0030204D0022A02D0012AC7
:2030200003D104224046FFF7F7FE16F0800605D1D4F810342B40C4F810340AE04EB1D4F893
:2030400010341F43C4F81074054A012303FA08F31360D4F820341D40C4F82054BDE8F081E9
:2030600000E100E0074B93F90020002A08DB064AED211160E32111601A7862F07F021A7051
:203080000120704762540020388808400B4A13689907FCD4094B1B685B065EBF084BED2283
:2030A0001A60084B1B6813B1054BEF221A60064A0120137803F07F03137070474C8608405C
:2030C000388808402C8608406254002010B50A4B04461B6813F03F0302D0FFF7D7FF01232A
:2030E00004EB840205492C3A0A600BB1FFF7BAFF034B1C7010BD00BF488608403C8608404C
:20310000AF49002010B50B4B1B68990603D1FFF7A9FF012300E0002307490A68D207FCD555
:20312000064A1468C4F300140BB1FFF7AFFF204610BD00BF48860840648608404C86084044
:20314000044B186800F02200A0F1200358425841704700BF4C860840024B186800F040001A
:20316000704700BF4C86084038B50C46002900F09780182800F29680DFE800F00D1A1F21EA
:20318000283E475B60767A9494947F815883948587898B8D9000444B186810F0FF007BD016
:2031A000424B1B6813F0030F0CBF0123022301E03F4B1B782360002038BD3E4B00E03E4B4E
:2031C0001A68043B1B6843EA0223F3E700230B603A4B364A1B6803F001030B6012689206F5
:2031E00044BF43F002030B60354B1B78002BE2D00B6843F00403DDE7324B00201B78086030
:20320000002BD8D001230B6038BD2F4B2F491A680023D2B201EBC3000079904203D82B4AF2
:2032200052F83330C6E701330E2BF3D16FF01703C0E7274B1B685BB2493BBBE7254B1B68C8
:203240009B0603D1FFF70EFF012200E000222248036859B28031FBD0493BDDB20AB1FFF7B1
:2032600015FF6DB22560A6E71C4B93F90030A1E71B4B1B7803F07F039CE70B239AE71A2381
:2032800098E7072396E7032394E7202392E70C2390E708238EE70020206038BD7D2389E7C0
:2032A000022038BD012038BD2C86084024860840AF490020CC850840D485084000860840D5
:2032C00061540020AE490020408608404474200058860840488608406086084060540020DE
:2032E0005E5400200B280DD1082A0DD161B1074B074A083111F8010D43F8040F9342F9D1E9
:20330000002070470120704702207047A4850840C485084070B52F4E336813F0400307D0C9
:203320002D4D2B68DCB21B0604D52C4BED221A60002070BD042CF8D9023C8C42F5DCE4B237
:20334000032C21D001190139032000F099FB631E23491B011943032000F09CFB032000F030
:20336000A3FB032000F0B8FB032000F0C1FB0028FAD129681B4B4939C9B219702B681A4DB0
:2033800018062B70D1D506E02B6803702B6843702B688370EDE749B289B2042001F09CFC5F
:2033A0002978032001F07F0101F096FC0F4B1B786BB933685A060AD5064B1B681B0603D59D
:2033C0000B4801F02FF802E0044BED221A60204670BD00BF4C86084028880840388808405C
:2033E00002C0010C605400205E54002061540020CC4400207D2938B505460C4624D8134ACA
:2034000013689B07FCD4124B93F90030002B01DBFFF728FE0F4BEE221A60691EA21C43F81F
:20342000102C2144022000F023FB013C0A4924012143022000F02EFB022000F035FB022003
:2034400000F04AFB002038BD012038BD4C860840625400203888084002C001C00B282DE948
:20346000F84F0E4610D1082A40F0828000297FD0414B424A4E1E53F8041D934206F8011F11
:20348000F9D10020BDE8F88F0C286ED1042A6FD100296DD03A4B3B481A68DFF8F8C022F0A4
:2034A00007021A600268DFF8F0A042F008020260DAF80040DCF800101A68DFF8E0E022F0F9
:2034C0007002314F1A60DEF800203D68E4B2090244EA056401F47F411204214302F47F0207
:2034E0000A432A490024D1F800805FFA88F544EA02081A68A94622F0070242F001021A6056
:20350000026842F008020260DAF80000DCF800201D68C0B225F0700545F010051D60DEF8BF
:2035200000303D68120240EA056002F47F421B04024303F47F0313430A6844EA030A5FFA23
:2035400082FBFFF755FAB8EB0A0869EB0B094FEAC93105460E4A00234FEAC83041EA58419E
:2035600002F06EFC281A30608BE70120BDE8F88F0220BDE8F88F00BFC8850840A885084047
:203580001088084004880840208808401C8808400048E801188808401488084024880840AA
:2035A0007D28F8B541D8234B93F90030002B0DDBFFF71EFA0546FFF755FD6FF00904641BD7
:2035C000FFF716FAC442FBD4012600E000261A4B1B7823B9194C2368990604D405E0FFF7CD
:2035E00091FD0028F6D10220F8BD154BE9221F461A60042523689A0707D4013D15F0FF05B6
:2036000003D00620FFF7D0F9F4E723689B0703D4EE233B60012404E0206810F00200FBD108
:20362000044626B1FFF732FD01E00120F8BD2046F8BD00BF62540020AE4900204C860840AC
:2036400038880840234B1870002838D0224A13681B03FCD5214B1A6842F002021A601A6846
:2036600042F001021A601A681C495007FBD50A6822F001020A601968184A4907FBD4116821
:2036800041F002011160116841F0010111601A685207FCD5124A136823F004031360D2F88E
:2036A000A83123F00403C2F8A8310E4B4FF40052C3F89020BFF34F8FBFF36F8F7047084AE2
:2036C000136843F004031360064B4FF400521A61704700BF6154002004200D4004880840D1
:2036E0008C86084000E100E02DE9F0412E4F3D7815F0010555D12D4B01241C605C609C6034
:20370000A3F59323A3F51473F8221A600922C3F89021152270331A6003F59B230B2203F5E2
:203720009E731A60A3F59B23214EA3F5A6731C604023336033684FF07F0843F020033360CC
:203740001C4BD5221D60C3F848809A631A4B1878FFF7BCFC336823F00C033360174BC3F8FE
:203760000080174B4FF480421A61022000F0A8F91449022000F084F9032000F0A1F9114941
:20378000032000F075F9104B1878FFF75BFF29460E4800F02FFE3B78204623433B70BDE8BC
:2037A000F0810020BDE8F08162540020A8200D402486084008860840AF4900209486084035
:2037C00000E100E02888084061540020CC44002038B503880446CBB140F25D42934203D074
:2037E00000230380032038BD194B18781A4628B11B7873B1174B1B7858060AD5822908D171
:20380000137843B1134B1A78520614D440F25D432380012038BD01F015FA01F0A5F980213E
:20382000FFF778FD0028EDDD80B201F081F90A4BDB689847E6E700221A70084B1D68FFF7D0
:2038400025FCFFF751FFAB06E0D0FFF70BFCDDE76154002062540020E074200048860840AA
:2038600013B50C460D2800F2A380DFE800F007464E5259757B8FA1A1A1A1A195012939D07B
:2038800011B9FFF703FC85E08B1E012B00F2928001A90020FFF768FC022C019B19D1022B26
:2038A00078D05A1E53425341444A1370FFF7EEFB434B444A1968116042221A60D3F8C010A8
:2038C000414A11601822C3F8C020E922C3F8142260E0022B5ED13D4BEF221A60394B1A6866
:2038E000374B1A60384B1A68394B1A60334B1B78002B4FD0FFF7B6FB4CE0A1F10B030F2BC1
:2039000058D8C8B2FFF7E2FB44E08CB2E2B2314B02E08CB2304BE2B2240A1A605C6039E00C
:2039200031F0070346D12D4B11F0010F1A68C1F3800014BF42F0010222F001021A60204B04
:2039400011F0020F1A6814BF42F0200222F020021A60FFF777FE1DE031F001002AD1204B0E
:20396000197028E001F118031F2B23D81D490D2351F83300DA00844204DC1A4B13441A7983
:20398000194B10E013F1FF33F2D203E0CCB2174B49341C6000200EE001290BD8084B1A682D
:2039A00019B122F00C021A60F4E742F00C02FAE7012000E0022002B010BD00BF5F54002073
:2039C00024860840F0490020EC49002038880840E4860840C8850840D0850840008608408D
:2039E000AE49002044742000408608405886084008B5054B1B7813B9044800F013FD044B9D
:203A000000221A6008BD00BF61540020CC44002034880840064B07481A68042A1FBF064900
:203A20000A7842F040020A7000221A6000F0FABC2C880840CC4400206254002010B5094CB8
:203A400040220021204602F0EFFE074B01221A605C60064B4FF480425A604FF400425A60A4
:203A600010BD00BF0040002004F00F4000E100E003289EBF014B0001195070470040002001
:203A800003289EBF024B03EB00104160704700BF0040002003289EBF024B03EB0010816028
:203AA000704700BF00400020032806D8034901220B6802FA00F018430860704728F00F4078
:203AC000032806D8034901220B6802FA00F018430860704720F00F40032806D803490122BE
:203AE0000B6802FA00F018430860704714F00F4003289FBF044B03EB0010806800F00700E5
:203B000088BF0020704700BF00400020024B4FF0FF321A60704700BF04F50F40014B012204
:203B20001A6070474CF00F40094A1368084913F4801FFAD1074B1A6822F480321A600A68B1
:203B4000D203FCD41A6842F400321A60704700BF04200D4000200D4010B50A4C23689A07C1
:203B60000FD009490B68084A13F0806FFAD113685B01FCD5FEF726FFFFF7D6FF2368002357
:203B8000236010BD58200D4004200D4038B5274B1C6814F03F0413D1254D55F8243023B1AA
:203BA000984768B10134052CF7D1224D2B783BB1FEF718FF0446FEF71BFF201A092801D838
:203BC00030BF38BD002CFBD01B4B1C481A6822F400321A600268194912F4801FFAD11A683E
:203BE00042F480321A600B68DB03FCD5FEF700FF201A092803D8BDE83840FFF795BF632815
:203C00000F4C02D92B78022B00D00123236000F0BFFB20B1FFF788FF0023236038BDFEF79F
:203C2000E1FE0028F6D02368CAE700BF48860840F44900206354002000200D4004200D4094
:203C400058200D400749002351F82320824207D01AB9044A42F8230070470133052BF3D1A8
:203C6000704700BFF4490020054B00221A60054A136943F004031361034B02221A70704759
:203C800058200D4000ED00E063540020094B4FF4803210B5C3F89021C3F89020BFF34F8F46
:203CA000BFF36F8F044C206818B100F0BBFB0023236010BD00E100E0084A0020134B1B7876
:203CC0002BB101F5201127310138114B16E0114A1278122AF5D1104A12784B2AF1D10844B0
:203CE0008B420ADA03F52012032BD4BF2C3224321278013300F8012DF2E77047994204D051
:203D000011F8012900F8012FF8E770472B002800270028002A0028002900280010B54F4C0D
:203D200002F04CFFFEF710FE03F005F800F0D6FA00214B4800F05EFB00F0E2F9FEF7E2FFF5
:203D400002F0DBFF00F08EFBFEF768FC00F07EFE00F0ECFF00F088F92368022B07DD414AE6
:203D60004149424801F0E4FC414801F0E1FC2368022B09DD3C493B4A3C4801F0D9FC3D4B8D
:203D80003D48196801F0D4FC2368022B09DD3649344A364801F0CCFC384B3948196801F014
:203DA000C7FC2368022B09DD2F492E4A2F4801F0BFFC344B3448196801F0BAFC2368022BB4
:203DC00009DD2949274A294801F0B2FC4AF6CD312E4801F0ADFC2368022B08DD2249214A49
:203DE000224801F0A5FC0A21294801F0A1FC2368022B09DD1C491B4A1C4801F099FC254BDB
:203E00002548198801F094FC2368022B07DD154A1549164801F08CFC204801F089FC23687A
:203E2000022B02DD1E4800F041F82368022B02DD1C4801F07DFCFEF717FC1B4802F053FFD3
:203E4000FEF766FF00F062FA0446FEF767FF14F0FF0FF7D102F0BCFEF4E700BFDC440020B7
:203E6000E044002020762000967520009B752000257620000C7520005C762000FC7420000F
:203E80006B762000E074200076762000817620009B762000E84E0020BB762000C876200054
:203EA000D2550020FA7820006075200038B5054608B1002409E00948BDE8384001F038BCE3
:203EC000E30702D4064801F033FC295D0548013401F02EFC082CF3D138BD00BFDD76200072
:203EE000EC762000EE76200010B50E4C236813B90D4A136010BDFEF74DFD216891E80C0062
:203F00001A44131A8A6842B192E812002144091A8B4228BF0B469268F5E71844024B186021
:203F200010BD00BF0C4A0020104A0020014800F079BA00BFE04400202DE9F843038805466F
:203F400033B1592B0BD0002303800320BDE8F883234A136059232B800120BDE8F88387293D
:203F600024D08229F6D11E4F4FF00008B9463C680026002CEED0204602F0E6FE98B1224687
:203F80008821E06800F00EFA58B9E060A3680EB1B36001E0C9F80030C4F80880FFF7A4FF5B
:203FA000E5E7FFF7C3FF2646A468E2E70C4900200B681BB90028CDD00B60CBE7DC68A24276
:203FC00002D19B680120F4E700B10B6099680029C0D0C86882420ABF89680B469960F5E765
:203FE0000C4A002010B50446FFF7A0FFE3680B4A4BB113683BB1A34203D1094A1268DA60E4
:2040000007E09B68F6E7064B1B68E36013681460A360BDE81040FFF767BF00BF0C4A00208A
:20402000184A0020024B1868003018BF012070470C4A002010B50B4A04461368834206D161
:204040008368136008E09A68944203D01346002BF9D103E0A2689A60FFF746FF0023A360D9
:20406000E36010BD0C4A0020034A9179D379034A03EB012313807047D2550020E84E0020D1
:20408000F8B50388064615462BB14A2B15D0002303800320F8BD174802F071FE04462CB1A6
:2040A000A168201D02F02AFE2468F8E7124B01221A704A2333800120F8BD8829FBD10D4863
:2040C00002F05DFE0446002CF3D0231D9D420ED12146084802F05DFE084B62691F681A6039
:2040E000A2691D460AB1E06990472F60E1E72468E9E700BF144A002064540020184A00202D
:2041000010B5064B002406481C7002F035FE2146BDE81040034800F06DB900BF6454002012
:20412000144A0020F044002070B50446E3610B4B049D1B786561A26143B1094D094B2E6873
:20414000201D2B6002F0DAFD2E6000E0A1602146BDE87040044802F02FBE00BF64540020E1
:20416000184A0020F0440020144A002013B5034C24680094FFF7D8FF02B010BD184A0020E6
:2041800010B5084B04461B781BB10430FFF752FF01E0C36003612146BDE81040024802F0E3
:2041A000F8BD00BF64540020144A002010B50A4B04461B7823B1BDE81040043002F0B0BDE2
:2041C000064802F0DCFD18B1A04203D00068FAE7012010BD002010BD64540020144A0020CE
:2041E00038B5836804460D469BB10A4804600220A07304F10C0098470238012801D9832D46
:2042000005D121462046BDE8384000F005B80123A37338BD184A00202DE9F8431C4A04467F
:20422000156889462B4690461A4E3768A34204D00BB11B68FAE7BDE8F88334B3A37BABB18A
:204240000023A37345B1A54204D022468721284602F06BFD2D68F5E7A3683BB14C4505D0CE
:2042600034602A46832104F10C009847D8F800309C4203D12268064B05E0134623B11A6895
:204280009442FAD122681A603760BDE8F88300BF1C4A0020184A0020002370B51D46094AFD
:2042A00001261370084A146854B1E37B33B1A673E573002282212046FFF792FF2468F3E7B6
:2042C00070BD00BF675400201C4A0020024B1878421C1A70704700BF68540020064B8A227D
:2042E0001A70064A00231370054A1370054A1360054A1360704700BF6854002065540020BD
:20430000665400201C4A0020184A00202DE9F0411A4D2B780BB1FFF7BFFF194C22783AB30E
:20432000184E0C213378184F5943781817F8018001334768806803F01F03013A33702270CC
:2043400068B9124B1E689EB12B780BB1FFF7A4FF30463A46414602F0E8FC3668F3E7B8F19E
:20436000810F04BF012383733A46414602F0DDFC2B7820781844BDE8F08100BF67540020B7
:204380006654002065540020204A00201C4A0020024A034B10781B781844704766540020B8
:2043A00067540020F0B50B4E3378202B0FD00A4C0C252478094F1C4404F01F046C4301337A
:2043C0003D19A86039556A6033700020F0BD0120F0BD00BF6654002065540020204A0020ED
:2043E00038B5034C256802F0A0FC256038BD00BF184A002030B40A4C0A4625682B4683425E
:204400000CD00BB11B68FAE740B101210560817320608381812130BCFFF7E2BF30BC7047E8
:204420001C4A002038B1837B013B012B9FBF024A0123C373137070476754002010B5084C75
:20444000206858B100232360816843689847236823B1BDE810401868FEF7E0BA10BD00BFC3
:20446000A04B002082B0074B02AA42F8043DCD21934202D203F8011BFAE70348002102B0D9
:20448000FFF7B8BFE25500200045002038B5FEF745FC0C4C0C4B22780B4DCD2A06D09C4284
:2044A00007D20134F7E7AC4203D201342378CD2BF9D0FEF733FCAC423ABF0348001B4FF00C
:2044C000FF3038BDE2550020E85D002070B5038805462BB1912B0BD000230380032070BD98
:2044E0004FF4A0611B4802F009FC91232B8003E0184802F015FC08B9012070BDFFF7C6FFAF
:20450000154C164B061EA3EB040401DB002C0CDA134B1B68002B18DD124A1349134801F02C
:2045200007F92246314612480DE0A6420DDD0C4B1B68002B09DD0B4A0B490C4801F0F8F8BA
:20454000224631460B4801F0F3F8024802F0DFFBCBE700BFA44B0020E2550020E85D0020FB
:20456000DC4400208A772000907720009B75200094772000BE7720002DE9F04106880546E3
:20458000772E31D07E2E40D0002E4ED12B4CFFF79DFE266026462A4B2A4FDFF8B0801870F5
:2045A000236857F823204AB1002108F80310936880209847336801333360F1E7224A13700C
:2045C000772320E0214AD256002A12DB1B4A136801331360194B1C4A1B6812789A42F1DC90
:2045E0001B4B1B68002BEBD0194A00231360134AEFE7144A002052F82320114B1978FFF7D2
:20460000D1FE30B97E232B8014E00D4B1B788B4210D10A4B0D491A688B5C03F07F038B54A1
:204620000B4A136801331360D0E7002303800320BDE8F0810120BDE8F08100BFB44B002058
:20464000DD550020C044002069540020DA550020B84B0020054A136843F004031360044BCF
:204660001B68906943EA002080B2704700700D4014700D4010B5184A136823F00C031360C3
:20468000164B01221A601A68012AFCD1144B08221A60E322C3F8142203F505731946114A7F
:2046A0001368DB07FCD5104C102000232268013802F0010243EA02034FEA43039BB2F5D1A1
:2046C000002BF1D0094A180A03F0FE0310601360EF230B6010BD00BF00700D40A8200D40C7
:2046E00024860840648608409C86084014700D4010B5044690F84C30084A013380F84C30CE
:20470000802103462030FFF731FD054B2246BDE8104019780020FFF745BE00BFF1462000CE
:20472000DF55002070B503880446C3B1B3F5867F03D000230380032070BD822912D102F0C1
:204740007CFABFF35F8F114B00221E681A60BFF35F8F02F076FA0E4D55F8040F20B94FF4EC
:2047600086732380012070BD90F8453026FA03F3DB07F1D5FFF71AFD0028EDD02B68054AC0
:2047800002211846FFF7F2FCE6E700BFBC4B0020B4440020B1472000034A1368184310603E
:2047A0000248FFF73FBE00BFBC4B00202045002070B50446FFF7FAFC20B304F12006304692
:2047C000FFF7F4FC0546204602F07EFB01280CD1C5B1002523460C4A84F84C507E2130464A
:2047E000FFF7C4FC2246094B06E058B955B93046FFF7C6FC2246064B2846BDE87040197807
:20480000FFF7D0BD70BD00BFF1462000E0550020DE550020F8B5FFF759FD304B304D1870B1
:20482000FFF754FD2F4B304C1870FFF74FFD2F4B2F4F18700023AB602E4B01266B602168CF
:20484000002943D091F84530886C2B4AD90809030A44116803F0070306FA03F321EA0303FD
:2048600013602368254A93F84530D90809030A44116803F0070306FA03F321EA03031360A0
:20488000236840F08C0193F84500FEF77BFB23681B4A93F84530D90809030A44116803F0FE
:2048A000070306FA03F30B431360236893F84530DB0806FA03F33B6054F8043B93F84530AD
:2048C00006FA03F2AB681343AB60B8E70D48FFF791FDBDE8F840024800F09AB8E055002039
:2048E000C04B0020DE550020B8440020DF55002000E100E09947200020940D4000940D4027
:2049000010940D402045002070B505880446672D09D0792D32D0002D36D1FFF7D7FC1D4BAB
:2049200018701D4B1D601C4D2E461C4802F0BCFA431C01D167231FE00A28174A09D00D28C6
:2049400007D02B687E2BF0DC5A1C3260144AD054EBE713680025591C1160114A2846D554A4
:204960000C4B1978FFF71EFD0E4B2A4685211868FFF718FD20B97923238009E0852907D1BD
:20498000054B00221A60CEE700230380032070BD012070BDE1550020D44B0020CC4B002066
:2049A000EB540020184A002038B50D4C01462378254633B90B4802F064FA60B90123237024
:2049C00009E00A2801D00D2805D1064802F059FA08B100232B700448FFF724FD012038BD5D
:2049E000EA540020CC4B00203045002008B505490548802202F03EFABDE808400021034810
:204A0000FFF7F8BC6A540020CC4B0020304500200146014802F0D0B9D84B002038B50546BC
:204A2000064802F0ACF904463CB1A068284002D0636803B198472468F6E738BDD84B002019
:204A4000014802F099B900BFD84B002008B5044802F0C9F9BDE80840024802F0C4B900BFA5
:204A60004C4500204045002038B50E4802F0CBF90446A8B10C4802F0C6F90546206028B993
:204A80002146084802F0D3F9284638BD00F074F805F19C01A5F8800005F1820000F0F8F8DA
:204AA000204638BD404500204C45002010B501460446074802F0D0F948B12168054802F024
:204AC000B6F92146BDE81040014802F0B0B910BD404500204C45002010B50146044609485D
:204AE00002F0BAF968B12468B4F88010204600F0B9F804F19C0104F18200BDE8104000F03B
:204B0000D9B810BD4045002010B507490B88834208DB064C80B222880244181A0880228072
:204B2000012010BD002010BD4A5400204C540020014B1880704700BF4A5400200048704705
:204B4000FC4B0020014B1888704700BF4A540020034A044B10781B781844C0B2704700BFD3
:204B60007B5500204C54002008B5FFF7F1FF014B184408BDFC4B002070B50D4D0D4C2A7894
:204B8000238806461344802B0FDC0B4901F0D6FD2B781E44FFF7E8FF22880146304601F0DF
:204BA000CDFD28782388184470BD002070BD00BF7B5500204A540020FC4B002008B5FFF783
:204BC000C7FF024B1B88184480B208BD4A54002038B50146FFF7F2FF4318802B11DC0A4AAC
:204BE000013880B2541803B2002B04DBD55C0138E55480B2F7E7054B01201A78114419708B
:204C000038BD002038BD00BFFC4B00207B55002038B5094D094C1A220021094801F004FE3B
:204C20002946204602F06BF9294604F10800BDE8384002F064B900BF6C752000A8550020D4
:204C4000B8550020044A00231380044A1380044A1370FFF7DDBF00BF4C5400204A540020A2
:204C60007B55002038B50C460546FFF7EBFF802C28BF802422462946034801F05FFD034BE6
:204C800020461C8038BD00BFFC4B00204A54002010B50C461A22054901F050FD2046BDE84F
:204CA00010401022024901F049BD00BFB8550020A855002010B50C461A220146044801F050
:204CC0003DFD2146BDE810401022024801F036BDB8550020A8550020024B23F810100120EB
:204CE000704700BFB8550020014B33F810007047B855002008B5044B0D3803EBC00002F0B5
:204D0000FEF8012008BD00BFA8550020024B0D3803EBC000704700BFA85500200149024874
:204D200002F0F0B86C752000B0550020054B10B51B689847044B5B689847BDE81040034B08
:204D40005B6818470C742000E0742000FC742000F8B5FDF71FFE04460F4F00250D2007EBE3
:204D60000516FFF7D3FF314602F0CCF878B10720FFF7BAFF337B834201D00020F8BDB068F3
:204D8000201AB0F5206F8CBF00200120F8BD0135102DE3D1F1E700BF7C4C002070B5164E35
:204DA00000240D20FFF7B2FF06EB041102F0AAF8114D611C10B910290C46F2D14C1E05EB15
:204DC0000111A1F110063CB120391022304601F0B5FC013C3146F4E70720FFF785FF2873BE
:204DE000FDF7D8FDA8600D20FFF790FFBDE870400146014802F083B87C4C002030B591B010
:204E0000054600F063F84FF6FF73984202D14FF0FF3052E040220021684601F005FD284B61
:204E20001A782AB901221A70FFF714FC254B18707DB10720FFF758FF58B9224C23780BB9D2
:204E40000123237021780720FFF746FF237801332370FFF763FF6A46C1B21B4802F0B0F8C6
:204E6000FFF75CFF28B1FF238DF800308DF8013006E00E20FFF74AFF0146684602F03FF80A
:204E80000D20FFF743FF014602A802F038F8FFF76BFE0E90FFF756FE0F90684602F07CF99F
:204EA00004464DB1FFF794FE0028B0D0FFF746FE0146684602F0B9F9204611B030BD00BFD4
:204EC0007D5500207C550020E94C2000014B1888704700BFAC4900202DE9F041012986B07C
:204EE00006460F46144640F3838003A902F0E7F90A2203A904F1100001F020FC9DF8113043
:204F00000BB1B51C02E0B378F51CA37602AA01A903A802F09DF89DF81380B8F1000F23D072
:204F2000029B23B16A7815F8023B03EB0223B8F1020FA38309D13049204601F0E0FF6B7875
:204F4000237015F8023B637014E0B8F1030F11D105F108021346611E13F8010DAB4201F839
:204F6000010FF9D1154605E02349204601F0C7FFA4F81C809DF81580B8F1000F2BD0019BDD
:204F800053B16A7815F8023B03EB0223029A9BB2E3831AB9A38301E0A38BE383B8F1020F57
:204FA0000AD1154904F1080001F0A9FF6B78237215F8023B637215E0B8F1030F12D105F102
:204FC00008021346E11D13F8010D9D4201F8010FF9D1154606E0084904F1080001F08FFF97
:204FE000A4F81E80A81B3B1A8742E363A56300DA002006B0BDE8F0816C752000074A0849DF
:2050000013681844884283BF064B0C224FF0FF3010608CBF1A601846704700BF58450020FA
:2050200000800020A455002070B505460C46102C07D92B68102208496868984750B9103CBF
:20504000F5E734B12B68224668680349BDE870401847204670BD00BF0E7820002DE9F04F77
:20506000064615468FB006914FF0000B069B1B78CBB1069C274617F8013B1BB1252B14D05F
:205080003C46F7E7069BA3420DD0069B0699C3EB04084246336870689847002840F0258379
:2050A0002378C34423B958463AE3069BA342ECD16378002BF7D039460024084610F8013B72
:2050C0000A462B2B11D006D8202B11D0232B12D144F0080416E02D2B04D0302B0BD144F041
:2050E00010040FE044F001040CE044F0060409E044F0020406E0A3F13107082F11D84FF016
:20510000000801E00146D8E70A4611F8013BA3F13000092813D80A2202FB0838A8F13008F1
:20512000F2E72A2B09D12B680246002B05F10405B8BF44F00104984601E04FF00008137821
:205140002E2B1AD15178531CA1F1300009280ED8194600270A780B46A2F13000092801F1BB
:2051600001010DD80A2303FB0727303FF2E72A2904D12F68931C043502E013464FF0FF3750
:205180001A786C2A09D15A786C2A02D144F080040AE0013344F0600411E0682A0AD15A7834
:2051A000682A03D144F02004023308E0013344F0400404E07A2A04BF44F0600401331A78BF
:2051C000642A3CD01FD8462A48D00DD8252A5AD003D8002A3FF467AF57E0412A4AD0452ADF
:2051E00053D144F4424450E0582A31D004D8472A4BD144F4A13448E0612A38D0632A44D147
:2052000044F4A06441E06E2A3AD007D8662A22D027D3672A28D0692A11D036E0732A2CD088
:2052200006D86F2A11D0702A2FD144F440742CE0752A07D0782A28D144F4C85425E044F4E2
:20524000245422E044F410641FE044F488541CE044F4B24419E044F4007416E044F4844450
:2052600013E044F4024410E044F481340DE044F4C1340AE044F4E13407E044F4806404E0A8
:2052800044F4E06401E044F4C0640133069304F4E063B3F5806F00F08F8113D8B3F5807F24
:2052A00027D0B3F5407F7FF4E1AEAE4B14F4804FAD4A18BF1A460DF1330328680021043572
:2052C0001F46B5E1B3F5C06F08D0B3F5E06F00F02282B3F5A06F7FF4C9AEF2E13368012267
:2052E000A24970689847002840F0FF810BF1010BBCE6002FACBF24F01004012714F4005345
:20530000079304F0E0032ED0402B12D005D8ABB1202B21D195F900200DE0602B0ED0802BAC
:205320001AD1073525F0070303F10805D3E9002307E0B5F90020D317043502E02A680435C2
:20534000D317002A73F1000108DA524263EB4303CDE90023012304E000220023CDE90023CB
:205360000023059329E0402B13D004D8BBB1202B1DD12A780EE0602B11D0802B17D10735CF
:2053800025F0070303F10805D3E90023CDE900230BE02A880023CDE90023043505E02B68EB
:2053A00000221946CDE900120435079BD9E70023059300220023CDE9002304F4C053B3F57D
:2053C000805F0CD0B3F5C05F33D0B3F5006F4FD1DDE900230DF13609CDE9022304E0DDE966
:2053E00000230DF1360915E0DDE9022313433AD0DDE902010A22002300F022FDDDE902011D
:20540000303209F8012D00230A2200F019FDCDE90201E9E752EA030125D002F0070130318D
:2054200009F8011DD10841EA4371D8080A460346F0E74C4B14F4804F0DF136094A4918BF30
:205440001946DDE9002352EA03000CD002F00F00085C4FEA131E09F8010D100940EA037055
:2054600002467346EFE70DF13603C9EB030302E00DF1360900230293029B41F60802BB42B2
:2054800038BFFF1A41F2080302EA040228BF00279A4202D1002F08BF012741F60801029B14
:2054A0008A4203EB07000DD1DDE90023134309D02F4A304914F4804F4FF0020A0CBF0B4605
:2054C000134602E04FF0000A5346079A9AB1059A52B904F00602022A0AD0062A264A04BFB4
:2054E0004FF0010A134606E04FF0010A234B02E0234B4FF0010A0AEB000290458CBFC2EB0D
:2055000008084FF0000814F0010200920DD1E10602D54744904608E0414630460593FFF72B
:2055200083FD059B002840F0E080BAF1000F07D03468524619467068A047002840F0D58003
:20554000029B03EB0B04BB46BBF1100F33681BD910220C4970689847002840F0C680ABF1DE
:20556000100BF1E72E7820003F7820006178200053782000507820005878200056782000F1
:20558000DB7620001E782000BBF1000F06D05A46654970689847002840F0A7803368029A98
:2055A0004946706854449847002840F09E80009B3C44002B39D032E0D5F800900435B9F1F6
:2055C000000F0AD0CA469AF800300AF101020BB19246F8E7C9EB0A0A03E0DFF850914FF0FD
:2055E000060A002F02DBBA4528BFBA46D0458CBFCAEB08084FF0000814F0010705D14146D4
:205600003046FFF711FD00286FD133685246494670689847002868D10AEB0B042FB1414663
:205620003046FFF701FD00285FD108EB040B1DE550EA010E0ED000F00F0E12F80EE04FEA3F
:20564000111C03F801ED4FEA101E4EEA017E70466146EDE7FF1A02BF3022012703F8012C69
:2056600007F1030708BF03F1FF337822B84503F8012C4FF0300203F8022C88BFC7EB0808D9
:205680004FF0230298BF4FF0000814F00104A3F1030903F8032C04D141463046FFF7C4FCAD
:2056A00018BB33683A46494670689847E8B95F4424B141463046FFF7B7FCB0B908EB070B89
:2056C000D4E4B8F1010F2B688CBF08F1FF384FF0000814F0010405F104058DF8203008D14E
:2056E00041463046FFF7A0FC10B14FF0FF3017E0C3443368012208A9706898470028F4D1DB
:2057000008F101072CB141463046FFF78DFC0028EBD1BB44AAE42B680435C3F800B0A5E4FE
:205720000FB0BDE8F08F00BF1E7820005A7820000FB407B504AA52F8041B04480192FFF7B4
:205740008DFC03B05DF804EB04B070475C45002010B501210C20FFF7BFFABDE81040014B9A
:205760005B681847D4742000014B9B68184700BFD4742000014B1B6A184700BF0C7420003B
:20578000014B5B6A184700BF0C7420000C4B13B51B6898470B4B044601A918209B6A984753
:2057A00001280AD0002C0198B8BF15248028D4BFC4EB0000C4F1800000E0002002B010BDD3
:2057C000D47420000C74200007B5064B01A918209B6A984718B900F019FAFFF7CBFF03B0A7
:2057E0005DF804FB0C74200007B5FFF7ABF9032823D0FFF7B9FF00281FDB0E20FFF786FACD
:205800000F4901F07FFB38B10D20FFF77FFA0C4901F078FB88B904E0FFF780FA0028F3D106
:205820000BE0FFF795FA40B9FFF7B8FA054B9B68019303B05DF804EB184703B05DF804FB13
:20584000D2550020FC74200070B590F82D400122012CD4BF03340524054602FA04F4FEF7E0
:20586000F9FE013CB0FBF4F12B4601FB1401034A05F10C00BDE87040FEF778BC0559200097
:205880002DE9F0470D4614468B68804693E8C000506B92F82C9001F07CFA6868FFF706F9ED
:2058A000A968144801F0C3FA2946134801F0BFFA606B01F064FA40B1002384F82C3084F8D7
:2058C0002D302046FFF7C0FF0BE004F10C00FEF757FC2146094801F05CFA2146084801F075
:2058E000A6FA4B46424639463046BDE8F04701F011BB00BF6445002070450020DC4D0020BB
:205900007C4500202DE9F74F0446002800F0D980406B01F034FA0546002800F0D280406868
:20592000FFF7DAF868490D20FFF7E4F901210820FFF7D2F9FFF70CFF0028C0F2C080FFF7D2
:20594000FDF8624E90F802807768FFF7F7F88146FFF734F901464846B847FFF7DFF9D6F87A
:2059600018908246C847002860D1BAF1000F0BD0B768FFF723F9B8470746FDF739F86FF0B9
:20598000A20BC0EB0B0B04E0F369984700284DD1EEE7FDF72DF81BEB000FFAD417F0FF0756
:2059A00004D0022F0CBF0120042040E0BAF1000F01D000203BE0FDF71BF86FF00C0AF76910
:2059C000C0EB0A0AB84710B1C84740B905E0FDF70FF81AEB000FF5D4F6E7B84730B1FDF7D2
:2059E00007F86FF01409C0EB090909E0736998470028F4D009E0FCF7FBFF19EB000F02D51F
:205A0000B8470028F7D0B84708B902200FE03369032101A89847032808D19DF80600B0EB45
:205A2000080018BF01200028C3D000E00120AA68002A46D003283DD8DFE800F0021B0B43F6
:205A400094F82C300020013384F82D0084F82C3030E0002384F82D3094F82C300133DBB2D4
:205A600084F82C30127A9A421DD822462946022022E094F82D300133DBB2052B83BF0023B7
:205A800084F82D3094F82C3084F82D3084BF013384F82C3094F82C10137A994203D32246AF
:205AA0002946012008E02046FFF7CEFE686801F020FA06E022462946FFF7E2FE01E00520D2
:205AC000B5E703B0BDE8F08FD25500200C7420002DE9F04107460E208846FFF717F9454B46
:205AE00005461A78444C22B901221A70FEF7B2FD2070237813B9404B01221A70217807201E
:205B00004B1C2370FFF7E8F801210C20FFF7E4F83A4801F034F9044640B12946201D01F01D
:205B2000F1F9D8B9204601F05BF9F4E7344801F06AF9044640B32946201D01F0E0F90023BE
:205B400004F13000606384F82C3084F82D30236301F012F92146294801F02EF9606B01F07E
:205B600038F9072810DC274801F04DF9054698B9606B01F02EF938B92146204801F009F901
:205B800021461F4801F053F941463846BDE8F0410123062201F0BEB91B4801F034F9A860E2
:205BA00008B3FEF761FF6860C8B10620AE68FFF79BF8C0B208B1307201E00823337286E8E3
:205BC00080012946606B01F0F7F8606B01F0D7F885420DD12046BDE8F041FFF735BEA968C4
:205BE000094801F024F92946064801F020F9BFE7BDE8F0818F5500207E550020DC4D002083
:205C00007C450020704500206445002008B5054801F0E9F8044801F0E6F8BDE808400348D6
:205C200001F0E1B870450020644500207C450020014B00221A607047B04E002010B504468F
:205C4000FFF700F80B4B19880B4B1868FFF70AF80CB1214600E009490E20FFF74BF8084983
:205C60000D20FFF747F8074B002108469B689847012010BDA05500209C5500206C7520000A
:205C8000D2550020E07420002DE9F0410C4B1C68A4B1FEF769FF0546FEF754FF06460D2069
:205CA000FFF734F807460E20FFF730F83A46034631462846A446BDE8F0416047BDE8F081FE
:205CC000B04E0020014B1860704700BFB04E002010B5038804462BB16F2B0AD000230380BE
:205CE000032010BD0B48FFF7EDFF6F232380012010BD8229FBD1084A084B00201A60084B53
:205D000007221A80074BDB6898470748FFF710FDEBE700BF015E2000925500209C550020D2
:205D2000A0550020FC7420007478200073B5294B294E01219B6881209847B3680221032099
:205D400098470DF1060101A8FCF7B2FB0130234D1AD0BDF804200A242A8012B292FBF4F1A4
:205D600004FB1122BDF8063012B21D486B80FFF7DFFCBDF906201B4892FBF4F104FB11223E
:205D800012B2FFF7D5FC05E0002317482B806B80FFF7CEFC736803209847144C81B2A88023
:205DA0001348FFF7C5FC1348FFF7C2FC2046002300F8013B0222094900F0C0FC02220E4968
:205DC000E01C00F0BBFC02220C49601D00F0B6FC02B070BD84732000947320004E540020A9
:205DE000857820009F782000B778200092550020D2782000FA782000505400205254002073
:205E000070B5064608460D4600F0AAF904462A46314600F093FCA378627821780648FFF75B
:205E200087FCFFF783FF0548FEF7FCFA2046BDE8704000F09DB900BFE27820008845002008
:205E400053B94AB9002908BF00281CBF4FF0FF314FF0FF3000F082B9ADF1080C6DE904CE5E
:205E600000F006F8DDF804E0DDE9022304B070472DE9F04F8C460C460546099E002B4FD16F
:205E80008A4217466BD9B2FA82FEBEF1000F0BD0CEF1200520FA05F501FA0EF345EA030C9E
:205EA00002FA0EF700FA0EF5390CBCFBF1F0BAB201FB10C300FB02F84FEA154C4CEA0344C0
:205EC000A04509D9E41900F1FF3380F02881A04540F2258102383C44C8EB0404B4FBF1F3FD
:205EE00001FB134C03FB02F2ACB244EA0C418A4209D9C91903F1FF3480F00F818A4240F2C7
:205F00000C81023B39448A1A43EA00400021002E63D022FA0EF2002386E80C00BDE8F08FCA
:205F20008B4207D9002E56D0002186E811000846BDE8F08FB3FA83F1002940F09380A342DC
:205F400002D3824200F2FE80851A64EB03039C460120002E41D086E82010BDE8F08F12B975
:205F60000127B7FBF2F7B7FA87FEBEF1000F36D1E41B4FEA17481FFA87F90121B4FBF8F377
:205F800008FB134409FB03F24FEA154C4CEA0444A24207D9E41903F1FF3002D2A24200F208
:205FA000D3800346A41AB4FBF8F008FB104809FB00F9ACB244EA0842914507D9D21900F130
:205FC000FF3402D2914500F2BA802046C9EB020240EA03409BE731463046BDE8F08F07FA99
:205FE0000EF7CEF1200C24FA0CF34FEA1748B3FBF8FA1FFA87F908FB1A3520FA0CFC04FA51
:206000000EF40AFB09FB4CEA040C4FEA1C4242EA05439B4500FA0EF50AD9DB190AF1FF3244
:2060200080F08B809B4540F28880AAF1020A3B44CBEB0303B3FBF8F008FB103300FB09F415
:206040001FFA8CFC4CEA03439C4207D9DB1900F1FF326ED29C426CD902383B441C1B40EAD2
:206060000A418BE7C1F1200E8B4022FA0EFC4CEA030C24FA0EF74FEA1C49B7FBF9FA1FFACE
:206080008CF309FB1A7720FA0EF88C400AFB03F548EA04044FEA144848EA0747BD4202FAB9
:2060A00001F200FA01FB09D917EB0C070AF1FF3041D2BD423FD9AAF1020A67447F1BB7FB0E
:2060C000F9F509FB157705FB03F3A4B244EA0747BB4208D917EB0C0705F1FF3027D2BB426C
:2060E00025D9023D674445EA0A40A0FB0289FF1A4F4545464C4614D329D066B3BBEB0503A8
:2061000067EB040707FA0EFECB40CF404EEA030386E888000021BDE8F08F2346F3E61846E2
:20612000DAE6B8EB020569EB0C040138E5E70546D9E7104692E78246C0E7924678E70238D2
:206140003A4443E7084604E7023B3C442AE7C345E7D33C46D1E73146BDE8F08F704700BF83
:20616000024B0146186800F00BB800BFA8490020024B0146186800F009BC00BFA8490020EF
:206180002DE9F04F01F10B05162D83B0064640F2A08035F0070500F1C080A94200F2BD8018
:2061A00000F090FBB5F5FC7FC0F090826B0A00F0BB80042B00F27781A80900F1390E4FEAA2
:2061C0004E013830BE4F07EB81014C680839A14207D1AEE0002A80F2AE80E468A14200F060
:2061E000A880636823F003035A1B0F2AF2DDB4493C6901F1080E744500F0A881636823F0BC
:2062000003035A1B0F2A00F38E81002AC1F814E0C1F810E080F29380B3F5007F80F05C814F
:20622000DB084A684FEAA3094FF0010C013351F833800CFA09F901EBC30C49EA0202ACF1D1
:20624000080CC4F80CC0C4F808804A6041F83340C8F80C40831001249C4094427CD81442E8
:2062600006D120F003006400144200F10400FAD007EBC009CC468046DCF80C108C4507D18F
:2062800066E1002A80F27481C9688C4500F060814B6823F003035A1B0F2AF2DD0C46CB6885
:2062A00054F808CF45F00108C1F804800D4442F00101CCF80C303046C3F808C07D613D6146
:2062C000C5F80CE0C5F808E06960AA5000F0FCFA1FE0102921D800F0F5FA10250623022037
:2062E000774F07EB83035C68A3F10802944200F038816368E16823F0030323445A68A5681C
:2063000042F00102E96030468D605A6000F0DCFA0834204603B0BDE8F08F002420460C23EA
:20632000336003B0BDE8F08F80214FF0400E3F2048E770465BE723445A68E168DFE72344A0
:206340005A68304642F001025A60083400F0BCFA204603B0BDE8F08FBC68636823F00308EA
:20636000A84504D3C5EB08030F2B00F38C80554BDFF860911A68D9F800302A44013304EBE9
:20638000080A00F0608102F580520F3222F47F6222F00F0211463046019200F097FAB0F174
:2063A000FF3F8346019A00F05881824500F2FC80454BDA4519681144196000F05381D9F8AA
:2063C0000000DFF810E101301BBFCAEB0B0A5144CEF800B019601BF0070100F01781C1F14F
:2063E0000800C1F58051834408315A44C2F30B02C2EB010949463046019300F067FA431CAE
:20640000019B00F03F81CBEB00024A4442F001021968BC424944C7F808B01960CBF80420D2
:20642000DFF8A49016D0B8F10F0F40F2FD806268A8F10C0323F0070302F00102E0184FF03A
:20644000050E1A430F2B6260C0F804E0C0F808E000F21C811D4BBC681A68914288BF196064
:206460001B4B1A689142626888BF196022F003029542A2EB050301D80F2B04DC304600F0FB
:2064800023FA002445E745F0010243F00103254462603046BD6008346B6000F015FA2046F6
:2064A00003B0BDE8F08F142B71D9542B00F2A480280B00F16F0E4FEA4E016E3082E600BFF9
:2064C00098450020BC4E0020C04E0020B84E0020B44E0020A44900205A0A042A5ED9142A0B
:2064E00000F2B38002F15C0149005B3207EB810C57F82110ACF1080C8C45DFF8D88100F0B0
:2065000088804A6822F00302934202D289688C45F7D1D1F80CC07A68C4F80CC0A160CCF8B3
:206520000840CC6096E645F0010742F001032544676030464D610D61C5F80CE0C5F808E0E8
:206540006B60AA50083400F0BFF9E2E64A6881E608F1010818F0030F0CF1080C7FF48CAED7
:2065600030E0DC68A34208BF02303FF440AEC0E60C460B445A68C96854F8085F42F00102A6
:206580005A603046E9608D6000F09EF9C1E603F15C0E03F15B004FEA4E0113E69A0902F1A3
:2065A000390149003832A1E7BC424A4B3FF400AF9C68626822F003025AE759F8083999455B
:2065C00040F0828010F0030F00F1FF30F5D17B6823EA04037B6064009C423FF6BDAE002CB1
:2065E0003FF4BAAE1C4240467FF442AE64001C4200F10400FAD03BE6B3F5AA7F18D8E80B63
:2066000000F1780E4FEA4E017730DBE54FF48051EBE60121D8F80430921001FA02F21A431B
:20662000C8F80420614677E70123CBF8043025E740F25452934220D8A80C00F17D0E4FEA3C
:206640004E017C30BEE51032A4E6542A26D81A0B02F16F0149006E3248E7BC68626822F0B4
:20666000030205E7CAF30B0000287FF4A8AE4244BB6842F001025A60ECE6FE214FF07F0E1B
:206680007E209FE501224FF00009C1E604F10801304600F07BF9D9F80010DBE6B2F5AA7F7C
:2066A00005D8DA0B02F17801490077321EE740F254518A4205D89A0C02F17D0149007C3227
:2066C00014E7FE217E2211E77B6884E7E808431C5B0005E698450020032A70B426D940EAAE
:2066E00001039B0711D004780D78AC4222D10244431C05E013F8014B11F8015FAC4219D10F
:206700009342F7D1002070BC70470C4603461E6825681846AE42214603F1040304F104047E
:20672000E1D1043A032A18462146F0D8002ADAD11046E8E7601B70BC704700BF844641EAA3
:20674000000313F0030349D1403A23D30B6803604B6843608B688360CB68C3600B69036173
:206760004B6943618B698361CB69C3610B6A03624B6A43628B6A8362CB6AC3620B6B03634D
:206780004B6B43638B6B8363CB6BC36340304031403ADBD230320BD30B6803604B684360F1
:2067A0008B688360CB68C36010301031103AF3D20C3205D351F8043B40F8043B043AF9D2FF
:2067C000043208D0D2071CBF11F8013B00F8013B01D30B8803806046704700BF082A13D360
:2067E0008B07B1D010F00303AED0C3F10403D21ADB071CBF11F8013B00F8013BA4D331F885
:20680000023B20F8023B9FE7043AD9D3013A11F8013B00F8013BF9D20B7803704B7843708B
:206820008B7883706046704770B4840746D0541E002A41D0CDB2034602E0621EE4B3144678
:2068400003F8015B9A07F8D1032C2ED9CDB245EA05250F2C45EA054519D9264603F1100251
:20686000103E0F2E42F8105C42F80C5C42F8085C42F8045C02F11002F2D8A4F1100222F085
:206880000F0204F00F041032032C13440DD91E462246043A032A46F8045BFAD8221F22F039
:2068A00003020432134404F003042CB1C9B21C4403F8011BA342FBD170BC70471446034645
:2068C000C2E700BF704700BF704700BF38B5074C0023054608462360FEF790FB431C00D036
:2068E00038BD2368002BFBD02B6038BDA4550020F8B50C46224F0646FFF7E4FFBB685D680C
:2069000025F00305291B01F6EF7121F47F6121F00F01A1F58054B4F5805F07DB002130463E
:20692000FFF7D4FFBB682B44984204D03046FFF7CBFF0020F8BD61423046FFF7C7FF01303D
:206940000DD0104BBA6819682D1B45F001053046091B55601960FFF7B7FF0120F8BD00216E
:206960003046FFF7B3FFBA68831A0F2BDEDD064C0449246843F00103001B53600860D5E7F1
:2069800098450020C04E0020A4490020002945D02DE9F0410D468046FFF794FF55F8047CCB
:2069A0006A49A5F1080427F00103E2188E685068B24220F0030062D0FE0750600BD455F8A5
:2069C000087C01F1080EE41BA5683B4475456FD0E768EF60BD6015186D68ED0742D543F0AC
:2069E00001026260E350B3F5007F18D2DB0848689D100122013351F8337002FA05F501EB29
:206A0000C3022843083AE260A760486041F83340FC604046BDE8F041FFF756BF70475A0A89
:206A2000042A53D89A0902F139077F0002F1380501EB870051F827200838904243494DD0BA
:206A4000516821F003018B4202D292689042F7D1D068E060A2608460D4604046BDE8F04145
:206A6000FFF732BF95683A4F0344BD423FD0D06843F00102E86085606260E350B3E7FF0724
:206A8000034407D455F8085C641BE268A0682B44C26090602F4A43F0010012686060934215
:206AA0008C60B6D32C4B40461968FFF721FFB0E711184968C90744D491680344D26843F0C7
:206AC0000100CA6091606060E350A2E7142A17D802F15C077F0002F15B05A9E7AA104B68CC
:206AE000012505FA02F213434B600246B1E743F001024C610C61E560A5606260E35088E79E
:206B0000542A06D81A0B02F16F077F0002F16E058EE7B2F5AA7F06D8DA0B02F178077F00AD
:206B200002F1770584E740F25450824206D89A0C02F17D077F0002F17C0579E7FE277E25CB
:206B400076E743F001026260E35062E798450020A0450020A0490020BC4E0020FEE708B58D
:206B6000FBF794FBF7B500240646254627463046FBF7C0FD0197019B9D4204DD00BF019B2C
:206B800001330193F7E73046FBF7E4FDC5F5C8750197019B9D4204DD00BF019B01330193F8
:206BA000F7E70134B4F5487F06D0B4F5C87FCCBFC4F548752546DAE703B0F0BD08B500F052
:206BC0000DF8FBF7EBFDBDE808400120FFF7CABFFCF7DCBF01207047FBF764BE08B5FCF71F
:206BE000A5F8FCF70BF9FCF7A9F8FBF7ADFEFDF73BF800F0A0F8BDE80840FDF721BFFBF76E
:206C00007DBE70470020FBF761BF0120FBF75EBF0020FCF7CDB80120FCF7CAB80220FCF7DD
:206C2000C7B80320FCF7C4B810B50C46FCF7E2FB2046BDE81040FCF7B3BCEFF3108072B605
:206C4000704780F31088704710B50446C1B20020FCF74AF8204610BD70B505460446461899
:206C6000601B44B1237833B1B44204D01846013400F060FBF4E770BD0020704701207047C6
:206C800010B50446302200210E20FCF7E1F884B1012C0CD142F210730011A0F28E50584366
:206CA0002A2390FBF3F000F5C340283010BD4FF0004010BD002070470120704710B50446F2
:206CC000302200210F20FCF7C3F85CB1012C07D140F6F253584347F6F07390FBF3F010BD61
:206CE0004FF0004010BD10B5041F54F8040F18B10021FDF77FFBF8E710BD704710B5044637
:206D000000F01BF82046BDE81040FDF76BB910B5044600F027F82046BDE81040FDF762B975
:206D2000C068B0FA80F040097047837BDB0701D5FDF756BA7047FFF764BF10B541600446D7
:206D4000FBF728FE206010BD10B50446FBF722FE2368C3F1010303446068834294BF002023
:206D6000012010BD10B50446FFF7EEFF18B194E80C001344236010BD002303607047006896
:206D80007047006800B9704703680BB11846FBE77047036810B573B1002499421A6806D19A
:206DA0000CB9026000E0226000221A6010BD1C460AB11346F1E710BD38B50546FFF7E9FFB0
:206DC00000230B60FFF7DDFF08B9296038BD016038BD0368002013B101301B68FBE7704722
:206DE00000B10068704710B50446428800214068FFF71AFD23886288A0685A43BDE81040E5
:206E00000021FFF711BD10B5418800238B420CDA4268D418D25C32B9012222700288806853
:206E200003FB020010BD0133F0E7002010BD30B5826844880023A3420BDA8A4205D14268B9
:206E4000D15C31B10020D05430BD058801332A44F1E74FF0FF3030BD82688A4208D843882F
:206E6000008800FB032081422CBF002001207047002070470023013A016002714371837115
:206E8000704710B5427983790479D31A34EA030308D00368995443795A1C0379134043714C
:206EA000012010BD002010BD837942790179D21A0A421FBF0268D25C01330B401ABF8371CC
:206EC00010464FF0FF30704790F845200121D3081B0303F1804302F0070203F5592301FA0E
:206EE00002F253F8223090F844000BB180F001007047006800F19C018230FDF7C9BE082204
:206F0000FFF71CBC08B50822FFF7E6FBB0FA80F0400908BD30B40D460446114620B11A46B4
:206F20002846234630BC184730BC704730B591B0FDF71AFE0446FDF705FE6A4601462046BC
:206F4000FDF7CAFF044610B94FF0FF3036E0FDF7DBFD0028F8D09DF810100C20FDF7BCFE92
:206F60009DF813100820FDF7B7FE9DF81730ABB1BDF81C50FDF7AAFF854205D04FF6FF733F
:206F8000BDF81C209A42DFD169469DF8170000F0F4F818B969460E20FDF7ACFE02A90D2019
:206FA000FDF7A8FE9DF8153013B99DF81A1001E04FF6FF710720FDF78FFE204611B030BD80
:206FC000F8B50E461446054600283AD0002A38D00C20A84700232074A37416B1E3746375C8
:206FE00003E00820A8476675E0740920A847002701232376A07567740720A847A076FDF75C
:2070000065FFE0830A20A847012816BF032367766376FDF75BFFA0830B20A847012801D130
:20702000002303E00EB1022300E00323E375637E022B02D0E37D022B01D1012300E00023A2
:207040002375F8BD0120FDF7D9BE0020FDF7D6BE30B500284ED0037A022B2ED1C479437AC1
:20706000057914B983B9012D0AE003B975B1032C0ED1032B03D1002D3AD1012019E0022B00
:2070800014BF0020012008E0204606E0012005E0022CF4D1181C18BF012005BB0CB1022CD8
:2070A00005D1023B012B8CBF002301231BE0032C15D19C1E6342634115E00378022B10D06F
:2070C00003792BB9437A13F0030318BF012300E00023C07910F0030018BF012003E0002352
:2070E00001E00020034601B10B601AB1106030BD0020D2E730BD37B50D4604460021062269
:207100002846FFF791FB637DD9075CBF01232B70237E012B0DD8E37D9A0708D0637E9B07D7
:2071200005D0E28BA38B9A4201D1012300E00023237501AA694604F11000FFF789FF009BFA
:207140000BB10223EB70019B0BB102236B70E37D03F00303022B03D0032B0CBF08230023FB
:20716000AB70637E03F00303022B03D0032B0CBF082300232B7103B030BD02280CBF02237D
:2071800008230B448B4205D013F8012DFF2AF9D0002070470120704707B56946FFF7ABFFEE
:2071A0009DF800009DF80130023018449DF802309DF8032018449DF80430104403449DF812
:2071C0000500184403B05DF804FB837810B544781B01E40003F0100304F008041C43C2782C
:2071E0000378520103F00703234302F020021A4303799B0103F0400313430B704379427A56
:20720000847903F0010343EA8213C279640004F002049200234302F00C021A43037A1B0131
:2072200003F0300313434B7010BDF7B504460D466946FFF760FF04F110002946FFF7C5FFCF
:207240009DF80030012B02BFA37E0320AB709DF8013018BF0220022B08D1A28B431C2A544E
:20726000A28BDBB20230120AC0B2EA5401469DF80230E218A24205D012F8017D4E1C6F54E0
:20728000F1B2F7E718449DF80330C0B2022B08D1E28B431C2A54E28BDBB20230120AC0B2CD
:2072A000EA549DF804301844C0B2C21AD2B223B1013BE118097AA954F7E703B0F0BD1FB5FE
:2072C00002461378084603F007018DF80410C3F3C0018DF80510C3F300118DF80610C3F3D0
:2072E0004011C3F380138DF8083053788DF8071003F001028DF80920C3F340028DF80A2085
:20730000C3F381028DF80B20C3F301128DF80C209B090A2201A98DF80D30FFF70FFA05B01A
:207320005DF804FB08B5084612B11146FFF794FC002008BD10B50446FFF786FC204610BDAF
:20734000FEF7C6BB704700207047704701207047012070470120704700207047002070473C
:20736000704770470020704700207047012070470120704770477047704700207047002025
:20738000704770477475200029232000CD2220000000000081752000F92420008D252000D6
:2073A00000000000D5752000E127200019282000D56B200001000000010000000100000077
:2073C00000C0004000410D4000000000080000002C00000000000001FFFFFFFF05000000E9
:2073E00002000000020000000200000000D0004008410D4002000000080000002C000000AB
:2074000002010200FFFFFFFF06000000E9362000F5332000A1352000296C200015332000CB
:20742000053120004131200059312000653020008D30200069312000613820005D34200004
:20744000E532200007000000FF00000005000000ED00000003000000D50000000100000024
:20746000C500000000000000B6000000FFFFFFFFB0000000FDFFFFFFA1000000FBFFFFFF52
:2074800091000000F9FFFFFF88000000F7FFFFFF72000000F5FFFFFF62000000F3FFFFFF33
:2074A00058000000F1FFFFFF42000000E8FFFFFF0000000007762000816C2000796C2000B0
:2074C0007D6C20001B762000BD6C2000B56C2000B96C20004B702000457020002D6F2000B7
:2074E00063782000C957200041732000E957200075572000815720008D572000427720005C
:20750000315C2000895C20003D5C20006878200083732000457320007B7320007F732000F2
:2075200069732000477320004B7320006D7320007173200075732000777320004D732000A1
:207540005173200055732000597320005D7320006173200079732000637320006573200095
:20756000884500200000000043000000000000000000000044485432322073656E736F72DD
:20758000004144432073656E736F727320415049005A6F756C00494E464F005B252D3473D2
:2075A0003A20252D3130735D20005A6F6C65727469612052452D4D6F7465207265766973C2
:2075C000696F6E204120706C6174666F726D001D001C001B004144432073656E736F722089
:2075E000696E74657266616365005573657220627574746F6E00636332353338205246200F
:20760000647269766572004F6E2D436869702054656D7065726174757265005644443300B1
:207620004D61696E005374617274696E6720436F6E74696B692D4E472D72656C65617365B8
:207640002F76342E372D3134312D673933393938313738312D64697274790A002D20526F3D
:207660007574696E673A2025730A002D204E65743A2025730A002D204D41433A2025730A5D
:20768000002D203830322E31352E342050414E49443A203078253034780A002D203830328D
:2076A0002E31352E342044656661756C74206368616E6E656C3A2025750A004E6F64652052
:2076C00049443A2025750A004C696E6B2D6C6179657220616464726573733A2000284E551C
:2076E0004C4C204C4C206164647229002E0025303278004C4C2D4E554C4C004C4C2D25300F
:20770000347800616C6C004E2F41004E6F6E65004572726F7273005761726E696E67730070
:20772000496E666F0044656275670072706C007463706970006970763600366C6F7770618A
:207740006E006E756C6C6E6574006D6163006672616D65720036746F7000636F617000736C
:207760006E6D70006C776D326D006D61696E004576656E742074696D6572004374696D65F5
:20778000722070726F6365737300537461636B0045525200436865636B20696E20696E634A
:2077A0006F6E73697374656E742073746174653A20256C642076732E20256C640A00436851
:2077C00065636B206661696C65643A20256C642076732E20256C640A00537461636B2063D3
:2077E0006865636B0053656E736F727300427574746F6E2048414C2070726F636573730071
:2078000053657269616C2064726976657200202020202020202020202020202020203030FC
:207820003030303030303030303030303030303132333435363738394142434445460030D6
:20784000313233343536373839616263646566003078003058002D002B00286E756C6C2962
:2078600000250043534D41006E756C6C726F7574696E670073656E736F7220646174612088
:207880006F75740A007B2254656D7065726174757265223A20253032642E25303264002CAF
:2078A000202248756D6964697479223A20253032642E25303264004661696C656420746F71
:2078C0002072656164207468652073656E736F720A002C20224E6F697365223A2025757DC8
:2078E0000A004461746120626561636F6E3A2042302025642025642025640A0073656E73F2
:0A7900006F727320646220323400BD
:20790C00000000002C43002094430020FC4300200000000000000000000000000000000076
:20792C0000000000000000000000000000000000000000006875200000000000000000003E
:20794C0000000000000000000000000000000000000000000000000000000000000000001B
:20796C000000000000000000000000000000000000000000000000000000000000000000FB
:20798C000000000000000000000000000000000000000000000000000000000000000000DB
:2079AC00000000000000000001000000000000000E33CDAB34126DE6ECDE05000B0000008E
:2079CC0000000000000000000000000000000000000000000000000000000000000000009B
:2079EC0000000000000000000000000000000000000000000000000000000000000000007B
:207A0C0000000000000000000000000000000000000000000000000000000000000000005A
:207A2C0000000000000000000000000000000000000000000000000000000000000000003A
:207A4C0000000000000000000000000000000000000000000000000000000000000000001A
:207A6C000000000000000000000000000000000000000000000000000000000000000000FA
:207A8C000000000000000000000000000000000000000000000000000000000000000000DA
:207AAC000000000000000000000000000000000000000000000000000000000000000000BA
:207ACC0000000000000000000000000000000000000000000000000000000000000000009A
:207AEC0000000000000000000000000000000000000000000000000000000000000000007A
:207B0C00000000000000000000000000000000000000000000000000000000000000000059
:207B2C00000000000000000000000000000000000000000000000000000000000000000039
:207B4C00000000000000000000000000000000000000000000000000000000000000000019
:207B6C000000000000000000000000000000000000000000000000000000000000000000F9
:207B8C000000000000000000000000000000000000000000000000000000000000000000D9
:207BAC000000000000000000000000000000000000000000000000000000000000000000B9
:207BCC00000000000000000000000000000000000000000000000000000000000000000099
:147BEC00000000000000000000000000000000000000000085
:207C0000000000000000000000000000000000000000000000000000000000000000000064
:207C2000000000000000000000000000000000000000000000000000000000000000000044
:207C4000000000000000000000000000000000000000000000000000000000000000000024
:207C6000000000000000000000000000000000000000000000000000000000000000000004
:207C80000000000000000000000000000000000000000000000000000000000000000000E4
:207CA0000000000000000000000000000000000000000000000000000000000000000000C4
:207CC0000000000000000000000000000000000000000000000000000000000000000000A4
:207CE000000000000000000000000000000000000000000000000000000000000000000084
:207D0000000000000000000000000000000000000000000000000000000000000000000063
:207D2000000000000000000000000000000000000000000000000000000000000000000043
:207D4000000000000000000000000000000000000000000000000000000000000000000023
:207D60000000000000000000000000000000000000000000EA75200001030000010000007F
:207D8000000000006844002000000000C4742000B47420000000000000000000F6752000EC
:207DA000D13720000000000003000000000000006F772000393F20000000000000000000FA
:207DC0007B772000814020000000000000000000D9772000CD44200000000000000000000F
:207DE000E5772000794520000000000000000000ED77200025472000000000000000000019
:207E00000078200009492000000000000400080073550020DC4B0020AC0008006B55002089
:207E2000EA4E0020E85D002025732000000000000C000800875500207C4D00200C000800C0
:207E40007F550020E04D00203800020090550020404E002000000000FC782000D15C200013
:207E60000000000000000000000000009845002098450020A0450020A0450020A8450020F1
:207E8000A8450020B0450020B0450020B8450020B8450020C0450020C0450020C8450020FA
:207EA000C8450020D0450020D0450020D8450020D8450020E0450020E0450020E8450020DA
:207EC000E8450020F0450020F0450020F8450020F8450020004600200046002008460020B7
:207EE000084600201046002010460020184600201846002020460020204600202846002092
:207F0000284600203046002030460020384600203846002040460020404600204846002071
:207F2000484600205046002050460020584600205846002060460020604600206846002051
:207F4000684600207046002070460020784600207846002080460020804600208846002031
:207F60008846002090460020904600209846002098460020A0460020A0460020A846002011
:207F8000A8460020B0460020B0460020B8460020B8460020C0460020C0460020C8460020F1
:207FA000C8460020D0460020D0460020D8460020D8460020E0460020E0460020E8460020D1
:207FC000E8460020F0460020F0460020F8460020F8460020004700200047002008470020AE
:207FE000084700201047002010470020184700201847002020470020204700202847002089
:20800000284700203047002030470020384700203847002040470020404700204847002068
:20802000484700205047002050470020584700205847002060470020604700206847002048
:20804000684700207047002070470020784700207847002080470020804700208847002028
:208060008847002090470020904700209847002098470020A0470020A0470020A847002008
:20808000A8470020B0470020B0470020B8470020B8470020C0470020C0470020C8470020E8
:2080A000C8470020D0470020D0470020D8470020D8470020E0470020E0470020E8470020C8
:2080C000E8470020F0470020F0470020F8470020F8470020004800200048002008480020A5
:2080E000084800201048002010480020184800201848002020480020204800202848002080
:2081000028480020304800203048002038480020384800204048002040480020484800205F
:2081200048480020504800205048002058480020584800206048002060480020684800203F
:2081400068480020704800207048002078480020784800208048002080480020884800201F
:208160008848002090480020904800209848002098480020A0480020A0480020A8480020FF
:20818000A8480020B0480020B0480020B8480020B8480020C0480020C0480020C8480020DF
:2081A000C8480020D0480020D0480020D8480020D8480020E0480020E0480020E8480020BF
:2081C000E8480020F0480020F0480020F8480020F84800200049002000490020084900209C
:2081E000084900201049002010490020184900201849002020490020204900202849002077
:20820000284900203049002030490020384900203849002040490020404900204849002056
:20822000484900205049002050490020584900205849002060490020604900206849002036
:20824000684900207049002070490020784900207849002080490020804900208849002016
:2082600088490020904900209049002000000200FFFFFFFF40400020CDAB010AF4DBFF7FAD
:0482800001000000F9
:020000040027D3
:20FFD400FFFFFFF30000000000202000FFFFFFFFFFFFFFFFFFFFFFFFFFFFFFFFFFFFFFFFF1
:0CFFF400FFFFFFFFFFFFFFFFFFFFFFFF0D
:040000050027FFD4FD
:00000001FF
