:020000040020DA
:20200000185F00208D222000E76E2000E56E2000E56E2000E56E2000E56E20000000000019
:20202000000000000000000000000000E56E2000E56E200000000000E56E2000836F200035
:20204000956F20009B6F2000A16F2000A76F200000000000896F20008F6F2000E56E200023
:20206000E56E20000000000000000000000000000000000000000000E56E2000000000007A
:202080000000000000000000E56E2000E56E2000E56E2000E56E2000E56E2000E56E20008E
:2020A000E56E2000E56E2000E56E2000E56E2000E56E2000E56E2000E56E2000E56E200088
:2020C000E56E2000E56E2000E56E2000E56E2000E56E2000000000000000000000000000C1
:2020E000000000000000000000000000000000000000000000000000E9362000F936200052
:202100000000000000000000000000000000000000000000000000000000000000000000BF
:2021200000000000000000000000000000000000000000000000000000000000000000009F
:2021400000000000000000000000000000000000000000000000000000000000000000007F
:2021600000000000000000000000000000000000000000000000000000000000000000005F
:2021800000000000000000000000000000000000000000000000000000000000000000003F
:2021A00000000000000000000000000000000000000000000000000000000000000000001F
:2021C0000000000000000000000000000000000000000000000000000000000000000000FF
:2021E0000000000000000000000000000000000000000000000000000000000000000000DF
:202200000000000000000000000000000000000000000000000000000000000000000000BE
:2022200000000000000000000000000000000000000000000000000000000000000000009E
:2022400000000000000000000000000000000000000000000000000000000000000000007E
:2022600000000000000000000000000000000000E56E2000CD352000F1352000B52A200084
:202280006938200061262000E56E200008B5094BFF221A600848094A4824E369121A0849DF
:2022A00098470848084AA369121A0021984701F023FBFEE7B4200D4040400020F449002053
:2022C0009C7F2000F84900201257002008B5002000F024FA012000F021FA0D49002000F05C
:2022E000F1FA02F071F9002001F0B2FF01F094F900F008FC00F024FC0821064801F0CCFA25
:2023000002F076F862B6BDE80840042004F0EEBD854520000257002073B51A4B1B68022BF5
:2023200008DD1949194A1A4802F0F0FF19491A4802F0ECFF6846082101F0AEFA174E9DF8A5
:2023400007309DF80650F46A43EA05254AF6CD310220A04729460320A0470A210120A047B3
:20236000736B082269460B20984704F0F7FD00F0B3F800210A4801F02BFE022004F0B6FDC3
:2023800002B070BDDC440020217A20001C7A2000267A2000357A2000F37A20009877200062
:2023A000104500200022F0B51746154C0125FF2640FA02F3DB071ED504EB4203597814F8C3
:2023C000123061B1D908090301F1804103F0070301F5592105FA03F341F823700BE0D9080F
:2023E000090301F1804103F0070301F5592105FA03F341F823600132032AD9D1F0BD00BF8A
:202400005A7A2000F0B5104C00210125FF2640FA01F3DB0714D504EB41035F7814F811300B
:20242000DA08120302F1804203F0070302F5592205FA03F317B142F8236001E042F8237059
:2024400001310329E3D1F0BD5A7A200070B40E4E0022012516F812300C49D80800030C5815
:2024600003F0070305FA03F324EA03040C5020390144086801320343032A0B60EAD170BCF3
:202480000720FFF7BFBF00BF5A7A200020940D40084A136823F00403136052F8203C43F0BA
:2024A000040342F8203C044B00221A60034B01221A70704720C40D4010C00D40E65400203A
:2024C000044B1868C0F30720030904BF1030C0B2704700BF1C300D4008B5FFF7F1FF014BD4
:2024E0001B6808BD1C300D40F8B500F077F80F4B0024D3E900673A46B04238BF7A1C1546F4
:202500000443C3E90045DFF828E0DEE90001821B61EB070312196B41CEE9002301F070FBDC
:2025200018B1BDE8F84001F0EFBAF8BDF8490020004A00200D4B0E4AE0215A600D4A82F89F
:202540002310002207219A6019600B490B6843F001030B60094B1A60042243F80C2C012298
:2025600043F8082C0F22DA62704700BF10E000E047E8010000ED00E008200D400C00034078
:20258000034BD3E90023100A40EA0360704700BFF8490020054B18601C3B1A6842F00102BA
:2025A0001A601A68D207FCD4704700BF2800034010B5064C236823F001032360FFF794FFD0
:2025C000236843F00103236010BD00BF10E000E0014B1868704700BF084A0020074B084A02
:2025E000196804331B681268120442EA0323054A0B43106843EA0060704700BF40500D40C9
:2026000048500D404C500D4010B50446104A1368DB07FCD572B6FFF7E1FF231A062BD8BF52
:20262000C41D0C4B220E1A60C4F3074243F8042CC4F3072243F8082CE2B243F80C2C62B6DF
:20264000054B1C60054B4FF400321A6110BD00BF50500D404C500D40084A002000E100E0D9
:2026600008B501F067F8094B00221A60084B4FF40032C3F89021C3F89020BFF34F8FBFF37C
:202680006F8FBDE8084001F0C7BC00BF084A002000E100E0064B1B681B075FBF054B186805
:2026A00080F00800C0F3C00048BF0020704700BF18C0004018D00040164A2C2303FB002382
:2026C0004FF6BF7270B5DC680546236C62649BB213F050020DD0104EA369DB0608D456F887
:2026E00025301BB12068C0B29847F5E72368F3E770BD13F4D06F0BD04FF440732363FF23B3
:202700006360E36AE262E362236B43F00103236370BD00BF407720000C4A002001282DE95D
:20272000F74F064600F2BD802C2545435E4B5C1994F920909846B9F1000FC0F2B28094F99C
:202740002230002BC0F2AD80584801F069F8584A58F805301168E5680B43136051686368F9
:2027600094F921A00B4353609168A36894F822700B4393600023C5F8C83F23690AEBC90274
:202780001A6094F823305FFA87FB00939DF80030227D19465846019300F03EF9019B082290
:2027A0001946584600F02EF97FB2424B3F039DF90020F9584FF0010E0EFA02F20A43FA501D
:2027C0004FEA093959F803100EFA0AF20A4349F803205022AA63AA6B94F8240042F4D062B9
:2027E000AA6302226A634FF440722A63A2696A62E269AA627022EA6242B2002A1D4617DBDA
:2028000094F925302C4943EAC2030B6094F82510120353594CB20EFA04FE4EEA0303535198
:20282000002200F0EFF8254A136843F4004313602C2303FB068393F826904FFA89F4002CBF
:202840001CDB93F827705FFA89F95FFA87FA012251464846240300F0DFF87FB26359012264
:2028600002FA07F71F43082267515146484600F0C9F8124A136843F4804313602C2303FBB3
:202880000686F268136B43F00103136396F828300122590903F01F0302FA03F3084A42F829
:2028A000213003B0BDE8F08F407720009526200028200D4020940D4004410D4030D00040D6
:2028C00000E100E001289CBF014B43F8201070470C4A0020012808D8044B2C2202FB0030FC
:2028E000C3689A699206FCD41960704740772000014B00221A60704700500D40014B082289
:202900001A60704700500D40024BA0221A6050221A60704700500D40014B024A9A607047D7
:2029200000ED00E00020200038B5164D164C2B68012223F040032B602368062123F0400339
:202940002360032000F05EF82B68012223F080032B602368072123F080032360032000F0D5
:2029600051F80A4A0A4B0B491A600A680A4B1340084A002BF9D113685901FCD413685B01BA
:20298000FCD538BD20C40D4000C40D400101020000200D4004200D40000001012DE9F843FA
:2029A00004464FEA0438DFF83C9008F1804606F5592600F0BFFED6F8187458F80930E50007
:2029C00023FA05F447EA0400C0B2E4B2A840FFB2AC4001F011FEC6F81C7448F80940BDE8A3
:2029E000F88300BF18970D40034A044B1A60044B803A1A60704700BF80400D40184A002003
:202A0000144A0020034B01EBC0011B6843F82120704700BF184A0020034B01EBC0011B68C8
:202A200043F82120704700BF144A00200E2870B50BD1164B164E1C6844F002051D60356851
:202A400025F03F0343F001033360124E336823F0FF031A43114301430F4A316013681B06CA
:202A6000FCD50E4B0E4A1B6812680E2803F0FC0343EA022308BF064A9BB204BF1560034A74
:202A80009BB208BF146018B270BD00BF34000144F486084008700D4000700D400C700D4072
:202AA00010700D40024B1868B0FA80F04009704700B70840094B4FF4004210B5C3F8902159
:202AC000C3F89020BFF34F8FBFF36F8F044C206818B101F095FA0023236010BD00E100E0F6
:202AE0001C4A0020064A136843F002031360536843F002035360936843F002039360704757
:202B000048200D4007B50C4800F08AFEFFF7EAFF0A4B1A6842F002021A6000220192019AC2
:202B20000F2A02DC019A0132F8E71A6822F002021A6003B05DF804FBA52A200054200D4008
:202B4000064A136823F002031360536823F002035360936823F002039360704748200D4027
:202B60002DE9F0410E464FEAD0084FEA083400F00701012704F180448F4016F00C0304F57E
:202B800059246FEA070505D1D4F810342B40C4F810342DE0042B0DD1D4F804342B40C4F8BD
:202BA0000434D4F808342B40C4F80834D4F80C343B430EE0082B0FD1D4F804342B40C4F8BC
:202BC0000434D4F808342B40C4F80834D4F80C342B40C4F80C340BE00C2B09D1D4F80434DF
:202BE0002B40C4F80434D4F808343B43C4F8083416F0030204D0022A02D0012A03D10422F6
:202C00004046FFF7FFFE16F0800605D1D4F810342B40C4F810340AE04EB1D4F810341F4303
:202C2000C4F81074054A012303FA08F31360D4F820341D40C4F82054BDE8F08100E100E0F2
:202C4000074B93F90020002A08DB064AED211160E32111601A7862F07F021A70012070475E
:202C6000EB540020388808400B4A13689907FCD4094B1B685B065EBF084BED221A60084B29
:202C80001B6813B1054BEF221A60064A0120137803F07F03137070474C8608403888084045
:202CA0002C860840EB54002010B50A4B04461B6813F03F0302D0FFF7D7FF012304EB840258
:202CC00005492C3A0A600BB1FFF7BAFF034B1C7010BD00BF488608403C860840F349002089
:202CE00010B50B4B1B68990603D1FFF7A9FF012300E0002307490A68D207FCD5064A1468C6
:202D0000C4F300140BB1FFF7AFFF204610BD00BF48860840648608404C860840044B186865
:202D200000F02200A0F1200358425841704700BF4C860840024B186800F04000704700BF97
:202D40004C86084038B50C46002900F09780182800F29680DFE800F00D1A1F21283E475B7C
:202D600060767A9494947F815883948587898B8D9000444B186810F0FF007BD0424B1B6832
:202D800013F0030F0CBF0123022301E03F4B1B782360002038BD3E4B00E03E4B1A68043BC1
:202DA0001B6843EA0223F3E700230B603A4B364A1B6803F001030B601268920644BF43F0A4
:202DC00002030B60354B1B78002BE2D00B6843F00403DDE7324B00201B780860002BD8D0B7
:202DE00001230B6038BD2F4B2F491A680023D2B201EBC3000079904203D82B4A52F833303D
:202E0000C6E701330E2BF3D16FF01703C0E7274B1B685BB2493BBBE7254B1B689B0603D124
:202E2000FFF70EFF012200E000222248036859B28031FBD0493BDDB20AB1FFF715FF6DB217
:202E40002560A6E71C4B93F90030A1E71B4B1B7803F07F039CE70B239AE71A2398E707232F
:202E600096E7032394E7202392E70C2390E708238EE70020206038BD7D2389E7022038BD76
:202E8000012038BD2C86084024860840F3490020CC850840D485084000860840EA5400206E
:202EA000F249002040860840D0772000588608404886084060860840E9540020E754002020
:202EC0000B280DD1082A0DD161B1074B074A083111F8010D43F8040F9342F9D10020704708
:202EE0000120704702207047A4850840C485084070B52F4E336813F0400307D02D4D2B68B8
:202F0000DCB21B0604D52C4BED221A60002070BD042CF8D9023C8C42F5DCE4B2032C21D048
:202F200001190139032000F099FB631E23491B011943032000F09CFB032000F0A3FB0320B3
:202F400000F0B8FB032000F0C1FB0028FAD129681B4B4939C9B219702B681A4D18062B70DC
:202F6000D1D506E02B6803702B6843702B688370EDE749B289B2042001F09CFC2978032078
:202F800001F07F0101F096FC0F4B1B786BB933685A060AD5064B1B681B0603D50B4801F041
:202FA0002FF802E0044BED221A60204670BD00BF4C860840288808403888084002C0010CF5
:202FC000E9540020E7540020EA540020CC4400207D2938B505460C4624D8134A13689B0705
:202FE000FCD4124B93F90030002B01DBFFF728FE0F4BEE221A60691EA21C43F8102C2144C0
:20300000022000F023FB013C0A4924012143022000F02EFB022000F035FB022000F04AFB93
:20302000002038BD012038BD4C860840EB5400203888084002C001C00B282DE9F84F0E467D
:2030400010D1082A40F0828000297FD0414B424A4E1E53F8041D934206F8011FF9D10020E6
:20306000BDE8F88F0C286ED1042A6FD100296DD03A4B3B481A68DFF8F8C022F007021A602F
:203080000268DFF8F0A042F008020260DAF80040DCF800101A68DFF8E0E022F07002314FAE
:2030A0001A60DEF800203D68E4B2090244EA056401F47F411204214302F47F020A432A495D
:2030C0000024D1F800805FFA88F544EA02081A68A94622F0070242F001021A60026842F09E
:2030E00008020260DAF80000DCF800201D68C0B225F0700545F010051D60DEF800303D68AB
:20310000120240EA056002F47F421B04024303F47F0313430A6844EA030A5FFA82FBFFF7A9
:203120005DFAB8EB0A0869EB0B094FEAC93105460E4A00234FEAC83041EA584102F08CFEB1
:20314000281A30608BE70120BDE8F88F0220BDE8F88F00BFC8850840A885084010880840E7
:2031600004880840208808401C8808400048E8011888084014880840248808407D28F8B55C
:2031800041D8234B93F90030002B0DDBFFF726FA0546FFF755FD6FF00904641BFFF71EFA37
:2031A000C442FBD4012600E000261A4B1B7823B9194C2368990604D405E0FFF791FD002841
:2031C000F6D10220F8BD154BE9221F461A60042523689A0707D4013D15F0FF0503D0062097
:2031E000FFF7D8F9F4E723689B0703D4EE233B60012404E0206810F00200FBD1044626B1FD
:20320000FFF732FD01E00120F8BD2046F8BD00BFEB540020F24900204C860840388808401C
:20322000234B1870002838D0224A13681B03FCD5214B1A6842F002021A601A6842F001023D
:203240001A601A681C495007FBD50A6822F001020A601968184A4907FBD4116841F0020146
:203260001160116841F0010111601A685207FCD5124A136823F004031360D2F8A83123F0FA
:203280000403C2F8A8310E4B4FF40052C3F89020BFF34F8FBFF36F8F7047084A136843F044
:2032A00004031360064B4FF400521A61704700BFEA54002004200D40048808408C860840C0
:2032C00000E100E02DE9F0412E4F3D7815F0010555D12D4B01241C605C609C60A3F5932364
:2032E000A3F51473F8221A600922C3F89021152270331A6003F59B230B2203F59E731A60CA
:20330000A3F59B23214EA3F5A6731C604023336033684FF07F0843F0200333601C4BD5221D
:203320001D60C3F848809A631A4B1878FFF7BCFC336823F00C033360174BC3F80080174B9E
:203340004FF480421A61022000F0A8F91449022000F084F9032000F0A1F91149032000F034
:2033600075F9104B1878FFF75BFF29460E4800F02FFE3B78204623433B70BDE8F081002062
:20338000BDE8F081EB540020A8200D402486084008860840F34900209486084000E100E05C
:2033A00028880840EA540020CC44002038B503880446CBB140F25D42934203D0002303802A
:2033C000032038BD194B18781A4628B11B7873B1174B1B7858060AD5822908D1137843B1BC
:2033E000134B1A78520614D440F25D432380012038BD01F015FA01F0A5F98021FFF778FD77
:203400000028EDDD80B201F081F90A4BDB689847E6E700221A70084B1D68FFF725FCFFF748
:2034200051FFAB06E0D0FFF70BFCDDE7EA540020EB5400206C7820004886084013B50C4629
:203440000D2800F2A380DFE800F007464E5259757B8FA1A1A1A1A195012939D011B9FFF7F9
:2034600003FC85E08B1E012B00F2928001A90020FFF768FC022C019B19D1022B78D05A1E4A
:2034800053425341444A1370FFF7EEFB434B444A1968116042221A60D3F8C010414A116090
:2034A0001822C3F8C020E922C3F8142260E0022B5ED13D4BEF221A60394B1A68374B1A608A
:2034C000384B1A68394B1A60334B1B78002B4FD0FFF7B6FB4CE0A1F10B030F2B58D8C8B237
:2034E000FFF7E2FB44E08CB2E2B2314B02E08CB2304BE2B2240A1A605C6039E031F00703B0
:2035000046D12D4B11F0010F1A68C1F3800014BF42F0010222F001021A60204B11F0020F41
:203520001A6814BF42F0200222F020021A60FFF777FE1DE031F001002AD1204B197028E0B3
:2035400001F118031F2B23D81D490D2351F83300DA00844204DC1A4B13441A79194B10E0E4
:2035600013F1FF33F2D203E0CCB2174B49341C6000200EE001290BD8084B1A6819B122F0C9
:203580000C021A60F4E742F00C02FAE7012000E0022002B010BD00BFE854002024860840F8
:2035A000244A0020204A002038880840E4860840C8850840D085084000860840F2490020DE
:2035C000D0772000408608405886084008B5054B1B7813B9044800F013FD044B00221A60AD
:2035E00008BD00BFEA540020CC44002034880840064B07481A68042A1FBF06490A7842F084
:2036000040020A7000221A6000F0FABC2C880840CC440020EB54002010B5094C4022002184
:20362000204603F011F9074B01221A605C60064B4FF480425A604FF400425A6010BD00BFA1
:203640000040002004F00F4000E100E003289EBF014B0001195070470040002003289EBF29
:20366000024B03EB00104160704700BF0040002003289EBF024B03EB00108160704700BF5E
:2036800000400020032806D8034901220B6802FA00F018430860704728F00F40032806D809
:2036A000034901220B6802FA00F018430860704720F00F40032806D8034901220B6802FA7C
:2036C00000F018430860704714F00F4003289FBF044B03EB0010806800F0070088BF002011
:2036E000704700BF00400020024B4FF0FF321A60704700BF04F50F40014B01221A6070475F
:203700004CF00F40094A1368084913F4801FFAD1074B1A6822F480321A600A68D203FCD461
:203720001A6842F400321A60704700BF04200D4000200D4010B50A4C23689A070FD0094959
:203740000B68084A13F0806FFAD113685B01FCD5FEF72EFFFFF7D6FF23680023236010BD54
:2037600058200D4004200D4038B5274B1C6814F03F0413D1254D55F8243023B1984768B126
:203780000134052CF7D1224D2B783BB1FEF720FF0446FEF723FF201A092801D830BF38BD60
:2037A000002CFBD01B4B1C481A6822F400321A600268194912F4801FFAD11A6842F480325E
:2037C0001A600B68DB03FCD5FEF708FF201A092803D8BDE83840FFF795BF63280F4C02D9E3
:2037E0002B78022B00D00123236000F0BFFB20B1FFF788FF0023236038BDFEF7E9FE0028EB
:20380000F6D02368CAE700BF48860840284A0020EC54002000200D4004200D4058200D403C
:203820000749002351F82320824207D01AB9044A42F8230070470133052BF3D1704700BF1B
:20384000284A0020054B00221A60054A136943F004031361034B02221A70704758200D40F9
:2038600000ED00E0EC540020094B4FF4803210B5C3F89021C3F89020BFF34F8FBFF36F8FF6
:20388000044C206818B100F0BBFB0023236010BD00E100E03C4A0020134B1B782BB101F544
:2038A000201127310138114B16E0114A1278122AF5D1104A12784B2AF1D108448B420ADAF5
:2038C00003F52012032BD4BF2C3224321278013300F8012DF2E77047994204D011F80129F3
:2038E00000F8012FF8E770472B002800270028002A0028002900280010B54F4C03F022FB55
:20390000FEF718FE03F0D9FB00F0D6FA00214B4800F05EFB00F0E2F9FEF7EAFF03F0AFFBD2
:2039200000F08EFBFEF7D2FC00F07EFE00F0ECFF00F088F92368022B07DD414A4149424858
:2039400001F0E4FC414801F0E1FC2368022B09DD3C493B4A3C4801F0D9FC3D4B3D481968BF
:2039600001F0D4FC2368022B09DD3649344A364801F0CCFC384B3948196801F0C7FC2368F0
:20398000022B09DD2F492E4A2F4801F0BFFC344B3448196801F0BAFC2368022B09DD2949CE
:2039A000274A294801F0B2FC4AF6CD312E4801F0ADFC2368022B08DD2249214A224801F06A
:2039C000A5FC0A21294801F0A1FC2368022B09DD1C491B4A1C4801F099FC254B254819884C
:2039E00001F094FC2368022B07DD154A1549164801F08CFC204801F089FC2368022B02DDA1
:203A00001E4800F041F82368022B02DD1C4801F07DFCFEF781FC1B4803F027FBFEF76EFF66
:203A200000F062FA0446FEF76FFF14F0FF0FF7D103F092FAF4E700BFDC440020E044002016
:203A4000967A2000217A2000267A20009B7A200098782000D27A200088782000E17A20004F
:203A60006C782000EC7A2000F77A2000117B20002C4F0020317B20003E7B200002570020C6
:203A8000257D2000EC78200038B5054608B1002409E00948BDE8384001F038BCE30702D4CF
:203AA000064801F033FC295D0548013401F02EFC082CF3D138BD00BF537B2000627B2000DE
:203AC000647B200010B50E4C236813B90D4A136010BDFEF755FD216891E80C001A44131AFA
:203AE0008A6842B192E812002144091A8B4228BF0B469268F5E71844024B186010BD00BF45
:203B0000404A0020444A0020014800F079BA00BFE04400202DE9F8430388054633B1592B4F
:203B20000BD0002303800320BDE8F883234A136059232B800120BDE8F883872924D082292A
:203B4000F6D11E4F4FF00008B9463C680026002CEED0204603F0BAFA98B122468821E06888
:203B600000F00EFA58B9E060A3680EB1B36001E0C9F80030C4F80880FFF7A4FFE5E7FFF7AE
:203B8000C3FF2646A468E2E70C4900200B681BB90028CDD00B60CBE7DC68A24202D19B6886
:203BA0000120F4E700B10B6099680029C0D0C86882420ABF89680B469960F5E7404A0020B5
:203BC00010B50446FFF7A0FFE3680B4A4BB113683BB1A34203D1094A1268DA6007E09B6894
:203BE000F6E7064B1B68E36013681460A360BDE81040FFF767BF00BF404A00204C4A0020AF
:203C0000024B1868003018BF01207047404A002010B50B4A04461368834206D18368136075
:203C200008E09A68944203D01346002BF9D103E0A2689A60FFF746FF0023A360E36010BD4B
:203C4000404A0020034A9179D379034A03EB012313807047025700202C4F0020F8B5038822
:203C6000064615462BB14A2B15D0002303800320F8BD174803F045FA04462CB1A168201DEB
:203C800003F0FEF92468F8E7124B01221A704A2333800120F8BD8829FBD10D4803F031FADF
:203CA0000446002CF3D0231D9D420ED12146084803F031FA084B62691F681A60A2691D466B
:203CC0000AB1E06990472F60E1E72468E9E700BF484A0020ED5400204C4A002010B5064BB8
:203CE000002406481C7003F009FA2146BDE81040034800F06DB900BFED540020484A002041
:203D0000F044002070B50446E3610B4B049D1B786561A26143B1094D094B2E68201D2B604D
:203D200003F0AEF92E6000E0A1602146BDE87040044803F003BA00BFED5400204C4A0020EC
:203D4000F0440020484A002013B5034C24680094FFF7D8FF02B010BD4C4A002010B5084B0C
:203D600004461B781BB10430FFF752FF01E0C36003612146BDE81040024803F0CCB900BFDA
:203D8000ED540020484A002010B50A4B04461B7823B1BDE81040043003F084B9064803F0AB
:203DA000B0F918B1A04203D00068FAE7012010BD002010BDED540020484A002038B58368CD
:203DC00004460D469BB10A4804600220A07304F10C0098470238012801D9832D05D1214605
:203DE0002046BDE8384000F005B80123A37338BD4C4A00202DE9F8431C4A04461568894661
:203E00002B4690461A4E3768A34204D00BB11B68FAE7BDE8F88334B3A37BABB10023A373C1
:203E200045B1A54204D022468721284603F03FF92D68F5E7A3683BB14C4505D034602A4656
:203E4000832104F10C009847D8F800309C4203D12268064B05E0134623B11A689442FAD11C
:203E600022681A603760BDE8F88300BF504A00204C4A0020002370B51D46094A01261370B0
:203E8000084A146854B1E37B33B1A673E573002282212046FFF792FF2468F3E770BD00BF98
:203EA000F0540020504A0020024B1878421C1A70704700BFF1540020064B8A221A70064A6D
:203EC00000231370054A1370054A1360054A1360704700BFF1540020EE540020EF54002046
:203EE000504A00204C4A00202DE9F0411A4D2B780BB1FFF7BFFF194C22783AB3184E0C2112
:203F00003378184F5943781817F8018001334768806803F01F03013A3370227068B9124B05
:203F20001E689EB12B780BB1FFF7A4FF30463A46414603F0BCF83668F3E7B8F1810F04BF1C
:203F4000012383733A46414603F0B1F82B7820781844BDE8F08100BFF0540020EF54002071
:203F6000EE540020544A0020504A0020024A034B10781B7818447047EF540020F0540020D8
:203F8000F0B50B4E3378202B0FD00A4C0C252478094F1C4404F01F046C4301333D19A8601B
:203FA00039556A6033700020F0BD0120F0BD00BFEF540020EE540020544A002038B5034CED
:203FC000256803F074F8256038BD00BF4C4A002030B40A4C0A4625682B4683420CD00BB121
:203FE0001B68FAE740B101210560817320608381812130BCFFF7E2BF30BC7047504A0020EB
:2040000038B1837B013B012B9FBF024A0123C37313707047F054002010B5084C206858B105
:2040200000232360816843689847236823B1BDE810401868FEF7E8BA10BD00BFD44B002031
:2040400082B0074B02AA42F8043DCD21934202D203F8011BFAE70348002102B0FFF7B8BF9B
:20406000125700200045002038B5FEF74DFC0C4C0C4B22780B4DCD2A06D09C4207D20134CD
:20408000F7E7AC4203D201342378CD2BF9D0FEF73BFCAC423ABF0348001B4FF0FF3038BD12
:2040A00012570020185F002070B5038805462BB1912B0BD000230380032070BD4FF4A06138
:2040C0001B4802F0DDFF91232B8003E0184802F0E9FF08B9012070BDFFF7C6FF154C164BA7
:2040E000061EA3EB040401DB002C0CDA134B1B68002B18DD124A1349134801F007F92246AB
:20410000314612480DE0A6420DDD0C4B1B68002B09DD0B4A0B490C4801F0F8F82246314667
:204120000B4801F0F3F8024802F0B3FFCBE700BFD84B002012570020185F0020DC4400204E
:20414000007C2000067C2000267A20000A7C2000347C20002DE9F04106880546772E31D025
:204160007E2E40D0002E4ED12B4CFFF79DFE266026462A4B2A4FDFF8B0801870236857F8E5
:2041800023204AB1002108F80310936880209847336801333360F1E7224A1370772320E070
:2041A000214AD256002A12DB1B4A136801331360194B1C4A1B6812789A42F1DC1B4B1B6865
:2041C000002BEBD0194A00231360134AEFE7144A002052F82320114B1978FFF7D1FE30B927
:2041E0007E232B8014E00D4B1B788B4210D10A4B0D491A688B5C03F07F038B540B4A1368AE
:2042000001331360D0E7002303800320BDE8F0810120BDE8F08100BFE84B00200D57002094
:20422000C0440020F25400200A570020EC4B0020054A136843F004031360044B1B689069DA
:2042400043EA002080B2704700700D4014700D4010B5184A136823F00C031360164B0122DF
:204260001A601A68012AFCD1144B08221A60E322C3F8142203F505731946114A1368DB07CA
:20428000FCD5104C102000232268013802F0010243EA02034FEA43039BB2F5D1002BF1D036
:2042A000094A180A03F0FE0310601360EF230B6010BD00BF00700D40A8200D4024860840E5
:2042C000648608409C86084014700D4010B5044690F84C30084A013380F84C3080210346FA
:2042E0002030FFF731FD054B2246BDE8104019780020FFF745BE00BFCD4220000F5700207F
:2043000070B503880446C3B1B3F5867F03D000230380032070BD822912D102F050FEBFF339
:204320005F8F114B00221E681A60BFF35F8F02F04AFE0E4D55F8040F20B94FF486732380C4
:20434000012070BD90F8453026FA03F3DB07F1D5FFF71AFD0028EDD02B68054A02211846FF
:20436000FFF7F2FCE6E700BFF04B0020B44400208D432000034A1368184310600248FFF797
:204380003FBE00BFF04B00202045002070B50446FFF7FAFC20B304F120063046FFF7F4FCDC
:2043A0000546204602F052FF01280CD1C5B1002523460C4A84F84C507E213046FFF7C4FCC6
:2043C0002246094B06E058B955B93046FFF7C6FC2246064B2846BDE870401978FFF7D0BD5E
:2043E00070BD00BFCD422000105700200E570020F8B5FFF759FD304B304D1870FFF754FDD6
:204400002F4B304C1870FFF74FFD2F4B2F4F18700023AB602E4B01266B602168002943D0FE
:2044200091F84530886C2B4AD90809030A44116803F0070306FA03F321EA0303136023685F
:20444000254A93F84530D90809030A44116803F0070306FA03F321EA03031360236840F007
:204460008C0193F84500FEF77BFB23681B4A93F84530D90809030A44116803F0070306FAD3
:2044800003F30B431360236893F84530DB0806FA03F33B6054F8043B93F8453006FA03F2E6
:2044A000AB681343AB60B8E70D48FFF791FDBDE8F840024800F09AB810570020F44B0020C1
:2044C0000E570020B84400200F57002000E100E07543200020940D4000940D4010940D4049
:2044E0002045002070B505880446672D09D0792D32D0002D36D1FFF7D7FC1D4B18701D4BD1
:204500001D601C4D2E461C4802F090FE431C01D167231FE00A28174A09D00D2807D02B6898
:204520007E2BF0DC5A1C3260144AD054EBE713680025591C1160114A2846D5540C4B19784A
:20454000FFF71EFD0E4B2A4685211868FFF718FD20B97923238009E0852907D1054B002257
:204560001A60CEE700230380032070BD012070BD11570020084C0020004C00207455002077
:204580004C4A002038B50D4C01462378254633B90B4802F038FE60B90123237009E00A2880
:2045A00001D00D2805D1064802F02DFE08B100232B700448FFF724FD012038BD73550020DC
:2045C000004C00203045002008B505490548802202F012FEBDE8084000210348FFF7F8BCDB
:2045E000F3540020004C0020304500200146014802F0A4BD0C4C002038B50546064802F080
:2046000080FD04463CB1A068284002D0636803B198472468F6E738BD0C4C0020014802F035
:204620006DBD00BF0C4C002008B5044802F09DFDBDE80840024802F098BD00BF4C45002096
:204640004045002038B50E4802F09FFD0446A8B10C4802F09AFD0546206028B92146084801
:2046600002F0A7FD284638BD00F074F805F19C01A5F8800005F1820000F0F8F8204638BD82
:20468000404500204C45002010B501460446074802F0A4FD48B12168054802F08AFD2146DD
:2046A000BDE81040014802F084BD10BD404500204C45002010B501460446094802F08EFD42
:2046C00068B12468B4F88010204600F0B9F804F19C0104F18200BDE8104000F0D9B810BDA6
:2046E0004045002010B507490B88834208DB064C80B222880244181A08802280012010BD07
:20470000002010BD8E54002090540020014B1880704700BF8E54002000487047304C0020AF
:20472000014B1888704700BF8E540020034A044B10781B781844C0B2704700BF04560020A0
:204740009054002008B5FFF7F1FF014B184408BD304C002070B50D4D0D4C2A782388064638
:204760001344802B0FDC0B4901F0F8FF2B781E44FFF7E8FF22880146304601F0EFFF287848
:204780002388184470BD002070BD00BF045600208E540020304C002008B5FFF7C7FF024BFB
:2047A0001B88184480B208BD8E54002038B50146FFF7F2FF4318802B11DC0A4A013880B234
:2047C000541803B2002B04DBD55C0138E55480B2F7E7054B01201A781144197038BD002005
:2047E00038BD00BF304C00200456002038B5094D094C1A220021094802F026F829462046C4
:2048000002F03FFD294604F10800BDE8384002F038BD00BF0C7A2000D8560020E8560020E9
:20482000044A00231380044A1380044A1370FFF7DDBF00BF905400208E54002004560020F1
:2048400038B50C460546FFF7EBFF802C28BF802422462946034801F081FF034B20461C80D4
:2048600038BD00BF304C00208E54002010B50C461A22054901F072FF2046BDE81040102256
:20488000024901F06BBF00BFE8560020D856002010B50C461A220146044801F05FFF2146AB
:2048A000BDE810401022024801F058BFE8560020D8560020024B23F810100120704700BFB4
:2048C000E8560020014B33F810007047E856002008B5044B0D3803EBC00002F0D2FC0120FE
:2048E00008BD00BFD8560020024B0D3803EBC000704700BFD85600200149024802F0C4BCDC
:204900000C7A2000E0560020054B10B51B689847044B5B689847BDE81040034B5B681847CE
:20492000987720006C78200088782000F8B5FDF727FE04460F4F00250D2007EB0516FFF761
:20494000D3FF314602F0A0FC78B10720FFF7BAFF337B834201D00020F8BDB068201AB0F571
:20496000206F8CBF00200120F8BD0135102DE3D1F1E700BFB04C002070B5164E00240D20B3
:20498000FFF7B2FF06EB041102F07EFC114D611C10B910290C46F2D14C1E05EB0111A1F10E
:2049A00010063CB120391022304601F0D7FE013C3146F4E70720FFF785FF2873FDF7E0FD91
:2049C000A8600D20FFF790FFBDE870400146014802F057BCB04C002030B591B0054600F0B6
:2049E00063F84FF6FF73984202D14FF0FF3052E040220021684601F027FF284B1A782AB928
:204A000001221A70FFF714FC254B18707DB10720FFF758FF58B9224C23780BB901232370B4
:204A200021780720FFF746FF237801332370FFF763FF6A46C1B21B4802F084FCFFF75CFF78
:204A400028B1FF238DF800308DF8013006E00E20FFF74AFF0146684602F013FC0D20FFF784
:204A600043FF014602A802F00CFCFFF76BFE0E90FFF756FE0F90684602F050FD04464DB1EE
:204A8000FFF794FE0028B0D0FFF746FE0146684602F08DFD204611B030BD00BF06560020EC
:204AA00005560020C5482000014B1888704700BFF04900202DE9F041012986B006460F464B
:204AC000144640F3838003A902F0BBFD0A2203A904F1100001F042FE9DF811300BB1B51C7F
:204AE00002E0B378F51CA37602AA01A903A802F071FC9DF81380B8F1000F23D0029B23B1DB
:204B00006A7815F8023B03EB0223B8F1020FA38309D13049204602F0B4FB6B78237015F899
:204B2000023B637014E0B8F1030F11D105F108021346611E13F8010DAB4201F8010FF9D123
:204B4000154605E02349204602F09BFBA4F81C809DF81580B8F1000F2BD0019B53B16A7824
:204B600015F8023B03EB0223029A9BB2E3831AB9A38301E0A38BE383B8F1020F0AD1154928
:204B800004F1080002F07DFB6B78237215F8023B637215E0B8F1030F12D105F1080213462B
:204BA000E11D13F8010D9D4201F8010FF9D1154606E0084904F1080002F063FBA4F81E8013
:204BC000A81B3B1A8742E363A56300DA002006B0BDE8F0810C7A2000074A084913681844C1
:204BE000884283BF064B0C224FF0FF3010608CBF1A601846704700BF584500200080002056
:204C0000D456002070B505460C46102C07D92B68102208496868984750B9103CF5E734B191
:204C20002B68224668680349BDE870401847204670BD00BF847C20002DE9F04F064615463B
:204C40008FB006914FF0000B069B1B78CBB1069C274617F8013B1BB1252B14D03C46F7E7CA
:204C6000069BA3420DD0069B0699C3EB04084246336870689847002840F025832378C3445B
:204C800023B958463AE3069BA342ECD16378002BF7D039460024084610F8013B0A462B2B92
:204CA00011D006D8202B11D0232B12D144F0080416E02D2B04D0302B0BD144F010040FE008
:204CC00044F001040CE044F0060409E044F0020406E0A3F13107082F11D84FF0000801E054
:204CE0000146D8E70A4611F8013BA3F13000092813D80A2202FB0838A8F13008F2E72A2BD1
:204D000009D12B680246002B05F10405B8BF44F00104984601E04FF0000813782E2B1AD12F
:204D20005178531CA1F1300009280ED8194600270A780B46A2F13000092801F101010DD83C
:204D40000A2303FB0727303FF2E72A2904D12F68931C043502E013464FF0FF371A786C2A33
:204D600009D15A786C2A02D144F080040AE0013344F0600411E0682A0AD15A78682A03D11A
:204D800044F02004023308E0013344F0400404E07A2A04BF44F0600401331A78642A3CD0AF
:204DA0001FD8462A48D00DD8252A5AD003D8002A3FF467AF57E0412A4AD0452A53D144F441
:204DC000424450E0582A31D004D8472A4BD144F4A13448E0612A38D0632A44D144F4A0648B
:204DE00041E06E2A3AD007D8662A22D027D3672A28D0692A11D036E0732A2CD006D86F2A72
:204E000011D0702A2FD144F440742CE0752A07D0782A28D144F4C85425E044F4245422E003
:204E200044F410641FE044F488541CE044F4B24419E044F4007416E044F4844413E044F4C3
:204E4000024410E044F481340DE044F4C1340AE044F4E13407E044F4806404E044F4E0647B
:204E600001E044F4C0640133069304F4E063B3F5806F00F08F8113D8B3F5807F27D0B3F525
:204E8000407F7FF4E1AEAE4B14F4804FAD4A18BF1A460DF133032868002104351F46B5E13A
:204EA000B3F5C06F08D0B3F5E06F00F02282B3F5A06F7FF4C9AEF2E133680122A2497068C3
:204EC0009847002840F0FF810BF1010BBCE6002FACBF24F01004012714F40053079304F09E
:204EE000E0032ED0402B12D005D8ABB1202B21D195F900200DE0602B0ED0802B1AD1073538
:204F000025F0070303F10805D3E9002307E0B5F90020D317043502E02A680435D317002AF9
:204F200073F1000108DA524263EB4303CDE90023012304E000220023CDE900230023059348
:204F400029E0402B13D004D8BBB1202B1DD12A780EE0602B11D0802B17D1073525F007038F
:204F600003F10805D3E90023CDE900230BE02A880023CDE90023043505E02B6800221946AD
:204F8000CDE900120435079BD9E70023059300220023CDE9002304F4C053B3F5805F0CD067
:204FA000B3F5C05F33D0B3F5006F4FD1DDE900230DF13609CDE9022304E0DDE900230DF124
:204FC000360915E0DDE9022313433AD0DDE902010A22002300F040FFDDE90201303209F8DF
:204FE000012D00230A2200F037FFCDE90201E9E752EA030125D002F00701303109F8011DD6
:20500000D10841EA4371D8080A460346F0E74C4B14F4804F0DF136094A4918BF1946DDE94E
:20502000002352EA03000CD002F00F00085C4FEA131E09F8010D100940EA0370024673469D
:20504000EFE70DF13603C9EB030302E00DF1360900230293029B41F60802BB4238BFFF1AC7
:2050600041F2080302EA040228BF00279A4202D1002F08BF012741F60801029B8A4203EB8E
:2050800007000DD1DDE90023134309D02F4A304914F4804F4FF0020A0CBF0B46134602E0A8
:2050A0004FF0000A5346079A9AB1059A52B904F00602022A0AD0062A264A04BF4FF0010AC9
:2050C000134606E04FF0010A234B02E0234B4FF0010A0AEB000290458CBFC2EB08084FF02C
:2050E000000814F0010200920DD1E10602D54744904608E0414630460593FFF783FD059B7F
:20510000002840F0E080BAF1000F07D03468524619467068A047002840F0D580029B03EBBC
:205120000B04BB46BBF1100F33681BD910220C4970689847002840F0C680ABF1100BF1E79A
:20514000A47C2000B57C2000D77C2000C97C2000C67C2000CE7C2000CC7C2000517B2000C6
:20516000947C2000BBF1000F06D05A46654970689847002840F0A7803368029A494670684C
:2051800054449847002840F09E80009B3C44002B39D032E0D5F800900435B9F1000F0AD098
:2051A000CA469AF800300AF101020BB19246F8E7C9EB0A0A03E0DFF850914FF0060A002FCB
:2051C00002DBBA4528BFBA46D0458CBFCAEB08084FF0000814F0010705D141463046FFF7CB
:2051E00011FD00286FD133685246494670689847002868D10AEB0B042FB141463046FFF788
:2052000001FD00285FD108EB040B1DE550EA010E0ED000F00F0E12F80EE04FEA111C03F8A7
:2052200001ED4FEA101E4EEA017E70466146EDE7FF1A02BF3022012703F8012C07F10307B3
:2052400008BF03F1FF337822B84503F8012C4FF0300203F8022C88BFC7EB08084FF023029B
:2052600098BF4FF0000814F00104A3F1030903F8032C04D141463046FFF7C4FC18BB3368C7
:205280003A46494670689847E8B95F4424B141463046FFF7B7FCB0B908EB070BD4E4B8F1BA
:2052A000010F2B688CBF08F1FF384FF0000814F0010405F104058DF8203008D141463046D6
:2052C000FFF7A0FC10B14FF0FF3017E0C3443368012208A9706898470028F4D108F10107FB
:2052E0002CB141463046FFF78DFC0028EBD1BB44AAE42B680435C3F800B0A5E40FB0BDE8C0
:20530000F08F00BF947C2000D07C20000FB407B504AA52F8041B04480192FFF78DFC03B00C
:205320005DF804EB04B070475C4500200EB43FB5094B07AA52F8041B0190049304A801AB59
:2053400003920593FFF778FC019B00221A7006B05DF804EB03B07047B976200010B50121D4
:205360000C20FFF7A7FABDE81040014B5B68184760782000014B9B68184700BF60782000AA
:20538000014B1B6A184700BF98772000014B5B6A184700BF987720000C4B13B51B68984710
:2053A0000B4B044601A918209B6A984701280AD0002C0198B8BF15248028D4BFC4EB000025
:2053C000C4F1800000E0002002B010BD607820009877200007B5064B01A918209B6A98471F
:2053E00018B900F019FAFFF7CBFF03B05DF804FB9877200007B5FFF793F9032823D0FFF791
:20540000B9FF00281FDB0E20FFF76EFA0F4901F03BFF38B10D20FFF767FA0C4901F034FFBD
:2054200088B904E0FFF768FA0028F3D10BE0FFF77DFA40B9FFF7A0FA054B9B68019303B088
:205440005DF804EB184703B05DF804FB025700208878200070B590F82D400122012CD4BF0C
:2054600003340524054602FA04F4FEF7E1FE013CB0FBF4F12B4601FB1401034A05F10C001B
:20548000BDE87040FEF760BC115520002DE9F0470D4614468B68804693E8C000506B92F8ED
:2054A0002C9001F038FE6868FFF7EEF8A968144801F07FFE2946134801F07BFE606B01F092
:2054C00020FE40B1002384F82C3084F82D302046FFF7C0FF0BE004F10C00FEF73FFC21464B
:2054E000094801F018FE2146084801F062FE4B46424639463046BDE8F04701F0CDBE00BF27
:205500006445002070450020104E00207C4500202DE9F74F0446002800F0D980406B01F0DB
:20552000F0FD0546002800F0D2804068FFF7C2F868490D20FFF7CCF901210820FFF7BAF9E5
:20554000FFF70CFF0028C0F2C080FFF7E5F8624E90F802807768FFF7DFF88146FFF71CF925
:2055600001464846B847FFF7C7F9D6F818908246C847002860D1BAF1000F0BD0B768FFF751
:205580000BF9B8470746FDF729F86FF0A20BC0EB0B0B04E0F369984700284DD1EEE7FDF7AB
:2055A0001DF81BEB000FFAD417F0FF0704D0022F0CBF0120042040E0BAF1000F01D0002006
:2055C0003BE0FDF70BF86FF00C0AF769C0EB0A0AB84710B1C84740B905E0FCF7FFFF1AEB82
:2055E000000FF5D4F6E7B84730B1FCF7F7FF6FF01409C0EB090909E0736998470028F4D064
:2056000009E0FCF7EBFF19EB000F02D5B8470028F7D0B84708B902200FE03369032101A8B2
:205620009847032808D19DF80600B0EB080018BF01200028C3D000E00120AA68002A46D043
:2056400003283DD8DFE800F0021B0B4394F82C300020013384F82D0084F82C3030E00023F8
:2056600084F82D3094F82C300133DBB284F82C30127A9A421DD822462946022022E094F8EC
:205680002D300133DBB2052B83BF002384F82D3094F82C3084F82D3084BF013384F82C306E
:2056A00094F82C10137A994203D322462946012008E02046FFF7CEFE686801F0DCFD06E05C
:2056C00022462946FFF7E2FE01E00520B5E703B0BDE8F08F02570020987720002DE9F041B5
:2056E00007460E208846FFF7FFF8454B05461A78444C22B901221A70FEF79AFD2070237838
:2057000013B9404B01221A70217807204B1C2370FFF7D0F801210C20FFF7CCF83A4801F092
:20572000F0FC044640B12946201D01F0ADFDD8B9204601F017FDF4E7344801F026FD04464A
:2057400040B32946201D01F09CFD002304F13000606384F82C3084F82D30236301F0CEFC23
:205760002146294801F0EAFC606B01F0F4FC072810DC274801F009FD054698B9606B01F0F5
:20578000EAFC38B92146204801F0C5FC21461F4801F00FFD41463846BDE8F04101230622BF
:2057A00001F07ABD1B4801F0F0FCA86008B3FEF749FF6860C8B10620AE68FFF783F8C0B221
:2057C00008B1307201E00823337286E880012946606B01F0B3FC606B01F093FC85420DD104
:2057E0002046BDE8F041FFF735BEA968094801F0E0FC2946064801F0DCFCBFE7BDE8F08113
:205800001856002007560020104E00207C450020704500206445002008B5054801F0A5FCE4
:20582000044801F0A2FCBDE80840034801F09DBC70450020644500207C450020014B00221E
:205840001A607047E44E002010B50446FEF7E8FF0B4B19880B4B1868FEF7F2FF0CB1214603
:2058600000E009490E20FFF733F808490D20FFF72FF8074B002108469B689847012010BD7B
:2058800044560020405600200C7A2000025700206C7820002DE9F0410C4B1C68A4B1FEF709
:2058A00051FF0546FEF73CFF06460D20FFF71CF807460E20FFF718F83A460346314628466B
:2058C000A446BDE8F0416047BDE8F081E44E0020014B1860704700BFE44E002010B503881D
:2058E0000446B3B1B3F5A07F03D000230380032010BD0A490A4B032219600A4B0A481A8043
:205900008B784A780978FFF701FD084B0020DB6898474FF4A0732380012010BD5A56002001
:205920004056002044560020EA7C2000887820002DE9F34103888046002B30D0DC2B33D081
:20594000002303800320ACE0FFF7E0FC5648FFF7DDFC9DF80640554F012C68D122460DF168
:205960000601534800F0FAFE22460DF10701514800F0F4FE0422711C4F4800F0EFFE3C70E1
:205980004E4A4F494F48FFF7C1FC9DF8062029884D48FFF7BBFC3A78444B002A69D1DC233B
:2059A000A8F8003001207CE0444A45494548FFF7ADFC4648FFF7AAFCFEF7C4FE444C027867
:2059C00023785709394602F01F02064641488DF806208DF807302546FFF798FC374A384907
:2059E0003848042F57D801A353F827F0015A2000095A20001F5A2000275A200049592000C5
:205A0000FFF784FC344849E0FFF780FC3348FFF77DFC3348334901F034FC334838E0FFF76E
:205A200075FC32483AE0FFF771FC314836E0022C13D101220DF106012E4800F08FFE01221F
:205A40000DF107012C4800F089FE0422711C2B4800F084FE01237B7092E7184A1849194811
:205A6000FFF754FC3178264801F01F01FFF74EFC86E75A78002A92D000221A705A702149CD
:205A80000E4A1048FFF742FC1F48FFF73FFC1F48FEF7B6FA83E7FFF739FC1D48FFF736FC5C
:205AA0007DE702B0BDE8F0816C7D20003B56002048560020495600204A5600200B7D20001B
:205AC000117D2000267A20008C7D2000F17D2000DA540020097E2000157D2000277D200036
:205AE000DC5400209254002088450020407D20005A7D20004E5600204F5600205056002040
:205B00007D7D2000217A2000BB7D2000A8450020E47D200040F2551238B503880546934299
:205B20000BD0B3F5AD7F22D01BB940F255132B801BE000230380032038BD822915D1144A03
:205B400014491548FFF7E2FB05211448FFF7DEFB134B01244FF4207112481C7001F090FAAF
:205B60004FF4AD732B80204638BD012038BD0D4801F098FA0028F8D0094B00221A70054990
:205B8000034A0548FFF7C2FB0748FFF7BFFBCCE70B7D2000117D2000267A2000387E20001A
:205BA0001B560020E84E0020627E20002DE9F341038807463BB340F26F12934203D0002370
:205BC0000380032054E0822920D12B4C2B4A2C492C48FFF79BFB61782B48FFF797FB2046B4
:205BE000FEF7B8FD294D6378294E2B700024294906EBC40001F048FBDFF8948040B12146D6
:205C00002548FFF783FB40F26F133B8001202FE00134082CEBD1044608EBC4061F493046FA
:205C200001F032FB00B31B49304601F02AFB1C48FFF76CFB1748FDF727FF21461948FFF7AB
:205C400065FB40238DF804302B7801AA8DF80530154B10481A60154B02221A80144BDB68CE
:205C6000984729781348CCE70134082CD4D1CAE702B0BDE8F08100BF1C5600200B7D200016
:205C8000117D2000267A20007D7E20003A5600209A540020DC540020977E2000147A20008A
:205CA000B87E2000C17E2000405600204456002088782000D37E200038B515460C46084646
:205CC00000F05EFA2B6806490B606B684B60054B1C8000F05DFABDE838400348FEF790B9D8
:205CE00092540020DA5400209845002010B50388A4B004462BB1C02B0ED0002303800320F7
:205D000036E01C48FFF7E4FD1B490120FCF7DAFDC023238001202BE08229FBD11748FFF765
:205D2000F5FA1749C87A4B780A780990887A0890487A0790087A0690C8790590887904907E
:205D40004879039008790290C878019089780BA800910C49FFF7EAFA0BA90B48FFF7D6FACA
:205D60000BA800F033FE01460BA801F0D8FCCFE724B010BDB95C2000255E2000F87E2000CB
:205D800048560020017F2000597F200070B586B01D4901A800F0BCFD1C4901A800F092FE0C
:205DA00003221B49044600F03FFE10B31749164800F088FE0646174D0024B6B11349002035
:205DC00000F080FE06461CB900F0D6F928700AE0012C03D100F0D0F9687004E0022C02D17C
:205DE00000F0CAF9A8700134E7E70B48FEF708F908E003220949204600F016FE10B10848B2
:205E0000FFF784FA06B070BD70560020987F2000297F20005A560020C84500202C7F20007E
:205E20002F7F200010B5094C094923880A28C85403F10103238006D10648FFF767FA0023F5
:205E40002380FFF7A3FF012010BD00BFE454002070560020467F200053B94AB9002908BF38
:205E600000281CBF4FF0FF314FF0FF3000F082B9ADF1080C6DE904CE00F006F8DDF804E096
:205E8000DDE9022304B070472DE9F04F8C460C460546099E002B4FD18A4217466BD9B2FADD
:205EA00082FEBEF1000F0BD0CEF1200520FA05F501FA0EF345EA030C02FA0EF700FA0EF599
:205EC000390CBCFBF1F0BAB201FB10C300FB02F84FEA154C4CEA0344A04509D9E41900F1E9
:205EE000FF3380F02881A04540F2258102383C44C8EB0404B4FBF1F301FB134C03FB02F245
:205F0000ACB244EA0C418A4209D9C91903F1FF3480F00F818A4240F20C81023B39448A1A08
:205F200043EA00400021002E63D022FA0EF2002386E80C00BDE8F08F8B4207D9002E56D094
:205F4000002186E811000846BDE8F08FB3FA83F1002940F09380A34202D3824200F2FE80B4
:205F6000851A64EB03039C460120002E41D086E82010BDE8F08F12B90127B7FBF2F7B7FAEA
:205F800087FEBEF1000F36D1E41B4FEA17481FFA87F90121B4FBF8F308FB134409FB03F278
:205FA0004FEA154C4CEA0444A24207D9E41903F1FF3002D2A24200F2D3800346A41AB4FB32
:205FC000F8F008FB104809FB00F9ACB244EA0842914507D9D21900F1FF3402D2914500F24A
:205FE000BA802046C9EB020240EA03409BE731463046BDE8F08F07FA0EF7CEF1200C24FA3A
:206000000CF34FEA1748B3FBF8FA1FFA87F908FB1A3520FA0CFC04FA0EF40AFB09FB4CEAFD
:20602000040C4FEA1C4242EA05439B4500FA0EF50AD9DB190AF1FF3280F08B809B4540F2D8
:206040008880AAF1020A3B44CBEB0303B3FBF8F008FB103300FB09F41FFA8CFC4CEA034365
:206060009C4207D9DB1900F1FF326ED29C426CD902383B441C1B40EA0A418BE7C1F1200E32
:206080008B4022FA0EFC4CEA030C24FA0EF74FEA1C49B7FBF9FA1FFA8CF309FB1A7720FA1D
:2060A0000EF88C400AFB03F548EA04044FEA144848EA0747BD4202FA01F200FA01FB09D9FC
:2060C00017EB0C070AF1FF3041D2BD423FD9AAF1020A67447F1BB7FBF9F509FB157705FB3B
:2060E00003F3A4B244EA0747BB4208D917EB0C0705F1FF3027D2BB4225D9023D674445EAB3
:206100000A40A0FB0289FF1A4F4545464C4614D329D066B3BBEB050367EB040707FA0EFE34
:20612000CB40CF404EEA030386E888000021BDE8F08F2346F3E61846DAE6B8EB020569EB6E
:206140000C040138E5E70546D9E7104692E78246C0E7924678E702383A4443E7084604E78F
:20616000023B3C442AE7C345E7D33C46D1E73146BDE8F08F704700BF0A22002100F070BDDA
:20618000024B0146186800F00BB800BFEC490020024B0146186800F0BDBD00BFEC49002092
:2061A0002DE9F04F01F10B05162D83B0064640F2A08035F0070500F1C080A94200F2BD80F8
:2061C00000F090FBB5F5FC7FC0F090826B0A00F0BB80042B00F27781A80900F1390E4FEA82
:2061E0004E013830BE4F07EB81014C680839A14207D1AEE0002A80F2AE80E468A14200F040
:20620000A880636823F003035A1B0F2AF2DDB4493C6901F1080E744500F0A881636823F09B
:2062200003035A1B0F2A00F38E81002AC1F814E0C1F810E080F29380B3F5007F80F05C812F
:20624000DB084A684FEAA3094FF0010C013351F833800CFA09F901EBC30C49EA0202ACF1B1
:20626000080CC4F80CC0C4F808804A6041F83340C8F80C40831001249C4094427CD81442C8
:2062800006D120F003006400144200F10400FAD007EBC009CC468046DCF80C108C4507D16F
:2062A00066E1002A80F27481C9688C4500F060814B6823F003035A1B0F2AF2DD0C46CB6865
:2062C00054F808CF45F00108C1F804800D4442F00101CCF80C303046C3F808C07D613D6126
:2062E000C5F80CE0C5F808E06960AA5000F0FCFA1FE0102921D800F0F5FA10250623022017
:20630000774F07EB83035C68A3F10802944200F038816368E16823F0030323445A68A568FB
:2063200042F00102E96030468D605A6000F0DCFA0834204603B0BDE8F08F002420460C23CA
:20634000336003B0BDE8F08F80214FF0400E3F2048E770465BE723445A68E168DFE7234480
:206360005A68304642F001025A60083400F0BCFA204603B0BDE8F08FBC68636823F00308CA
:20638000A84504D3C5EB08030F2B00F38C80554BDFF860911A68D9F800302A44013304EBC9
:2063A000080A00F0608102F580520F3222F47F6222F00F0211463046019200F097FAB0F154
:2063C000FF3F8346019A00F05881824500F2FC80454BDA4519681144196000F05381D9F88A
:2063E0000000DFF810E101301BBFCAEB0B0A5144CEF800B019601BF0070100F01781C1F12F
:206400000800C1F58051834408315A44C2F30B02C2EB010949463046019300F067FA431C8D
:20642000019B00F03F81CBEB00024A4442F001021968BC424944C7F808B01960CBF80420B2
:20644000DFF8A49016D0B8F10F0F40F2FD806268A8F10C0323F0070302F00102E0184FF01A
:20646000050E1A430F2B6260C0F804E0C0F808E000F21C811D4BBC681A68914288BF196044
:206480001B4B1A689142626888BF196022F003029542A2EB050301D80F2B04DC304600F0DB
:2064A00023FA002445E745F0010243F00103254462603046BD6008346B6000F015FA2046D6
:2064C00003B0BDE8F08F142B71D9542B00F2A480280B00F16F0E4FEA4E016E3082E600BFD9
:2064E000D8450020004F0020044F0020FC4E0020F84E0020E44900205A0A042A5ED9142A59
:2065000000F2B38002F15C0149005B3207EB810C57F82110ACF1080C8C45DFF8D88100F08F
:2065200088804A6822F00302934202D289688C45F7D1D1F80CC07A68C4F80CC0A160CCF893
:206540000840CC6096E645F0010742F001032544676030464D610D61C5F80CE0C5F808E0C8
:206560006B60AA50083400F0BFF9E2E64A6881E608F1010818F0030F0CF1080C7FF48CAEB7
:2065800030E0DC68A34208BF02303FF440AEC0E60C460B445A68C96854F8085F42F0010286
:2065A0005A603046E9608D6000F09EF9C1E603F15C0E03F15B004FEA4E0113E69A0902F183
:2065C000390149003832A1E7BC424A4B3FF400AF9C68626822F003025AE759F8083999453B
:2065E00040F0828010F0030F00F1FF30F5D17B6823EA04037B6064009C423FF6BDAE002C91
:206600003FF4BAAE1C4240467FF442AE64001C4200F10400FAD03BE6B3F5AA7F18D8E80B42
:2066200000F1780E4FEA4E017730DBE54FF48051EBE60121D8F80430921001FA02F21A43FB
:20664000C8F80420614677E70123CBF8043025E740F25452934220D8A80C00F17D0E4FEA1C
:206660004E017C30BEE51032A4E6542A26D81A0B02F16F0149006E3248E7BC68626822F094
:20668000030205E7CAF30B0000287FF4A8AE4244BB6842F001025A60ECE6FE214FF07F0EFB
:2066A0007E209FE501224FF00009C1E604F10801304600F02FFBD9F80010DBE6B2F5AA7FA6
:2066C00005D8DA0B02F17801490077321EE740F254518A4205D89A0C02F17D0149007C3207
:2066E00014E7FE217E2211E77B6884E7E808431C5B0005E6D8450020032A70B426D940EA4E
:2067000001039B0711D004780D78AC4222D10244431C05E013F8014B11F8015FAC4219D1EE
:206720009342F7D1002070BC70470C4603461E6825681846AE42214603F1040304F104045E
:20674000E1D1043A032A18462146F0D8002ADAD11046E8E7601B70BC704700BF844641EA83
:20676000000313F0030349D1403A23D30B6803604B6843608B688360CB68C3600B69036153
:206780004B6943618B698361CB69C3610B6A03624B6A43628B6A8362CB6AC3620B6B03632D
:2067A0004B6B43638B6B8363CB6BC36340304031403ADBD230320BD30B6803604B684360D1
:2067C0008B688360CB68C36010301031103AF3D20C3205D351F8043B40F8043B043AF9D2DF
:2067E000043208D0D2071CBF11F8013B00F8013B01D30B8803806046704700BF082A13D340
:206800008B07B1D010F00303AED0C3F10403D21ADB071CBF11F8013B00F8013BA4D331F864
:20682000023B20F8023B9FE7043AD9D3013A11F8013B00F8013BF9D20B7803704B7843706B
:206840008B7883706046704770B4840746D0541E002A41D0CDB2034602E0621EE4B3144658
:2068600003F8015B9A07F8D1032C2ED9CDB245EA05250F2C45EA054519D9264603F1100231
:20688000103E0F2E42F8105C42F80C5C42F8085C42F8045C02F11002F2D8A4F1100222F065
:2068A0000F0204F00F041032032C13440DD91E462246043A032A46F8045BFAD8221F22F019
:2068C00003020432134404F003042CB1C9B21C4403F8011BA342FBD170BC70471446034625
:2068E000C2E700BF704700BF704700BF38B5074C0023054608462360FEF76EF9431C00D03A
:2069000038BD2368002BFBD02B6038BDD456002080EA0102844612F0030F4FD111F0030FB9
:2069200032D14DF8044D11F0040F51F8043B0BD0A3F101329A4312F0803F04BF4CF8043B9C
:2069400051F8043B16D100BF51F8044BA3F101329A4312F0803FA4F101320BD14CF8043BE5
:20696000A24312F0803F04BF51F8043B4CF8044BEAD023460CF8013B13F0FF0F4FEA332390
:20698000F8D15DF8044B704711F0010F06D011F8012B0CF8012B002A08BF704711F0020FCD
:2069A000BFD031F8022B12F0FF0F16BF2CF8022B8CF8002012F47F4FB3D1704711F8012BD4
:2069C0000CF8012B002AF9D1704700BF20F0030110F00300C0F1000051F8043B00F1040CCC
:2069E0004FEACC0C6FF000021CBF22FA0CF213434FF0010C4CEA0C2C4CEA0C4CA3EB0C02F6
:206A000022EA030212EACC1204BF51F8043B0430F4D0C2F1000102EA0102B2FA82F2C2F1D2
:206A20001F0200EBD2007047002A3FD040EA010313F00303F0B425D1032A23D904680D68AD
:206A4000AC421FD1043A33D0A4F1013525EA040414F0803F2FD1071D0D1D0DE057F8043BA9
:206A60000E68A3F10134B34224EA03040AD1043A1ED014F0803F21D1032A2946384605F101
:206A80000405EBD803780C78013A9C420BD17AB114B915E062B173B110F8013F11F8014F71
:206AA000013AA342F6D0181BF0BC7047104670471046F0BC70471846F0BC70470020F3E7D9
:206AC0002046F1E7024A012312685C3200F002B8EC490020F0B420B307460D4617F8016B6F
:206AE00001E0A64216D015F8014B002CF9D1EEB13E460C4616F8015B00E073B114F8013B6D
:206B00009D42FAD15DB100233B70166006463046F0BC704763B13846DEE73746E8E72E463D
:206B2000F3E710680028D7D10646F0E71660EEE7176006460370EAE72DE9F04F474C83460D
:206B40000E46D4F800E000E02646344614F8015B0EEB0500407800F0080000F0FF0800283A
:206B6000F2D12D2D5CD02B2D04BF7578B41C002B3ED0102B60D09A46B8F1000F0CBF6FF08E
:206B800000404FF00040B0FBFAF90027BC460AFB19000CE0303DAB4219DD7E1C05D0CC4595
:206BA00023D820D00AFB0C5C012714F8015B0EEB0506767816F0040FECD116F0030606D040
:206BC000012E14BF57263726AD1BAB42E5DC7B1C16D0B8F1000F10D16046002A39D0DFB9DC
:206BE0001160BDE8F08F8542DCDD4FF0FF37DCE7302D1AD00A239A46BEE7CCF1000CEBE7B4
:206C0000B8F1000F4FF022030CBF6FF000404FF00040CBF80030F2B1611E1160BDE8F08FC5
:206C2000B41C75784FF00108A1E7237803F0DF03582B08D008239EE7302D9CD1207800F0FA
:206C4000DF00582897D14FF0100A65785346023492E7BDE8F08FBDE8F08F00BFE849002097
:206C600010B4044C13460A460146206810BCFFF763BF00BFEC490020F8B50C46224F0646D4
:206C8000FFF730FEBB685D6825F00305291B01F6EF7121F47F6121F00F01A1F58054B4F507
:206CA000805F07DB00213046FFF720FEBB682B44984204D03046FFF717FE0020F8BD61422F
:206CC0003046FFF713FE01300DD0104BBA6819682D1B45F001053046091B55601960FFF7EA
:206CE00003FE0120F8BD00213046FFF7FFFDBA68831A0F2BDEDD064C0449246843F001031E
:206D0000001B53600860D5E7D8450020044F0020E4490020002945D02DE9F0410D468046E6
:206D2000FFF7E0FD55F8047C6A49A5F1080427F00103E2188E685068B24220F0030062D062
:206D4000FE0750600BD455F8087C01F1080EE41BA5683B4475456FD0E768EF60BD6015185A
:206D60006D68ED0742D543F001026260E350B3F5007F18D2DB0848689D100122013351F817
:206D8000337002FA05F501EBC3022843083AE260A760486041F83340FC604046BDE8F041A7
:206DA000FFF7A2BD70475A0A042A53D89A0902F139077F0002F1380501EB870051F8272082
:206DC0000838904243494DD0516821F003018B4202D292689042F7D1D068E060A260846097
:206DE000D4604046BDE8F041FFF77EBD95683A4F0344BD423FD0D06843F00102E86085605C
:206E00006260E350B3E7FF07034407D455F8085C641BE268A0682B44C26090602F4A43F00C
:206E200001001268606093428C60B6D32C4B40461968FFF721FFB0E711184968C90744D4E0
:206E400091680344D26843F00100CA6091606060E350A2E7142A17D802F15C077F0002F1F8
:206E60005B05A9E7AA104B68012505FA02F213434B600246B1E743F001024C610C61E56026
:206E8000A5606260E35088E7542A06D81A0B02F16F077F0002F16E058EE7B2F5AA7F06D897
:206EA000DA0B02F178077F0002F1770584E740F25450824206D89A0C02F17D077F0002F11B
:206EC0007C0579E7FE277E2576E743F001026260E35062E7D8450020E0450020E04900206D
:206EE000004F0020FEE708B5FBF7D0F9F7B500240646254627463046FBF754FA0197019BE8
:206F00009D4204DD00BF019B01330193F7E73046FBF778FAC5F5C8750197019B9D4204DDEB
:206F200000BF019B01330193F7E70134B4F5487F06D0B4F5C87FCCBFC4F548752546DAE7B8
:206F400003B0F0BD08B500F00BF8FBF77FFABDE808400120FFF7CABFFCF706BCFBF798BA30
:206F600008B5FBF7D9FCFBF73FFDFBF7DDFCFBF7E1FAFCF767FC00F0A0F8BDE80840FDF708
:206F80004DBBFBF7B1BA70470020FBF795BB0120FBF792BB0020FBF701BD0120FBF7FEBC76
:206FA0000220FBF7FBBC0320FBF7F8BC10B50C46FCF70EF82046BDE81040FCF7DFB8EFF366
:206FC000108072B6704780F31088704710B50446C1B20020FBF77EFC204610BD70B50546CF
:206FE00004464618601B44B1237833B1B44204D01846013400F06BFBF4E770BD0020704768
:207000000120704710B50446302200210E20FBF70DFD84B1012C0CD142F210730011A0F253
:207020008E5058432A2390FBF3F000F5C340283010BD4FF0004010BD002070470120704704
:2070400010B50446302200210F20FBF7EFFC5CB1012C07D140F6F253584347F6F07390FB4F
:20706000F3F010BD4FF0004010BD10B5041F54F8040F18B10021FCF7ABFFF8E710BD7047E3
:2070800010B5044600F01BF82046BDE81040FCF797BD10B5044600F027F82046BDE81040C3
:2070A000FCF78EBDC068B0FA80F040097047837BDB0701D5FCF782BE7047FFF764BF10B5D2
:2070C00041600446FBF75CFA206010BD10B50446FBF756FA2368C3F10103034460688342C8
:2070E00094BF0020012010BD10B50446FFF7EEFF18B194E80C001344236010BD00230360BF
:20710000704700687047006800B9704703680BB11846FBE77047036810B573B10024994250
:207120001A6806D10CB9026000E0226000221A6010BD1C460AB11346F1E710BD38B50546B1
:20714000FFF7E9FF00230B60FFF7DDFF08B9296038BD016038BD0368002013B101301B6859
:20716000FBE7704700B10068704710B50446428800214068FFF768FB23886288A0685A4371
:20718000BDE810400021FFF75FBB10B5418800238B420CDA4268D418D25C32B90122227001
:2071A0000288806803FB020010BD0133F0E7002010BD30B5826844880023A3420BDA8A4244
:2071C00005D14268D15C31B10020D05430BD058801332A44F1E74FF0FF3030BD82688A42D7
:2071E00008D84388008800FB032081422CBF002001207047002070470023013A016002718F
:2072000043718371704710B5427983790479D31A34EA030308D00368995443795A1C037927
:2072200013404371012010BD002010BD837942790179D21A0A421FBF0268D25C01330B400E
:207240001ABF837110464FF0FF30704790F845200121D3081B0303F1804302F0070203F534
:20726000592301FA02F253F8223090F844000BB180F001007047006800F19C018230FDF7BA
:20728000F5BA0822FFF76ABA08B50822FFF734FAB0FA80F0400908BD30B40D4604461146F0
:2072A00020B11A462846234630BC184730BC704730B591B0FDF746FA0446FDF731FA6A4665
:2072C00001462046FDF7F6FB044610B94FF0FF3036E0FDF707FA0028F8D09DF810100C20BF
:2072E000FDF7E8FA9DF813100820FDF7E3FA9DF81730ABB1BDF81C50FDF7D6FB854205D04D
:207300004FF6FF73BDF81C209A42DFD169469DF8170000F0F4F818B969460E20FDF7D8FA8E
:2073200002A90D20FDF7D4FA9DF8153013B99DF81A1001E04FF6FF710720FDF7BBFA204682
:2073400011B030BDF8B50E461446054600283AD0002A38D00C20A84700232074A37416B1C5
:20736000E374637503E00820A8476675E0740920A847002701232376A07567740720A847B3
:20738000A076FDF791FBE0830A20A847012816BF032367766376FDF787FBA0830B20A8474E
:2073A000012801D1002303E00EB1022300E00323E375637E022B02D0E37D022B01D1012327
:2073C00000E000232375F8BD0120FDF705BB0020FDF702BB30B500284ED0037A022B2ED1E3
:2073E000C479437A057914B983B9012D0AE003B975B1032C0ED1032B03D1002D3AD10120A9
:2074000019E0022B14BF0020012008E0204606E0012005E0022CF4D1181C18BF012005BB19
:207420000CB1022C05D1023B012B8CBF002301231BE0032C15D19C1E6342634115E003780D
:20744000022B10D003792BB9437A13F0030318BF012300E00023C07910F0030018BF0120C7
:2074600003E0002301E00020034601B10B601AB1106030BD0020D2E730BD37B50D46044628
:20748000002106222846FFF7DFF9637DD9075CBF01232B70237E012B0DD8E37D9A0708D042
:2074A000637E9B0705D0E28BA38B9A4201D1012300E00023237501AA694604F11000FFF717
:2074C00089FF009B0BB10223EB70019B0BB102236B70E37D03F00303022B03D0032B0CBFA3
:2074E00008230023AB70637E03F00303022B03D0032B0CBF082300232B7103B030BD02289C
:207500000CBF022308230B448B4205D013F8012DFF2AF9D0002070470120704707B569461A
:20752000FFF7ABFF9DF800009DF80130023018449DF802309DF8032018449DF804301044CA
:2075400003449DF80500184403B05DF804FB837810B544781B01E40003F0100304F0080465
:207560001C43C2780378520103F00703234302F020021A4303799B0103F0400313430B70B1
:207580004379427A847903F0010343EA8213C279640004F002049200234302F00C021A43CF
:2075A000037A1B0103F0300313434B7010BDF7B504460D466946FFF760FF04F1100029466D
:2075C000FFF7C5FF9DF80030012B02BFA37E0320AB709DF8013018BF0220022B08D1A28BEE
:2075E000431C2A54A28BDBB20230120AC0B2EA5401469DF80230E218A24205D012F8017DAD
:207600004E1C6F54F1B2F7E718449DF80330C0B2022B08D1E28B431C2A54E28BDBB20230AA
:20762000120AC0B2EA549DF804301844C0B2C21AD2B223B1013BE118097AA954F7E703B06D
:20764000F0BD1FB502461378084603F007018DF80410C3F3C0018DF80510C3F300118DF897
:207660000610C3F34011C3F380138DF8083053788DF8071003F001028DF80920C3F34002E4
:207680008DF80A20C3F381028DF80B20C3F301128DF80C209B090A2201A98DF80D30FFF7A6
:2076A0005DF805B05DF804FB08B5084612B11146FFF794FC002008BD38B5044615460068E2
:2076C000FFF74CF8236800201D44256038BD10B50446FFF77BFC204610BDFDF7FFBF7047D2
:2076E000002070477047012070470120704701207047002070470020704770477047002038
:2077000070470020704701207047012070477047704770470020704700207047704770B57C
:20772000054604464618601B44B1217831B1B44204D001200134FBF7CDF8F4E770BD00008C
:2077400001000000010000000100000000C0004000410D4000000000080000002C00000064
:2077600000000001FFFFFFFF0500000002000000020000000200000000D0004008410D405B
:2077800002000000080000002C00000002010200FFFFFFFF06000000C5322000D12F200075
:2077A0007D312000AD6F2000F12E2000E12C20001D2D2000352D2000412C2000692C200025
:2077C000452D20003D34200039302000C12E200007000000FF00000005000000ED000000F6
:2077E00003000000D500000001000000C500000000000000B6000000FFFFFFFFB000000089
:20780000FDFFFFFFA1000000FBFFFFFF91000000F9FFFFFF88000000F7FFFFFF7200000060
:20782000F5FFFFFF62000000F3FFFFFF58000000F1FFFFFF42000000E8FFFFFF0000000097
:207840007D7A200005702000FD6F200001702000917A200041702000397020003D702000CD
:20786000CF732000C9732000B1722000D97C2000D5532000DB762000F5532000815320007D
:207880008D53200099532000B87B20003D5820009558200049582000DE7C20001D772000D8
:2078A000DF762000157720001977200003772000E1762000E5762000077720000B7720002B
:2078C0000F77200011772000E7762000EB762000EF762000F3762000F7762000FB76200030
:2078E00013772000FD762000FF762000A8450020C845002098450020B84500208845002075
:207900000000000000202020202020202020282828282820202020202020202020202020DF
:207920002020202020881010101010101010101010101010100404040404040404040410F7
:2079400010101010101041414141414101010101010101010101010101010101010101012D
:207960001010101010104242424242420202020202020202020202020202020202020202F3
:20798000101010102000000000000000000000000000000000000000000000000000000087
:2079A0000000000000000000000000000000000000000000000000000000000000000000C7
:2079C0000000000000000000000000000000000000000000000000000000000000000000A7
:2079E000000000000000000000000000000000000000000000000000000000000000000087
:207A0000000000000000000043000000000000000000000000000000000000005A6F756C79
:207A200000494E464F005B252D34733A20252D3130735D20005A6F6C6572746961205245C8
:207A40002D4D6F7465207265766973696F6E204120706C6174666F726D001D001C001B009B
:207A60005573657220627574746F6E0063633235333820524620647269766572004F6E2DC5
:207A8000436869702054656D70657261747572650056444433004D61696E00537461727410
:207AA000696E6720436F6E74696B692D4E472D72656C656173652F76342E372D3135352D94
:207AC000673162363462306431622D64697274790A002D20526F7574696E673A2025730A25
:207AE000002D204E65743A2025730A002D204D41433A2025730A002D203830322E31352E53
:207B0000342050414E49443A203078253034780A002D203830322E31352E3420446566612B
:207B2000756C74206368616E6E656C3A2025750A004E6F64652049443A2025750A004C6913
:207B40006E6B2D6C6179657220616464726573733A2000284E554C4C204C4C2061646472CC
:207B600029002E0025303278004C4C2D4E554C4C004C4C2D2530347800616C6C004E2F41F2
:207B8000004E6F6E65004572726F7273005761726E696E677300496E666F0044656275671C
:207BA0000072706C007463706970006970763600366C6F7770616E006E756C6C6E65740009
:207BC0006D6163006672616D65720036746F7000636F617000736E6D70006C776D326D001E
:207BE0006D61696E004576656E742074696D6572004374696D65722070726F63657373001A
:207C0000537461636B0045525200436865636B20696E20696E636F6E73697374656E74204F
:207C200073746174653A20256C642076732E20256C640A00436865636B206661696C65641B
:207C40003A20256C642076732E20256C640A00537461636B20636865636B0053656E736F63
:207C6000727300427574746F6E2048414C2070726F636573730053657269616C20647269D0
:207C8000766572002020202020202020202020202020202030303030303030303030303057
:207CA0003030303030313233343536373839414243444546003031323334353637383961F4
:207CC0006263646566003078003058002D002B00286E756C6C2900250043534D41006E75F0
:207CE0006C6C726F7574696E670062726F616463617374696E6720424541434F4E3A20256C
:207D0000642C2025642C2025640A0044425F3234004442470052583A20426561636F6E20C7
:207D20003F3F3F3F200A0052583A204173736F63696174696F6E20726571756573740A0069
:207D400052583A204173736F63696174696F6E20726573706F6E73650A0052583A20506F46
:207D60006C6C203F3F3F3F3F3F200A0052583A2053656E736F7220446174610A004E4F4464
:207D80004549443A2025643F3F3F0A004164646564202564206279746573206F66206461CB
:207DA00074612066726F6D206E6F646520256420746F206275666665720A0073656E6469F1
:207DC0006E67207468726F7567682055415254207468652061676772656761746564206D38
:207DE00073670A0052583A20556E6B6E6F776E0A00526563656976696E6720524144494F76
:207E0000206D73672E2E2E0A006865616465723A2025642C206865616465725F72785F6D51
:207E200073673A2025642C206C656E5F6C6974746C653A2025640A0073657474696E672002
:207E400077696E646F77206F662072782074696D657220666F72202564207365636F6E649E
:207E6000730077696E646F77206F662072782074696D65722065787069726564007278209C
:207E80006D657373672066726F6D206E6F646569643A2025640A0041646472657373206128
:207EA0006C726561647920666F756E6420617420706F732025640A00416464726573732005
:207EC0000020616464656420617420706F732025640A004173736F63696174696F6E206D6C
:207EE0006573736167652073656E7420746F206E6F64652025640A00484949494969200AB5
:207F00000050302C25642C25642C25642C25642C25642C25642C25642C25642C25642C2533
:207F2000642C25642C25640A00424F00503000726563656976656420706F6C6C206D6573D5
:207F4000736167650A0053455249414C204441544120494E202D2D3E202573006173736FA0
:207F6000632070726F636573730052582077696E646F772070726F6365737300726563655F
:1A7F8000697665720073656E646572006475616C62616E64203234002C00C3
:207F9C00000000002C43002094430020FC43002000000000000000000000000000000000E0
:207FBC000000000000000000000000000000000000000000087A2000000000000000000003
:207FDC00000000000000000000000000000000000000000000000000000000000000000085
:207FFC00000000000000000000000000000000000000000000000000000000000000000065
:20801C00000000000000000000000000000000000000000000000000000000000000000044
:20803C00000000000000000001000000000000000E33CDAB34126DE6ECDE05000B000000F7
:20805C00000000000000000000000000000000000000000000000000000000000000000004
:20807C000000000000000000000000000000000000000000000000000000000000000000E4
:20809C000000000000000000000000000000000000000000000000000000000000000000C4
:2080BC000000000000000000000000000000000000000000000000000000000000000000A4
:2080DC00000000000000000000000000000000000000000000000000000000000000000084
:2080FC00000000000000000000000000000000000000000000000000000000000000000064
:20811C00000000000000000000000000000000000000000000000000000000000000000043
:20813C00000000000000000000000000000000000000000000000000000000000000000023
:20815C00000000000000000000000000000000000000000000000000000000000000000003
:20817C000000000000000000000000000000000000000000000000000000000000000000E3
:20819C000000000000000000000000000000000000000000000000000000000000000000C3
:2081BC000000000000000000000000000000000000000000000000000000000000000000A3
:2081DC00000000000000000000000000000000000000000000000000000000000000000083
:2081FC00000000000000000000000000000000000000000000000000000000000000000063
:20821C00000000000000000000000000000000000000000000000000000000000000000042
:20823C00000000000000000000000000000000000000000000000000000000000000000022
:20825C00000000000000000000000000000000000000000000000000000000000000000002
:20827C000000000000000000000000000000000000000000000000000000000000000000E2
:20829C000000000000000000000000000000000000000000000000000000000000000000C2
:2082BC000000000000000000000000000000000000000000000000000000000000000000A2
:2082DC00000000000000000000000000000000000000000000000000000000000000000082
:0482FC00000000007E
:2083000000000000000000000000000000000000000000000000000000000000000000005D
:2083200000000000000000000000000000000000000000000000000000000000000000003D
:2083400000000000000000000000000000000000000000000000000000000000000000001D
:208360000000000000000000000000000000000000000000000000000000000000000000FD
:208380000000000000000000000000000000000000000000000000000000000000000000DD
:2083A0000000000000000000000000000000000000000000000000000000000000000000BD
:2083C00000000000000000000000000000000000000000000000000000000000000000009D
:2083E00000000000000000000000000000000000000000000000000000000000000000007D
:2084000000000000607A2000010300000100000000000000684400200000000050782000A9
:208420004078200000000000000000006C7A2000AD3320000000000003000000000000005B
:20844000E57B2000153B20000000000000000000F17B20005D3C20000000000000000000E7
:208460004F7C2000A940200000000000000000005B7C20005541200000000000000000005B
:20848000637C2000014320000000000000000000767C2000E5442000000000000400080012
:2084A000FC550020104C0020AC000800F45500202E4F0020185F0020A9762000000000003F
:2084C0000C00080010560020B04D00200C00080008560020144E0020380002001956002008
:2084E000744E0020000000005C7F2000AD5B200000000000000000007C7F200031592000B2
:2085000000000000000000008C7F2000ED5C200000000000000000006A7F2000155B20002E
:208520000000000000000000857F2000DD582000000000000000000000000000D845002085
:20854000D8450020E0450020E0450020E8450020E8450020F0450020F0450020F8450020B3
:20856000F8450020004600200046002008460020084600201046002010460020184600208C
:2085800018460020204600202046002028460020284600203046002030460020384600206B
:2085A00038460020404600204046002048460020484600205046002050460020584600204B
:2085C00058460020604600206046002068460020684600207046002070460020784600202B
:2085E00078460020804600208046002088460020884600209046002090460020984600200B
:2086000098460020A0460020A0460020A8460020A8460020B0460020B0460020B8460020EA
:20862000B8460020C0460020C0460020C8460020C8460020D0460020D0460020D8460020CA
:20864000D8460020E0460020E0460020E8460020E8460020F0460020F0460020F8460020AA
:20866000F84600200047002000470020084700200847002010470020104700201847002083
:20868000184700202047002020470020284700202847002030470020304700203847002062
:2086A000384700204047002040470020484700204847002050470020504700205847002042
:2086C000584700206047002060470020684700206847002070470020704700207847002022
:2086E000784700208047002080470020884700208847002090470020904700209847002002
:2087000098470020A0470020A0470020A8470020A8470020B0470020B0470020B8470020E1
:20872000B8470020C0470020C0470020C8470020C8470020D0470020D0470020D8470020C1
:20874000D8470020E0470020E0470020E8470020E8470020F0470020F0470020F8470020A1
:20876000F8470020004800200048002008480020084800201048002010480020184800207A
:20878000184800202048002020480020284800202848002030480020304800203848002059
:2087A000384800204048002040480020484800204848002050480020504800205848002039
:2087C000584800206048002060480020684800206848002070480020704800207848002019
:2087E0007848002080480020804800208848002088480020904800209048002098480020F9
:2088000098480020A0480020A0480020A8480020A8480020B0480020B0480020B8480020D8
:20882000B8480020C0480020C0480020C8480020C8480020D0480020D0480020D8480020B8
:20884000D8480020E0480020E0480020E8480020E8480020F0480020F0480020F848002098
:20886000F84800200049002000490020084900200849002010490020104900201849002071
:20888000184900202049002020490020284900202849002030490020304900203849002050
:2088A000384900204049002040490020484900204849002050490020504900205849002030
:2088C000584900206049002060490020684900206849002070490020704900207849002010
:2088E0007849002080490020804900208849002088490020904900209049002098490020F0
:2089000098490020A0490020A0490020A8490020A8490020B0490020B0490020B8490020CF
