:020000040020DA
:20200000905600208D222000076A2000056A2000056A2000056A2000056A2000000000001E
:20202000000000000000000000000000056A2000056A200000000000056A2000B16A2000B8
:20204000C36A2000C96A2000CF6A2000D56A200000000000B76A2000BD6A2000056A200011
:20206000056A20000000000000000000000000000000000000000000056A20000000000042
:202080000000000000000000056A2000056A2000056A2000056A2000056A2000056A2000E6
:2020A000056A2000056A2000056A2000056A2000056A2000056A2000056A2000056A2000A8
:2020C000056A2000056A2000056A2000056A2000056A200000000000000000000000000035
:2020E0000000000000000000000000000000000000000000000000004D3620005D3620008A
:202100000000000000000000000000000000000000000000000000000000000000000000BF
:2021200000000000000000000000000000000000000000000000000000000000000000009F
:2021400000000000000000000000000000000000000000000000000000000000000000007F
:2021600000000000000000000000000000000000000000000000000000000000000000005F
:2021800000000000000000000000000000000000000000000000000000000000000000003F
:2021A00000000000000000000000000000000000000000000000000000000000000000001F
:2021C0000000000000000000000000000000000000000000000000000000000000000000FF
:2021E0000000000000000000000000000000000000000000000000000000000000000000DF
:202200000000000000000000000000000000000000000000000000000000000000000000BE
:2022200000000000000000000000000000000000000000000000000000000000000000009E
:2022400000000000000000000000000000000000000000000000000000000000000000007E
:2022600000000000000000000000000000000000056A200031352000553520000930200046
:20228000CD372000612A2000056A200008B5094BFF221A600848094A4824E369121A08495C
:2022A00098470848084AA369121A0021984701F0D5FAFEE7B4200D40404000208B41002013
:2022C000D0792000904100208C4E002038B5144D2B680BB3134CFF2323604FF48C7000F0D8
:2022E00059FB114B28685B689847B0F1004F03D10E4802F0A7FF0FE041F28833584340F69C
:20230000B833B0FBF3F01C235843002323604FF47A73B0FBF3F038BD4FF0FF3038BD00BFEF
:20232000A041002000920D40707320001C762000812837B50C4621D1124DE1B1124A0721BA
:20234000136823F0800313600022104600F05AFD0E4A01211368A14043F0800313600C4BE4
:2023600000221A600B4B80209B682960019303B0BDE8304018472960084601E04FF0FF305E
:2023800003B030BDA041002020940D4000940D4000920D407073200008B5002000F0BEFB52
:2023A000012000F0BBFB0D49002000F08BFC02F0BDF8002001F0FEFE01F0E0F800F04CFEB2
:2023C00000F068FE0821064801F018FA01F0C2FF62B6BDE80840042004F018BBE94420003E
:2023E0007C4E002073B51A4B1B68022B08DD1949194A1A4802F026FF19491A4802F022FFBC
:202400006846082101F0FAF9174E9DF807309DF80650F46A43EA05254AF6CD310220A047E9
:2024200029460320A04702210120A047736B082269460B20984704F025FB00F043FA0021D5
:202440000A4801F077FD022004F0E0FA02B070BDC0400020527620004D762000577620001E
:2024600066762000387720006C742000F44000200022F0B51746154C0125FF2640FA02F33E
:20248000DB071ED504EB4203597814F8123061B1D908090301F1804103F0070301F55921F5
:2024A00005FA03F341F823700BE0D908090301F1804103F0070301F5592105FA03F341F835
:2024C00023600132032AD9D1F0BD00BF8B762000F0B5104C00210125FF2640FA01F3DB0765
:2024E00014D504EB41035F7814F81130DA08120302F1804203F0070302F5592205FA03F38C
:2025000017B142F8236001E042F8237001310329E3D1F0BD8B76200070B40E4E00220125E0
:2025200016F812300C49D80800030C5803F0070305FA03F324EA03040C502039014408683E
:2025400001320343032A0B60EAD170BC0720FFF7BFBF00BF8B76200020940D4038B5084BC7
:2025600000221A6000F03AFA6FF4A374054D241A2B681BB100F032FAC442F9D438BD00BF8F
:2025800080A00D4020A00D40014BFF221A60704780A00D40064B186006480268054912F0E5
:2025A000100FFAD10A685207FCD51868C0B27047088000400C800040F0B510B9002936D1BA
:2025C00000E00AB90120F0BD29B1234C234D002326462F4624E0204C204D03462746AE4646
:2025E0001E1A964201DB0020F0BD21602E68F606FCD4DEF800607607FBD53E6803F8016BAF
:20260000EEE7D5F800E01EF0100FFAD1D7F800E01EF0040FFAD0D6F800E000F803E00133E9
:202620009342E0DA11F803E0C4F800E0E9E7002AC8D0094C09480B46264605465F1ABA42CE
:20264000D1DD13F8017B27600768FF06FCD42F687F07FCD53768F1E7088000400C80004081
:2026600008B5194A136823F01003136052F8203C23F0100342F8203C52F81C3C23F01003FC
:2026800042F81C3C52F8183C23F0100342F8183C0E4B1A6810B142F0100201E022F0100271
:2026A0001A600B4A0120136843F0100313600422114600F0A7FB074B02221A600648BDE804
:2026C000084001F045BF00BF20A40D400CA40D4010A40D4000E100E04040002008B5074A80
:2026E0000120136843F0100313600422114600F089FB034B02221A6008BD00BF10A40D4023
:2027000000E100E0024A136823F010031360704710A40D40024B1868003018BF0120704734
:2027200040A00D4038B51F4A07211368022023F08003136052F8203CFF2443F0800342F88F
:20274000203C082200F05EFB174B05211C60012000F0F2FB002000F075FB144A144D1368EE
:2027600023F010031360134B1968A3F5607321F01001C3F88013116821F001011160D3F83E
:20278000802322F00102C3F880231C6000F026F9A4F6CB54241A2B681BB900F01FF9C4422C
:2027A000F9D438BD20B40D4000B20D4020A40D4020A00D4000A40D4008B50B4B1B7803423D
:2027C00003D0202804D0042804D04FF0004008BD052000E00220054B80211A7800F0D0FB61
:2027E00020EAE07000B208BD0B4C00200A4C0020802810B50C4603D0B0F5807F25D031E0DF
:202800008B1E222B2ED8C943184B1A680A401A60174A13680B401360A20604D501220521A3
:20282000002000F0EFFA630704D501220221002000F0E8FA00F09CFB0E4B30221A700E4B0F
:20284000187804431C70002010BDC8B2102806D001D820B106E0202801D0302802D1054B7C
:20286000187010BD4FF0004010BD00BF20940D4000940D400A4C00200B4C0020084A13685C
:2028800023F00403136052F8203C43F0040342F8203C044B04221A60034B01221A70704794
:2028A00020C40D4010C00D400C4C0020044B1868C0F30720030904BF1030C0B2704700BFB2
:2028C0001C300D4008B5FFF7F1FF014B1B6808BD1C300D40F8B500F081F80F4B0024D3E93F
:2028E00000673A46B04238BF7A1C15460443C3E90045DFF828E0DEE90001821B61EB070345
:2029000012196B41CEE9002301F02CF918B1BDE8F84001F0ABB8F8BD904100209841002057
:202920000D4B0E4AE0215A600D4A82F82310002207219A6019600B490B6843F001030B6002
:20294000094B1A60042243F80C2C012243F8082C0F22DA62704700BF10E000E047E801009B
:2029600000ED00E008200D400C000340034BD3E90023100A40EA0360704700BF904100208B
:20298000034BD3E90023D00B40EA4340704700BF98410020054B18601C3B1A6842F001023D
:2029A0001A601A68D207FCD4704700BF2800034010B5064C236823F001032360FFF78AFFD6
:2029C000236843F00103236010BD00BF10E000E0014B1868704700BFA4410020074B084A6B
:2029E000196804331B681268120442EA0323054A0B43106843EA0060704700BF40500D40C5
:202A000048500D404C500D4010B50446104A1368DB07FCD572B6FFF7E1FF231A062BD8BF4E
:202A2000C41D0C4B220E1A60C4F3074243F8042CC4F3072243F8082CE2B243F80C2C62B6DB
:202A4000054B1C60054B4FF400321A6110BD00BF50500D404C500D40A441002000E100E042
:202A600008B500F019FE094B00221A60084B4FF40032C3F89021C3F89020BFF34F8FBFF3C1
:202A80006F8FBDE8084001F079BA00BFA441002000E100E0064B1B681B075FBF054B1868BE
:202AA00080F00800C0F3C00048BF0020704700BF18C0004018D00040164A2C2303FB00237E
:202AC0004FF6BF7270B5DC680546236C62649BB213F050020DD0104EA369DB0608D456F883
:202AE00025301BB12068C0B29847F5E72368F3E770BD13F4D06F0BD04FF440732363FF23AF
:202B00006360E36AE262E362236B43F00103236370BD00BF80732000A841002001282DE98A
:202B2000F74F064600F2BD802C2545435E4B5C1994F920909846B9F1000FC0F2B28094F998
:202B40002230002BC0F2AD80584800F01BFE584A58F805301168E5680B431360516863683E
:202B600094F921A00B4353609168A36894F822700B4393600023C5F8C83F23690AEBC90270
:202B80001A6094F823305FFA87FB00939DF80030227D19465846019300F03EF9019B08228C
:202BA0001946584600F02EF97FB2424B3F039DF90020F9584FF0010E0EFA02F20A43FA5019
:202BC0004FEA093959F803100EFA0AF20A4349F803205022AA63AA6B94F8240042F4D062B5
:202BE000AA6302226A634FF440722A63A2696A62E269AA627022EA6242B2002A1D4617DBD6
:202C000094F925302C4943EAC2030B6094F82510120353594CB20EFA04FE4EEA0303535194
:202C2000002200F0EFF8254A136843F4004313602C2303FB068393F826904FFA89F4002CBB
:202C40001CDB93F827705FFA89F95FFA87FA012251464846240300F0DFF87FB26359012260
:202C600002FA07F71F43082267515146484600F0C9F8124A136843F4804313602C2303FBAF
:202C80000686F268136B43F00103136396F828300122590903F01F0302FA03F3084A42F825
:202CA000213003B0BDE8F08F80732000952A200028200D4020940D4004410D4030D0004092
:202CC00000E100E001289CBF014B43F820107047A8410020012808D8044B2C2202FB003065
:202CE000C3689A699206FCD41960704780732000014B00221A60704700500D40014B082249
:202D00001A60704700500D40024BA0221A6050221A60704700500D40014B024A9A607047D3
:202D200000ED00E00020200038B5164D164C2B68012223F040032B602368062123F0400335
:202D40002360032000F05EF82B68012223F080032B602368072123F080032360032000F0D1
:202D600051F80A4A0A4B0B491A600A680A4B1340084A002BF9D113685901FCD413685B01B6
:202D8000FCD538BD20C40D4000C40D400101020000200D4004200D40000001012DE9F843F6
:202DA00004464FEA0438DFF83C9008F1804606F5592600F071FCD6F8187458F80930E50053
:202DC00023FA05F447EA0400C0B2E4B2A840FFB2AC4001F0C3FBC6F81C7448F80940BDE8F0
:202DE000F88300BF18970D40034A044B1A60044B803A1A60704700BF80400D40B44100206C
:202E0000B0410020034B01EBC0011B6843F82120704700BFB4410020034B01EBC0011B689E
:202E200043F82120704700BFB0410020012806D8034901220B6802FA00F018430860704740
:202E400018200D402DE9F04F012887B005466BD818235D43364E741994F811904FFA89FAC5
:202E6000BAF1000F60DBFFF7E1FFA77C76594FF00008FBB25FFA89F91946C6F80480227A89
:202E80004846C6F8C88F0593FFF7C6FFE57C227BEBB20193237D019802939DF808B04FEAB9
:202EA0000A3A5946FFF7B8FF637D62680393A37D9DF90CC004939DF910E001200EEBCC01BC
:202EC00011601C4A7FB25AF8021000FA07F70F436DB24AF802702D039DF90810AF5800FA8A
:202EE00001F139434FEA0C3CA9505CF80210059B00FA0EF008434CF80200194642464846E6
:202F0000FFF780FF424659460198FFF77BFF424604990398FFF776FF237C3361C723336031
:202F2000736843F00203736007B0BDE8F08F00BFD873200020940D4038B50B4A0403A35861
:202F400001258D4023EA0503A3500022FFF75AFF064AA3582B43A35004F1804404F559242A
:202F6000FF2344F8253038BD20940D4000940D40024A136843F030031360704700700D40B3
:202F80000E2870B50BD1164B164E1C6844F002051D60356825F03F0343F001033360124EDB
:202FA000336823F0FF031A43114301430F4A316013681B06FCD50E4B0E4A1B6812680E2831
:202FC00003F0FC0343EA022308BF064A9BB204BF1560034A9BB208BF146018B270BD00BF86
:202FE00034000144F486084008700D4000700D400C700D4010700D40024B1868B0FA80F097
:203000004009704700B70840094B4FF4004210B5C3F89021C3F89020BFF34F8FBFF36F8FFC
:20302000044C206818B100F09DFF0023236010BD00E100E0B8410020064A136843F0020313
:203040001360536843F002035360936843F002039360704748200D4007B50C4800F092FB38
:20306000FFF7EAFF0A4B1A6842F002021A6000220192019A0F2A02DC019A0132F8E71A6854
:2030800022F002021A6003B05DF804FBF92F200054200D40064A136823F00203136053687F
:2030A00023F002035360936823F002039360704748200D402DE9F0410E464FEAD0084FEAEE
:2030C000083400F00701012704F180448F4016F00C0304F559246FEA070505D1D4F8103436
:2030E0002B40C4F810342DE0042B0DD1D4F804342B40C4F80434D4F808342B40C4F808347D
:20310000D4F80C343B430EE0082B0FD1D4F804342B40C4F80434D4F808342B40C4F8083456
:20312000D4F80C342B40C4F80C340BE00C2B09D1D4F804342B40C4F80434D4F808343B4337
:20314000C4F8083416F0030204D0022A02D0012A03D104224046FFF755FE16F0800605D144
:20316000D4F810342B40C4F810340AE04EB1D4F810341F43C4F81074054A012303FA08F3CE
:203180001360D4F820341D40C4F82054BDE8F08100E100E0074B93F90020002A08DB064ADD
:2031A000ED211160E32111601A7862F07F021A7001207047104C0020388808400B4A136800
:2031C0009907FCD4094B1B685B065EBF084BED221A60084B1B6813B1054BEF221A60064A89
:2031E0000120137803F07F03137070474C860840388808402C860840104C002010B50A4BC2
:2032000004461B6813F03F0302D0FFF7D7FF012304EB840205492C3A0A600BB1FFF7BAFFDC
:20322000034B1C7010BD00BF488608403C8608408A41002070B52F4E336813F0400307D0C3
:203240002D4D2B68DCB21B0604D52C4BED221A60002070BD042CF8D9023C8C42F5DCE4B218
:20326000032C21D001190139032000F0A9F9631E23491B011943032000F0ACF9032000F0F5
:20328000B3F9032000F0C8F9032000F0D1F90028FAD129681B4B4939C9B219702B681A4D67
:2032A00018062B70D1D506E02B6803702B6843702B688370EDE749B289B2042001F0ACFA32
:2032C0002978032001F07F0101F0A6FA0F4B1B786BB933685A060AD5064B1B681B0603D570
:2032E0000B4800F03FFE02E0044BED221A60204670BD00BF4C860840288808403888084028
:2033000002C0010C0E4C00200D4C00200F4C0020B0400020234B1870002838D0224A136853
:203320001B03FCD5214B1A6842F002021A601A6842F001021A601A681C495007FBD50A684F
:2033400022F001020A601968184A4907FBD4116841F002011160116841F0010111601A682F
:203360005207FCD5124A136823F004031360D2F8A83123F00403C2F8A8310E4B4FF4005281
:20338000C3F89020BFF34F8FBFF36F8F7047084A136843F004031360064B4FF400521A61F0
:2033A000704700BF0F4C002004200D40048808408C86084000E100E02DE9F0412E4F3D7843
:2033C00015F0010555D12D4B01241C605C609C60A3F59323A3F51473F8221A600922C3F804
:2033E0009021152270331A6003F59B230B2203F59E731A60A3F59B23214EA3F5A6731C6070
:203400004023336033684FF07F0843F0200333601C4BD5221D60C3F848809A631A4B18781C
:20342000FFF7ECFE336823F00C033360174BC3F80080174B4FF480421A61022000F0E0F8F3
:203440001449022000F0BCF8032000F0D9F81149032000F0ADF8104B1878FFF75BFF2946A9
:203460000E4800F067FD3B78204623433B70BDE8F0810020BDE8F081104C0020A8200D409B
:2034800024860840088608408A4100209486084000E100E0288808400F4C0020B0400020D3
:2034A00038B503880446CBB140F25D42934203D000230380032038BD194B18781A4628B16A
:2034C0001B7873B1174B1B7858060AD5822908D1137843B1134B1A78520614D440F25D43FE
:2034E0002380012038BD01F04DF901F0DDF88021FFF7A0FE0028EDDD80B201F0B9F80A4BC6
:20350000DB689847E6E700221A70084B1D68FFF755FEFFF751FFAB06E0D0FFF73BFEDDE755
:203520000F4C0020104C0020A47420004886084008B5054B1B7813B9044800F013FD044B3F
:2035400000221A6008BD00BF0F4C0020B040002034880840064B07481A68042A1FBF06493F
:203560000A7842F040020A7000221A6000F0FABC2C880840B0400020104C002010B5094CF7
:2035800040220021204603F0EFF9074B01221A605C60064B4FF480425A604FF400425A606D
:2035A00010BD00BF0040002004F00F4000E100E003289EBF014B00011950704700400020C6
:2035C00003289EBF024B03EB00104160704700BF0040002003289EBF024B03EB00108160ED
:2035E000704700BF00400020032806D8034901220B6802FA00F018430860704728F00F403D
:20360000032806D8034901220B6802FA00F018430860704720F00F40032806D80349012282
:203620000B6802FA00F018430860704714F00F4003289FBF044B03EB0010806800F00700A9
:2036400088BF0020704700BF00400020024B4FF0FF321A60704700BF04F50F40014B0122C9
:203660001A6070474CF00F40094A1368084913F4801FFAD1074B1A6822F480321A600A6876
:20368000D203FCD41A6842F400321A60704700BF04200D4000200D4010B50A4C23689A0786
:2036A0000FD009490B68084A13F0806FFAD113685B01FCD5FFF77CF9FFF7D6FF23680023CB
:2036C000236010BD58200D4004200D4038B5274B1C6814F03F0413D1254D55F8243023B16F
:2036E000984768B10134052CF7D1224D2B783BB1FFF76EF90446FFF771F9201A092801D85B
:2037000030BF38BD002CFBD01B4B1C481A6822F400321A600268194912F4801FFAD11A6802
:2037200042F480321A600B68DB03FCD5FFF756F9201A092803D8BDE83840FFF795BF632888
:203740000F4C02D92B78022B00D00123236000F0BFFB20B1FFF788FF0023236038BDFFF763
:2037600037F90028F6D02368CAE700BF48860840BC410020114C002000200D4004200D40A2
:2037800058200D400749002351F82320824207D01AB9044A42F8230070470133052BF3D16D
:2037A000704700BFBC410020054B00221A60054A136943F004031361034B02221A7070475E
:2037C00058200D4000ED00E0114C0020094B4FF4803210B5C3F89021C3F89020BFF34F8F65
:2037E000BFF36F8F044C206818B100F0BBFB0023236010BD00E100E0D0410020134B1B787C
:203800002BB101F5201127310138114B16E0114A1278122AF5D1104A12784B2AF1D1084474
:203820008B420ADA03F52012032BD4BF2C3224321278013300F8012DF2E77047994204D015
:2038400011F8012900F8012FF8E770472B002800270028002A0028002900280010B54F4CD2
:2038600003F000F9FFF75CF803F0B5F900F0D6FA00214B4800F05EFB00F0E2F9FFF738FAC1
:2038800003F08BF900F08EFBFEF786FD00F07EFE00F0ECFF00F088F92368022B07DD414AE1
:2038A0004149424801F0CEFC414801F0CBFC2368022B09DD3C493B4A3C4801F0C3FC3D4B94
:2038C0003D48196801F0BEFC2368022B09DD3649344A364801F0B6FC384B3948196801F005
:2038E000B1FC2368022B09DD2F492E4A2F4801F0A9FC344B3448196801F0A4FC2368022BBB
:2039000009DD2949274A294801F09CFC4AF6CD312E4801F097FC2368022B08DD2249214A39
:20392000224801F08FFC0221294801F08BFC2368022B09DD1C491B4A1C4801F083FC254BE9
:203940002548198801F07EFC2368022B07DD154A1549164801F076FC204801F073FC236881
:20396000022B02DD1E4800F041F82368022B02DD1C4801F067FCFEF735FD1B4803F003F9E4
:20398000FFF7BCF900F062FA0446FFF7BDF914F0FF0FF7D103F070F8F4E700BFC04000204B
:2039A000C4400020DC7620005276200057762000E1762000D074200017772000C0742000BF
:2039C00026772000A4742000317720003C7720005677200098460020767720008377200045
:2039E0007C4E0020A57920002475200038B5054608B1002409E00948BDE8384001F022BCAB
:203A0000E30702D4064801F01DFC295D0548013401F018FC082CF3D138BD00BF98772000A6
:203A2000A7772000A977200010B50E4C236813B90D4A136010BDFEF799FF216891E80C0060
:203A40001A44131A8A6842B192E812002144091A8B4228BF0B469268F5E71844024B1860E6
:203A600010BD00BFD4410020D8410020014800F079BA00BFC44000202DE9F84303880546D6
:203A800033B1592B0BD0002303800320BDE8F883234A136059232B800120BDE8F883872902
:203AA00024D08229F6D11E4F4FF00008B9463C680026002CEED0204603F096F898B12246A1
:203AC0008821E06800F00EFA58B9E060A3680EB1B36001E0C9F80030C4F80880FFF7A4FF20
:203AE000E5E7FFF7C3FF2646A468E2E70C4900200B681BB90028CDD00B60CBE7DC68A2423B
:203B000002D19B680120F4E700B10B6099680029C0D0C86882420ABF89680B469960F5E729
:203B2000D441002010B50446FFF7A0FFE3680B4A4BB113683BB1A34203D1094A1268DA60E9
:203B400007E09B68F6E7064B1B68E36013681460A360BDE81040FFF767BF00BFD441002090
:203B6000E0410020024B1868003018BF01207047D441002010B50B4A04461368834206D1A8
:203B80008368136008E09A68944203D01346002BF9D103E0A2689A60FFF746FF0023A3609E
:203BA000E36010BDD4410020034A9179D379034A03EB0123138070477C4E0020984600208C
:203BC000F8B50388064615462BB14A2B15D0002303800320F8BD174803F021F804462CB1C0
:203BE000A168201D02F0DAFF2468F8E7124B01221A704A2333800120F8BD8829FBD10D4877
:203C000003F00DF80446002CF3D0231D9D420ED12146084803F00DF8084B62691F681A60A7
:203C2000A2691D460AB1E06990472F60E1E72468E9E700BFDC410020124C0020E0410020CD
:203C400010B5064B002406481C7002F0E5FF2146BDE81040034800F06DB900BF124C002080
:203C6000DC410020D440002070B50446E3610B4B049D1B786561A26143B1094D094B2E6899
:203C8000201D2B6002F08AFF2E6000E0A1602146BDE87040044802F0DFBF00BF124C00209D
:203CA000E0410020D4400020DC41002013B5034C24680094FFF7D8FF02B010BDE04100208E
:203CC00010B5084B04461B781BB10430FFF752FF01E0C36003612146BDE81040024802F0A8
:203CE000A8BF00BF124C0020DC41002010B50A4B04461B7823B1BDE81040043002F060BFDE
:203D0000064802F08CFF18B1A04203D00068FAE7012010BD002010BD124C0020DC4100207B
:203D200038B5836804460D469BB10A4804600220A07304F10C0098470238012801D9832D0A
:203D400005D121462046BDE8384000F005B80123A37338BDE04100202DE9F8431C4A044685
:203D6000156889462B4690461A4E3768A34204D00BB11B68FAE7BDE8F88334B3A37BABB14F
:203D80000023A37345B1A54204D022468721284602F01BFF2D68F5E7A3683BB14C4505D0E1
:203DA00034602A46832104F10C009847D8F800309C4203D12268064B05E0134623B11A685A
:203DC0009442FAD122681A603760BDE8F88300BFE4410020E0410020002370B51D46094A44
:203DE00001261370084A146854B1E37B33B1A673E573002282212046FFF792FF2468F3E77B
:203E000070BD00BF154C0020E4410020024B1878421C1A70704700BF164C0020064B8A2236
:203E20001A70064A00231370054A1370054A1360054A1360704700BF164C0020134C002035
:203E4000144C0020E4410020E04100202DE9F0411A4D2B780BB1FFF7BFFF194C22783AB3AF
:203E6000184E0C213378184F5943781817F8018001334768806803F01F03013A3370227091
:203E800068B9124B1E689EB12B780BB1FFF7A4FF30463A46414602F098FE3668F3E7B8F1B1
:203EA000810F04BF012383733A46414602F08DFE2B7820781844BDE8F08100BF154C002024
:203EC000144C0020134C0020E8410020E4410020024A034B10781B7818447047144C00200D
:203EE000154C0020F0B50B4E3378202B0FD00A4C0C252478094F1C4404F01F046C43013399
:203F00003D19A86039556A6033700020F0BD0120F0BD00BF144C0020134C0020E8410020A6
:203F200038B5034C256802F050FE256038BD00BFE041002030B40A4C0A4625682B468342B1
:203F40000CD00BB11B68FAE740B101210560817320608381812130BCFFF7E2BF30BC7047AD
:203F6000E441002038B1837B013B012B9FBF024A0123C37313707047154C002010B5084CD5
:203F8000206858B100232360816843689847236823B1BDE810401868FEF736BD10BD00BF2F
:203FA0006843002082B0074B02AA42F8043DCD21934202D203F8011BFAE70348002102B0DE
:203FC000FFF7B8BF8C4E0020E440002038B5FEF79BFE0C4C0C4B22780B4DCD2A06D09C426F
:203FE00007D20134F7E7AC4203D201342378CD2BF9D0FEF789FEAC423ABF0348001B4FF079
:20400000FF3038BD8C4E00209056002070B5038805462BB1912B0BD000230380032070BD18
:204020004FF4A0611B4802F0B9FD91232B8003E0184802F0C5FD08B9012070BDFFF7C6FF11
:20404000154C164B061EA3EB040401DB002C0CDA134B1B68002B18DD124A1349134801F0F1
:20406000F1F82246314612480DE0A6420DDD0C4B1B68002B09DD0B4A0B490C4801F0E2F8AC
:20408000224631460B4801F0DDF8024802F08FFDCBE700BF6C4300208C4E00209056002020
:2040A000C0400020457820004B782000577620004F782000797820002DE9F041068805461B
:2040C000772E31D07E2E40D0002E4ED12B4CFFF79DFE266026462A4B2A4FDFF8B0801870BA
:2040E000236857F823204AB1002108F80310936880209847336801333360F1E7224A1370D1
:20410000772320E0214AD256002A12DB1B4A136801331360194B1C4A1B6812789A42F1DC54
:204120001B4B1B68002BEBD0194A00231360134AEFE7144A002052F82320114B1978FFF796
:20414000D1FE30B97E232B8014E00D4B1B788B4210D10A4B0D491A688B5C03F07F038B5466
:204160000B4A136801331360D0E7002303800320BDE8F0810120BDE8F08100BF7C4300205D
:20418000874E0020A4400020174C0020844E002080430020054A136843F004031360044B08
:2041A0001B68906943EA002080B2704700700D4014700D4010B5184A136823F00C03136088
:2041C000164B01221A601A68012AFCD1144B08221A60E322C3F8142203F505731946114A44
:2041E0001368DB07FCD5104C102000232268013802F0010243EA02034FEA43039BB2F5D166
:20420000002BF1D0094A180A03F0FE0310601360EF230B6010BD00BF00700D40A8200D408B
:2042200024860840648608409C86084014700D4010B5044690F84C30084A013380F84C3092
:20424000802103462030FFF731FD054B2246BDE8104019780020FFF745BE00BF3142200057
:20426000894E002070B503880446C3B1B3F5867F03D000230380032070BD822912D102F0E3
:204280002CFCBFF35F8F114B00221E681A60BFF35F8F02F026FC0E4D55F8040F20B94FF44D
:2042A00086732380012070BD90F8453026FA03F3DB07F1D5FFF71AFD0028EDD02B68054A85
:2042C00002211846FFF7F2FCE6E700BF8443002098400020F1422000034A13681843106028
:2042E0000248FFF73FBE00BF844300200441002070B50446FFF7FAFC20B304F120063046B7
:20430000FFF7F4FC0546204602F02EFD01280CD1C5B1002523460C4A84F84C507E2130465C
:20432000FFF7C4FC2246094B06E058B955B93046FFF7C6FC2246064B2846BDE870401978CB
:20434000FFF7D0BD70BD00BF314220008A4E0020884E0020F8B5FFF759FD304B304D1870F4
:20436000FFF754FD2F4B304C1870FFF74FFD2F4B2F4F18700023AB602E4B01266B60216894
:20438000002943D091F84530886C2B4AD90809030A44116803F0070306FA03F321EA0303C2
:2043A00013602368254A93F84530D90809030A44116803F0070306FA03F321EA0303136065
:2043C000236840F08C0193F84500FEF773FE23681B4A93F84530D90809030A44116803F0C8
:2043E000070306FA03F30B431360236893F84530DB0806FA03F33B6054F8043B93F8453072
:2044000006FA03F2AB681343AB60B8E70D48FFF791FDBDE8F840024800F09AB88A4E00205A
:2044200088430020884E00209C400020894E002000E100E0D942200020940D4000940D40CA
:2044400010940D400441002070B505880446672D09D0792D32D0002D36D1FFF7D7FC1D4B90
:2044600018701D4B1D601C4D2E461C4802F06CFC431C01D167231FE00A28174A09D00D28D9
:2044800007D02B687E2BF0DC5A1C3260144AD054EBE713680025591C1160114A2846D55469
:2044A0000C4B1978FFF71EFD0E4B2A4685211868FFF718FD20B97923238009E0852907D182
:2044C000054B00221A60CEE700230380032070BD012070BD8B4E00209C4300209443002008
:2044E000994C0020E041002038B50D4C01462378254633B90B4802F014FC60B901232370D2
:2045000009E00A2801D00D2805D1064802F009FC08B100232B700448FFF724FD012038BD6F
:20452000984C0020944300201441002008B505490548802202F0EEFBBDE8084000210348DD
:20454000FFF7F8BC184C002094430020144100200146014802F080BBA043002038B50546C9
:20456000064802F05CFB04463CB1A068284002D0636803B198472468F6E738BDA04300206C
:20458000014802F049BB00BFA043002008B5044802F079FBBDE80840024802F074BB00BF94
:2045A000304100202441002038B50E4802F07BFB0446A8B10C4802F076FB0546206028B934
:2045C0002146084802F083FB284638BD00F074F805F19C01A5F8800005F1820000F0F8F8ED
:2045E000204638BD244100203041002010B501460446074802F080FB48B12168054802F077
:2046000066FB2146BDE81040014802F060BB10BD244100203041002010B5014604460948FD
:2046200002F06AFB68B12468B4F88010204600F0B9F804F19C0104F18200BDE8104000F04D
:20464000D9B810BD2441002010B507490B88834208DB064C80B222880244181A0880228057
:20466000012010BD002010BDFA4B0020FC4B0020014B1880704700BFFA4B002000487047D5
:20468000C4430020014B1888704700BFFA4B0020034A044B10781B781844C0B2704700BF31
:2046A000294D0020FC4B002008B5FFF7F1FF014B184408BDC443002070B50D4D0D4C2A784C
:2046C000238806461344802B0FDC0B4902F0D6F82B781E44FFF7E8FF22880146304602F0A7
:2046E000CDF828782388184470BD002070BD00BF294D0020FA4B0020C443002008B5FFF740
:20470000C7FF024B1B88184480B208BDFA4B002038B50146FFF7F2FF4318802B11DC0A4AC9
:20472000013880B2541803B2002B04DBD55C0138E55480B2F7E7054B01201A78114419704F
:2047400038BD002038BD00BFC4430020294D002038B5094D094C1A220021094802F004F99E
:204760002946204602F01BFB294604F10800BDE8384002F014BB00BF2C752000524E0020D2
:20478000624E0020044A00231380044A1380044A1370FFF7DDBF00BFFC4B0020FA4B002076
:2047A000294D002038B50C460546FFF7EBFF802C28BF802422462946034802F05FF8034B09
:2047C00020461C8038BD00BFC4430020FA4B002010B50C461A22054902F050F82046BDE8B1
:2047E00010401022024902F049B800BF624E0020524E002010B50C461A220146044802F0D2
:204800003DF82146BDE810401022024802F036B8624E0020524E0020024B23F81010012072
:20482000704700BF624E0020014B33F810007047624E002008B5044B0D3803EBC00002F033
:20484000AEFA012008BD00BF524E0020024B0D3803EBC000704700BF524E00200149024841
:2048600002F0A0BA2C7520005A4E0020054B10B51B689847044B5B689847BDE81040034BB8
:204880005B6818476C742000A4742000C0742000F8B5FEF76BF804460F4F00250D2007EB79
:2048A0000516FFF7D3FF314602F07CFA78B10720FFF7BAFF337B834201D00020F8BDB06806
:2048C000201AB0F5206F8CBF00200120F8BD0135102DE3D1F1E700BF4444002070B5164E3A
:2048E00000240D20FFF7B2FF06EB041102F05AFA114D611C10B910290C46F2D14C1E05EB28
:204900000111A1F110063CB120391022304601F0B5FF013C3146F4E70720FFF785FF28737F
:20492000FEF724F8A8600D20FFF790FFBDE870400146014802F033BA4444002030B591B01A
:20494000054600F063F84FF6FF73984202D14FF0FF3052E040220021684602F005F8284B2A
:204960001A782AB901221A70FFF714FC254B18707DB10720FFF758FF58B9224C23780BB997
:204980000123237021780720FFF746FF237801332370FFF763FF6A46C1B21B4802F060FAD9
:2049A000FFF75CFF28B1FF238DF800308DF8013006E00E20FFF74AFF0146684602F0EFF91E
:2049C0000D20FFF743FF014602A802F0E8F9FFF76BFE0E90FFF756FE0F90684602F02CFB01
:2049E00004464DB1FFF794FE0028B0D0FFF746FE0146684602F069FB204611B030BD00BFE7
:204A00002B4D00202A4D002029482000014B1888704700BF884100202DE9F041012986B0E4
:204A200006460F46144640F3838003A902F097FB0A2203A904F1100001F020FF9DF8113052
:204A40000BB1B51C02E0B378F51CA37602AA01A903A802F04DFA9DF81380B8F1000F23D085
:204A6000029B23B16A7815F8023B03EB0223B8F1020FA38309D13049204602F090F96B788F
:204A8000237015F8023B637014E0B8F1030F11D105F108021346611E13F8010DAB4201F8FE
:204AA000010FF9D1154605E02349204602F077F9A4F81C809DF81580B8F1000F2BD0019BF7
:204AC00053B16A7815F8023B03EB0223029A9BB2E3831AB9A38301E0A38BE383B8F1020F1C
:204AE0000AD1154904F1080002F059F96B78237215F8023B637215E0B8F1030F12D105F11C
:204B000008021346E11D13F8010D9D4201F8010FF9D1154606E0084904F1080002F03FF9B0
:204B2000A4F81E80A81B3B1A8742E363A56300DA002006B0BDE8F0812C75200070B5054615
:204B40000C46102C07D92B68102208496868984750B9103CF5E734B12B68224668680349F5
:204B6000BDE870401847204670BD00BFC97820002DE9F04F064615468FB006914FF0000BB2
:204B8000069B1B78CBB1069C274617F8013B1BB1252B14D03C46F7E7069BA3420DD0069BA7
:204BA0000699C3EB04084246336870689847002840F025832378C34423B958463AE3069BE8
:204BC000A342ECD16378002BF7D039460024084610F8013B0A462B2B11D006D8202B11D0A0
:204BE000232B12D144F0080416E02D2B04D0302B0BD144F010040FE044F001040CE044F05B
:204C0000060409E044F0020406E0A3F13107082F11D84FF0000801E00146D8E70A4611F80E
:204C2000013BA3F13000092813D80A2202FB0838A8F13008F2E72A2B09D12B680246002B10
:204C400005F10405B8BF44F00104984601E04FF0000813782E2B1AD15178531CA1F13000D6
:204C600009280ED8194600270A780B46A2F13000092801F101010DD80A2303FB0727303F2F
:204C8000F2E72A2904D12F68931C043502E013464FF0FF371A786C2A09D15A786C2A02D1A7
:204CA00044F080040AE0013344F0600411E0682A0AD15A78682A03D144F02004023308E07B
:204CC000013344F0400404E07A2A04BF44F0600401331A78642A3CD01FD8462A48D00DD881
:204CE000252A5AD003D8002A3FF467AF57E0412A4AD0452A53D144F4424450E0582A31D02D
:204D000004D8472A4BD144F4A13448E0612A38D0632A44D144F4A06441E06E2A3AD007D8E2
:204D2000662A22D027D3672A28D0692A11D036E0732A2CD006D86F2A11D0702A2FD144F421
:204D400040742CE0752A07D0782A28D144F4C85425E044F4245422E044F410641FE044F494
:204D600088541CE044F4B24419E044F4007416E044F4844413E044F4024410E044F4813444
:204D80000DE044F4C1340AE044F4E13407E044F4806404E044F4E06401E044F4C0640133EE
:204DA000069304F4E063B3F5806F00F08F8113D8B3F5807F27D0B3F5407F7FF4E1AEAE4B9D
:204DC00014F4804FAD4A18BF1A460DF133032868002104351F46B5E1B3F5C06F08D0B3F55E
:204DE000E06F00F02282B3F5A06F7FF4C9AEF2E133680122A24970689847002840F0FF8124
:204E00000BF1010BBCE6002FACBF24F01004012714F40053079304F0E0032ED0402B12D0E7
:204E200005D8ABB1202B21D195F900200DE0602B0ED0802B1AD1073525F0070303F1080506
:204E4000D3E9002307E0B5F90020D317043502E02A680435D317002A73F1000108DA5242FF
:204E600063EB4303CDE90023012304E000220023CDE900230023059329E0402B13D004D8B1
:204E8000BBB1202B1DD12A780EE0602B11D0802B17D1073525F0070303F10805D3E90023A3
:204EA000CDE900230BE02A880023CDE90023043505E02B6800221946CDE900120435079BAB
:204EC000D9E70023059300220023CDE9002304F4C053B3F5805F0CD0B3F5C05F33D0B3F559
:204EE000006F4FD1DDE900230DF13609CDE9022304E0DDE900230DF1360915E0DDE9022338
:204F000013433AD0DDE902010A22002301F0F4FADDE90201303209F8012D00230A2201F0A0
:204F2000EBFACDE90201E9E752EA030125D002F00701303109F8011DD10841EA4371D808BC
:204F40000A460346F0E74C4B14F4804F0DF136094A4918BF1946DDE9002352EA03000CD069
:204F600002F00F00085C4FEA131E09F8010D100940EA037002467346EFE70DF13603C9EBDB
:204F8000030302E00DF1360900230293029B41F60802BB4238BFFF1A41F2080302EA040219
:204FA00028BF00279A4202D1002F08BF012741F60801029B8A4203EB07000DD1DDE90023B1
:204FC000134309D02F4A304914F4804F4FF0020A0CBF0B46134602E04FF0000A5346079AB4
:204FE0009AB1059A52B904F00602022A0AD0062A264A04BF4FF0010A134606E04FF0010A84
:20500000234B02E0234B4FF0010A0AEB000290458CBFC2EB08084FF0000814F001020092D4
:205020000DD1E10602D54744904608E0414630460593FFF783FD059B002840F0E080BAF17D
:20504000000F07D03468524619467068A047002840F0D580029B03EB0B04BB46BBF1100F05
:2050600033681BD910220C4970689847002840F0C680ABF1100BF1E7E9782000FA78200023
:205080001C7920000E7920000B7920001379200011792000C3792000D9782000BBF1000F32
:2050A00006D05A46654970689847002840F0A7803368029A4946706854449847002840F029
:2050C0009E80009B3C44002B39D032E0D5F800900435B9F1000F0AD0CA469AF800300AF15B
:2050E00001020BB19246F8E7C9EB0A0A03E0DFF850914FF0060A002F02DBBA4528BFBA4696
:20510000D0458CBFCAEB08084FF0000814F0010705D141463046FFF711FD00286FD133683D
:205120005246494670689847002868D10AEB0B042FB141463046FFF701FD00285FD108EB10
:20514000040B1DE550EA010E0ED000F00F0E12F80EE04FEA111C03F801ED4FEA101E4EEA24
:20516000017E70466146EDE7FF1A02BF3022012703F8012C07F1030708BF03F1FF3378227A
:20518000B84503F8012C4FF0300203F8022C88BFC7EB08084FF0230298BF4FF0000814F041
:2051A0000104A3F1030903F8032C04D141463046FFF7C4FC18BB33683A4649467068984764
:2051C000E8B95F4424B141463046FFF7B7FCB0B908EB070BD4E4B8F1010F2B688CBF08F15A
:2051E000FF384FF0000814F0010405F104058DF8203008D141463046FFF7A0FC10B14FF0EC
:20520000FF3017E0C3443368012208A9706898470028F4D108F101072CB141463046FFF77D
:205220008DFC0028EBD1BB44AAE42B680435C3F800B0A5E40FB0BDE8F08F00BFD9782000A1
:20524000157920000FB407B504AA52F8041B04480192FFF78DFC03B05DF804EB04B070474A
:205260003C41002010B504462B2001F0E5FF6300233303F03F0300F0C00119432B2001F02B
:20528000C4FF014B1C7010BD304E002010B501F0B5FFC0B1602801D13A2002E0702803D12B
:2052A0003B2001F09FFF0EE0362001F09BFFFDF795FB6FF4A374241A01F0A0FF18B1FDF7AC
:2052C0008DFBC442F8D40D4A6FF4A374137823F004031370FDF702FA3A2001F083FF34206A
:2052E00001F080FFFDF77AFB241A01F087FF102803D0FDF773FBC442F7D410BD314E002076
:2053000010B51A4C23785B060CD52378332023F04003237001F066FFFDF760FB6FF4A3748F
:20532000241A0CE0FDF72CFB114B1B68C01AB0F5617FEAD210BDFDF751FBC44203D501F052
:205340005DFF4028F7D1FDF749FB6FF4A374241A03E0FDF743FBC44203D501F04FFF002877
:20536000F7D1FDF70DFB024B186010BD314E00204445002010B5FFF7C3FF0E4A3A201378D5
:205380006FF4A37423F00403137001F02BFF342001F028FFFDF722FB241A01F02FFF1028C9
:2053A00003D1BDE81040FDF799B9FDF717FBC442F3D4F6E7314E002010B50E4B1B889BB281
:2053C000002B14BF0120002012D10B4C23787BB9237842F6D7700133DBB2237001F02CFFFB
:2053E0002378003003F1FF33DBB218BF0120237010BD00BFFE4B0020AE4D002070B5164D0C
:205400002B7803F0020303F0FF001BBB134C23780BBB23786FF4A3760133DBB22370FDF70A
:205420009DF8FDF7DBFA361AFDF774F968B9FDF7ABF803200621287001F0E7FEFFF79AFF5E
:205440002378013BDBB2237004E0FDF7C7FAC642EAD4ECE7012070BD314E0020AE4D00201B
:2054600008B5094B1B7803F00A03022B01D0002008BDFDF74FF9012805D0044B1B889BB22C
:20548000002BF4D0012008BD314E0020FE4B002038B5234A3A2013786FF4A37423F004035C
:2054A000137001F09FFE2621032001F0AEFE352001F098FEFDF792FA241AFDF72BF90128F9
:2054C00003D1FDF727F928B111E0FDF787FAC442F3D4F6E742F6D67001F0AEFE38B101F006
:2054E000D0FE0621032001F090FE012038BDFDF775FA04460B4DFDF70DF948B9FDF70AF908
:205500000128ECD00621032001F07FFE002038BDFDF764FAEB682344C01A0028EBDBEDE731
:20552000314E002034742000F8B5154D0A462C88A4B21CB32B8813499BB20B4413F9024CC7
:20554000114B124E93F92C30234433802B882C889BB2A4B2023C944210DC0B4413F8017CAC
:20556000224601F08BF90023318804202B80FFF753F907F07F010320FFF74EF92046F8BD6F
:20558000FE4B00202C4D002034742000044C0020CB1E7A2B73B506460C461BD80F4B02AD81
:2055A000198025F8021D01F06CFE0D4A3A20137823F00403137001F015FE3B2001F012FE82
:2055C0000121284601F08DFE3046E1B201F089FE002000E0012002B070BD00BF024C002011
:2055E000314E00202DE9F043744D93B02B782F4603F0FF04DFF8E8814BB198F800307048FD
:2056000043F0200388F80030FEF7ACFCCAE098F8003023F0200388F800302B780133DBB233
:205620002B7001F0EBFD00F0EF0060281DD042F6D77001F001FE064620B92B78013BDBB2A2
:205640002B70B8E098F8003003F0040303F0FF04EBB9DFF874910121484601F031FEB9F866
:205660000030022B01D97D2B07D9FFF70FFE2B782046013BDBB22B709DE0524B701E1C80B7
:2056800098F80030C6B243F0040388F8003098F80030590740F18A804A4C4B4D20882B8804
:2056A000321802339A427FDCDFF82C813146404401F006FE20882B88304481B202339942AE
:2056C000218073D108EB010313F9013C002B6BDA3E4D2B889BB2002B66D102AE324640469A
:2056E000FFF79AF9002849D0394B1A68984612F0010F04D1D8F800309A0715D510E09DF805
:205700001830022BF6D09DF81F30022B0CBF0223082313F1FF33EDD3F25CFF2AF9D026E0E6
:205720009DF81820012A01D0022027E09DF81B20002AF9D0DB0713D402238DF804300023EA
:205740008DF805309DF822308DF8063001F099FD032101A8FFF71CFFFFF79AFE03200DE0EA
:205760001C49304601F01EFB0028E5D1DCE71949304601F017FB0028BCD10120023801288F
:2057800012D8238814492B802A88144892B201F075F8FFF77BFD0A48FEF7E4FB3B78013B39
:2057A000DBB23B70012006E0FFF770FD3B780020013BDBB23B7013B0BDE8F083AE4D00200A
:2057C00044410020004C0020064C0020FE4B00204C4500207C4E0020B04D00202C4D00208C
:2057E000314E002038B5184D2B789B072AD5174C23780BB1002038BD23780133DBB22370B6
:2058000001F03FFD42F6D77001F016FD60B12378013BDBB22370FFF7E5FE2378002BE9D177
:2058200023780133DBB223703221032001F0EDFC392001F0D7FC23780120013BDBB22870EF
:20584000237038BD012038BD314E0020AE4D0020404A2DE9F34792F8281092F82950924679
:205860006B1A013390FBF3F404FB1300C4B20F19FFB2B94268D8BD4266D3374DDFF8E88066
:205880002B7863B1354B36481F7098F80030012643F0100388F80030FEF764FB55E098F8CE
:2058A00000301A07EED4FFF7DBFD06460028E9D198F8003023F010029B0788F8002004D4DA
:2058C000FFF79CFD4FF0010900E081462B780133DBB22B7001F0D5FCDAF8243042F60E70AC
:2058E0005C434FF47A73B4FBF3F1DAF820300B4440F271211B03B3FBF1F10191C9B201F065
:2059000084FC9DF8051042F60D7001F07EFC9DF8061042F60C7001F078FC124B1F70B9F1E3
:20592000000F07D198F8003043F0400388F80030FFF720FD2B78013BDBB22B70B9F1000FC7
:2059400003D0FFF74FFF00E00226304602B0BDE8F08700BF34742000AE4D0020AD4D002028
:2059600044410020AC4D0020314E002010B50C46072836D8DFE800F00410353516181B2ACE
:20598000012902D1FFF73AFD1EE009B1022010BDFFF728FF204610BDC8B2FFF759FF0228F4
:2059A00012D1F3E7104B00E0104B1C600CE0104B93F92A106FF00F038C42A8BF0C469C4235
:2059C000B8BF1C460B4B1C70002010BD7F2905DC6FF07E039942B8BF1C4600E07F24064B2E
:2059E000F1E7012010BD00BF4C4500204845002034742000AB4D00202F4E002070B50C46D0
:205A000000297BD018287BD8DFE800F00D187A7A1D1F222428527A7A7A7A565A5E617A657D
:205A2000676D70737600374B1B7803F0020303F0FF000BB1012303E0086070BD324B1B78D2
:205A40002360002070BD314B00E0314B1B68F7E7304B00E0304B93F90030F1E7294B1B78CC
:205A60009A0703D4FFF7CAFC012600E00026FCF7B5FF6FF4A3752D1A42F6727001F0DCFB7A
:205A800083070DD542F6717001F0D6FB234B40B293F92C500544ADB23EB1FFF7A3FE04E045
:205AA000FCF79CFFC542E7D4ECE72DB22560C8E71B4BB3F90030C3E7184B93F82830BFE7D8
:205AC000164B93F82930BBE76FF00F03B8E7134B93F92A30B4E70323B2E7104B1A6B114BF5
:205AE000B3FBF2F3ACE70D4B5B69A9E70B4B9B69A6E70A4BDB69A3E77D23A1E7022070BD53
:205B0000012070BD314E0020AC4D00204C45002048450020304E0020AF4D0020347420009F
:205B2000044C002000127A00F8B5214D2B7803F0FF06002B39D11F4B1B789A0702D4FFF714
:205B40005DFC01262B780133DBB22B70FCF7E2FD012820D0184B194F1C783B789C4204D017
:205B60002146172001F051FB3C70FCF737FF6FF4A3773F1A42F6727001F05EFB8307044667
:205B800004D584F00404C4F3800405E0FCF726FFC742EFD4F5E700242B78013BDBB22B70A5
:205BA0000EB1FFF71FFE2046F8BD0020F8BD00BFAE4D0020314E00202F4E0020AF4D0020F1
:205BC0002DE9F041334B1B8883425FD1324C237843F0080222709A0703D4FFF70FFC0127DF
:205BE00000E000272D4B1B68DB070CD5FFF79CFF48B90FB1FFF7F6FD2378022023F00803CA
:205C00002370BDE8F081264E33780133DBB2337001F037FB234B244A93F9003092F9000012
:205C2000834201D0FFF71EFB0FB9FFF769FBFFF72FFCA8B9FCF7D2FE0546DFF8708001F055
:205C4000DDFA102803D1FCF749FD002510E0FCF7C5FED8F810302B44C01A0028EFDBF2E739
:205C60002FB9237843F040032370FFF783FB01253378013BDBB233700FB1FFF7B3FD2378E6
:205C8000284623F008032370BDE8F0810120BDE8F08100BF024C0020314E0020484500201F
:205CA000AE4D0020304E0020AB4D0020347420002DE9F0414E4B1878984610F0010440F0C8
:205CC00094804C4F3B780133DBB23B70FCF72AFD2046FCF7C5FC484CFCF740FC3020FCF7BC
:205CE00059FC642000F0E1FEFCF74EFC25896668AD08002E6ED194F82C10182001F085FAB1
:205D00002621002001F081FA2621012001F07DFA0621032001F079FA1F2001F08DFA00F08B
:205D2000E7011F2001F071FA292001F085FA00F0CF0141F03F01292001F067FA2A2001F020
:205D40007BFA00F0CF0141F030012A2001F05DFA0021262001F059FA272001F06DFA40F0A0
:205D60000101C9B2272001F050FA282001F064FA00F09F0141F02001282001F046FA1F4BC8
:205D800003221A601E4B01221A6094F82A001D4B187040B2FFF766FA94F82B401A4B2146AD
:205DA00017201C7001F031FA184B002118481C70FEF7C0F898F800301A2043F0030388F834
:205DC00000303B78013BDBB23B70FFF741FDFFF709FD0AE00436002D8DD016F8021C36F834
:205DE000040C01F012FA013DF4E70120BDE8F081314E0020AE4D0020347420004C45002013
:205E000048450020AB4D00202F4E0020AF4D002044410020822970B505460E4626D11C4B92
:205E20001A781C4602F02202222A01D1FFF7DAFB2378DA0603D5174B1878FFF709FD164BCD
:205E40001B685B0712D4154B1B889BB273B1FEF799FCFEF729FC8021FFF766FB002805DD5D
:205E600080B2FEF705FC0E4BDB6898472A8840F2622312B19A4202D003E02B8005E0832E81
:205E800003D100232B80032070BD012070BD00BF314E0020AD4D00204C450020FE4B002030
:205EA000A474200010B501210C20FEF7B5FCBDE81040014B5B68184728742000014B9B6883
:205EC000184700BF28742000014B1B6A184700BF6C742000014B5B6A184700BF6C742000CA
:205EE0000C4B13B51B6898470B4B044601A918209B6A984701280AD0002C0198B8BF152443
:205F00008028D4BFC4EB0000C4F1800000E0002002B010BD287420006C74200007B5064B1A
:205F200001A918209B6A984718B900F019FAFFF7CBFF03B05DF804FB6C74200007B5FEF74F
:205F4000A1FB032823D0FFF7B9FF00281FDB0E20FEF77CFC0F4900F025FF38B10D20FEF7A5
:205F600075FC0C4900F01EFF88B904E0FEF776FC0028F3D10BE0FEF78BFC40B9FEF7AEFCD7
:205F8000054B9B68019303B05DF804EB184703B05DF804FB7C4E0020C074200070B590F8D2
:205FA0002D400122012CD4BF03340524054602FA04F4FEF7EFF8013CB0FBF4F12B4601FBDC
:205FC0001401034A05F10C00BDE87040FDF76EBE596020002DE9F0470D4614468B6880465C
:205FE00093E8C000506B92F82C9000F022FE6868FEF7FCFAA968144800F069FE294613480C
:2060000000F065FE606B00F00AFE40B1002384F82C3084F82D302046FFF7C0FF0BE004F1AA
:206020000C00FDF74DFE2146094800F002FE2146084800F04CFE4B46424639463046BDE8C9
:20604000F04700F0B7BE00BF5441002060410020B04500206C4100202DE9F74F04460028BF
:2060600000F0D980406B00F0DAFD0546002800F0D2804068FEF7D0FA68490D20FEF7DAFBA1
:2060800001210820FEF7C8FBFFF70CFF0028C0F2C080FEF7F3FA624E90F802807768FEF773
:2060A000EDFA8146FEF72AFB01464846B847FEF7D5FBD6F818908246C847002860D1BAF12E
:2060C000000F0BD0B768FEF719FBB8470746FCF785FC6FF0A20BC0EB0B0B04E0F369984702
:2060E00000284DD1EEE7FCF779FC1BEB000FFAD417F0FF0704D0022F0CBF0120042040E0F8
:20610000BAF1000F01D000203BE0FCF767FC6FF0A20AF769C0EB0A0AB84710B1C84740B971
:2061200005E0FCF75BFC1AEB000FF5D4F6E7B84730B1FCF753FC6FF01409C0EB090909E032
:20614000736998470028F4D009E0FCF747FC19EB000F02D5B8470028F7D0B84708B90220BF
:206160000FE03369032101A89847032808D19DF80600B0EB080018BF01200028C3D000E013
:206180000120AA68002A46D003283DD8DFE800F0021B0B4394F82C300020013384F82D0045
:2061A00084F82C3030E0002384F82D3094F82C300133DBB284F82C30127A9A421DD82246B5
:2061C0002946022022E094F82D300133DBB2052B83BF002384F82D3094F82C3084F82D3053
:2061E00084BF013384F82C3094F82C10137A994203D322462946012008E02046FFF7CEFE42
:20620000686800F0C6FD06E022462946FFF7E2FE01E00520B5E703B0BDE8F08F7C4E002005
:206220006C7420002DE9F04107460E208846FEF70DFB454B05461A78444C22B901221A704C
:20624000FDF7A8FF2070237813B9404B01221A70217807204B1C2370FEF7DEFA01210C209F
:20626000FEF7DAFA3A4800F0DAFC044640B12946201D00F097FDD8B9204600F001FDF4E7E2
:20628000344800F010FD044640B32946201D00F086FD002304F13000606384F82C3084F8CA
:2062A0002D30236300F0B8FC2146294800F0D4FC606B00F0DEFC072810DC274800F0F3FCC1
:2062C000054698B9606B00F0D4FC38B92146204800F0AFFC21461F4800F0F9FC4146384684
:2062E000BDE8F0410123062200F064BD1B4800F0DAFCA86008B3FEF757F96860C8B10620D3
:20630000AE68FEF791FAC0B208B1307201E00823337286E880012946606B00F09DFC606BEC
:2063200000F07DFC85420DD12046BDE8F041FFF735BEA968094800F0CAFC2946064800F065
:20634000C6FCBFE7BDE8F081434E0020324E0020B04500206C410020604100205441002016
:2063600008B5054800F08FFC044800F08CFCBDE80840034800F087BC6041002054410020F3
:206380006C410020014B00221A6070478446002010B50446FEF7F6F90B4B19880B4B1868E7
:2063A000FEF700FA0CB1214600E009490E20FEF741FA08490D20FEF73DFA074B00210846CF
:2063C0009B689847012010BD504E00204C4E00202C7520007C4E0020A47420002DE9F0414B
:2063E0000C4B1C68A4B1FEF75FF90546FEF74AF906460D20FEF72AFA07460E20FEF726FA7B
:206400003A46034631462846A446BDE8F0416047BDE8F0818446002038B5038805466E2B0B
:2064200012D07B2B25D0F3B9284A294B03211A60284B29481980FEF705FF4FF420712748F6
:2064400000F0ACFB6E230CE0244800F0B9FB70B11E4B07221A704FF49641204800F09EFBD0
:206460007B232B8003E000230380032038BD012038BD1A4800F0A4FB0028F8D0184C0221B4
:20648000A36881209847636801209847154C81B220801548FEF7D6FE22880C4CD1B213486C
:2064A000120A6170A270FEF7CDFE094B03221C60084B21781A800E48A3786278FEF7C2FEA2
:2064C0000C4B0020DB689847C5E700BF464E00204C4E0020504E00206179200088460020A4
:2064E00060732000084C0020767920008B792000A7792000C074200053B94AB9002908BF6F
:2065000000281CBF4FF0FF314FF0FF3000F082B9ADF1080C6DE904CE00F006F8DDF804E0EF
:20652000DDE9022304B070472DE9F04F8C460C460546099E002B4FD18A4217466BD9B2FA36
:2065400082FEBEF1000F0BD0CEF1200520FA05F501FA0EF345EA030C02FA0EF700FA0EF5F2
:20656000390CBCFBF1F0BAB201FB10C300FB02F84FEA154C4CEA0344A04509D9E41900F142
:20658000FF3380F02881A04540F2258102383C44C8EB0404B4FBF1F301FB134C03FB02F29E
:2065A000ACB244EA0C418A4209D9C91903F1FF3480F00F818A4240F20C81023B39448A1A62
:2065C00043EA00400021002E63D022FA0EF2002386E80C00BDE8F08F8B4207D9002E56D0EE
:2065E000002186E811000846BDE8F08FB3FA83F1002940F09380A34202D3824200F2FE800E
:20660000851A64EB03039C460120002E41D086E82010BDE8F08F12B90127B7FBF2F7B7FA43
:2066200087FEBEF1000F36D1E41B4FEA17481FFA87F90121B4FBF8F308FB134409FB03F2D1
:206640004FEA154C4CEA0444A24207D9E41903F1FF3002D2A24200F2D3800346A41AB4FB8B
:20666000F8F008FB104809FB00F9ACB244EA0842914507D9D21900F1FF3402D2914500F2A3
:20668000BA802046C9EB020240EA03409BE731463046BDE8F08F07FA0EF7CEF1200C24FA93
:2066A0000CF34FEA1748B3FBF8FA1FFA87F908FB1A3520FA0CFC04FA0EF40AFB09FB4CEA57
:2066C000040C4FEA1C4242EA05439B4500FA0EF50AD9DB190AF1FF3280F08B809B4540F232
:2066E0008880AAF1020A3B44CBEB0303B3FBF8F008FB103300FB09F41FFA8CFC4CEA0343BF
:206700009C4207D9DB1900F1FF326ED29C426CD902383B441C1B40EA0A418BE7C1F1200E8B
:206720008B4022FA0EFC4CEA030C24FA0EF74FEA1C49B7FBF9FA1FFA8CF309FB1A7720FA76
:206740000EF88C400AFB03F548EA04044FEA144848EA0747BD4202FA01F200FA01FB09D955
:2067600017EB0C070AF1FF3041D2BD423FD9AAF1020A67447F1BB7FBF9F509FB157705FB94
:2067800003F3A4B244EA0747BB4208D917EB0C0705F1FF3027D2BB4225D9023D674445EA0C
:2067A0000A40A0FB0289FF1A4F4545464C4614D329D066B3BBEB050367EB040707FA0EFE8E
:2067C000CB40CF404EEA030386E888000021BDE8F08F2346F3E61846DAE6B8EB020569EBC8
:2067E0000C040138E5E70546D9E7104692E78246C0E7924678E702383A4443E7084604E7E9
:20680000023B3C442AE7C345E7D33C46D1E73146BDE8F08F704700BF032A70B426D940EA23
:2068200001039B0711D004780D78AC4222D10244431C05E013F8014B11F8015FAC4219D1CD
:206840009342F7D1002070BC70470C4603461E6825681846AE42214603F1040304F104043D
:20686000E1D1043A032A18462146F0D8002ADAD11046E8E7601B70BC704700BF844641EA62
:20688000000313F0030349D1403A23D30B6803604B6843608B688360CB68C3600B69036132
:2068A0004B6943618B698361CB69C3610B6A03624B6A43628B6A8362CB6AC3620B6B03630C
:2068C0004B6B43638B6B8363CB6BC36340304031403ADBD230320BD30B6803604B684360B0
:2068E0008B688360CB68C36010301031103AF3D20C3205D351F8043B40F8043B043AF9D2BE
:20690000043208D0D2071CBF11F8013B00F8013B01D30B8803806046704700BF082A13D31E
:206920008B07B1D010F00303AED0C3F10403D21ADB071CBF11F8013B00F8013BA4D331F843
:20694000023B20F8023B9FE7043AD9D3013A11F8013B00F8013BF9D20B7803704B7843704A
:206960008B7883706046704770B4840746D0541E002A41D0CDB2034602E0621EE4B3144637
:2069800003F8015B9A07F8D1032C2ED9CDB245EA05250F2C45EA054519D9264603F1100210
:2069A000103E0F2E42F8105C42F80C5C42F8085C42F8045C02F11002F2D8A4F1100222F044
:2069C0000F0204F00F041032032C13440DD91E462246043A032A46F8045BFAD8221F22F0F8
:2069E00003020432134404F003042CB1C9B21C4403F8011BA342FBD170BC70471446034604
:206A0000C2E700BFFEE708B5FBF740FCF7B500240646254627463046FBF72AFD0197019B87
:206A20009D4204DD00BF019B01330193F7E73046FBF74EFDC5F5C8750197019B9D4204DDF7
:206A400000BF019B01330193F7E70134B4F5487F06D0B4F5C87FCCBFC4F548752546DAE79D
:206A600003B0F0BD08B500F00FF8FBF755FDBDE808400120FFF7CABFFCF728BEFEF7B2BDF4
:206A800001207047FBF7FABE08B5FCF745F9FCF7ABF9FCF749F9FBF743FFFCF785FE00F020
:206AA0009AF8BDE80840FDF76BBD80B2FBF772BFFBF710BF70470020FBF7FEBF0120FBF78C
:206AC000FBBF0020FCF76AB90120FCF767B90220FCF764B90320FCF761B9EFF3108072B696
:206AE000704780F31088704710B50446C1B20020FCF7F0F8204610BD70B505460446461855
:206B0000601B44B1237833B1B44204D01846013400F060FBF4E770BD002070470120704727
:206B200010B50446302200210E20FCF729FA84B1012C0CD142F210730011A0F28E5058437D
:206B40002A2390FBF3F000F5C340283010BD4FF0004010BD002070470120704710B5044653
:206B6000302200210F20FCF70BFA5CB1012C07D140F6F253584347F6F07390FBF3F010BD78
:206B80004FF0004010BD10B5041F54F8040F18B10021FDF7CFF9F8E710BD704710B504464A
:206BA00000F01BF82046BDE81040FCF7BBBF10B5044600F027F82046BDE81040FCF7B2BF2D
:206BC000C068B0FA80F040097047837BDB0701D5FDF7A6B87047FFF76DBF10B541600446E2
:206BE000FBF7C4FE206010BD10B50446FBF7BEFE2368C3F1010303446068834294BF00204D
:206C0000012010BD10B50446FFF7EEFF18B194E80C001344236010BD0023036070470068F7
:206C20007047006800B9704703680BB11846FBE77047036810B573B1002499421A6806D1FB
:206C40000CB9026000E0226000221A6010BD1C460AB11346F1E710BD38B50546FFF7E9FF11
:206C600000230B60FFF7DDFF08B9296038BD016038BD0368002013B101301B68FBE7704783
:206C800000B10068704710B50446428800214068FFF76AFE23886288A0685A43BDE81040F5
:206CA0000021FFF761BE10B5418800238B420CDA4268D418D25C32B9012222700288806864
:206CC00003FB020010BD0133F0E7002010BD30B5826844880023A3420BDA8A4205D142681B
:206CE000D15C31B10020D05430BD058801332A44F1E74FF0FF3030BD82688A4208D8438891
:206D0000008800FB032081422CBF002001207047002070470023013A016002714371837176
:206D2000704710B5427983790479D31A34EA030308D00368995443795A1C037913404371AD
:206D4000012010BD002010BD837942790179D21A0A421FBF0268D25C01330B401ABF83712D
:206D600010464FF0FF30704790F845200121D3081B0303F1804302F0070203F5592301FA6F
:206D800002F253F8223090F844000BB180F001007047006800F19C018230FDF719BD082216
:206DA000FFF76CBD08B50822FFF736FDB0FA80F0400908BD30B40D460446114620B11A4673
:206DC0002846234630BC184730BC704730B591B0FDF76AFC0446FDF755FC6A460146204682
:206DE000FDF71AFE044610B94FF0FF3036E0FDF72BFC0028F8D09DF810100C20FDF70CFD07
:206E00009DF813100820FDF707FD9DF81730ABB1BDF81C50FDF7FAFD854205D04FF6FF7303
:206E2000BDF81C209A42DFD169469DF8170000F0F4F818B969460E20FDF7FCFC02A90D202C
:206E4000FDF7F8FC9DF8153013B99DF81A1001E04FF6FF710720FDF7DFFC204611B030BD45
:206E6000F8B50E461446054600283AD0002A38D00C20A84700232074A37416B1E374637529
:206E800003E00820A8476675E0740920A847002701232376A07567740720A847A076FDF7BD
:206EA000B5FDE0830A20A847012816BF032367766376FDF7ABFDA0830B20A847012801D1F6
:206EC000002303E00EB1022300E00323E375637E022B02D0E37D022B01D1012300E0002304
:206EE0002375F8BD0120FDF729BD0020FDF726BD30B500284ED0037A022B2ED1C479437A85
:206F0000057914B983B9012D0AE003B975B1032C0ED1032B03D1002D3AD1012019E0022B61
:206F200014BF0020012008E0204606E0012005E0022CF4D1181C18BF012005BB0CB1022C39
:206F400005D1023B012B8CBF002301231BE0032C15D19C1E6342634115E00378022B10D0D0
:206F600003792BB9437A13F0030318BF012300E00023C07910F0030018BF012003E00023B3
:206F800001E00020034601B10B601AB1106030BD0020D2E730BD37B50D46044600210622CA
:206FA0002846FFF7E1FC637DD9075CBF01232B70237E012B0DD8E37D9A0708D0637E9B07E8
:206FC00005D0E28BA38B9A4201D1012300E00023237501AA694604F11000FFF789FF009B5C
:206FE0000BB10223EB70019B0BB102236B70E37D03F00303022B03D0032B0CBF082300235D
:20700000AB70637E03F00303022B03D0032B0CBF082300232B7103B030BD02280CBF0223DE
:2070200008230B448B4205D013F8012DFF2AF9D0002070470120704707B56946FFF7ABFF4F
:207040009DF800009DF80130023018449DF802309DF8032018449DF80430104403449DF873
:207060000500184403B05DF804FB837810B544781B01E40003F0100304F008041C43C2788D
:207080000378520103F00703234302F020021A4303799B0103F0400313430B704379427AB7
:2070A000847903F0010343EA8213C279640004F002049200234302F00C021A43037A1B0193
:2070C00003F0300313434B7010BDF7B504460D466946FFF760FF04F110002946FFF7C5FF31
:2070E0009DF80030012B02BFA37E0320AB709DF8013018BF0220022B08D1A28B431C2A54B0
:20710000A28BDBB20230120AC0B2EA5401469DF80230E218A24205D012F8017D4E1C6F5441
:20712000F1B2F7E718449DF80330C0B2022B08D1E28B431C2A54E28BDBB20230120AC0B22E
:20714000EA549DF804301844C0B2C21AD2B223B1013BE118097AA954F7E703B0F0BD1FB55F
:2071600002461378084603F007018DF80410C3F3C0018DF80510C3F300118DF80610C3F331
:207180004011C3F380138DF8083053788DF8071003F001028DF80920C3F340028DF80A20E6
:2071A000C3F381028DF80B20C3F301128DF80C209B090A2201A98DF80D30FFF75FFB05B02B
:2071C0005DF804FB08B5084612B11146FFF794FC002008BD10B50446FFF786FC204610BD11
:2071E0000120704710B50446FBF7B8F92046FBF7D1F90446FBF7C8F9E0B210BD08B53D206D
:20720000FFF7F0FF00F0700008BD38B504460D46FBF7A4F914F43C5FE4B202D02F20FBF7FF
:20722000B9F92046FBF7B6F92846FBF7B3F90446FBF7AAF9E0B238BD10B50446FBF78EF99B
:2072400014F43C5F04D0AF20FBF7A4F9E0B202E064F07F00C0B2FBF79DF90020FBF79AF973
:207260000446FBF791F9E0B210BD0C2805D1042A05D121B1002008607047012070470220D0
:20728000704710B5FBF73EFAFFF7B8FFB8B1602801D13A2002E0702802D13B20FFF7A2FF3F
:2072A0003620FFF79FFFFBF799FB6FF4A374241AFFF7A4FF18B1FBF791FBC442F8D410BD27
:2072C00038B50D460446FBF749F9FF20FBF762F92A4620460021FBF76FF9BDE83840FBF724
:2072E00053B938B50D460446FBF738F97F20FBF751F92A4621460020FBF75EF9BDE838409D
:20730000FBF742B910B50C46FEF742F920B92046BDE81040FEF754BC10BDFEF783BF704745
:207320000020704770470120704701207047012070470020704700207047704770470020FB
:20734000704700207047012070470120704770477047704700207047002070477047000065
:2073600041762000CD222000312320000000000091762000B9272000F1272000816A200049
:2073800001000000010000000100000000C0004000410D4000000000080000002C00000028
:2073A00000000001FFFFFFFF0500000002000000020000000200000000D0004008410D401F
:2073C00002000000080000002C00000002010200FFFFFFFF060000000080004010410D4012
:2073E000040000000300000002010201010103000090004020410D400800000007000000EE
:207400000202040205020600C3762000216B2000196B20001D6B2000D77620005D6B2000AF
:20742000556B2000596B2000EB6E2000E56E2000CD6D20001E79200034752000D0000000F2
:207440006606000047010000350000000D00000000000000952B0D00400D030000210EA545
:20746000AF00000050C3000004762000B15C200091552000C15B200005732000295520000B
:20748000295B200061542000B9532000FD532000E5572000FD5920006D5920006B72200022
:2074A000E1712000507920001D5F20001B7320003D5F2000C95E2000D55E2000E15E200072
:2074C000FD77200085632000DD63200091632000557920005D7320001F7320005573200024
:2074E00059732000437320002173200025732000477320004B7320004F73200051732000E0
:20750000277320002B7320002F73200033732000377320003B732000537320003D7320001D
:207520003F732000784100200000000000000000000000000100060004006E0005004E00D4
:207540000600900007004E000800E500090023000A0047000B000B000C0056000D00190038
:207560000E00BA000F00C8001000840011004200120005001300940014007A001500E10043
:20758000160027001700F1001B0011001C0090001D000000200012002600240028002000ED
:2075A0002E00FF00002F1800022F0300052F02000C2F56000D2FCC000E2FCC00102FEE001E
:2075C000112F1000122F0400132F5000162F4000172F0E00192F03001B2F33001C2FF700A1
:2075E0001D2F0F001F2F0000202F6E00212F1C00222FAC00272FB5002F2F0500322F0E00DF
:20760000362F030008078000D80E6C07D007B80BB80BB004C000200D4051E47A504D31302F
:207620002073656E736F723A206661696C65642072657472696576696E6720646174610AAE
:2076400000504D31302053656E736F72005A6F756C00494E464F005B252D34733A20252DBC
:207660003130735D20005A6F6C65727469612052452D4D6F7465207265766973696F6E2047
:207680004120706C6174666F726D001D001C001B004144432073656E736F7220696E74657E
:2076A0007266616365005573657220627574746F6E00636332353338205246206472697649
:2076C0006572004F6E2D436869702054656D70657261747572650056444433004D61696E21
:2076E000005374617274696E6720436F6E74696B692D4E472D72656C656173652F76342E76
:20770000372D36382D676538636533353133382D64697274790A002D20526F7574696E6702
:207720003A2025730A002D204E65743A2025730A002D204D41433A2025730A002D2038300E
:20774000322E31352E342050414E49443A203078253034780A002D203830322E31352E348B
:207760002044656661756C74206368616E6E656C3A2025750A004E6F64652049443A20257B
:20778000750A004C696E6B2D6C6179657220616464726573733A2000284E554C4C204C4C17
:2077A000206164647229002E0025303278004C4C2D4E554C4C004C4C2D2530347800616C25
:2077C0006C004E2F41004E6F6E65004572726F7273005761726E696E677300496E666F009D
:2077E00044656275670072706C007463706970006970763600366C6F7770616E006E756C99
:207800006C6E6574006D6163006672616D65720036746F7000636F617000736E6D70006CB1
:20782000776D326D006D61696E004576656E742074696D6572004374696D65722070726F08
:207840006365737300537461636B0045525200436865636B20696E20696E636F6E73697340
:2078600074656E742073746174653A20256C642076732E20256C640A00436865636B206603
:2078800061696C65643A20256C642076732E20256C640A00537461636B20636865636B0030
:2078A00053656E736F727300427574746F6E2048414C2070726F6365737300536572696157
:2078C0006C2064726976657200202020202020202020202020202020203030303030303040
:2078E000303030303030303030303132333435363738394142434445460030313233343507
:2079000036373839616263646566003078003058002D002B00286E756C6C29002500383013
:20792000322E31352E3467203836332D3837304D487A204D522D46534B206D6F6465202344
:207940003100434331323030206472697665720043534D41006E756C6C726F7574696E671A
:207960000073697A656F662862756666657229203D2025640A00504D31302076616C756561
:20798000203D2025752070706D0A00627566325B315D203D20257520627566325B325D2051
:2079A0003D202575200A000A6E756C6C6E657420627566666572203D20256420256420250C
:2079C00064200A20004448543232207465737400000000007D6A20000011000000000000BD
:2079E000000000000000000000000000000000000000000000000000000000000000000087
:207A000000000000000000000000000000000000000000000000000000000000A67620002A
:207A20000103000001000000000000004C400020000000001874200008742000000000004D
:207A400000000000B2762000A13420000000000003000000000000002A782000793A200051
:207A6000000000000000000036782000C13B20000000000000000000947820000D40200083
:207A80000000000000000000A0782000B94020000000000000000000A8782000654220008E
:207AA0000000000000000000BB782000494420000000000004000800214D0020A443002025
:207AC000AC000800194D00209A460020C5712000000000000000000042792000155E2000A8
:207AE000000000000C0008003B4E0020504500200C000800334E0020B4450020380002000C
:1B7B0000444E00201446002000000000C57920001964200000000000CDAB02C9
:087B1C000CEAFF7F01000000EC
:020000040027D3
:20FFD400FFFFFFF30000000000202000FFFFFFFFFFFFFFFFFFFFFFFFFFFFFFFFFFFFFFFFF1
:0CFFF400FFFFFFFFFFFFFFFFFFFFFFFF0D
:040000050027FFD4FD
:00000001FF
